:020000040000FA
:100000000C945D000C9485000C9485000C94850084
:100010000C9485000C9485000C9485000C9485004C
:100020000C9485000C9485000C9485000C9485003C
:100030000C9485000C9485000C9485000C9485002C
:100040000C943D060C9485000C940B060C94E5056D
:100050000C9485000C9485000C9485000C9485000C
:100060000C9487060C9485000000000024002700F3
:100070002A0000000000250028002B0004040404CE
:100080000404040402020202020203030303030342
:10009000010204081020408001020408102001021F
:1000A00004081020000000080002010000030407FB
:1000B0000000000000000000A60711241FBECFEFC3
:1000C000D8E0DEBFCDBF11E0A0E0B1E0E4E0FFE1A9
:1000D00002C005900D92A439B107D9F723E0A4E935
:1000E000B1E001C01D92AC35B207E1F710E0CDE5FB
:1000F000D0E004C02197FE010E947A0FCC35D107D1
:10010000C9F70E94ED070C94800F0C94000008952D
:100110000895AF92BF92CF92DF92EF92FF920F932A
:100120001F93CF93DF936C017B018B01040F151F8D
:10013000EB015E01AE18BF08C017D10759F06991F5
:10014000D601ED91FC910190F081E02DC601099559
:10015000892B79F7C501DF91CF911F910F91FF9006
:10016000EF90DF90CF90BF90AF900895FC01538D3A
:10017000448D252F30E0842F90E0821B930B541781
:1001800010F0CF96089501970895FC01918D828D0E
:10019000981761F0A28DAE0FBF2FB11D5D968C91A7
:1001A000928D9F5F9F73928F90E008958FEF9FEFE6
:1001B0000895FC01918D828D981731F0828DE80FA2
:1001C000F11D858D90E008958FEF9FEF0895FC015C
:1001D000918D228D892F90E0805C9F4F821B910929
:1001E0008F739927089583E892E00E94E70021E049
:1001F000892B09F420E0822F089580E090E0892B7C
:1002000029F00E94F30081110C9400000895FC0174
:10021000A48DA80FB92FB11DA35ABF4F2C91848D67
:1002200090E001968F739927848FA689B7892C93C4
:10023000A089B1898C91837080648C93938D848D17
:10024000981306C00288F389E02D80818F7D80831A
:100250000895EF92FF920F931F93CF93DF93EC01DA
:1002600081E0888F9B8D8C8D98131AC0E889F9895D
:10027000808185FF15C09FB7F894EE89FF89608360
:10028000E889F98980818370806480839FBF81E0E1
:1002900090E0DF91CF911F910F91FF90EF90089523
:1002A000F62E0B8D10E00F5F1F4F0F731127E02EFE
:1002B0008C8D8E110CC00FB607FCFACFE889F98936
:1002C000808185FFF5CFCE010E940701F1CFEB8D34
:1002D000EC0FFD2FF11DE35AFF4FF0829FB7F8940A
:1002E0000B8FEA89FB8980818062CFCFCF93DF9328
:1002F000EC01888D8823B9F0AA89BB89E889F9893E
:100300008C9185FD03C0808186FD0DC00FB607FC72
:10031000F7CF8C9185FFF2CF808185FFEDCFCE01A5
:100320000E940701E9CFDF91CF91089590E0FC0191
:10033000EC55FF4F2491FC01E057FF4F3491FC0135
:10034000E458FF4FE491EE23C9F0222339F0233023
:1003500001F1A8F4213019F1223029F1F0E0EE0F7B
:10036000FF1FEE58FF4FA591B4918FB7F894EC9111
:10037000611126C030953E233C938FBF08952730EE
:10038000A9F02830C9F0243049F7809180008F7D92
:1003900003C0809180008F7780938000DFCF84B589
:1003A0008F7784BDDBCF84B58F7DFBCF8091B0008C
:1003B0008F778093B000D2CF8091B0008F7DF9CF3E
:1003C0003E2BDACFCF93DF9390E0FC01E057FF4F55
:1003D000249184589F4FFC0184918823D1F090E0B0
:1003E000880F991FFC01E859FF4FA591B491FC01BA
:1003F000EE58FF4FC591D49161110EC09FB7F8948C
:100400008C91E22FE0958E238C932881E223E88360
:100410009FBFDF91CF9108958FB7F894EC91E22BB5
:10042000EC938FBFF6CF3FB7F8948091F90190918C
:10043000FA01A091FB01B091FC0126B5A89B05C073
:100440002F3F19F00196A11DB11D3FBFBA2FA92F53
:10045000982F8827BC01CD01620F711D811D911D50
:1004600042E0660F771F881F991F4A95D1F70895BC
:100470008F929F92AF92BF92CF92DF92EF92FF92B4
:100480004B015C010E9413026B017C010E9413026C
:100490006C197D098E099F09683E7340810591059D
:1004A000A8F321E0821A9108A108B10888EEC80ECD
:1004B00083E0D81EE11CF11C81149104A104B10455
:1004C00029F7FF90EF90DF90CF90BF90AF909F9073
:1004D0008F9008952091D501260F3327331F2132A5
:1004E0003105ECF420915902FC0190E080E02430C9
:1004F00069F082E00895A091D5012191AC014B549F
:100500005E4FA40FB52FB11D2C930196861798F35B
:100510008091D501680F6093D50180E0089581E056
:1005200008951092590281E080935802109233028C
:1005300061E082E10E94960161E083E10E94960100
:10054000E9EBF0E080818E7F808380818D7F8083E6
:1005500088E48093B80085E48093BC000895CF932D
:10056000DF9391E09093B4018823B9F0C091B80073
:10057000D091BA008091BC008A7B8093BC0060E07F
:1005800082E10E94960160E083E10E9496010E9450
:100590009102D093BA00C093B800DF91CF91089533
:1005A0008F929F92AF92BF92CF92DF92EF92FF9283
:1005B0000F931F93CF93DF93D0918202D13208F033
:1005C000D7C0182FC09181020E9413026B017C01D9
:1005D0008091590281116BC082E08093590210937F
:1005E00058028FEF8093570210925602D093550213
:1005F000A1E6B2E0E5E3F2E080E0D81391C010920A
:10060000340280913402CC0FC82BC0933402809105
:100610003302813009F088C0109233020E94130225
:100620006B017C01809134028093BB0080915B025E
:1006300090915C02A0915D02B0915E02892B8A2BA1
:100640008B2BA1F00E94130200915B0210915C02BF
:1006500020915D0230915E026C197D098E099F091F
:10066000061717072807390708F442C08091BC0015
:1006700083FDD8CF85EC8093BC000E9413026B01F0
:100680007C0180915902823009F450C08091570258
:100690008F3F09F46FC080915702803209F46CC01B
:1006A00080915702803309F469C084E026C08091AC
:1006B0005B0290915C02A0915D02B0915E02892B79
:1006C0008A2B8B2B09F484CF0E94130280905B024B
:1006D00090905C02A0905D02B0905E026C197D0962
:1006E0008E099F0986169706A806B90608F070CFEE
:1006F00080915A020E94AF0285E01092600210922F
:10070000820210925F02DF91CF911F910F91FF90B3
:10071000EF90DF90CF90BF90AF909F908F90089513
:100720009D9191938F5F69CF85EEA5CF80915B02FC
:1007300090915C02A0915D02B0915E02892B8A2BA0
:100740008B2B09F49ECF0E94130200915B02109143
:100750005C0220915D0230915E026C197D098E0968
:100760009F09061717072807390708F08ACFC0CF57
:1007700081E0C3CF80E0C1CF82E0BFCF83E0BDCFB7
:100780000895E091020280910102E81730F4F0E050
:10079000EC56FE4F808190E008958FEF9FEF089513
:1007A00090910202809101022FEF3FEF981748F4D9
:1007B000E92FF0E0EC56FE4F208130E09F5F9093F0
:1007C0000202C90108958091010290910202891BE1
:1007D000990B0895CF92DF92EF92FF920F931F93A0
:1007E000CF93DF937C01CB018A0120915F0222230A
:1007F00089F0EB016B01C40ED51ECC15DD0569F047
:100800006991D701ED91FC910190F081E02DC70134
:100810000995F3CF642F0E946A02C801DF91CF913E
:100820001F910F91FF90EF90DF90CF900895CF939D
:10083000DF931F92CDB7DEB7698320915F02222339
:10084000F9F020918202203258F021E030E0FC01E2
:100850003383228390E080E00F90DF91CF91089561
:1008600080916002E82FF0E0EF59FD4F998190836D
:100870008F5F809360028093820281E090E0ECCFF2
:1008800061E0CE0101960E946A02F7CF90E080E01D
:10089000089591E090935F0290E790938102109207
:1008A00060021092820261E070E001C0660F8A95DA
:1008B000EAF780E293E00E94170481E00C94D002F2
:1008C000FC0101900020E9F73197AF01481B590B5B
:1008D000BC0183E892E00C9489008F929F92AF92C2
:1008E000BF920F931F93CF93DF93CDB7DEB7A1973E
:1008F0000FB6F894DEBF0FBECDBF19A2423008F488
:100900004AE08E010F5D1F4F842E912CB12CA12C3B
:10091000A50194010E94580FE62FB901CA01EA30DF
:10092000F4F4E05DD801EE938D01232B242B252BCD
:1009300079F790E080E0109719F0CD010E946004F3
:10094000A1960FB6F894DEBF0FBECDBFDF91CF9159
:100950001F910F91BF90AF909F908F900895E95C89
:10096000E1CFCF92DF92EF92FF920F931F93CF933D
:1009700081E080935F0286E380938102109260029F
:10098000109282026CE080E293E00E94170480E003
:100990000E94D002C82F80E391E0C111D5C00E940F
:1009A00013026B017C0180915902811163C081E0C7
:1009B00080935902809358029FEF909357021092B0
:1009C00056028093550280933402809134028C66E3
:1009D0008093340280913302813009F08DC01092EF
:1009E00033020E9413026B017C01809134028093D8
:1009F000BB0080915B0290915C02A0915D02B0917E
:100A00005E02892B8A2B8B2BA1F00E94130200918E
:100A10005B0210915C0220915D0230915E026C19C4
:100A20007D098E099F09061717072807390708F45B
:100A300042C08091BC0083FDD8CF85EC8093BC0080
:100A40000E9413026B017C0180915902813009F4EC
:100A500055C080915602823008F072C080915602D3
:100A6000A5E3B2E0E4E9F1E0C81749F19D91919363
:100A7000CF5FFACF80915B0290915C02A0915D0202
:100A8000B0915E02892B8A2B8B2B09F48CCF0E94AC
:100A9000130200915B0210915C0220915D02309183
:100AA0005E026C197D098E099F0906171707280732
:100AB000390708F078CF80915A020E94AF02109255
:100AC0000202C0930102C230E8F180E293E00E948A
:100AD000D003C82F80E293E00E94D00320E03C2F97
:100AE000A901482BCA019F70CF911F910F91FF90D0
:100AF000EF90DF90CF90089585EEA0CF80915B02BC
:100B000090915C02A0915D02B0915E02892B8A2BCC
:100B10008B2B09F499CF0E94130200915B02109174
:100B20005C0220915D0230915E026C197D098E0994
:100B30009F09061717072807390708F085CFBBCF8D
:100B400082E08ECF83E591E00E94600480E591E031
:100B50000E94600490E080E0C7CF85ED8093BC00E8
:100B600080915B0290915C02A0915D02B0915E0267
:100B70000796A11DB11D23E0B695A795979587957A
:100B80002A95D1F72091BC0024FD03C01092590290
:100B9000089540915B0250915C0260915D027091FA
:100BA0005E02452B462B472B69F30097A105B10543
:100BB00041F02AE22A95F1F700C00197A109B10995
:100BC000E1CF80915A020C94AF021F920F920FB6A0
:100BD0000F9211242F933F934F935F936F937F93C3
:100BE0008F939F93AF93BF93EF93FF9383E892E02C
:100BF0000E940701FF91EF91BF91AF919F918F915B
:100C00007F916F915F914F913F912F910F900FBE08
:100C10000F901F9018951F920F920FB60F921124EC
:100C20002F938F939F93EF93FF93E0919302F09113
:100C300094028081E0919902F0919A0282FD1BC09A
:100C4000908180919C028F5F8F7320919D0282170B
:100C500041F0E0919C02F0E0ED57FD4F958F8093BD
:100C60009C02FF91EF919F918F912F910F900FBE5A
:100C70000F901F9018958081F4CF1F920F920FB69E
:100C80000F9211242F933F938F939F93AF93BF9312
:100C90008091030290910402A0910502B091060296
:100CA0003091F80123E0230F2D3758F50196A11D4F
:100CB000B11D2093F8018093030290930402A09346
:100CC0000502B09306028091F9019091FA01A0917A
:100CD000FB01B091FC010196A11DB11D8093F901AA
:100CE0009093FA01A093FB01B093FC01BF91AF91E7
:100CF0009F918F913F912F910F900FBE0F901F905A
:100D0000189526E8230F0296A11DB11DD2CF1F9280
:100D10000F920FB60F9211242F933F934F935F932F
:100D20006F937F938F939F93AF93BF93EF93FF93B3
:100D30008091B900887F803609F44AC0F0F5883286
:100D400009F4A7C018F5803109F49BC0B8F48823D2
:100D500009F4F9C0883009F494C0FF91EF91BF9174
:100D6000AF919F918F917F916F915F914F913F9143
:100D70002F910F900FBE0F901F901895883109F496
:100D800088C0803251F78093570214C0803409F430
:100D90009DC040F48033B9F38833F9F6809357024D
:100DA00085ECB0C0803509F485C0883509F496C05B
:100DB000883499F60E94AD05D0CF883909F48CC0EB
:100DC00038F5883729F050F4883611F0803729F645
:100DD00083E0809359021092F70157C0883809F4D4
:100DE0007BC0803919F0803809F0B7CF8091F701C6
:100DF000803208F071C0E091F70181E08E0F80939E
:100E0000F7018091BB00F0E0E952FE4F80833DC0C6
:100E1000803B39F0E0F4803A09F479C0883A09F06F
:100E20009CCF84E0809359021092D6011092D50194
:100E3000E091FF01F091000209958091D5018111A7
:100E40000FC081E08093D5011092B50109C0803CAC
:100E500009F4A6CF883C09F4A3CF883B09F07DCFE5
:100E6000E091D60181E08E0F8093D601F0E0EB5443
:100E7000FE4F80818093BB009091D6018091D50177
:100E800029C0809134028093BB0085EC8093BC0024
:100E900064CF9091560280915502981758F5E091D1
:100EA000560281E08E0F80935602F0E0EB5CFD4F1E
:100EB0008081E9CFE091560281E08E0F8093560247
:100EC0008091BB00F0E0EB5CFD4F80839091560277
:100ED000809155029817C8F285E8D8CFE091560264
:100EE00081E08E0F809356028091BB00F0E0EB5CB6
:100EF000FD4F80838091580281115CCF81E0809307
:100F0000330284EA8093BC001092590226CF85EC0C
:100F10008093BC00109259028091F701803230F426
:100F2000E091F701F0E0E952FE4F10826091F70185
:100F300070E0E091FD01F091FE0187ED91E00995EF
:100F40001092F7010ACF1092570234CFE3E8F2E093
:100F50001382128288EE93E0A0E0B0E08483958350
:100F6000A683B78320E131E03183208325EC30E094
:100F70003587248724EC30E03787268720EC30E063
:100F8000318B208B21EC30E0338B228B22EC30E054
:100F9000358B248B26EC30E0378B268B118E128E0E
:100FA000138E148EE0E2F3E0138212828483958321
:100FB000A683B78382E291E091838083ECE2F3E041
:100FC0001486158616861786148E158E168E178E25
:100FD00014A615A616A617A60895CF93DF93CDB72E
:100FE000DEB766970FB6F894DEBF0FBECDBF78941C
:100FF00084B5826084BD84B5816084BD85B582601E
:1010000085BD85B5816085BD80916E0081608093CE
:101010006E00109281008091810082608093810037
:101020008091810081608093810080918000816047
:10103000809380008091B10084608093B1008091A2
:10104000B00081608093B00080917A0084608093CA
:101050007A0080917A00826080937A0080917A0091
:10106000816080937A0080917A00806880937A0012
:101070001092C100E0919302F091940282E080838B
:10108000E0918F02F09190021082E0919102F09134
:10109000920280E1808310929B02E0919702F0918E
:1010A000980286E08083E0919502F091960280811B
:1010B00080618083E0919502F09196028081886042
:1010C0008083E0919502F091960280818068808310
:1010D000E0919502F091960280818F7D808360E09F
:1010E00083E00E94E20161E084E00E94E20161E0AD
:1010F00085E00E94E20161E086E00E94E20161E099
:1011000087E00E94E20161E088E00E94E20161E084
:1011100089E00E94E20161E08AE00E94E20161E070
:101120008BE00E94E20160E08CE00E94E20160E05E
:101130008DE00E94E20110920202109201021092D0
:101140006002109282020E94910287E890E09093E0
:1011500000028093FF0188E890E09093FE01809365
:10116000FD013BE0E32E32E0F32E2CE233E03A8344
:10117000298310E000E0C8010E9449046AE070E0A1
:1011800080E090E00E9438020E94B104BC0190E02F
:1011900080E00E942F0EA981BA816D937D938D937B
:1011A0009C9313972FB7F8948091030290910402B7
:1011B000A0910502B09106022FBFE981FA818483D4
:1011C0009583A683B7831086118612861386F7014E
:1011D0001082118212821382148215821682178263
:1011E0000F5F1F4FE981FA817096FA83E983F8E077
:1011F000EF0EF11C0330110509F0BDCF8DED94E227
:10120000AEE3B2E48093000190930101A093020148
:10121000B093030183E29BEDA1E0B2E4809304016B
:1012200090930501A0930601B093070180930801F4
:1012300090930901A0930A01B0930B0120E031E0E3
:101240003A832983812C912C54018BE791E00E94F1
:1012500060044AE0C501B4010E946D0485E891E094
:101260000E946004A981BA81CD90DD90ED90FD903F
:10127000BA83A983A7019601C701B6010E94530F43
:10128000882309F45EC188E891E00E94600480E54B
:1012900091E00E946004BFEF8B1A9B0AAB0ABB0A65
:1012A000E3E08E169104A104B10479F683E892E09C
:1012B0000E94E700181619064CF483E892E00E9499
:1012C000C5008F3F19F4F1E0F093320280913202B1
:1012D0008823A1F120912F02309130023A83298393
:1012E000809131028111BFC161E086E00E949601C8
:1012F00061E087E00E94960161E070E080E090E0AC
:101300000E94380260E087E00E94960149815A817C
:101310004F5F5F4F5093300240932F0280912F0216
:1013200090913002019781349E4040F080913102CB
:10133000B1E08B2780933102109232028FB7F8947C
:10134000209103023091040240910502509106025F
:101350002D833E834F8358878FBF809107029091E2
:101360000802A0910902B0910A02281B390B4A0B0E
:101370005B0BDA01C9010A97A105B10508F4FEC1AA
:101380008D819E81AF81B88580930702909308027A
:10139000A0930902B0930A0223E2222E22E0322E09
:1013A000ACE2B3E0BE87AD8710E000E0C8010E9468
:1013B00049040E94B1047C01ED85FE8584819581FC
:1013C000A681B7812D813E814F815885281B390B1D
:1013D0004A0B5B0BCA01B9010E942F0E20E030E0DE
:1013E0004AE754E40E94870D69837A838B839C8348
:1013F000B70190E080E00E942F0E20E030E040E84E
:1014000059E30E94E60E69877A878B879C87AD85B2
:10141000BE85CD90DD90ED90FC909B01AC01C701A5
:10142000B6010E94150D2FE632E143E85AE30E940F
:10143000E10E181674F420E030E040E85FE3C701E5
:10144000B6010E94150DED85FE8560837183828350
:101450009383AD85BE851896CD90DD90ED90FC9080
:101460001B9729E73AE745EA5BE369817A818B813B
:101470009C810E94E10E18160CF048C0ED85FE8597
:10148000208131814281538169857A858B859C8554
:101490000E94150D2B013C0129813A814B815C8111
:1014A0000E94870D4B015C0120E030E04CED52E4DE
:1014B0000E94820D87FF2AC029E23CE54FE85DE3E8
:1014C000C301B2010E94E10E181604F5A7019601AE
:1014D000C501B4010E94150D29813A814B815C81BF
:1014E0000E94870D2B013C0120E030E0A9010E9401
:1014F000E10E18160CF0D1C020E030E04AEF55E4C0
:10150000C301B2010E94820D87FDD2C020E030E00D
:10151000A901C701B6010E94E10E20E030E040E8D9
:101520005FE318161CF020E030E0A901C701B60106
:101530000E94150DED85FE856087718782879387F0
:10154000BFC026013701E89477F82FEF3FEF4FE750
:101550005FE7C301B2010E94530F81110DC02FEF4D
:101560003FEF4FE75FE7C301B2010E94820D1816FB
:101570001CF48CE891E089CE2FEF3FEF4FE75FE45A
:10158000C701B6010E94E10E18161CF480E991E033
:101590007CCE2FEF3FEF4FE75FECC701B6010E9413
:1015A000820D87FDF3CF20E030E0A901C701B6012D
:1015B0000E94820D87FF09C06DE283E892E00E94DD
:1015C0002901F7FAF094F7F8F0942AE037ED43EAAE
:1015D0005BE3C701B6010E94160D2B013C010E947E
:1015E000000E6B017C010E942F0E9B01AC01C30118
:1015F000B2010E94150D2B013C014AE0C701B60162
:101600000E946D046EE283E892E00E94290120E0CE
:1016100030E040E251E4C301B2010E94E60E2B012A
:101620003C010E94000E6B01F12CE12C4AE0C70145
:10163000B6010E946D04C701B6010E942F0E9B01E6
:10164000AC01C301B2010E94150D20E030E040E280
:1016500051E40E94E60E0E94000E90E080E04AE015
:101660000E946D0414CE60E086E00E94960161E065
:1016700087E00E94960161E070E080E090E00E94C7
:10168000380260E087E00E94960189819A81019783
:101690009093300280932F0241CE20E030E04AEF59
:1016A00055ECC301B2010E94E10E18160CF02ECFCA
:1016B000AD85BE8518968D929D92AD92BC921B977A
:1016C000AD85BE851896CD90DD90ED90FC901B9772
:1016D00020E030E0A901C701B6010E94E10E181612
:1016E0000CF01EC126E636E646E65FE3ED85FE8594
:1016F00064857585868597850E94E60E4B015C01A1
:101700002DEC3CEC4CEC5DE3C701B6010E94E60E0B
:101710009B01AC01C501B4010E94160DAD85BE85CB
:101720001C966D937D938D939C931F9729853A8585
:101730004B855C852D933D934D935C9313972D8141
:101740003E814F81588514962D933D934D935C9324
:101750001797D10129813A814B815C812D933D936B
:101760004D935D931D010F5F1F4FED85FE857096B4
:10177000FE87ED870330110509F018CE23E232E031
:101780003A87298794EA292E90E0392E4BE052E0DF
:101790005E8B4D8B80E091E09E838D83ACE2B3E065
:1017A000BA83A98319E0E985FA8541905190619047
:1017B0007190FA87E987AD81BE816D917D918D91A0
:1017C0009D91BE83AD83E981FA8124853585468567
:1017D00057850E94150D6B017C0120E030E040EA46
:1017E00051E40E94E60E6D877E878F87988BA70154
:1017F0009601C301B2010E94E60EAD89BE892D910A
:101800003D914D915C910E94160D4B015C0124EBC2
:101810003DE74EEF53E40E94E10E18160CF484C02D
:10182000ED89FE8980829182A282B38224EB3DE71A
:101830004EEF53ECAD89BE896D917D918D919C9158
:101840000E94820D87FF0AC084EB9DE7AEEFB3ECE8
:10185000ED89FE8980839183A283B38320E030E009
:1018600040E05FE3AD89BE896D917D918D919C9142
:101870000E94E60E698B7A8B8B8B9C8BED89FE899F
:101880002481358146815781C701B6010E94150D1B
:1018900020E030E040EA50E40E94E60EA30192010D
:1018A0000E94870D4B015C01AD89BE891496CD92D3
:1018B000DD92ED92FC92179729893A894B895C89D0
:1018C0006D857E858F8598890E94160DA5019401EE
:1018D0000E94160D6B017C0120E030E040E751E4EE
:1018E0000E94820D87FD2BC020E030E04FE753E4DB
:1018F000C701B6010E94E10E18162CF1C701B6010E
:101900000E94F90D4B017B0161E0812F0E94E201F1
:1019100081149104F9F460E0812F0E94960146C081
:1019200060E070E0CB01FACE84EB9DE7AEEFB3E46C
:10193000ED89FE8980839183A283B38377CFC12C05
:10194000D12C7601DBCFC12CD12C8FE7E82E83E49C
:10195000F82ED4CFBFEF8B16910411F461E0DCCFE9
:10196000F1013996E491E33009F445C048F4E130DF
:10197000C9F0E230D9F1E0E8EE16F1047CF7CBCF04
:10198000E73009F442C0E83009F447C0E43099F781
:101990008091800080628093800090928B00809282
:1019A0008A0004C084B5806884BD87BC29813A81DF
:1019B000205F3F4F3A8329834D895E89485F5F4F9F
:1019C0005E8B4D8B1F5F5FEF251A350A1C3009F0C7
:1019D000EACE80E090E0892B09F468CC0E94F30005
:1019E000882309F463CC0E94000060CC84B5806237
:1019F00084BD88BCDBCF80918000806880938000AC
:101A00009092890080928800D1CF8091B000806848
:101A10008093B0008092B300C9CF8091B000806203
:101A20008093B0008092B400C1CF5058BB27AA2742
:101A30000E942D0D0C94A70E0E94990E38F00E9462
:101A4000A00E20F039F49F3F19F426F40C94960E62
:101A50000EF4E095E7FB0C94900EE92F0E94B80E6F
:101A600058F3BA17620773078407950720F079F4D3
:101A7000A6F50C94DA0E0EF4E0950B2EBA2FA02DDD
:101A80000B01B90190010C01CA01A0011124FF272B
:101A9000591B99F0593F50F4503E68F11A16F04026
:101AA000A22F232F342F4427585FF3CF4695379525
:101AB0002795A795F0405395C9F77EF41F16BA0BEA
:101AC000620B730B840BBAF09150A1F0FF0FBB1F98
:101AD000661F771F881FC2F70EC0BA0F621F731FE1
:101AE000841F48F4879577956795B795F7959E3F3E
:101AF00008F0B0CF9395880F08F09927EE0F9795CF
:101B0000879508950E946C0E08F481E008950E9464
:101B10009B0D0C94A70E0E94A00E58F00E94990EE7
:101B200040F029F45F3F29F00C94900E51110C9471
:101B3000DB0E0C94960E0E94B80E68F39923B1F355
:101B4000552391F3951B550BBB27AA2762177307E3
:101B5000840738F09F5F5F4F220F331F441FAA1F77
:101B6000A9F335D00E2E3AF0E0E832D09150504033
:101B7000E695001CCAF72BD0FE2F29D0660F771FE1
:101B8000881FBB1F261737074807AB07B0E809F0C7
:101B9000BB0B802DBF01FF2793585F4F3AF09E3F4C
:101BA000510578F00C94900E0C94DB0E5F3FE4F33B
:101BB000983ED4F3869577956795B795F7959F5F8F
:101BC000C9F7880F911D9695879597F90895E1E0DB
:101BD000660F771F881FBB1F621773078407BA073A
:101BE00020F0621B730B840BBA0BEE1F88F7E09595
:101BF00008950E94000E6894B1110C94DB0E0895B4
:101C00000E94C00E88F09F5798F0B92F9927B751BE
:101C1000B0F0E1F0660F771F881F991F1AF0BA9590
:101C2000C9F714C0B13091F00E94DA0EB1E0089506
:101C30000C94DA0E672F782F8827B85F39F0B93FF8
:101C4000CCF3869577956795B395D9F73EF4909543
:101C50008095709561957F4F8F4F9F4F0895E894C1
:101C600009C097FB3EF490958095709561957F4FE4
:101C70008F4F9F4F9923A9F0F92F96E9BB27939592
:101C8000F695879577956795B795F111F8CFFAF4A2
:101C9000BB0F11F460FF1BC06F5F7F4F8F4F9F4FD3
:101CA00016C0882311F096E911C0772321F09EE831
:101CB000872F762F05C0662371F096E8862F70E097
:101CC00060E02AF09A95660F771F881FDAF7880F71
:101CD0009695879597F90895990F0008550FAA0BC7
:101CE000E0E8FEEF16161706E807F907C0F012162F
:101CF0001306E407F50798F0621B730B840B950B32
:101D000039F40A2661F0232B242B252B21F4089586
:101D10000A2609F4A140A6958FEF811D811D089523
:101D200097F99F6780E870E060E008959FEF80EC8E
:101D3000089500240A941616170618060906089531
:101D400000240A9412161306140605060895092E97
:101D50000394000C11F4882352F0BB0F40F4BF2B06
:101D600011F460FF04C06F5F7F4F8F4F9F4F089546
:101D700057FD9058440F551F59F05F3F71F047953C
:101D8000880F97FB991F61F09F3F79F08795089521
:101D9000121613061406551FF2CF4695F1DF08C040
:101DA000161617061806991FF1CF8695710561055D
:101DB00008940895E894BB2766277727CB0197F905
:101DC00008950E946C0E08F48FEF08950E94F90E9A
:101DD0000C94A70E0E94990E38F00E94A00E20F0DD
:101DE000952311F00C94900E0C94960E11240C94E3
:101DF000DB0E0E94B80E70F3959FC1F3950F50E073
:101E0000551F629FF001729FBB27F00DB11D639FAC
:101E1000AA27F00DB11DAA1F649F6627B00DA11D52
:101E2000661F829F2227B00DA11D621F739FB00DF8
:101E3000A11D621F839FA00D611D221F749F332768
:101E4000A00D611D231F849F600D211D822F762F01
:101E50006A2F11249F5750409AF0F1F088234AF0DE
:101E6000EE0FFF1FBB1F661F771F881F915050404A
:101E7000A9F79E3F510580F00C94900E0C94DB0E58
:101E80005F3FE4F3983ED4F3869577956795B795D1
:101E9000F795E7959F5FC1F7FE2B880F911D9695EB
:101EA000879597F908950E946C0E880B990B0895F9
:101EB000A1E21A2EAA1BBB1BFD010DC0AA1FBB1F4E
:101EC000EE1FFF1FA217B307E407F50720F0A21BC0
:101ED000B30BE40BF50B661F771F881F991F1A942D
:101EE00069F760957095809590959B01AC01BD0157
:101EF000CF010895EE0FFF1F0590F491E02D099496
:101F0000F894FFCF00002042000020420000204251
:101F10000000000029018900B6007601E700C50035
:101F2000D900000000001704EA034604C003E303DD
:101F3000D003C1034572726F7220636F6D6D756E51
:101F400069636174696E67207769746820415335ED
:101F5000363030000D0A004661696C656420746F8C
:101F6000207265616420656E6F75676820627974A0
:101F700065732066726F6D204153353630300074C2
:101F80006172676574525053003A20006E616E00B2
:081F9000696E66006F766600C1
:107E0000112484B714BE81FFF0D085E080938100F7
:107E100082E08093C00088E18093C10086E0809377
:107E2000C20080E18093C4008EE0C9D0259A86E02C
:107E300020E33CEF91E0309385002093840096BBD3
:107E4000B09BFECF1D9AA8958150A9F7CC24DD24C4
:107E500088248394B5E0AB2EA1E19A2EF3E0BF2EE7
:107E6000A2D0813461F49FD0082FAFD0023811F036
:107E7000013811F484E001C083E08DD089C08234E0
:107E800011F484E103C0853419F485E0A6D080C0E4
:107E9000853579F488D0E82EFF2485D0082F10E0AE
:107EA000102F00270E291F29000F111F8ED06801E7
:107EB0006FC0863521F484E090D080E0DECF843638
:107EC00009F040C070D06FD0082F6DD080E0C81688
:107ED00080E7D80618F4F601B7BEE895C0E0D1E017
:107EE00062D089930C17E1F7F0E0CF16F0E7DF06D8
:107EF00018F0F601B7BEE89568D007B600FCFDCFD4
:107F0000A601A0E0B1E02C9130E011968C91119780
:107F100090E0982F8827822B932B1296FA010C0160
:107F200087BEE89511244E5F5F4FF1E0A038BF0790
:107F300051F7F601A7BEE89507B600FCFDCF97BE46
:107F4000E89526C08437B1F42ED02DD0F82E2BD052
:107F50003CD0F601EF2C8F010F5F1F4F84911BD097
:107F6000EA94F801C1F70894C11CD11CFA94CF0C13
:107F7000D11C0EC0853739F428D08EE10CD085E9AC
:107F80000AD08FE07ACF813511F488E018D01DD067
:107F900080E101D065CF982F8091C00085FFFCCF94
:107FA0009093C60008958091C00087FFFCCF809118
:107FB000C00084FD01C0A8958091C6000895E0E648
:107FC000F0E098E1908380830895EDDF803219F02E
:107FD00088E0F5DFFFCF84E1DECF1F93182FE3DFCA
:107FE0001150E9F7F2DF1F91089580E0E8DFEE27F6
:047FF000FF270994CA
:027FFE00040479
:00000001FF
