:020000040000FA
:100000000C945D000C9485000C9485000C94850084
:100010000C9485000C9485000C9485000C9485004C
:100020000C9485000C9485000C9485000C9485003C
:100030000C9485000C9485000C9485000C9485002C
:100040000C9400070C9485000C94CE060C94A80622
:100050000C9485000C9485000C9485000C9485000C
:100060000C944A070C94850000000000240027002F
:100070002A0000000000250028002B0004040404CE
:100080000404040402020202020203030303030342
:10009000010204081020408001020408102001021F
:1000A00004081020000000080002010000030407FB
:1000B0000000000000000000690811241FBECFEFFF
:1000C000D8E0DEBFCDBF11E0A0E0B1E0ECE9F0E2A6
:1000D00002C005900D92AE3CB107D9F723E0AEEC1B
:1000E000B1E001C01D92A639B207E1F710E0CDE5FD
:1000F000D0E004C02197FE010E944610CC35D10704
:10010000C9F70E94B0080C944C100C94000008959C
:100110000895AF92BF92CF92DF92EF92FF920F932A
:100120001F93CF93DF936C017B018B01040F151F8D
:10013000EB015E01AE18BF08C017D10759F06991F5
:10014000D601ED91FC910190F081E02DC601099559
:10015000892B79F7C501DF91CF911F910F91FF9006
:10016000EF90DF90CF90BF90AF900895FC01538D3A
:10017000448D252F30E0842F90E0821B930B541781
:1001800010F0CF96089501970895FC01918D828D0E
:10019000981761F0A28DAE0FBF2FB11D5D968C91A7
:1001A000928D9F5F9F73928F90E008958FEF9FEFE6
:1001B0000895FC01918D828D981731F0828DE80FA2
:1001C000F11D858D90E008958FEF9FEF0895FC015C
:1001D000918D228D892F90E0805C9F4F821B910929
:1001E0008F73992708958DEB92E00E94E70021E03C
:1001F000892B09F420E0822F089580E090E0892B7C
:1002000029F00E94F30081110C9400000895FC0174
:10021000A48DA80FB92FB11DA35ABF4F2C91848D67
:1002200090E001968F739927848FA689B7892C93C4
:10023000A089B1898C91837080648C93938D848D17
:10024000981306C00288F389E02D80818F7D80831A
:100250000895EF92FF920F931F93CF93DF93EC01DA
:1002600081E0888F9B8D8C8D98131AC0E889F9895D
:10027000808185FF15C09FB7F894EE89FF89608360
:10028000E889F98980818370806480839FBF81E0E1
:1002900090E0DF91CF911F910F91FF90EF90089523
:1002A000F62E0B8D10E00F5F1F4F0F731127E02EFE
:1002B0008C8D8E110CC00FB607FCFACFE889F98936
:1002C000808185FFF5CFCE010E940701F1CFEB8D34
:1002D000EC0FFD2FF11DE35AFF4FF0829FB7F8940A
:1002E0000B8FEA89FB8980818062CFCFCF93DF9328
:1002F000EC01888D8823B9F0AA89BB89E889F9893E
:100300008C9185FD03C0808186FD0DC00FB607FC72
:10031000F7CF8C9185FFF2CF808185FFEDCFCE01A5
:100320000E940701E9CFDF91CF91089590E0FC0191
:10033000EC55FF4F2491FC01E057FF4F3491FC0135
:10034000E458FF4FE491EE23C9F0222339F0233023
:1003500001F1A8F4213019F1223029F1F0E0EE0F7B
:10036000FF1FEE58FF4FA591B4918FB7F894EC9111
:10037000611126C030953E233C938FBF08952730EE
:10038000A9F02830C9F0243049F7809180008F7D92
:1003900003C0809180008F7780938000DFCF84B589
:1003A0008F7784BDDBCF84B58F7DFBCF8091B0008C
:1003B0008F778093B000D2CF8091B0008F7DF9CF3E
:1003C0003E2BDACFCF93DF9390E0FC01E057FF4F55
:1003D000249184589F4FFC0184918823D1F090E0B0
:1003E000880F991FFC01E859FF4FA591B491FC01BA
:1003F000EE58FF4FC591D49161110EC09FB7F8948C
:100400008C91E22FE0958E238C932881E223E88360
:100410009FBFDF91CF9108958FB7F894EC91E22BB5
:10042000EC938FBFF6CF3FB7F89480913302909151
:100430003402A0913502B091360226B5A89B05C0C2
:100440002F3F19F00196A11DB11D3FBFBA2FA92F53
:10045000982F8827BC01CD01620F711D811D911D50
:1004600042E0660F771F881F991F4A95D1F70895BC
:1004700020910F02260F3327331F21323105ECF470
:1004800020919302FC0190E080E0243069F082E04A
:100490000895A0910F022191AC0141515E4FA40F2C
:1004A000B52FB11D2C930196861798F380910F02FA
:1004B000680F60930F0280E0089581E00895109224
:1004C000930281E08093920210926D0261E082E1DA
:1004D0000E94960161E083E10E949601E9EBF0E061
:1004E00080818E7F808380818D7F808388E480936C
:1004F000B80085E48093BC000895CF93DF9391E02A
:100500009093EE018823B9F0C091B800D091BA0061
:100510008091BC008A7B8093BC0060E082E10E94F5
:10052000960160E083E10E9496010E945F02D093F1
:10053000BA00C093B800DF91CF9108958F929F9237
:10054000AF92BF92CF92DF92EF92FF920F931F93E1
:10055000CF93DF93D091BC02D13208F0D7C0182FCF
:10056000C091BB020E9413026B017C018091930237
:1005700081116BC082E080939302109392028FEFFF
:100580008093910210929002D0938F02ABE9B2E077
:10059000EFE6F2E080E0D81391C010926E028091F5
:1005A0006E02CC0FC82BC0936E0280916D02813019
:1005B00009F088C010926D020E9413026B017C0149
:1005C00080916E028093BB0080919502909196027B
:1005D000A0919702B0919802892B8A2B8B2BA1F0C6
:1005E0000E941302009195021091960220919702A9
:1005F000309198026C197D098E099F09061717071B
:100600002807390708F442C08091BC0083FDD8CF89
:1006100085EC8093BC000E9413026B017C018091E9
:100620009302823009F450C0809191028F3F09F407
:100630006FC080919102803209F46CC08091910268
:10064000803309F469C084E026C0809195029091BE
:100650009602A0919702B0919802892B8A2B8B2B3E
:1006600009F484CF0E941302809095029090960224
:10067000A0909702B09098026C197D098E099F098D
:1006800086169706A806B90608F070CF80919402E6
:100690000E947D0285E010929A021092BC02109294
:1006A0009902DF91CF911F910F91FF90EF90DF9012
:1006B000CF90BF90AF909F908F9008959D91919310
:1006C0008F5F69CF85EEA5CF8091950290919602BC
:1006D000A0919702B0919802892B8A2B8B2B09F459
:1006E0009ECF0E94130200919502109196022091D4
:1006F0009702309198026C197D098E099F0906179F
:1007000017072807390708F08ACFC0CF81E0C3CF89
:1007100080E0C1CF82E0BFCF83E0BDCF0895E091FC
:100720003C0280913B02E81730F4F0E0E253FE4FC8
:10073000808190E008958FEF9FEF089590913C02A3
:1007400080913B022FEF3FEF981748F4E92FF0E03C
:10075000E253FE4F208130E09F5F90933C02C9013D
:10076000089580913B0290913C02891B990B08955A
:10077000CF92DF92EF92FF920F931F93CF93DF936D
:100780007C01CB018A0120919902222389F0EB019F
:100790006B01C40ED51ECC15DD0569F06991D7013A
:1007A000ED91FC910190F081E02DC7010995F3CF07
:1007B000642F0E943802C801DF91CF911F910F91E1
:1007C000FF90EF90DF90CF900895CF93DF931F922B
:1007D000CDB7DEB76983209199022223F9F02091E9
:1007E000BC02203258F021E030E0FC013383228348
:1007F00090E080E00F90DF91CF91089580919A0270
:10080000E82FF0E0E556FD4F998190838F5F80934C
:100810009A028093BC0281E090E0ECCF61E0CE01CF
:1008200001960E943802F7CF90E080E0089591E0B1
:100830009093990290E79093BB0210929A021092C3
:10084000BC0261E070E001C0660F8A95EAF78AE5B4
:1008500093E00E94E50381E00C949E02FC0101906C
:100860000020E9F73197AF01481B590BBC018DEB14
:1008700092E00C9489008F929F92AF92BF920F9357
:100880001F93CF93DF93CDB7DEB7A1970FB6F89440
:10089000DEBF0FBECDBF19A2423008F44AE08E0180
:1008A0000F5D1F4F842E912CB12CA12CA50194011A
:1008B0000E942410E62FB901CA01EA30F4F4E05D89
:1008C000D801EE938D01232B242B252B79F790E073
:1008D00080E0109719F0CD010E942E04A1960FB66A
:1008E000F894DEBF0FBECDBFDF91CF911F910F9166
:1008F000BF90AF909F908F900895E95CE1CFCF9328
:10090000DF930E942E04EC0180E391E00E942E040C
:100910008C0F9D1FDF91CF9108954F925F926F9240
:100920007F928F929F92AF92BF92CF92DF92EF927F
:10093000FF920F931F93CF936B017C01742EAC0138
:100940009B010E941F10882399F083E391E0CF91CF
:100950001F910F91FF90EF90DF90CF90BF90AF90DD
:100960009F908F907F906F905F904F900C942E048B
:1009700046015701E894B7F82FEF3FEF4FE75FE7E5
:10098000C501B4010E941F1081110DC02FEF3FEF70
:100990004FE75FE7C501B4010E944E0E18161CF424
:1009A00087E391E0D4CF2FEF3FEF4FE75FE4C7013C
:1009B000B6010E94AD0F18161CF48BE391E0C7CF6F
:1009C0002FEF3FEF4FE75FECC701B6010E944E0EDD
:1009D00087FDF3CF20E030E0A901C701B6010E94F6
:1009E0004E0E10E000E087FF0AC06DE28DEB92E052
:1009F0000E9429018C01F7FAF094F7F8F094C0E016
:100A000060E070E080E09FE37C1641F020E030E0A1
:100A100040E251E40E94530ECF5FF6CFA70196014A
:100A20000E94E20D2B013C010E94CC0E4B015C01A7
:100A30004AE00E943B047C01E00EF11ECC23C1F190
:100A4000C501B4010E94FB0E9B01AC01C301B201C0
:100A50000E94E10D4B015C016EE28DEB92E00E9481
:100A60002901E80EF91EC15018F120E030E040E203
:100A700051E4C501B4010E94B20F2B013C010E9458
:100A8000CC0E4B01B12CA12C4AE0C501B4010E944F
:100A90003B04E80EF91EC501B4010E94FB0E9B0148
:100AA000AC01C301B2010E94E10D4B015C01DBCF3F
:100AB000C701CF911F910F91FF90EF90DF90CF90E2
:100AC000BF90AF909F908F907F906F905F904F906E
:100AD0000895CF93DF9342E00E948D04EC0180E300
:100AE00091E00E942E048C0F9D1FDF91CF910895FD
:100AF000CF92DF92EF92FF920F931F93CF9381E0FB
:100B00008093990286E38093BB0210929A0210921E
:100B1000BC026CE08AE593E00E94E50380E00E945D
:100B20009E02C82F8FE391E0C111D5C00E9413022D
:100B30006B017C0180919302811163C081E08093FD
:100B40009302809392029FEF9093910210929002F1
:100B500080938F0280936E0280916E028C668093E8
:100B60006E0280916D02813009F08DC010926D028D
:100B70000E9413026B017C0180916E028093BB0086
:100B80008091950290919602A0919702B09198025F
:100B9000892B8A2B8B2BA1F00E94130200919502C6
:100BA0001091960220919702309198026C197D095C
:100BB0008E099F09061717072807390708F442C04E
:100BC0008091BC0083FDD8CF85EC8093BC000E944F
:100BD00013026B017C0180919302813009F455C0AE
:100BE00080919002823008F072C080919002AFE64E
:100BF000B2E0EEECF1E0C81749F19D919193CF5F1F
:100C0000FACF8091950290919602A0919702B091AF
:100C10009802892B8A2B8B2B09F48CCF0E9413020C
:100C200000919502109196022091970230919802BE
:100C30006C197D098E099F090617170728073907C0
:100C400008F078CF809194020E947D0210923C02BD
:100C5000C0933B02C230E8F18AE593E00E949E0314
:100C6000C82F8AE593E00E949E0320E03C2FA90153
:100C7000482BCA019F70CF911F910F91FF90EF9069
:100C8000DF90CF90089585EEA0CF8091950290914E
:100C90009602A0919702B0919802892B8A2B8B2BF8
:100CA00009F499CF0E9413020091950210919602C7
:100CB00020919702309198026C197D098E099F0945
:100CC000061717072807390708F085CFBBCF82E042
:100CD0008ECF8FE591E00E947F0490E080E0CBCF43
:100CE00085ED8093BC008091950290919602A09131
:100CF0009702B09198020796A11DB11D23E0B69509
:100D0000A795979587952A95D1F72091BC0024FD4A
:100D100003C010929302089540919502509196025B
:100D20006091970270919802452B462B472B69F3EF
:100D30000097A105B10541F02AE22A95F1F700C01C
:100D40000197A109B109E1CF809194020C947D0231
:100D50001F920F920FB60F9211242F933F934F9330
:100D60005F936F937F938F939F93AF93BF93EF9313
:100D7000FF938DEB92E00E940701FF91EF91BF91ED
:100D8000AF919F918F917F916F915F914F913F9123
:100D90002F910F900FBE0F901F9018951F920F92DA
:100DA0000FB60F9211242F938F939F93EF93FF937E
:100DB000E091CD02F091CE028081E091D302F091DA
:100DC000D40282FD1BC090818091D6028F5F8F7309
:100DD0002091D702821741F0E091D602F0E0E3546F
:100DE000FD4F958F8093D602FF91EF919F918F9148
:100DF0002F910F900FBE0F901F9018958081F4CF08
:100E00001F920F920FB60F9211242F933F938F933F
:100E10009F93AF93BF9380913D0290913E02A0912A
:100E20003F02B09140023091320223E0230F2D3770
:100E300058F50196A11DB11D2093320280933D0209
:100E400090933E02A0933F02B09340028091330200
:100E500090913402A0913502B09136020196A11D05
:100E6000B11D8093330290933402A0933502B09366
:100E70003602BF91AF919F918F913F912F910F902B
:100E80000FBE0F901F90189526E8230F0296A11D04
:100E9000B11DD2CF1F920F920FB60F9211242F9334
:100EA0003F934F935F936F937F938F939F93AF93F2
:100EB000BF93EF93FF938091B900887F803609F448
:100EC0004AC0F0F5883209F4A7C018F5803109F45A
:100ED0009BC0B8F4882309F4F9C0883009F494C0A1
:100EE000FF91EF91BF91AF919F918F917F916F9102
:100EF0005F914F913F912F910F900FBE0F901F90D8
:100F00001895883109F488C0803251F78093910296
:100F100014C0803409F49DC040F48033B9F38833A1
:100F2000F9F68093910285ECB0C0803509F485C054
:100F3000883509F496C0883499F60E947006D0CF9F
:100F4000883909F48CC038F5883729F050F4883690
:100F500011F0803729F683E08093930210923102DA
:100F600057C0883809F47BC0803919F0803809F0FF
:100F7000B7CF80913102803208F071C0E091310228
:100F800081E08E0F809331028091BB00F0E0EF5E34
:100F9000FD4F80833DC0803B39F0E0F4803A09F496
:100FA00079C0883A09F09CCF84E080939302109234
:100FB000100210920F02E0913902F0913A02099565
:100FC00080910F0281110FC081E080930F02109277
:100FD000EF0109C0803C09F4A6CF883C09F4A3CFF7
:100FE000883B09F07DCFE091100281E08E0F809365
:100FF0001002F0E0E151FE4F80818093BB009091A0
:10100000100280910F0229C080916E028093BB0074
:1010100085EC8093BC0064CF9091900280918F0208
:10102000981758F5E091900281E08E0F809390021E
:10103000F0E0E159FD4F8081E9CFE091900281E03D
:101040008E0F809390028091BB00F0E0E159FD4F3C
:1010500080839091900280918F029817C8F285E862
:10106000D8CFE091900281E08E0F80939002809122
:10107000BB00F0E0E159FD4F808380919202811125
:101080005CCF81E080936D0284EA8093BC00109273
:10109000930226CF85EC8093BC001092930280913E
:1010A0003102803230F4E0913102F0E0EF5EFD4F2A
:1010B00010826091310270E0E0913702F0913802C5
:1010C00081E192E00995109231020ACF10929102CB
:1010D00034CFEDEBF2E01382128288EE93E0A0E0D1
:1010E000B0E084839583A683B78320E131E0318328
:1010F000208325EC30E03587248724EC30E03787E7
:10110000268720EC30E0318B208B21EC30E0338BD4
:10111000228B22EC30E0358B248B26EC30E0378BB1
:10112000268B118E128E138E148EEAE5F3E0138255
:10113000128284839583A683B78382E291E09183B0
:101140008083E6E6F3E01486158616861786148EED
:10115000158E168E178E14A615A616A617A6089518
:10116000CF93DF93CDB7DEB7A7970FB6F894DEBF66
:101170000FBECDBF789484B5826084BD84B5816094
:1011800084BD85B5826085BD85B5816085BD809152
:101190006E00816080936E001092810080918100CA
:1011A00082608093810080918100816080938100C2
:1011B000809180008160809380008091B100846084
:1011C0008093B1008091B00081608093B0008091E5
:1011D0007A00846080937A0080917A0082608093A4
:1011E0007A0080917A00816080937A0080917A0001
:1011F000806880937A001092C100E091CD02F09156
:10120000CE0282E08083E091C902F091CA0210828E
:10121000E091CB02F091CC0280E180831092D50264
:10122000E091D102F091D20286E08083E091CF027A
:10123000F091D002808180618083E091CF02F091B3
:10124000D002808188608083E091CF02F091D0024B
:10125000808180688083E091CF02F091D00280810C
:101260008F7D808360E083E00E94E20161E084E0A2
:101270000E94E20161E085E00E94E20161E086E017
:101280000E94E20161E087E00E94E20161E088E003
:101290000E94E20161E089E00E94E20161E08AE0EF
:1012A0000E94E20161E08BE00E94E20160E08CE0DC
:1012B0000E94E20160E08DE00E94E20110923C0297
:1012C00010923B0210929A021092BC020E945F029E
:1012D00087E890E090933A028093390288E890E0A2
:1012E000909338028093370269E4C62E62E0D62ECE
:1012F00006E613E0F12CE12CC7010E9417040E94BE
:1013000013024B015C015AE0452E512C612C712CCB
:101310000E941302681979098A099B09683E734083
:1013200081059105A8F321E0421A5108610871086E
:1013300038EE830E33E0931EA11CB11C41145104FE
:101340006104710429F70E947805BC0190E080E0F7
:101350000E94FB0ED8016D937D938D939C93139700
:101360002FB7F89480913D0290913E02A0913F02E8
:10137000B09140022FBFF80184839583A683B78381
:101380001086118612861386F6011082118212824F
:1013900013821482158216821782BFEFEB1AFB0AA2
:1013A000005F1F4FE8E0CE0ED11CF3E0EF16F10412
:1013B00009F0A2CF8DED94E2AEE3B2E48093000198
:1013C00090930101A0930201B093030183E29BED8E
:1013D000A1E0B2E48093040190930501A09306017B
:1013E000B09307018093080190930901A0930A012B
:1013F000B0930B0100E011E0C12CD12C760187E8FD
:1014000091E00E942E044AE0C701B6010E943B040D
:1014100081E991E00E942E04D8016D917D918D911A
:101420009D918D010E946905BFEFCB1ADB0AEB0A83
:10143000FB0AE3E0CE16D104E104F10401F78DEBE1
:1014400092E00E94E700181619060CF0B3C08DEB6D
:1014500092E00E94C5006C01990FEE08FF084AE077
:10146000C701B601F7FE0DC06DE28DEB92E00E9460
:10147000290166277727CB016C197D098E099F0901
:101480004AE00E943B0480E391E00E942E04C701E1
:10149000B6010E94FD0E9B01AC010E94E20D20E00E
:1014A00030E040E850E40E94B20F6B017C0129EE6D
:1014B00036E241E751E40E94E20D20E030E040E0F6
:1014C0005FE30E94B20F4B015C0129EE36E241E777
:1014D00051E4C701B6010E94E10D20E030E040E098
:1014E0005FE30E94B20F6B017C0120E030E040EA34
:1014F00052E4C501B4010E94AD0F181654F484E9FA
:1015000091E00E947F04812C912C40EAA42E42E4B9
:10151000B42E20E030E040EA52E4C701B6010E9458
:10152000AD0F181654F487EA91E00E947F04C12C95
:10153000D12C30EAE32E32E4F32E80920001909217
:101540000101A0920201B0920301C0920401D09265
:101550000501E0920601F0920701C0920801D092C5
:101560000901E0920A01F0920B0100E011E0C12CA8
:10157000D12C760187E891E00E942E044AE0C70151
:10158000B6010E943B0481E991E00E942E04D8013B
:101590006D917D918D919D918D010E946905BFEFA7
:1015A000CB1ADB0AEB0AFB0AE3E0CE16D104E10416
:1015B000F10401F78FB7F89480903D0290903E02BD
:1015C000A0903F02B09040028FBF80914502909161
:1015D0004602A0914702B0914802A5019401281B40
:1015E000390B4A0B5B0BDA01C9018A359105A1055C
:1015F000B10508F440C08092450290924602A09244
:101600004702B092480226E6E22E23E0F22E11E3D2
:101610008AE0EDEBF1E0DE01119601900D928A95E2
:10162000E1F787E0E7ECF1E0DE011B9601900D9217
:101630008A95E1F718871F87CE0101960E942E0434
:10164000D70118966D917D918D919C911B9742E0E9
:101650000E948D04CE010B960E942E04F701648532
:101660007585868597850E9469051F5FF0E1EF0EFD
:10167000F11C143369F68091410290914202A091CD
:101680004302B0914402A5019401281B390B4A0B77
:101690005B0BDA01C9010A97A105B10508F442C143
:1016A0008092410290924202A0924302B092440280
:1016B00041E652E05F8F4E8F06E613E0312C212C7D
:1016C000C1010E9417040E9478057C01F801848101
:1016D0009581A681B781A5019401281B390B4A0B7E
:1016E0005B0BCA01B9010E94FB0E20E030E04AE723
:1016F00054E40E94530E6A8B7B8B8C8B9D8BB701BD
:1017000090E080E00E94FB0E20E030E040E859E3EA
:101710000E94B20F6E8B7F8B888F998FD801CD90EE
:10172000DD90ED90FC909B01AC01C701B6010E94D9
:10173000E10D2FE632E143E85AE30E94AD0F18169F
:101740006CF420E030E040E85FE3C701B6010E949E
:10175000E10DF8016083718382839383D801189629
:10176000CD90DD90ED90FC901B9729E73AE745EA94
:101770005BE36A897B898C899D890E94AD0F18166D
:101780000CF04AC0F80120813181428153816E8979
:101790007F89888D998D0E94E10D2B013C012A895A
:1017A0003B894C895D890E94530E6A8F7B8F8C8F99
:1017B0009D8F20E030E04CED52E40E944E0E87FFFA
:1017C0002BC029E23CE54FE85DE3C301B2010E9472
:1017D000AD0F18160CF5A70196016A8D7B8D8C8DC7
:1017E0009D8D0E94E10D2A893B894C895D890E946B
:1017F000530E2B013C0120E030E0A9010E94AD0F07
:10180000181624F520E030E04AEF55E4C301B20198
:101810000E944E0E87FD24C020E030E0A901C701E0
:10182000B6010E94AD0F20E030E0A901181624F4A3
:1018300020E030E040E85FE3C701B6010E94E10D1F
:10184000F801608771878287938715C020E030E0B8
:101850004AEF55ECC301B2010E94AD0F1816E4F631
:101860002A8D3B8D4C8D5D8DD80118962D933D931F
:101870004D935C931B97D8011896CD90DD90ED9019
:10188000FC901B9720E030E0A901C701B6010E943F
:10189000AD0F18160CF017C126E636E646E65FE3F4
:1018A000F80164857585868597850E94B20F2B01A6
:1018B0003C012DEC3CEC4CEC5DE3C701B6010E9411
:1018C000B20F9B01AC01C301B2010E94E20DD8012D
:1018D0001C966D937D938D939C931F972E893F89C2
:1018E000488D598D2D933D934D935C931397F8013B
:1018F00084829582A682B782AE8DBF8D2A893B896C
:101900004C895D892D933D934D935D93BF8FAE8F31
:10191000BFEF2B1A3B0A005F1F4FE3E02E16310486
:1019200009F0CECE21E632E03F8F2E8F44EA50E020
:101930005B8B4A8B99E4292E92E0392E80E091E06E
:101940009B8F8A8FA6E6B3E0BF8BAE8B19E0EE8D3E
:10195000FF8D4190519061907190FF8FEE8FAA8D15
:10196000BB8D6D917D918D919D91BB8FAA8FEE89DD
:10197000FF8924853585468557850E94E10D6B01D9
:101980007C0120E030E040EA51E40E94B20F68A3FD
:1019900079A38AA39BA3A7019601C301B2010E9468
:1019A000B20FD1012D913D914D915C910E94E20DBC
:1019B0004B015C0124EB3DE74EEF53E40E94AD0F79
:1019C00018160CF484C0F10180829182A282B38245
:1019D00024EB3DE74EEF53ECD1016D917D918D915C
:1019E0009C910E944E0E87FF09C084EB9DE7AEEFED
:1019F000B3ECF10180839183A283B38320E030E0D4
:101A000040E05FE3D1016D917D918D919C910E94A9
:101A1000B20F6CA37DA38EA39FA3F1012481358116
:101A200046815781C701B6010E94E10D20E030E0F8
:101A300040EA50E40E94B20FA30192010E94530EAB
:101A40004B015C01D1011496CD92DD92ED92FC9296
:101A500017972CA13DA14EA15FA168A179A18AA1F0
:101A60009BA10E94E20DA50194010E94E20D6B0171
:101A70007C0120E030E040E751E40E944E0E87FDFB
:101A800030C020E030E04FE753E4C701B6010E94C8
:101A9000AD0F181634F4C12CD12C8FE7E82E83E457
:101AA000F82EC701B6010E94C50E4B017B0161E013
:101AB000812F0E94E20181149104B9F460E0812F2A
:101AC0000E9496013FC060E070E0CB0100CF84EB44
:101AD0009DE7AEEFB3E4F10180839183A283B383EA
:101AE00077CFC12CD12C7601DCCFBFEF8B169104C0
:101AF00011F461E0E4CFEA89FB893996E491E3309F
:101B000009F445C048F4E130C9F0E230D9F1E0E829
:101B1000EE16F10474F7D2CFE73009F442C0E83092
:101B200009F447C0E43099F7809180008062809387
:101B3000800090928B0080928A0004C084B58068F7
:101B400084BD87BC2E893F89205F3F4F3F8B2E8B02
:101B500038E0230E311C1F5F4A895B894F5F5F4F5E
:101B60005B8B4A8B1C3009F0F2CE80E090E0892B31
:101B700009F465CC0E94F300882309F460CC0E942C
:101B800000005DCC84B5806284BD88BCDBCF8091D1
:101B90008000806880938000909289008092880005
:101BA000D1CF8091B00080688093B0008092B30064
:101BB000C9CF8091B00080628093B0008092B40061
:101BC000C1CF5058BB27AA270E94F90D0C94730F60
:101BD0000E94650F38F00E946C0F20F039F49F3F8F
:101BE00019F426F40C94620F0EF4E095E7FB0C94C4
:101BF0005C0FE92F0E94840F58F3BA17620773072E
:101C00008407950720F079F4A6F50C94A60F0EF43E
:101C1000E0950B2EBA2FA02D0B01B90190010C01FC
:101C2000CA01A0011124FF27591B99F0593F50F414
:101C3000503E68F11A16F040A22F232F342F44276C
:101C4000585FF3CF469537952795A795F040539564
:101C5000C9F77EF41F16BA0B620B730B840BBAF034
:101C60009150A1F0FF0FBB1F661F771F881FC2F79F
:101C70000EC0BA0F621F731F841F48F487957795B3
:101C80006795B795F7959E3F08F0B0CF9395880F6D
:101C900008F09927EE0F9795879508950E94380FC1
:101CA00008F481E008950E94670E0C94730F0E945F
:101CB0006C0F58F00E94650F40F029F45F3F29F047
:101CC0000C945C0F51110C94A70F0C94620F0E949E
:101CD000840F68F39923B1F3552391F3951B550BAA
:101CE000BB27AA2762177307840738F09F5F5F4FEF
:101CF000220F331F441FAA1FA9F335D00E2E3AF02E
:101D0000E0E832D091505040E695001CCAF72BD045
:101D1000FE2F29D0660F771F881FBB1F2617370796
:101D20004807AB07B0E809F0BB0B802DBF01FF27C8
:101D300093585F4F3AF09E3F510578F00C945C0F3A
:101D40000C94A70F5F3FE4F3983ED4F38695779504
:101D50006795B795F7959F5FC9F7880F911D969581
:101D6000879597F90895E1E0660F771F881FBB1FDD
:101D7000621773078407BA0720F0621B730B840B8A
:101D8000BA0BEE1F88F7E09508950E94CC0E689478
:101D9000B1110C94A70F08950E948C0F88F09F57E3
:101DA00098F0B92F9927B751B0F0E1F0660F771F7F
:101DB000881F991F1AF0BA95C9F714C0B13091F075
:101DC0000E94A60FB1E008950C94A60F672F782FFC
:101DD0008827B85F39F0B93FCCF38695779567953A
:101DE000B395D9F73EF490958095709561957F4FA6
:101DF0008F4F9F4F0895E89409C097FB3EF490954C
:101E00008095709561957F4F8F4F9F4F9923A9F0D3
:101E1000F92F96E9BB279395F69587957795679562
:101E2000B795F111F8CFFAF4BB0F11F460FF1BC0A6
:101E30006F5F7F4F8F4F9F4F16C0882311F096E939
:101E400011C0772321F09EE8872F762F05C06623E7
:101E500071F096E8862F70E060E02AF09A95660FA0
:101E6000771F881FDAF7880F9695879597F9089559
:101E7000990F0008550FAA0BE0E8FEEF161617069B
:101E8000E807F907C0F012161306E407F50798F003
:101E9000621B730B840B950B39F40A2661F0232B1C
:101EA000242B252B21F408950A2609F4A140A69598
:101EB0008FEF811D811D089597F99F6780E870E07D
:101EC00060E008959FEF80EC089500240A941616B0
:101ED000170618060906089500240A941216130618
:101EE000140605060895092E0394000C11F48823A6
:101EF00052F0BB0F40F4BF2B11F460FF04C06F5FC2
:101F00007F4F8F4F9F4F089557FD9058440F551F97
:101F100059F05F3F71F04795880F97FB991F61F06B
:101F20009F3F79F087950895121613061406551FE2
:101F3000F2CF4695F1DF08C0161617061806991F4E
:101F4000F1CF86957105610508940895E894BB2743
:101F500066277727CB0197F908950E94380F08F478
:101F60008FEF08950E94C50F0C94730F0E94650FA8
:101F700038F00E946C0F20F0952311F00C945C0F48
:101F80000C94620F11240C94A70F0E94840F70F31D
:101F9000959FC1F3950F50E0551F629FF001729F0E
:101FA000BB27F00DB11D639FAA27F00DB11DAA1F1D
:101FB000649F6627B00DA11D661F829F2227B00D6A
:101FC000A11D621F739FB00DA11D621F839FA00DF5
:101FD000611D221F749F3327A00D611D231F849F45
:101FE000600D211D822F762F6A2F11249F5750409C
:101FF0009AF0F1F088234AF0EE0FFF1FBB1F661F17
:10200000771F881F91505040A9F79E3F510580F0DF
:102010000C945C0F0C94A70F5F3FE4F3983ED4F34D
:10202000869577956795B795F795E7959F5FC1F783
:10203000FE2B880F911D9695879597F908950E941C
:10204000380F880B990B0895A1E21A2EAA1BBB1B0F
:10205000FD010DC0AA1FBB1FEE1FFF1FA217B30774
:10206000E407F50720F0A21BB30BE40BF50B661F8A
:10207000771F881F991F1A9469F76095709580954E
:1020800090959B01AC01BD01CF010895EE0FFF1F9C
:102090000590F491E02D0994F894FFCF00002042C0
:1020A00000002042000020420000000029018900B9
:1020B000B6007601E700C500D90000000000E50386
:1020C000B80314048E03B1039E038F030D0A006E40
:1020D000616E00696E66006F7666004572726F729F
:1020E00020636F6D6D756E69636174696E672077CB
:1020F00069746820415335363030004661696C653B
:102100006420746F207265616420656E6F75676806
:102110002062797465732066726F6D204153353685
:10212000303000746172676574525053003A200079
:10213000546F70205250532061626F7665206D613C
:10214000782E00426F74746F6D205250532061627C
:102150006F7665206D61782E003E4D6F746F725FF3
:0A216000313A002C617667313A0035
:107E0000112484B714BE81FFF0D085E080938100F7
:107E100082E08093C00088E18093C10086E0809377
:107E2000C20080E18093C4008EE0C9D0259A86E02C
:107E300020E33CEF91E0309385002093840096BBD3
:107E4000B09BFECF1D9AA8958150A9F7CC24DD24C4
:107E500088248394B5E0AB2EA1E19A2EF3E0BF2EE7
:107E6000A2D0813461F49FD0082FAFD0023811F036
:107E7000013811F484E001C083E08DD089C08234E0
:107E800011F484E103C0853419F485E0A6D080C0E4
:107E9000853579F488D0E82EFF2485D0082F10E0AE
:107EA000102F00270E291F29000F111F8ED06801E7
:107EB0006FC0863521F484E090D080E0DECF843638
:107EC00009F040C070D06FD0082F6DD080E0C81688
:107ED00080E7D80618F4F601B7BEE895C0E0D1E017
:107EE00062D089930C17E1F7F0E0CF16F0E7DF06D8
:107EF00018F0F601B7BEE89568D007B600FCFDCFD4
:107F0000A601A0E0B1E02C9130E011968C91119780
:107F100090E0982F8827822B932B1296FA010C0160
:107F200087BEE89511244E5F5F4FF1E0A038BF0790
:107F300051F7F601A7BEE89507B600FCFDCF97BE46
:107F4000E89526C08437B1F42ED02DD0F82E2BD052
:107F50003CD0F601EF2C8F010F5F1F4F84911BD097
:107F6000EA94F801C1F70894C11CD11CFA94CF0C13
:107F7000D11C0EC0853739F428D08EE10CD085E9AC
:107F80000AD08FE07ACF813511F488E018D01DD067
:107F900080E101D065CF982F8091C00085FFFCCF94
:107FA0009093C60008958091C00087FFFCCF809118
:107FB000C00084FD01C0A8958091C6000895E0E648
:107FC000F0E098E1908380830895EDDF803219F02E
:107FD00088E0F5DFFFCF84E1DECF1F93182FE3DFCA
:107FE0001150E9F7F2DF1F91089580E0E8DFEE27F6
:047FF000FF270994CA
:027FFE00040479
:00000001FF
