:100000000C9462000C948A000C948A000C948A0070
:100010000C948A000C948A000C948A000C948A0038
:100020000C948A000C948A000C948A000C948A0028
:100030000C948A000C948A000C948A000C948A0018
:100040000C941F080C948A000C94ED070C94C707BD
:100050000C948A000C948A000C948A000C948A00F8
:100060000C9469080C948A0000000000240027000A
:100070002A0000000000250028002B0000000000DE
:1000800023002600290004040404040404040202DA
:100090000202020203030303030301020408102007
:1000A0004080010204081020010204081020000012
:1000B0000008000201000003040700000000000027
:1000C0000000880911241FBECFEFD8E0DEBFCDBFEE
:1000D00011E0A0E0B1E0E6EDF2E202C005900D9281
:1000E000AE39B107D9F723E0AEE9B1E001C01D9206
:1000F000A338B207E1F710E0C2E6D0E004C02197D0
:10010000FE010E946311C136D107C9F70E94CF09D1
:100110000C9469110C94000008950895AF92BF9259
:10012000CF92DF92EF92FF920F931F93CF93DF93C3
:100130006C017B018B01040F151FEB015E01AE18F2
:10014000BF08C017D10759F06991D601ED91FC9114
:100150000190F081E02DC6010995892B79F7C50141
:10016000DF91CF911F910F91FF90EF90DF90CF9093
:10017000BF90AF900895FC01538D448D252F30E042
:10018000842F90E0821B930B541710F0CF960895A4
:1001900001970895FC01918D828D981761F0A28DD1
:1001A000AE0FBF2FB11D5D968C91928D9F5F9F7397
:1001B000928F90E008958FEF9FEF0895FC01918D4D
:1001C000828D981731F0828DE80FF11D858D90E0BA
:1001D00008958FEF9FEF0895FC01918D228D892F57
:1001E00090E0805C9F4F821B91098F73992708953F
:1001F0008AEA92E00E94EC0021E0892B09F420E0D9
:10020000822F089580E090E0892B29F00E94F80069
:1002100081110C9400000895FC01A48DA80FB92F42
:10022000B11DA35ABF4F2C91848D90E001968F731E
:100230009927848FA689B7892C93A089B1898C913D
:10024000837080648C93938D848D981306C002888C
:10025000F389E02D80818F7D80830895EF92FF9256
:100260000F931F93CF93DF93EC0181E0888F9B8DD9
:100270008C8D98131AC0E889F989808185FF15C093
:100280009FB7F894EE89FF896083E889F9898081B6
:100290008370806480839FBF81E090E0DF91CF9185
:1002A0001F910F91FF90EF900895F62E0B8D10E0A7
:1002B0000F5F1F4F0F731127E02E8C8D8E110CC016
:1002C0000FB607FCFACFE889F989808185FFF5CF61
:1002D000CE010E940C01F1CFEB8DEC0FFD2FF11D33
:1002E000E35AFF4FF0829FB7F8940B8FEA89FB899E
:1002F00080818062CFCFCF93DF93EC01888D8823FC
:10030000B9F0AA89BB89E889F9898C9185FD03C078
:10031000808186FD0DC00FB607FCF7CF8C9185FF5D
:10032000F2CF808185FFEDCFCE010E940C01E9CF95
:10033000DF91CF910895833081F028F4813099F0D6
:100340008230A9F008958730A9F08830C9F0843050
:10035000B1F4809180008F7D03C0809180008F7701
:1003600080938000089584B58F7784BD089584B507
:100370008F7DFBCF8091B0008F778093B000089580
:100380008091B0008F7DF9CF1F93CF93DF93282FFB
:1003900030E0F901E255FF4F8491F901E656FF4F35
:1003A000D491F901EA57FF4FC491CC23A9F0162F3D
:1003B00081110E949B01EC2FF0E0EE0FFF1FEE5821
:1003C000FF4FA591B4918FB7F894EC91111108C02B
:1003D000D095DE23DC938FBFDF91CF911F910895DD
:1003E000DE2BF8CFCF93DF9390E0FC01E656FF4F72
:1003F00024918A579F4FFC0184918823D1F090E08B
:10040000880F991FFC01E859FF4FA591B491FC0199
:10041000EE58FF4FC591D49161110EC09FB7F8946B
:100420008C91E22FE0958E238C932881E223E88340
:100430009FBFDF91CF9108958FB7F894EC91E22B95
:10044000EC938FBFF6CF3FB7F89480910302909161
:100450000402A0910502B091060226B5A89B05C032
:100460002F3F19F00196A11DB11D3FBFBA2FA92F33
:10047000982F8827BC01CD01620F711D811D911D30
:1004800042E0660F771F881F991F4A95D1F708959C
:100490008F929F92AF92BF92CF92DF92EF92FF9294
:1004A0004B015C010E9423026B017C010E9423022C
:1004B0006C197D098E099F09683E7340810591057D
:1004C000A8F321E0821A9108A108B10888EEC80EAD
:1004D00083E0D81EE11CF11C81149104A104B10435
:1004E00029F7FF90EF90DF90CF90BF90AF909F9053
:1004F0008F9008952091DF01260F3327331F21327B
:100500003105ECF420918002FC0190E080E0243081
:1005100069F082E00895A091DF012191AC0141547E
:100520005E4FA40FB52FB11D2C930196861798F33B
:100530008091DF01680F6093DF0180E0089581E022
:1005400008951092800281E080937F0210925A02F7
:1005500061E082E10E94C40161E083E10E94C40184
:10056000E9EBF0E080818E7F808380818D7F8083C6
:1005700088E48093B80085E48093BC000895CF930D
:10058000DF9391E09093BE018823B9F0C091B80049
:10059000D091BA008091BC008A7B8093BC0060E05F
:1005A00082E10E94C40160E083E10E94C4010E94D4
:1005B000A102D093BA00C093B800DF91CF91089503
:1005C0008F929F92AF92BF92CF92DF92EF92FF9263
:1005D0000F931F93CF93DF93D091A902D13208F0EC
:1005E000D7C0182FC091A8020E9423026B017C0182
:1005F0008091800281116BC082E080938002109311
:100600007F028FEF80937E0210927D02D0937C0256
:10061000A8E8B2E0ECE5F2E080E0D81391C01092D7
:100620005B0280915B02CC0FC82BC0935B02809170
:100630005A02813009F088C010925A020E942302A7
:100640006B017C0180915B028093BB0080918202F0
:1006500090918302A0918402B0918502892B8A2B0C
:100660008B2BA1F00E942302009182021091830241
:1006700020918402309185026C197D098E099F09B1
:10068000061717072807390708F442C08091BC00F5
:1006900083FDD8CF85EC8093BC000E9423026B01C0
:1006A0007C0180918002823009F450C080917E02EA
:1006B0008F3F09F46FC080917E02803209F46CC0D4
:1006C00080917E02803309F469C084E026C0809165
:1006D000820290918302A0918402B0918502892BBD
:1006E0008A2B8B2B09F484CF0E94230280908202F4
:1006F00090908302A0908402B09085026C197D09CD
:100700008E099F0986169706A806B90608F070CFCD
:10071000809181020E94BF0285E0109287021092B0
:10072000A90210928602DF91CF911F910F91FF9045
:10073000EF90DF90CF90BF90AF909F908F900895F3
:100740009D9191938F5F69CF85EEA5CF80918202B5
:1007500090918302A0918402B0918502892B8A2B0B
:100760008B2B09F49ECF0E942302009182021091EC
:10077000830220918402309185026C197D098E09D3
:100780009F09061717072807390708F08ACFC0CF37
:1007900081E0C3CF80E0C1CF82E0BFCF83E0BDCF97
:1007A0000895E0910C0280910B02E81730F4F0E01C
:1007B000E256FE4F808190E008958FEF9FEF0895FD
:1007C00090910C0280910B022FEF3FEF981748F4A5
:1007D000E92FF0E0E256FE4F208130E09F5F9093DA
:1007E0000C02C901089580910B0290910C02891BA3
:1007F000990B0895CF92DF92EF92FF920F931F9380
:10080000CF93DF937C01CB018A01209186022223C2
:1008100089F0EB016B01C40ED51ECC15DD0569F026
:100820006991D701ED91FC910190F081E02DC70114
:100830000995F3CF642F0E947A02C801DF91CF910E
:100840001F910F91FF90EF90DF90CF900895CF937D
:10085000DF931F92CDB7DEB76983209186022223F2
:10086000F9F02091A902203258F021E030E0FC019B
:100870003383228390E080E00F90DF91CF91089541
:1008800080918702E82FF0E0E857FD4F998190832F
:100890008F5F809387028093A90281E090E0ECCF84
:1008A00061E0CE0101960E947A02F7CF90E080E0ED
:1008B000089591E09093860290E79093A802109299
:1008C00087021092A90261E070E001C0660F8A956C
:1008D000EAF787E493E00E94270481E00C94E002A9
:1008E000FC0101900020E9F73197AF01481B590B3B
:1008F000BC018AEA92E00C948E008F929F92AF9294
:10090000BF920F931F93CF93DF93CDB7DEB7A1971D
:100910000FB6F894DEBF0FBECDBF19A2423008F467
:100920004AE08E010F5D1F4F842E912CB12CA12C1B
:10093000A50194010E942D11E62FB901CA01EA30E8
:10094000F4F4E05DD801EE938D01232B242B252BAD
:1009500079F790E080E0109719F0CD010E947004C3
:10096000A1960FB6F894DEBF0FBECDBFDF91CF9139
:100970001F910F91BF90AF909F908F900895E95C69
:10098000E1CF4F925F926F927F928F929F92AF9240
:10099000BF92CF92DF92EF92FF920F931F93CF936C
:1009A0006B017C01742EAC019B010E941411882301
:1009B00099F086E291E0CF911F910F91FF90EF9017
:1009C000DF90CF90BF90AF909F908F907F906F906F
:1009D0005F904F900C94700446015701E894B7F86B
:1009E0002FEF3FEF4FE75FE7C501B4010E941411FD
:1009F00081110DC02FEF3FEF4FE75FE7C501B40155
:100A00000E94430F18161CF48AE291E0D4CF2FEF16
:100A10003FEF4FE75FE4C701B6010E94A21018162E
:100A20001CF48EE291E0C7CF2FEF3FEF4FE75FEC72
:100A3000C701B6010E94430F87FDF3CF20E030E0ED
:100A4000A901C701B6010E94430F10E000E087FF33
:100A50000AC06DE28AEA92E00E942E018C01F7FA48
:100A6000F094F7F8F094C0E060E070E080E09FE37D
:100A70007C1641F020E030E040E251E40E94480F53
:100A8000CF5FF6CFA70196010E94D70E2B013C0144
:100A90000E94C10F4B015C014AE00E947D047C0171
:100AA000E00EF11ECC23C1F1C501B4010E94F00F8C
:100AB0009B01AC01C301B2010E94D60E4B015C0147
:100AC0006EE28AEA92E00E942E01E80EF91EC15001
:100AD00018F120E030E040E251E4C501B4010E9489
:100AE000A7102B013C010E94C10F4B01B12CA12C7E
:100AF0004AE0C501B4010E947D04E80EF91EC5015B
:100B0000B4010E94F00F9B01AC01C301B2010E942D
:100B1000D60E4B015C01DBCFC701CF911F910F9126
:100B2000FF90EF90DF90CF90BF90AF909F908F900D
:100B30007F906F905F904F900895CF92DF92EF92E9
:100B4000FF920F931F93CF93DF93EC0111E08091FD
:100B50000001909101018C179D070CF410E082E3D5
:100B600091E00E94700480910001909101016E015A
:100B7000C81AD90A0D2C000CEE08FF084AE0C7017C
:100B8000B601F7FE0DC06DE28AEA92E00E942E01E6
:100B900066277727CB016C197D098E099F094AE0EA
:100BA0000E947D0480E491E00E947004612F84E043
:100BB0000E94C401F12CE12C03E010E080910001BF
:100BC000909101019E01281B390BC90137FF03C019
:100BD000919581959109B8010E941911E616F706C1
:100BE000C4F461E085E00E94C40168E070E080E048
:100BF00090E00E94480260E085E00E94C40162E04B
:100C000070E080E090E00E9448023FEFE31AF30AB0
:100C1000D5CFD0930101C0930001DF91CF911F91F7
:100C20000F91FF90EF90DF90CF9008958F929F9259
:100C3000AF92BF92CF92DF92EF92FF92CF93DF936A
:100C40009B01AC010E94D70E20E030E040E850E468
:100C50000E94A7104B015C012BE934EC40EA51E4FF
:100C60000E94D60E20E030E040E05FE30E94A71033
:100C70006B017C012BE934EC40EA51E4C501B4017D
:100C80000E94D70E20E030E040E05FE30E94A71012
:100C900060934E0270934F028093500290935102E2
:100CA000C0925202D0925302E0925402F092550246
:100CB000C0925602D0925702E0925802F092590226
:100CC000CEE4D2E0C12CD12C760183E491E00E94E5
:100CD00070044AE0C701B6010E947D048DE391E0F3
:100CE0000E947004699179918991999142E00E94E2
:100CF000C10480E491E00E9470048FEFC81AD80A02
:100D0000E80AF80A83E0C816D104E104F104E9F620
:100D1000DF91CF91FF90EF90DF90CF90BF90AF9099
:100D20009F908F900895CF92DF92EF92FF920F9352
:100D30001F93CF9381E08093860286E38093A8027D
:100D4000109287021092A9026CE087E493E00E945F
:100D5000270480E00E94E002C82F8DE491E0C111D9
:100D6000D5C00E9423026B017C0180918002811119
:100D700063C081E08093800280937F029FEF909315
:100D80007E0210927D0280937C0280935B028091B0
:100D90005B028C6680935B0280915A02813009F07D
:100DA0008DC010925A020E9423026B017C01809137
:100DB0005B028093BB008091820290918302A0919C
:100DC0008402B0918502892B8A2B8B2BA1F00E9483
:100DD00023020091820210918302209184023091BB
:100DE00085026C197D098E099F09061717072807C8
:100DF000390708F442C08091BC0083FDD8CF85EC50
:100E00008093BC000E9423026B017C0180918002D0
:100E1000813009F455C080917D02823008F072C0A3
:100E200080917D02ACE5B2E0EEE9F1E0C81749F14E
:100E30009D919193CF5FFACF80918202909183022E
:100E4000A0918402B0918502892B8A2B8B2B09F407
:100E50008CCF0E9423020091820210918302209184
:100E60008402309185026C197D098E099F0906174D
:100E700017072807390708F078CF809181020E9470
:100E8000BF0210920C02C0930B02C230E8F187E45B
:100E900093E00E94E003C82F87E493E00E94E00300
:100EA00020E03C2FA901482BCA019F70CF911F91D0
:100EB0000F91FF90EF90DF90CF90089585EEA0CF37
:100EC0008091820290918302A0918402B091850268
:100ED000892B8A2B8B2B09F499CF0E942302009136
:100EE00082021091830220918402309185026C1954
:100EF0007D098E099F09061717072807390708F08B
:100F000085CFBBCF82E08ECF8DE691E00E9470044A
:100F100080E491E00E94700490E080E0C7CF85ED0E
:100F20008093BC008091820290918302A091840200
:100F3000B09185020796A11DB11D23E0B695A79536
:100F4000979587952A95D1F72091BC0024FD03C081
:100F50001092800208954091820250918302609124
:100F6000840270918502452B462B472B69F300972D
:100F7000A105B10541F02AE22A95F1F700C00197D9
:100F8000A109B109E1CF809181020C94BF021F92A7
:100F90000F920FB60F9211242F933F934F935F93AD
:100FA0006F937F938F939F93AF93BF93EF93FF9331
:100FB0008AEA92E00E940C01FF91EF91BF91AF91FC
:100FC0009F918F917F916F915F914F913F912F9161
:100FD0000F900FBE0F901F9018951F920F920FB693
:100FE0000F9211242F938F939F93EF93FF93E09190
:100FF000BA02F091BB028081E091C002F091C1027F
:1010000082FD1BC090818091C3028F5F8F732091FE
:10101000C402821741F0E091C302F0E0E655FD4FB3
:10102000958F8093C302FF91EF919F918F912F91A4
:101030000F900FBE0F901F9018958081F4CF1F92D4
:101040000F920FB60F9211242F933F938F939F937C
:10105000AF93BF9380910D0290910E02A0910F0269
:10106000B09110023091020223E0230F2D3758F582
:101070000196A11DB11D2093020280930D02909351
:101080000E02A0930F02B093100280910302909180
:101090000402A0910502B09106020196A11DB11DA6
:1010A0008093030290930402A0930502B09306027A
:1010B000BF91AF919F918F913F912F910F900FBE54
:1010C0000F901F90189526E8230F0296A11DB11DC1
:1010D000D2CF1F920F920FB60F9211242F933F93EE
:1010E0004F935F936F937F938F939F93AF93BF9330
:1010F000EF93FF938091B900887F803609F44AC04E
:10110000F0F5883209F4A7C018F5803109F49BC0C6
:10111000B8F4882309F4F9C0883009F494C0FF9129
:10112000EF91BF91AF919F918F917F916F915F915F
:101130004F913F912F910F900FBE0F901F901895D8
:10114000883109F488C0803251F780937E0214C040
:10115000803409F49DC040F48033B9F38833F9F644
:1011600080937E0285ECB0C0803509F485C0883557
:1011700009F496C0883499F60E948F07D0CF883939
:1011800009F48CC038F5883729F050F4883611F00E
:10119000803729F683E0809380021092010257C0C5
:1011A000883809F47BC0803919F0803809F0B7CF4E
:1011B00080910102803208F071C0E091010281E06B
:1011C0008E0F809301028091BB00F0E0EF51FE4F43
:1011D00080833DC0803B39F0E0F4803A09F479C067
:1011E000883A09F09CCF84E0809380021092E0015D
:1011F0001092DF01E0910902F0910A0209958091B5
:10120000DF0181110FC081E08093DF011092BF01E7
:1012100009C0803C09F4A6CF883C09F4A3CF883BE1
:1012200009F07DCFE091E00181E08E0F8093E00135
:10123000F0E0E154FE4F80818093BB009091E0018B
:101240008091DF0129C080915B028093BB0085EC17
:101250008093BC0064CF90917D0280917C029817AE
:1012600058F5E0917D0281E08E0F80937D02F0E0E1
:10127000E45AFD4F8081E9CFE0917D0281E08E0F3D
:1012800080937D028091BB00F0E0E45AFD4F8083A3
:1012900090917D0280917C029817C8F285E8D8CFA2
:1012A000E0917D0281E08E0F80937D028091BB00F2
:1012B000F0E0E45AFD4F808380917F0281115CCF82
:1012C00081E080935A0284EA8093BC0010928002ED
:1012D00026CF85EC8093BC001092800280910102A1
:1012E000803230F4E0910102F0E0EF51FE4F1082C5
:1012F0006091010270E0E0910702F091080281EE36
:1013000091E00995109201020ACF10927E0234CF2B
:10131000EAEAF2E01382128288EE93E0A0E0B0E005
:1013200084839583A683B78326E031E031832083CD
:1013300025EC30E03587248724EC30E0378726879A
:1013400020EC30E0318B208B21EC30E0338B228B92
:1013500022EC30E0358B248B26EC30E0378B268B6B
:10136000118E128E138E148EE7E4F3E01382128234
:1013700084839583A683B78388E191E091838083FA
:10138000E3E5F3E01486158616861786148E158E0F
:10139000168E178E14A615A616A617A60895CF9317
:1013A000DF93CDB7DEB76E970FB6F894DEBF0FBEF2
:1013B000CDBF789484B5826084BD84B5816084BDDE
:1013C00085B5826085BD85B5816085BD80916E00E3
:1013D000816080936E001092810080918100826014
:1013E0008093810080918100816080938100809151
:1013F00080008160809380008091B1008460809340
:10140000B1008091B00081608093B00080917A003B
:10141000846080937A0080917A00826080937A0061
:1014200080917A00816080937A0080917A00806850
:1014300080937A001092C100E091BA02F091BB0251
:1014400082E08083E091B602F091B7021082E091D1
:10145000B802F091B90280E180831092C202E0915B
:10146000BE02F091BF0286E08083E091BC02F09161
:10147000BD02808180618083E091BC02F091BD0259
:10148000808188608083E091BC02F091BD02808100
:1014900080688083E091BC02F091BD0280818F7DE5
:1014A000808360E083E00E94F20161E084E00E94BA
:1014B000F20161E085E00E94F20161E086E00E94B5
:1014C000F20161E087E00E94F20161E088E00E94A1
:1014D000F20161E089E00E94F20161E08AE00E948D
:1014E000F20161E08BE00E94F20160E08CE00E947A
:1014F000F20160E08DE00E94F20110920C02109265
:101500000B02109287021092A9020E94A1028CE89D
:1015100090E090930A02809309028DE890E0909306
:1015200008028093070260E088E00E94C40159E14C
:10153000C52E52E0D52E03E513E0F12CE12CC701B6
:101540000E9459046AE070E080E090E00E94480246
:101550000E949306BC0190E080E00E94F00FD80149
:101560006D937D938D939C9313972FB7F8948091EF
:101570000D0290910E02A0910F02B09110022FBFA8
:10158000F80184839583A683B7831086118612861B
:101590001386F60110821182128213821482158240
:1015A00016821782BFEFEB1AFB0A005F1F4FE8E0BD
:1015B000CE0ED11CF3E0EF16F10409F0C0CF80E0AD
:1015C00090E0A0E2B1E480933D0290933E02A093AC
:1015D0003F02B09340028CE291E0909342028093EC
:1015E000410280E090E0A0EAB1E48093430290934E
:1015F0004402A0934502B093460210924802109212
:10160000470260E070E080E291E40E94160680915B
:101610004102909142020E949D0500914D023324A7
:10162000339430262EE432E03A8F298F790143E556
:10163000C42E43E0D42E11E0D60118968D909D90D3
:10164000AD90BC901B97F7014190519061907190C3
:101650007F0123E333E343E75FE3C301B2010E9469
:10166000A7109B01AC01C501B4010E94430F87FD87
:10167000CAC126E636E646E85FE3C301B2010E942E
:10168000A7109B01AC01C501B4010E94A21018165D
:101690000CF4B9C11321F0E1CF0ED11C2AE5E216FA
:1016A00022E0F20649F6612F88E00E94C401E1EBD6
:1016B000F0E08491EDE9F0E0E490E9E8F0E0F49006
:1016C000FF2099F081110E949B01EF2DF0E0EE0FB9
:1016D000FF1FE458FF4FA591B4918C91E82229F0A7
:1016E000112319F0F1E0F0934C0280914C02882311
:1016F00009F44EC0E0904A02F0904B02011185C1FE
:1017000061E086E00E94C40161E087E00E94C401BC
:1017100061E070E080E090E00E94480260E087E0D5
:101720000E94C4012FEFE21AF20AF0924B02E092FB
:101730004A0280914A0290914B02019781349E4067
:1017400038F180914D0251E0852780934D0281113F
:101750001FC010924C02E0914902E527E093490234
:1017600086E08E9FF0011124E35CFD4F6081718162
:10177000828193810E941606E091490296E09E9F25
:10178000F0011124E35CFD4F848195810E949D0549
:101790008FB7F89480900D0290900E02A0900F02E7
:1017A000B09010028FBF8091150290911602A09107
:1017B0001702B0911802A5019401281B390B4A0B9E
:1017C0005B0BDA01C9018A359105A105B10580F1EC
:1017D0008092150290921602A0921702B0921802FF
:1017E00088E0E5E9F1E0DE01119601900D928A951D
:1017F000E1F703E513E021E3F22EFE82CE0101962C
:101800000E947004D8011C966D917D918D919C91E0
:101810001F9742E00E94C104BCE2B983F394005FC9
:101820001F4FE4E3FE12E9CF80E491E00E947004D0
:101830008091110290911202A0911302B0911402B2
:10184000A5019401281B390B4A0B5B0BDA01C90176
:101850000A97A105B10508F45AC18092110290922D
:101860001202A0921302B092140241E352E05E8B86
:101870004D8B03E513E0312C212CC1010E9459044A
:101880000E9493067C01F80184819581A681B7812D
:10189000A5019401281B390B4A0B5B0BCA01B90146
:1018A0000E94F00F20E030E04AE754E40E94480F25
:1018B00069877A878B879C87B70190E080E00E94D8
:1018C000F00F20E030E040E859E30E94A7106D8758
:1018D0007E878F87988BD801CD90DD90ED90FC901E
:1018E0009B01AC01C701B6010E94D60E2FE632E182
:1018F00043E85AE30E94A21018166CF420E030E08E
:1019000040E85FE3C701B6010E94D60EF80160838C
:10191000718382839383D8011896CD90DD90ED90EA
:10192000FC901B9729E73AE745EA5BE369857A85EE
:101930008B859C850E94A21018160CF04AC0F801F5
:1019400020813181428153816D857E858F85988983
:101950000E94D60E2B013C0129853A854B855C857A
:101960000E94480F698B7A8B8B8B9C8B20E030E038
:101970004CED52E40E94430F87FF2BC029E23CE567
:101980004FE85DE3C301B2010E94A21018160CF5E6
:10199000A701960169897A898B899C890E94D60E54
:1019A00029853A854B855C850E94480F2B013C01B7
:1019B00020E030E0A9010E94A2101816E4F520E012
:1019C00030E04AEF55E4C301B2010E94430F87FDA6
:1019D0003CC020E030E0A901C701B6010E94A2107E
:1019E00020E030E040E85FE318161CF020E030E033
:1019F000A901C701B6010E94D60EF8016087718760
:101A0000828793872DC010E045CE60E086E00E947B
:101A1000C40161E087E00E94C40161E070E080E001
:101A200090E00E94480260E087E00E94C40131E03B
:101A3000E31AF1087ACE20E030E04AEF55ECC3011A
:101A4000B2010E94A210181624F629893A894B89FE
:101A50005C89D80118962D933D934D935C931B9709
:101A6000D8011896CD90DD90ED90FC901B9720E06A
:101A700030E0A901C701B6010E94A21018160CF0AF
:101A800010C126E636E646E65FE3F8016485758513
:101A9000868597850E94A7102B013C012DEC3CEC1C
:101AA0004CEC5DE3C701B6010E94A7109B01AC019D
:101AB000C301B2010E94D70ED8011C966D937D938D
:101AC0008D939C931F972D853E854F8558892D9327
:101AD0003D934D935C931397F80184829582A6827F
:101AE000B782AD89BE8929853A854B855C852D9362
:101AF0003D934D935D93BE8BAD8BBFEF2B1A3B0A8D
:101B0000005F1F4FE3E02E16310409F0B6CE21E34B
:101B100032E03A8B298B4EEA50E05A87498799E1A7
:101B2000292E92E0392E83E593E09E878D8719E078
:101B3000A989BA894D905D906D907D90BA8BA98BE3
:101B4000E98DFA8D6191719181919191FA8FE98F6F
:101B5000AD85BE851C962D913D914D915C911F9751
:101B60000E94D60E6B017C0123E333E343E350E490
:101B70000E94A7106D8B7E8B8F8B988FA70196018B
:101B8000C301B2010E94A710F1012081318142817D
:101B900053810E94D70E4B015C012CE437E64AEBDF
:101BA00054E40E94A21018160CF47FC0D1018D924B
:101BB0009D92AD92BC9213972CE437E64AEB54EC1D
:101BC000D1016D917D918D919C910E94430F87FF72
:101BD00009C08CE497E6AAEBB4ECF1018083918311
:101BE000A283B3832BE734E14EE25EE3D1016D9132
:101BF0007D918D919C910E94A7106B8F7C8F8D8F12
:101C00009E8FF1012481358146815781C701B6013C
:101C10000E94D60E2DEC3CEC4CE45DEB0E94A7102C
:101C2000A30192010E94480F4B015C01D10114965F
:101C3000CD92DD92ED92FC9217972B8D3C8D4D8DC0
:101C40005E8D6D897E898F89988D0E94D70EA50142
:101C500094010E94D70E6B017C0120E030E040E748
:101C600051E40E94430F87FD2AC020E030E04FE797
:101C700053E4C701B6010E94A210181624F1C7014F
:101C8000B6010E94BA0F4B017B0161E0812F0E94D7
:101C9000F20181149104F1F460E0812F0E94C401EB
:101CA00046C060E070E0CB0107CF8CE497E6AAEB7A
:101CB000B4E4F10180839183A283B3837DCFC12CEF
:101CC000D12C7601DCCFC12CD12C8FE7E82E83E418
:101CD000F82ED5CFBFEF8B16910411F461E0DDCF64
:101CE000E985FA853996E491E33009F445C048F472
:101CF000E130C9F0E230D9F1E0E8EE16F10474F712
:101D0000CBCFE73009F442C0E83009F447C0E430F3
:101D100099F78091800080628093800090928B0080
:101D200080928A0004C084B5806884BD87BC2D85FC
:101D30003E85205F3F4F3E872D8738E0230E311CC4
:101D40001F5F49855A854F5F5F4F5A8749871C300F
:101D500009F0EECE80E090E0892B09F45ECC0E9481
:101D6000F800882309F459CC0E94000056CC84B5B1
:101D7000806284BD88BCDBCF8091800080688093C6
:101D800080009092890080928800D1CF8091B0002D
:101D900080688093B0008092B300C9CF8091B0007A
:101DA00080628093B0008092B400C1CF5058BB27AE
:101DB000AA270E94EE0E0C9468100E945A1038F068
:101DC0000E94611020F039F49F3F19F426F40C941E
:101DD00057100EF4E095E7FB0C945110E92F0E9488
:101DE000791058F3BA17620773078407950720F034
:101DF00079F4A6F50C949B100EF4E0950B2EBA2FF7
:101E0000A02D0B01B90190010C01CA01A001112400
:101E1000FF27591B99F0593F50F4503E68F11A16AC
:101E2000F040A22F232F342F4427585FF3CF46953D
:101E300037952795A795F0405395C9F77EF41F165F
:101E4000BA0B620B730B840BBAF09150A1F0FF0F29
:101E5000BB1F661F771F881FC2F70EC0BA0F621F15
:101E6000731F841F48F4879577956795B795F79505
:101E70009E3F08F0B0CF9395880F08F09927EE0F9A
:101E80009795879508950E942D1008F481E0089594
:101E90000E945C0F0C9468100E94611058F00E9420
:101EA0005A1040F029F45F3F29F00C945110511161
:101EB0000C949C100C9457100E94791068F399238D
:101EC000B1F3552391F3951B550BBB27AA27621736
:101ED0007307840738F09F5F5F4F220F331F441F43
:101EE000AA1FA9F335D00E2E3AF0E0E832D0915077
:101EF0005040E695001CCAF72BD0FE2F29D0660F64
:101F0000771F881FBB1F261737074807AB07B0E8A6
:101F100009F0BB0B802DBF01FF2793585F4F3AF0AC
:101F20009E3F510578F00C9451100C949C105F3F2B
:101F3000E4F3983ED4F3869577956795B795F79532
:101F40009F5FC9F7880F911D9695879597F908951A
:101F5000E1E0660F771F881FBB1F621773078407B6
:101F6000BA0720F0621B730B840BBA0BEE1F88F7C5
:101F7000E09508950E94C10F6894B1110C949C10D3
:101F800008950E94811088F09F5798F0B92F9927E3
:101F9000B751B0F0E1F0660F771F881F991F1AF054
:101FA000BA95C9F714C0B13091F00E949B10B1E00E
:101FB00008950C949B10672F782F8827B85F39F00D
:101FC000B93FCCF3869577956795B395D9F73EF4ED
:101FD00090958095709561957F4F8F4F9F4F089595
:101FE000E89409C097FB3EF49095809570956195B3
:101FF0007F4F8F4F9F4F9923A9F0F92F96E9BB2769
:102000009395F695879577956795B795F111F8CFE4
:10201000FAF4BB0F11F460FF1BC06F5F7F4F8F4F4F
:102020009F4F16C0882311F096E911C0772321F045
:102030009EE8872F762F05C0662371F096E8862FDD
:1020400070E060E02AF09A95660F771F881FDAF734
:10205000880F9695879597F90895990F0008550F61
:10206000AA0BE0E8FEEF16161706E807F907C0F01E
:1020700012161306E407F50798F0621B730B840B26
:10208000950B39F40A2661F0232B242B252B21F400
:1020900008950A2609F4A140A6958FEF811D811DA0
:1020A000089597F99F6780E870E060E008959FEFDA
:1020B00080EC089500240A941616170618060906DF
:1020C000089500240A9412161306140605060895AE
:1020D000092E0394000C11F4882352F0BB0F40F436
:1020E000BF2B11F460FF04C06F5F7F4F8F4F9F4F76
:1020F000089557FD9058440F551F59F05F3F71F0F8
:102100004795880F97FB991F61F09F3F79F087955E
:102110000895121613061406551FF2CF4695F1DFE7
:1021200008C0161617061806991FF1CF8695710577
:10213000610508940895E894BB2766277727CB01AB
:1021400097F908950E942D1008F48FEF08950E94CA
:10215000BA100C9468100E945A1038F00E94611056
:1021600020F0952311F00C9451100C945710112469
:102170000C949C100E94791070F3959FC1F3950FF9
:1021800050E0551F629FF001729FBB27F00DB11DFB
:10219000639FAA27F00DB11DAA1F649F6627B00D8B
:1021A000A11D661F829F2227B00DA11D621F739F74
:1021B000B00DA11D621F839FA00D611D221F749F82
:1021C0003327A00D611D231F849F600D211D822FC9
:1021D000762F6A2F11249F5750409AF0F1F08823F0
:1021E0004AF0EE0FFF1FBB1F661F771F881F91501D
:1021F0005040A9F79E3F510580F00C9451100C946B
:102200009C105F3FE4F3983ED4F3869577956795ED
:10221000B795F795E7959F5FC1F7FE2B880F911D46
:102220009695879597F908950E942D10880B990B24
:10223000089597FB072E16F4009407D077FD09D078
:102240000E944F1107FC05D03EF4909581959F4F59
:102250000895709561957F4F0895A1E21A2EAA1BEB
:10226000BB1BFD010DC0AA1FBB1FEE1FFF1FA21746
:10227000B307E407F50720F0A21BB30BE40BF50B43
:10228000661F771F881F991F1A9469F760957095CC
:10229000809590959B01AC01BD01CF010895AA1BCB
:1022A000BB1B51E107C0AA1FBB1FA617B70710F041
:1022B000A61BB70B881F991F5A95A9F78095909573
:1022C000BC01CD010895EE0FFF1F0590F491E02DA4
:0622D0000994F894FFCF11
:1022D600E801000000002E018E00BB007B01EC002F
:1022E600CA00DE00000000002704FA035604D003EB
:1022F600F303E003D1036E616E00696E66006F76CC
:10230600660044656C746120616E676C653A2000F6
:102316000D0A0074617267657452505300457272FB
:102326006F7220636F6D6D756E69636174696E6738
:10233600207769746820415335363030004661692C
:102346006C656420746F207265616420656E6F75BC
:1023560067682062797465732066726F6D204153D9
:0E23660035363030003E20617667313A000097
:00000001FF
