:020000040000FA
:100000000C9462000C948A000C948A000C948A0070
:100010000C948A000C948A000C948A000C948A0038
:100020000C948A000C948A000C948A000C948A0028
:100030000C948A000C948A000C948A000C948A0018
:100040000C9429070C948A000C94F7060C94D106A2
:100050000C948A000C948A000C948A000C948A00F8
:100060000C9473070C948A00000000002400270001
:100070002A0000000000250028002B0000000000DE
:1000800023002600290004040404040404040202DA
:100090000202020203030303030301020408102007
:1000A0004080010204081020010204081020000012
:1000B0000008000201000003040700000000000027
:1000C0000000920811241FBECFEFD8E0DEBFCDBFE5
:1000D00011E0A0E0B1E0E0E2FFE102C005900D9286
:1000E000AE39B107D9F723E0AEE9B1E001C01D9206
:1000F000AE36B207E1F710E0C2E6D0E004C02197C7
:10010000FE010E94880FC136D107C9F70E94E50899
:100110000C948E0F0C94000008950895AF92BF9236
:10012000CF92DF92EF92FF920F931F93CF93DF93C3
:100130006C017B018B01040F151FEB015E01AE18F2
:10014000BF08C017D10759F06991D601ED91FC9114
:100150000190F081E02DC6010995892B79F7C50141
:10016000DF91CF911F910F91FF90EF90DF90CF9093
:10017000BF90AF900895FC01538D448D252F30E042
:10018000842F90E0821B930B541710F0CF960895A4
:1001900001970895FC01918D828D981761F0A28DD1
:1001A000AE0FBF2FB11D5D968C91928D9F5F9F7397
:1001B000928F90E008958FEF9FEF0895FC01918D4D
:1001C000828D981731F0828DE80FF11D858D90E0BA
:1001D00008958FEF9FEF0895FC01918D228D892F57
:1001E00090E0805C9F4F821B91098F73992708953F
:1001F00089E892E00E94EC0021E0892B09F420E0DC
:10020000822F089580E090E0892B29F00E94F80069
:1002100081110C9400000895FC01A48DA80FB92F42
:10022000B11DA35ABF4F2C91848D90E001968F731E
:100230009927848FA689B7892C93A089B1898C913D
:10024000837080648C93938D848D981306C002888C
:10025000F389E02D80818F7D80830895EF92FF9256
:100260000F931F93CF93DF93EC0181E0888F9B8DD9
:100270008C8D98131AC0E889F989808185FF15C093
:100280009FB7F894EE89FF896083E889F9898081B6
:100290008370806480839FBF81E090E0DF91CF9185
:1002A0001F910F91FF90EF900895F62E0B8D10E0A7
:1002B0000F5F1F4F0F731127E02E8C8D8E110CC016
:1002C0000FB607FCFACFE889F989808185FFF5CF61
:1002D000CE010E940C01F1CFEB8DEC0FFD2FF11D33
:1002E000E35AFF4FF0829FB7F8940B8FEA89FB899E
:1002F00080818062CFCFCF93DF93EC01888D8823FC
:10030000B9F0AA89BB89E889F9898C9185FD03C078
:10031000808186FD0DC00FB607FCF7CF8C9185FF5D
:10032000F2CF808185FFEDCFCE010E940C01E9CF95
:10033000DF91CF910895833081F028F4813099F0D6
:100340008230A9F008958730A9F08830C9F0843050
:10035000B1F4809180008F7D03C0809180008F7701
:1003600080938000089584B58F7784BD089584B507
:100370008F7DFBCF8091B0008F778093B000089580
:100380008091B0008F7DF9CF1F93CF93DF93282FFB
:1003900030E0F901E255FF4F8491F901E656FF4F35
:1003A000D491F901EA57FF4FC491CC23A9F0162F3D
:1003B00081110E949B01EC2FF0E0EE0FFF1FEE5821
:1003C000FF4FA591B4918FB7F894EC91111108C02B
:1003D000D095DE23DC938FBFDF91CF911F910895DD
:1003E000DE2BF8CFCF93DF9390E0FC01E656FF4F72
:1003F00024918A579F4FFC0184918823D1F090E08B
:10040000880F991FFC01E859FF4FA591B491FC0199
:10041000EE58FF4FC591D49161110EC09FB7F8946B
:100420008C91E22FE0958E238C932881E223E88340
:100430009FBFDF91CF9108958FB7F894EC91E22B95
:10044000EC938FBFF6CF3FB7F89480910302909161
:100450000402A0910502B091060226B5A89B05C032
:100460002F3F19F00196A11DB11D3FBFBA2FA92F33
:10047000982F8827BC01CD01620F711D811D911D30
:1004800042E0660F771F881F991F4A95D1F708959C
:100490008F929F92AF92BF92CF92DF92EF92FF9294
:1004A0004B015C010E9423026B017C010E9423022C
:1004B0006C197D098E099F09683E7340810591057D
:1004C000A8F321E0821A9108A108B10888EEC80EAD
:1004D00083E0D81EE11CF11C81149104A104B10435
:1004E00029F7FF90EF90DF90CF90BF90AF909F9053
:1004F0008F9008952091DF01260F3327331F21327B
:100500003105ECF420915F02FC0190E080E02430A2
:1005100069F082E00895A091DF012191AC0141547E
:100520005E4FA40FB52FB11D2C930196861798F33B
:100530008091DF01680F6093DF0180E0089581E022
:10054000089510925F0281E080935E02109239025A
:1005500061E082E10E94C40161E083E10E94C40184
:10056000E9EBF0E080818E7F808380818D7F8083C6
:1005700088E48093B80085E48093BC000895CF930D
:10058000DF9391E09093BE018823B9F0C091B80049
:10059000D091BA008091BC008A7B8093BC0060E05F
:1005A00082E10E94C40160E083E10E94C4010E94D4
:1005B000A102D093BA00C093B800DF91CF91089503
:1005C0008F929F92AF92BF92CF92DF92EF92FF9263
:1005D0000F931F93CF93DF93D0918802D13208F00D
:1005E000D7C0182FC09187020E9423026B017C01A3
:1005F00080915F0281116BC082E080935F02109353
:100600005E028FEF80935D0210925C02D0935B02DA
:10061000A7E6B2E0EBE3F2E080E0D81391C01092DD
:100620003A0280913A02CC0FC82BC0933A028091D3
:100630003902813009F088C0109239020E942302E9
:100640006B017C0180913A028093BB008091610232
:1006500090916202A0916302B0916402892B8A2B6F
:100660008B2BA1F00E942302009161021091620283
:1006700020916302309164026C197D098E099F09F3
:10068000061717072807390708F442C08091BC00F5
:1006900083FDD8CF85EC8093BC000E9423026B01C0
:1006A0007C0180915F02823009F450C080915D022C
:1006B0008F3F09F46FC080915D02803209F46CC0F5
:1006C00080915D02803309F469C084E026C0809186
:1006D000610290916202A0916302B0916402892B41
:1006E0008A2B8B2B09F484CF0E9423028090610215
:1006F00090906202A0906302B09064026C197D0930
:100700008E099F0986169706A806B90608F070CFCD
:10071000809160020E94BF0285E0109266021092F2
:10072000880210926502DF91CF911F910F91FF9087
:10073000EF90DF90CF90BF90AF909F908F900895F3
:100740009D9191938F5F69CF85EEA5CF80916102D6
:1007500090916202A0916302B0916402892B8A2B6E
:100760008B2B09F49ECF0E9423020091610210910D
:10077000620220916302309164026C197D098E0936
:100780009F09061717072807390708F08ACFC0CF37
:1007900081E0C3CF80E0C1CF82E0BFCF83E0BDCF97
:1007A0000895E0910C0280910B02E81730F4F0E01C
:1007B000E256FE4F808190E008958FEF9FEF0895FD
:1007C00090910C0280910B022FEF3FEF981748F4A5
:1007D000E92FF0E0E256FE4F208130E09F5F9093DA
:1007E0000C02C901089580910B0290910C02891BA3
:1007F000990B0895CF92DF92EF92FF920F931F9380
:10080000CF93DF937C01CB018A01209165022223E3
:1008100089F0EB016B01C40ED51ECC15DD0569F026
:100820006991D701ED91FC910190F081E02DC70114
:100830000995F3CF642F0E947A02C801DF91CF910E
:100840001F910F91FF90EF90DF90CF900895CF937D
:10085000DF931F92CDB7DEB7698320916502222313
:10086000F9F020918802203258F021E030E0FC01BC
:100870003383228390E080E00F90DF91CF91089541
:1008800080916602E82FF0E0E959FD4F998190834D
:100890008F5F809366028093880281E090E0ECCFC6
:1008A00061E0CE0101960E947A02F7CF90E080E0ED
:1008B000089591E09093650290E7909387021092DB
:1008C00066021092880261E070E001C0660F8A95AE
:1008D000EAF786E293E00E94270481E00C94E002AC
:1008E000FC0101900020E9F73197AF01481B590B3B
:1008F000BC0189E892E00C948E008F929F92AF9297
:10090000BF920F931F93CF93DF93CDB7DEB7A1971D
:100910000FB6F894DEBF0FBECDBF19A2423008F467
:100920004AE08E010F5D1F4F842E912CB12CA12C1B
:10093000A50194010E94660FE62FB901CA01EA30B1
:10094000F4F4E05DD801EE938D01232B242B252BAD
:1009500079F790E080E0109719F0CD010E947004C3
:10096000A1960FB6F894DEBF0FBECDBFDF91CF9139
:100970001F910F91BF90AF909F908F900895E95C69
:10098000E1CF4F925F926F927F928F929F92AF9240
:10099000BF92CF92DF92EF92FF920F931F93CF936C
:1009A0006B017C01742EAC019B010E94610F8823B6
:1009B00099F080E391E0CF911F910F91FF90EF901C
:1009C000DF90CF90BF90AF909F908F907F906F906F
:1009D0005F904F900C94700446015701E894B7F86B
:1009E0002FEF3FEF4FE75FE7C501B4010E94610FB2
:1009F00081110DC02FEF3FEF4FE75FE7C501B40155
:100A00000E94900D18161CF484E391E0D4CF2FEFD0
:100A10003FEF4FE75FE4C701B6010E94EF0E1816E3
:100A20001CF488E391E0C7CF2FEF3FEF4FE75FEC77
:100A3000C701B6010E94900D87FDF3CF20E030E0A2
:100A4000A901C701B6010E94900D10E000E087FFE8
:100A50000AC06DE289E892E00E942E018C01F7FA4B
:100A6000F094F7F8F094C0E060E070E080E09FE37D
:100A70007C1641F020E030E040E251E40E94950D08
:100A8000CF5FF6CFA70196010E94240D2B013C01F8
:100A90000E940E0E4B015C014AE00E947D047C0125
:100AA000E00EF11ECC23C1F1C501B4010E943D0E40
:100AB0009B01AC01C301B2010E94230D4B015C01FB
:100AC0006EE289E892E00E942E01E80EF91EC15004
:100AD00018F120E030E040E251E4C501B4010E9489
:100AE000F40E2B013C010E940E0E4B01B12CA12CE7
:100AF0004AE0C501B4010E947D04E80EF91EC5015B
:100B0000B4010E943D0E9B01AC01C301B2010E94E1
:100B1000230D4B015C01DBCFC701CF911F910F91DA
:100B2000FF90EF90DF90CF90BF90AF909F908F900D
:100B30007F906F905F904F900895CF92DF92EF92E9
:100B4000FF920F931F93CF9381E08093650286E31A
:100B50008093870210926602109288026CE086E20F
:100B600093E00E94270480E00E94E002C82F8CE3FB
:100B700091E0C111D5C00E9423026B017C018091DC
:100B80005F02811163C081E080935F0280935E0207
:100B90009FEF90935D0210925C0280935B028093C2
:100BA0003A0280913A028C6680933A02809139022F
:100BB000813009F08DC0109239020E9423026B012E
:100BC0007C0180913A028093BB00809161029091F8
:100BD0006202A0916302B0916402892B8A2B8B2B55
:100BE000A1F00E9423020091610210916202209103
:100BF0006302309164026C197D098E099F09061702
:100C000017072807390708F442C08091BC0083FD0C
:100C1000D8CF85EC8093BC000E9423026B017C013D
:100C200080915F02813009F455C080915C0282306E
:100C300008F072C080915C02ABE3B2E0EEE9F1E053
:100C4000C81749F19D919193CF5FFACF80916102CE
:100C500090916202A0916302B0916402892B8A2B69
:100C60008B2B09F48CCF0E9423020091610210911A
:100C7000620220916302309164026C197D098E0931
:100C80009F09061717072807390708F078CF8091C2
:100C900060020E94BF0210920C02C0930B02C2308D
:100CA000E8F186E293E00E94E003C82F86E293E039
:100CB0000E94E00320E03C2FA901482BCA019F704D
:100CC000CF911F910F91FF90EF90DF90CF900895FB
:100CD00085EEA0CF8091610290916202A0916302A3
:100CE000B0916402892B8A2B8B2B09F499CF0E9437
:100CF00023020091610210916202209163023091FF
:100D000064026C197D098E099F09061717072807C9
:100D1000390708F085CFBBCF82E08ECF8FE591E019
:100D20000E9470048CE591E00E94700490E080E0E5
:100D3000C7CF85ED8093BC008091610290916202E3
:100D4000A0916302B09164020796A11DB11D23E03A
:100D5000B695A795979587952A95D1F72091BC00D0
:100D600024FD03C010925F020895409161025091EA
:100D700062026091630270916402452B462B472BFF
:100D800069F30097A105B10541F02AE22A95F1F730
:100D900000C00197A109B109E1CF809160020C94D4
:100DA000BF021F920F920FB60F9211242F933F9301
:100DB0004F935F936F937F938F939F93AF93BF9363
:100DC000EF93FF9389E892E00E940C01FF91EF916D
:100DD000BF91AF919F918F917F916F915F914F9153
:100DE0003F912F910F900FBE0F901F9018951F925B
:100DF0000F920FB60F9211242F938F939F93EF931F
:100E0000FF93E0919902F0919A028081E0919F0214
:100E1000F091A00282FD1BC090818091A2028F5FA1
:100E20008F732091A302821741F0E091A202F0E0BB
:100E3000E757FD4F958F8093A202FF91EF919F910D
:100E40008F912F910F900FBE0F901F90189580815A
:100E5000F4CF1F920F920FB60F9211242F933F934E
:100E60008F939F93AF93BF9380910D0290910E0249
:100E7000A0910F02B09110023091020223E0230FE3
:100E80002D3758F50196A11DB11D209302028093C4
:100E90000D0290930E02A0930F02B0931002809166
:100EA000030290910402A0910502B09106020196FE
:100EB000A11DB11D8093030290930402A09305022B
:100EC000B0930602BF91AF919F918F913F912F9167
:100ED0000F900FBE0F901F90189526E8230F0296D3
:100EE000A11DB11DD2CF1F920F920FB60F921124E8
:100EF0002F933F934F935F936F937F938F939F9322
:100F0000AF93BF93EF93FF938091B900887F8036B2
:100F100009F44AC0F0F5883209F4A7C018F5803109
:100F200009F49BC0B8F4882309F4F9C0883009F4A7
:100F300094C0FF91EF91BF91AF919F918F917F915D
:100F40006F915F914F913F912F910F900FBE0F9036
:100F50001F901895883109F488C0803251F780932A
:100F60005D0214C0803409F49DC040F48033B9F3AD
:100F70008833F9F680935D0285ECB0C0803509F4C2
:100F800085C0883509F496C0883499F60E94990680
:100F9000D0CF883909F48CC038F5883729F050F45F
:100FA000883611F0803729F683E080935F02109233
:100FB000010257C0883809F47BC0803919F08038A5
:100FC00009F0B7CF80910102803208F071C0E09142
:100FD000010281E08E0F809301028091BB00F0E05E
:100FE000EF51FE4F80833DC0803B39F0E0F4803A02
:100FF00009F479C0883A09F09CCF84E080935F02BD
:101000001092E0011092DF01E0910902F0910A02D2
:1010100009958091DF0181110FC081E08093DF018C
:101020001092BF0109C0803C09F4A6CF883C09F4A6
:10103000A3CF883B09F07DCFE091E00181E08E0FE6
:101040008093E001F0E0E154FE4F80818093BB008B
:101050009091E0018091DF0129C080913A02809354
:10106000BB0085EC8093BC0064CF90915C028091C2
:101070005B02981758F5E0915C0281E08E0F809337
:101080005C02F0E0E55CFD4F8081E9CFE0915C021D
:1010900081E08E0F80935C028091BB00F0E0E55C04
:1010A000FD4F808390915C0280915B029817C8F29B
:1010B00085E8D8CFE0915C0281E08E0F80935C02DE
:1010C0008091BB00F0E0E55CFD4F808380915E0283
:1010D00081115CCF81E08093390284EA8093BC0067
:1010E00010925F0226CF85EC8093BC0010925F02C5
:1010F00080910102803230F4E0910102F0E0EF5182
:10110000FE4F10826091010270E0E0910702F091C1
:10111000080281EE91E00995109201020ACF109227
:101120005D0234CFE9E8F2E01382128288EE93E0A8
:10113000A0E0B0E084839583A683B78320E131E00B
:101140003183208325EC30E03587248724EC30E0A0
:101150003787268720EC30E0318B208B21EC30E084
:10116000338B228B22EC30E0358B248B26EC30E065
:10117000378B268B118E128E138E148EE6E2F3E0DF
:101180001382128284839583A683B78382E291E0DF
:1011900091838083E2E3F3E0148615861686178632
:1011A000108A118A128A138A10A211A212A213A203
:1011B00014A215A216A217A214AA15AA16AA17AA53
:1011C00010AE11AE12AE13AE0895CF93DF93CDB72C
:1011D000DEB72C970FB6F894DEBF0FBECDBF789464
:1011E00084B5826084BD84B5816084BD85B582602C
:1011F00085BD85B5816085BD80916E0081608093DD
:101200006E00109281008091810082608093810045
:101210008091810081608093810080918000816055
:10122000809380008091B10084608093B1008091B0
:10123000B00081608093B00080917A0084608093D8
:101240007A0080917A00826080937A0080917A009F
:10125000816080937A0080917A00806880937A0020
:101260001092C100E0919902F0919A0282E080838D
:10127000E0919502F09196021082E0919702F09130
:10128000980280E180831092A102E0919D02F0918A
:101290009E0286E08083E0919B02F0919C02808117
:1012A00080618083E0919B02F0919C028081886044
:1012B0008083E0919B02F0919C0280818068808312
:1012C000E0919B02F0919C0280818F7D808360E0A1
:1012D00083E00E94F20161E084E00E94F20161E09B
:1012E00085E00E94F20161E086E00E94F20161E087
:1012F00087E00E94F20161E088E00E94F20161E073
:1013000089E00E94F20161E08AE00E94F20161E05E
:101310008BE00E94F20160E08CE00E94F20160E04C
:101320008DE00E94F20110920C0210920B021092BA
:101330006602109288020E94A1028CE890E09093CD
:101340000A02809309028DE890E09093080280934E
:10135000070222E333E03A83298335E1E32E32E0CA
:10136000F32E10E0812F0E9459046AE070E080E0C3
:1013700090E00E9448020E949D05BC0190E080E040
:101380000E943D0EA981BA816D937D938D939C93AC
:1013900013972FB7F89480910D0290910E02A091AF
:1013A0000F02B09110022FBFE981FA8184839583E7
:1013B000A683B7831086118612861386F7011082E2
:1013C00011821282138214821582168217821F5F85
:1013D000E981FA817496FA83E983F8E0EF0EF11C53
:1013E000133009F0BFCF07EB10E029E8222E20E0F0
:1013F000322E8FB7F89420910D0230910E02409159
:101400000F02509110022D833E834F8358878FBF68
:101410008091110290911202A0911302B0911402D6
:10142000281B390B4A0B5B0BDA01C9014E97A1054A
:10143000B105E8F18D819E81AF81B885809311025D
:1014400090931202A0931302B093140287E891E0E4
:101450000E94700460913A0370913B0380913C03B9
:1014600090913D0342E00E94C10481E991E00E9415
:10147000700460913E0370913F038091400390910E
:10148000410342E00E94C10487E991E00E94700498
:10149000609142037091430380914403909145030E
:1014A00042E00E94C1048CE591E00E94700480E05B
:1014B0000E94590462E070E080E090E00E944802DF
:1014C0000E949D057C018091360390913703A09185
:1014D0003803B09139032D813E814F815885281BF7
:1014E000390B4A0B5B0BCA01B9010E943D0E20E08B
:1014F00030E04AE754E40E94950D69837A838B8338
:101500009C83B70190E080E00E943D0E20E030E037
:1015100040E859E30E94F40E69877A878B879C879D
:10152000C0903203D0903303E0903403F090350341
:101530009B01AC01C701B6010E94230D2FE632E1E9
:1015400043E85AE30E94EF0E181684F420E030E0DE
:1015500040E85FE3C701B6010E94230D60933203A8
:10156000709333038093340390933503C0903A0310
:10157000D0903B03E0903C03F0903D0328E137EB33
:1015800041E558E369817A818B819C810E94EF0E4D
:1015900018160CF049C0209132033091330340916A
:1015A00034035091350369857A858B859C850E942B
:1015B000230D2B013C0129813A814B815C810E94E2
:1015C000950D4B015C0120E030E04CED52E40E94AF
:1015D000900D87FF29C029E23CE54FE85DE3C30198
:1015E000B2010E94EF0E1816FCF4A7019601C50186
:1015F000B4010E94230D29813A814B815C810E94B4
:10160000950D2B013C0120E030E0A9010E94EF0E76
:1016100018163CF520E030E04AEF55E4C301B20172
:101620000E94900D87FD27C020E030E0A901C7018E
:10163000B6010E94EF0E20E030E0A901181624F454
:1016400020E030E040E85FE3C701B6010E94230DCF
:1016500060933A0370933B0380933C0390933D0364
:1016600012C020E030E04AEF55ECC301B2010E9405
:10167000EF0E1816CCF680923A0390923B03A0929C
:101680003C03B0923D03C0903A03D0903B03E090FE
:101690003C03F0903D0320E030E0A901C701B60112
:1016A0000E94EF0E18160CF068C124EA30E74DE7EF
:1016B0005FE360913E0370913F03809140039091FE
:1016C00041030E94F40E4B015C012AE037ED43E236
:1016D0005CE3C701B6010E94F40E9B01AC01C50199
:1016E000B4010E94240D6B017C01C0923E03D09294
:1016F0003F03E0924003F092410324EA30E74DE7D4
:101700005FE36091420370914303809144039091A1
:1017100045030E94F40E4B015C012AE037ED43E2E1
:101720005CE3C701B6010E94F40E9B01AC01C50148
:10173000B4010E94240D9B01AC012093420330931D
:101740004303409344035093450389859A85AB85B1
:10175000BC858093320390933303A0933403B093FA
:1017600035038D819E81AF81B88580933603909338
:101770003703A0933803B093390389819A81AB81F1
:10178000BC8180932D0290932E02A0932F02B093E0
:1017900030026091000170910101809102019091ED
:1017A00003010E94230D6B017C0120E030E040EA40
:1017B00051E40E94F40E2B013C01A70196016981BE
:1017C0007A818B819C810E94F40E209115023091C8
:1017D000160240911702509118020E94240D4B01ED
:1017E0005C012DE532E343EA50E40E94EF0E181647
:1017F0000CF4C7C08092150290921602A0921702B4
:10180000B09218022DE532E343EA50EC60911502E4
:101810007091160280911702909118020E94900D0B
:1018200087FF0CC08DE592E3A3EAB0EC809315022C
:1018300090931602A0931702B093180220E030E0B4
:1018400048E452E4609115027091160280911702EB
:10185000909118020E94F40E6D837E838F83988787
:101860002091190230911A0240911B0250911C02E2
:10187000C701B6010E94230D20E030E040EA51E4A8
:101880000E94F40E29813A814B815C810E94950D62
:101890004B015C01C0921902D0921A02E0921B0225
:1018A000F0921C022D813E814F815885C301B20107
:1018B0000E94240DA50194010E94240D6B017C015E
:1018C00020E030E040E751E40E94900D87FD66C0C3
:1018D00020E030E04FE753E4C701B6010E94EF0E6D
:1018E000181634F4C12CD12C9FE7E92E93E4F92E7D
:1018F000C701B6010E94070E4B017B0161E089E040
:101900000E94F2018114910409F04CC060E089E06A
:101910000E94C401E1EBF0E08491EDE9F0E0F49085
:10192000F101E490EE2009F485C081110E949B0131
:10193000EE2DF0E0EE0FFF1FE458FF4FA591B4919C
:101940008C91F82209F476C020E030E040EA52E4BD
:101950002093000130930101409302015093030151
:1019600040E050E0452B09F444CD0E94F800882364
:1019700009F43FCD0E9400003CCDC12CD12C760152
:10198000B4CE8DE592E3A3EAB0E480931502909380
:101990001602A0931702B093180234CFC12CD12C99
:1019A0007601A6CF9FEF8916910411F461E0AFCFC5
:1019B000F8018491833021F148F48130B9F082300C
:1019C000D1F0F0E8EF16F1048CF7A0CF873011F1D9
:1019D000883041F18430A9F7809180008062809343
:1019E000800090928B0080928A0094CF84B58068AA
:1019F00084BD87BC8FCF84B5806284BD88BC8ACF0C
:101A0000809180008068809380009092890080920D
:101A1000880080CF8091B00080688093B000809271
:101A2000B30078CF8091B00080628093B000809244
:101A3000B40070CF109200011092010110920201C7
:101A4000109203018DCF5058BB27AA270E943B0D4F
:101A50000C94B50E0E94A70E38F00E94AE0E20F036
:101A600039F49F3F19F426F40C94A40E0EF4E0957B
:101A7000E7FB0C949E0EE92F0E94C60E58F3BA178E
:101A8000620773078407950720F079F4A6F50C9494
:101A9000E80E0EF4E0950B2EBA2FA02D0B01B90124
:101AA00090010C01CA01A0011124FF27591B99F0D4
:101AB000593F50F4503E68F11A16F040A22F232FE0
:101AC000342F4427585FF3CF469537952795A79530
:101AD000F0405395C9F77EF41F16BA0B620B730BD7
:101AE000840BBAF09150A1F0FF0FBB1F661F771F48
:101AF000881FC2F70EC0BA0F621F731F841F48F4FD
:101B0000879577956795B795F7959E3F08F0B0CF85
:101B10009395880F08F09927EE0F9795879508956C
:101B20000E947A0E08F481E008950E94A90D0C9499
:101B3000B50E0E94AE0E58F00E94A70E40F029F498
:101B40005F3F29F00C949E0E51110C94E90E0C94F9
:101B5000A40E0E94C60E68F39923B1F3552391F3A6
:101B6000951B550BBB27AA2762177307840738F00C
:101B70009F5F5F4F220F331F441FAA1FA9F335D069
:101B80000E2E3AF0E0E832D091505040E695001C1D
:101B9000CAF72BD0FE2F29D0660F771F881FBB1FD7
:101BA000261737074807AB07B0E809F0BB0B802DB5
:101BB000BF01FF2793585F4F3AF09E3F510578F0E1
:101BC0000C949E0E0C94E90E5F3FE4F3983ED4F320
:101BD000869577956795B795F7959F5FC9F7880FB5
:101BE000911D9695879597F90895E1E0660F771F07
:101BF000881FBB1F621773078407BA0720F0621B98
:101C0000730B840BBA0BEE1F88F7E09508950E94C2
:101C10000E0E6894B1110C94E90E08950E94CE0E38
:101C200088F09F5798F0B92F9927B751B0F0E1F09D
:101C3000660F771F881F991F1AF0BA95C9F714C04D
:101C4000B13091F00E94E80EB1E008950C94E80ED6
:101C5000672F782F8827B85F39F0B93FCCF3869586
:101C600077956795B395D9F73EF4909580957095E3
:101C700061957F4F8F4F9F4F0895E89409C097FB60
:101C80003EF490958095709561957F4F8F4F9F4F53
:101C90009923A9F0F92F96E9BB279395F695879597
:101CA00077956795B795F111F8CFFAF4BB0F11F45A
:101CB00060FF1BC06F5F7F4F8F4F9F4F16C0882301
:101CC00011F096E911C0772321F09EE8872F762F37
:101CD00005C0662371F096E8862F70E060E02AF078
:101CE0009A95660F771F881FDAF7880F9695879564
:101CF00097F90895990F0008550FAA0BE0E8FEEF39
:101D000016161706E807F907C0F012161306E407BF
:101D1000F50798F0621B730B840B950B39F40A26B8
:101D200061F0232B242B252B21F408950A2609F496
:101D3000A140A6958FEF811D811D089597F99F679A
:101D400080E870E060E008959FEF80EC0895002443
:101D50000A941616170618060906089500240A9410
:101D600012161306140605060895092E0394000C96
:101D700011F4882352F0BB0F40F4BF2B11F460FF25
:101D800004C06F5F7F4F8F4F9F4F089557FD90584E
:101D9000440F551F59F05F3F71F04795880F97FB2F
:101DA000991F61F09F3F79F08795089512161306E9
:101DB0001406551FF2CF4695F1DF08C01616170618
:101DC0001806991FF1CF869571056105089408954D
:101DD000E894BB2766277727CB0197F908950E94DF
:101DE0007A0E08F48FEF08950E94070F0C94B50E39
:101DF0000E94A70E38F00E94AE0E20F0952311F03D
:101E00000C949E0E0C94A40E11240C94E90E0E94C6
:101E1000C60E70F3959FC1F3950F50E0551F629F5A
:101E2000F001729FBB27F00DB11D639FAA27F00D33
:101E3000B11DAA1F649F6627B00DA11D661F829F5A
:101E40002227B00DA11D621F739FB00DA11D621F3F
:101E5000839FA00D611D221F749F3327A00D611D5C
:101E6000231F849F600D211D822F762F6A2F11243E
:101E70009F5750409AF0F1F088234AF0EE0FFF1F71
:101E8000BB1F661F771F881F91505040A9F79E3FC8
:101E9000510580F00C949E0E0C94E90E5F3FE4F324
:101EA000983ED4F3869577956795B795F795E7951E
:101EB0009F5FC1F7FE2B880F911D9695879597F927
:101EC00008950E947A0E880B990B0895A1E21A2EAC
:101ED000AA1BBB1BFD010DC0AA1FBB1FEE1FFF1FCE
:101EE000A217B307E407F50720F0A21BB30BE40B1E
:101EF000F50B661F771F881F991F1A9469F7609565
:101F00007095809590959B01AC01BD01CF0108951E
:101F1000EE0FFF1F0590F491E02D0994F894FFCF88
:101F20000000A0420000A0420000A042000000000B
:101F30002E018E00BB007B01EC00CA00DE00000019
:101F400000002704FA035604D003F303E003D1038F
:101F50006E616E00696E66006F7666004572726F24
:101F60007220636F6D6D756E69636174696E672051
:101F70007769746820415335363030000D0A0046C9
:101F800061696C656420746F207265616420656EA0
:101F90006F7567682062797465732066726F6D2053
:101FA000415335363030003E4D6F746F725F313AB9
:0E1FB000002C6176673A002C617667323A00A9
:107E0000112484B714BE81FFF0D085E080938100F7
:107E100082E08093C00088E18093C10086E0809377
:107E2000C20080E18093C4008EE0C9D0259A86E02C
:107E300020E33CEF91E0309385002093840096BBD3
:107E4000B09BFECF1D9AA8958150A9F7CC24DD24C4
:107E500088248394B5E0AB2EA1E19A2EF3E0BF2EE7
:107E6000A2D0813461F49FD0082FAFD0023811F036
:107E7000013811F484E001C083E08DD089C08234E0
:107E800011F484E103C0853419F485E0A6D080C0E4
:107E9000853579F488D0E82EFF2485D0082F10E0AE
:107EA000102F00270E291F29000F111F8ED06801E7
:107EB0006FC0863521F484E090D080E0DECF843638
:107EC00009F040C070D06FD0082F6DD080E0C81688
:107ED00080E7D80618F4F601B7BEE895C0E0D1E017
:107EE00062D089930C17E1F7F0E0CF16F0E7DF06D8
:107EF00018F0F601B7BEE89568D007B600FCFDCFD4
:107F0000A601A0E0B1E02C9130E011968C91119780
:107F100090E0982F8827822B932B1296FA010C0160
:107F200087BEE89511244E5F5F4FF1E0A038BF0790
:107F300051F7F601A7BEE89507B600FCFDCF97BE46
:107F4000E89526C08437B1F42ED02DD0F82E2BD052
:107F50003CD0F601EF2C8F010F5F1F4F84911BD097
:107F6000EA94F801C1F70894C11CD11CFA94CF0C13
:107F7000D11C0EC0853739F428D08EE10CD085E9AC
:107F80000AD08FE07ACF813511F488E018D01DD067
:107F900080E101D065CF982F8091C00085FFFCCF94
:107FA0009093C60008958091C00087FFFCCF809118
:107FB000C00084FD01C0A8958091C6000895E0E648
:107FC000F0E098E1908380830895EDDF803219F02E
:107FD00088E0F5DFFFCF84E1DECF1F93182FE3DFCA
:107FE0001150E9F7F2DF1F91089580E0E8DFEE27F6
:047FF000FF270994CA
:027FFE00040479
:00000001FF
