:020000040000FA
:100000000C9462000C948A000C948A000C948A0070
:100010000C948A000C948A000C948A000C948A0038
:100020000C948A000C948A000C948A000C948A0028
:100030000C948A000C948A000C948A000C948A0018
:100040000C9456080C948A000C9424080C94FE0717
:100050000C948A000C948A000C948A000C948A00F8
:100060000C94A0080C948A000000000024002700D3
:100070002A0000000000250028002B0000000000DE
:1000800023002600290004040404040404040202DA
:100090000202020203030303030301020408102007
:1000A0004080010204081020010204081020000012
:1000B0000008000201000003040700000000000027
:1000C0000000BF0911241FBECFEFD8E0DEBFCDBFB7
:1000D00011E0A0E0B1E0ECE5F3E202C005900D9282
:1000E000A43AB107D9F723E0A4EAB1E001C01D9218
:1000F000A938B207E1F710E0C2E6D0E004C02197CA
:10010000FE010E94A611C136D107C9F70E94060A56
:100110000C94AC110C94000008950895AF92BF9216
:10012000CF92DF92EF92FF920F931F93CF93DF93C3
:100130006C017B018B01040F151FEB015E01AE18F2
:10014000BF08C017D10759F06991D601ED91FC9114
:100150000190F081E02DC6010995892B79F7C50141
:10016000DF91CF911F910F91FF90EF90DF90CF9093
:10017000BF90AF900895FC01538D448D252F30E042
:10018000842F90E0821B930B541710F0CF960895A4
:1001900001970895FC01918D828D981761F0A28DD1
:1001A000AE0FBF2FB11D5D968C91928D9F5F9F7397
:1001B000928F90E008958FEF9FEF0895FC01918D4D
:1001C000828D981731F0828DE80FF11D858D90E0BA
:1001D00008958FEF9FEF0895FC01918D228D892F57
:1001E00090E0805C9F4F821B91098F73992708953F
:1001F00080EB92E00E94EC0021E0892B09F420E0E2
:10020000822F089580E090E0892B29F00E94F80069
:1002100081110C9400000895FC01A48DA80FB92F42
:10022000B11DA35ABF4F2C91848D90E001968F731E
:100230009927848FA689B7892C93A089B1898C913D
:10024000837080648C93938D848D981306C002888C
:10025000F389E02D80818F7D80830895EF92FF9256
:100260000F931F93CF93DF93EC0181E0888F9B8DD9
:100270008C8D98131AC0E889F989808185FF15C093
:100280009FB7F894EE89FF896083E889F9898081B6
:100290008370806480839FBF81E090E0DF91CF9185
:1002A0001F910F91FF90EF900895F62E0B8D10E0A7
:1002B0000F5F1F4F0F731127E02E8C8D8E110CC016
:1002C0000FB607FCFACFE889F989808185FFF5CF61
:1002D000CE010E940C01F1CFEB8DEC0FFD2FF11D33
:1002E000E35AFF4FF0829FB7F8940B8FEA89FB899E
:1002F00080818062CFCFCF93DF93EC01888D8823FC
:10030000B9F0AA89BB89E889F9898C9185FD03C078
:10031000808186FD0DC00FB607FCF7CF8C9185FF5D
:10032000F2CF808185FFEDCFCE010E940C01E9CF95
:10033000DF91CF910895833081F028F4813099F0D6
:100340008230A9F008958730A9F08830C9F0843050
:10035000B1F4809180008F7D03C0809180008F7701
:1003600080938000089584B58F7784BD089584B507
:100370008F7DFBCF8091B0008F778093B000089580
:100380008091B0008F7DF9CF1F93CF93DF93282FFB
:1003900030E0F901E255FF4F8491F901E656FF4F35
:1003A000D491F901EA57FF4FC491CC23A9F0162F3D
:1003B00081110E949B01EC2FF0E0EE0FFF1FEE5821
:1003C000FF4FA591B4918FB7F894EC91111108C02B
:1003D000D095DE23DC938FBFDF91CF911F910895DD
:1003E000DE2BF8CFCF93DF9390E0FC01E656FF4F72
:1003F00024918A579F4FFC0184918823D1F090E08B
:10040000880F991FFC01E859FF4FA591B491FC0199
:10041000EE58FF4FC591D49161110EC09FB7F8946B
:100420008C91E22FE0958E238C932881E223E88340
:100430009FBFDF91CF9108958FB7F894EC91E22B95
:10044000EC938FBFF6CF3FB7F8948091090290915B
:100450000A02A0910B02B0910C0226B5A89B05C020
:100460002F3F19F00196A11DB11D3FBFBA2FA92F33
:10047000982F8827BC01CD01620F711D811D911D30
:1004800042E0660F771F881F991F4A95D1F708959C
:100490008F929F92AF92BF92CF92DF92EF92FF9294
:1004A0004B015C010E9423026B017C010E9423022C
:1004B0006C197D098E099F09683E7340810591057D
:1004C000A8F321E0821A9108A108B10888EEC80EAD
:1004D00083E0D81EE11CF11C81149104A104B10435
:1004E00029F7FF90EF90DF90CF90BF90AF909F9053
:1004F0008F9008952091E501260F3327331F213275
:100500003105ECF420918602FC0190E080E024307B
:1005100069F082E00895A091E5012191AC014B536F
:100520005E4FA40FB52FB11D2C930196861798F33B
:100530008091E501680F6093E50180E0089581E016
:1005400008951092860281E08093850210926002E5
:1005500061E082E10E94C40161E083E10E94C40184
:10056000E9EBF0E080818E7F808380818D7F8083C6
:1005700088E48093B80085E48093BC000895CF930D
:10058000DF9391E09093C4018823B9F0C091B80043
:10059000D091BA008091BC008A7B8093BC0060E05F
:1005A00082E10E94C40160E083E10E94C4010E94D4
:1005B000A102D093BA00C093B800DF91CF91089503
:1005C0008F929F92AF92BF92CF92DF92EF92FF9263
:1005D0000F931F93CF93DF93D091AF02D13208F0E6
:1005E000D7C0182FC091AE020E9423026B017C017C
:1005F0008091860281116BC082E080938602109305
:1006000085028FEF8093840210928302D09382023E
:10061000AEE8B2E0E2E6F2E080E0D81391C01092DA
:10062000610280916102CC0FC82BC093610280915E
:100630006002813009F088C0109260020E9423029B
:100640006B017C01809161028093BB0080918802E4
:1006500090918902A0918A02B0918B02892B8A2BFA
:100660008B2BA1F00E942302009188021091890235
:1006700020918A0230918B026C197D098E099F09A5
:10068000061717072807390708F442C08091BC00F5
:1006900083FDD8CF85EC8093BC000E9423026B01C0
:1006A0007C0180918602823009F450C080918402DE
:1006B0008F3F09F46FC080918402803209F46CC0CE
:1006C00080918402803309F469C084E026C080915F
:1006D000880290918902A0918A02B0918B02892BA5
:1006E0008A2B8B2B09F484CF0E94230280908802EE
:1006F00090908902A0908A02B0908B026C197D09BB
:100700008E099F0986169706A806B90608F070CFCD
:10071000809187020E94BF0285E010928D021092A4
:10072000AF0210928C02DF91CF911F910F91FF9039
:10073000EF90DF90CF90BF90AF909F908F900895F3
:100740009D9191938F5F69CF85EEA5CF80918802AF
:1007500090918902A0918A02B0918B02892B8A2BF9
:100760008B2B09F49ECF0E942302009188021091E6
:10077000890220918A0230918B026C197D098E09C1
:100780009F09061717072807390708F08ACFC0CF37
:1007900081E0C3CF80E0C1CF82E0BFCF83E0BDCF97
:1007A0000895E091120280911102E81730F4F0E010
:1007B000EC55FE4F808190E008958FEF9FEF0895F4
:1007C00090911202809111022FEF3FEF981748F499
:1007D000E92FF0E0EC55FE4F208130E09F5F9093D1
:1007E0001202C90108958091110290911202891B91
:1007F000990B0895CF92DF92EF92FF920F931F9380
:10080000CF93DF937C01CB018A0120918C022223BC
:1008100089F0EB016B01C40ED51ECC15DD0569F026
:100820006991D701ED91FC910190F081E02DC70114
:100830000995F3CF642F0E947A02C801DF91CF910E
:100840001F910F91FF90EF90DF90CF900895CF937D
:10085000DF931F92CDB7DEB7698320918C022223EC
:10086000F9F02091AF02203258F021E030E0FC0195
:100870003383228390E080E00F90DF91CF91089541
:1008800080918D02E82FF0E0E257FD4F998190832F
:100890008F5F80938D028093AF0281E090E0ECCF78
:1008A00061E0CE0101960E947A02F7CF90E080E0ED
:1008B0000895CF93DF9300D000D000D0CDB7DEB73E
:1008C00026E0E2E0F1E0DE01119601900D922A951A
:1008D000E1F721E020938C0220E72093AE021092F2
:1008E0008D021092AF02880F991FE1E0F0E0EC0F4B
:1008F000FD1FE80FF91F61E070E0008002C0660F85
:10090000771F0A94E2F78DE493E00E94270481E0C8
:1009100026960FB6F894DEBF0FBECDBFDF91CF9104
:100920000C94E002FC0101900020E9F73197AF013F
:10093000481B590BBC0180EB92E00C948E008F9207
:100940009F92AF92BF920F931F93CF93DF93CDB738
:10095000DEB7A1970FB6F894DEBF0FBECDBF19A2C8
:10096000423008F44AE08E010F5D1F4F842E912C17
:10097000B12CA12CA50194010E947011E62FB901A0
:10098000CA01EA30F4F4E05DD801EE938D01232B27
:10099000242B252B79F790E080E0109719F0CD01FA
:1009A0000E949204A1960FB6F894DEBF0FBECDBF91
:1009B000DF91CF911F910F91BF90AF909F908F903B
:1009C0000895E95CE1CF4F925F926F927F928F9290
:1009D0009F92AF92BF92CF92DF92EF92FF920F93CE
:1009E0001F93CF936B017C01742EAC019B010E947D
:1009F0005711882399F08CE291E0CF911F910F91CC
:100A0000FF90EF90DF90CF90BF90AF909F908F902E
:100A10007F906F905F904F900C9492044601570125
:100A2000E894B7F82FEF3FEF4FE75FE7C501B40158
:100A30000E94571181110DC02FEF3FEF4FE75FE785
:100A4000C501B4010E94860F18161CF480E391E0E2
:100A5000D4CF2FEF3FEF4FE75FE4C701B6010E940D
:100A6000E51018161CF484E391E0C7CF2FEF3FEF99
:100A70004FE75FECC701B6010E94860F87FDF3CFF9
:100A800020E030E0A901C701B6010E94860F10E006
:100A900000E087FF0AC06DE280EB92E00E942E0129
:100AA0008C01F7FAF094F7F8F094C0E060E070E0A1
:100AB00080E09FE37C1641F020E030E040E251E42A
:100AC0000E948B0FCF5FF6CFA70196010E941A0FED
:100AD0002B013C010E9404104B015C014AE00E9482
:100AE0009F047C01E00EF11ECC23C1F1C501B401CD
:100AF0000E9433109B01AC01C301B2010E94190F87
:100B00004B015C016EE280EB92E00E942E01E80E48
:100B1000F91EC15018F120E030E040E251E4C50177
:100B2000B4010E94EA102B013C010E9404104B0109
:100B3000B12CA12C4AE0C501B4010E949F04E80E2B
:100B4000F91EC501B4010E9433109B01AC01C30121
:100B5000B2010E94190F4B015C01DBCFC701CF919D
:100B60001F910F91FF90EF90DF90CF90BF90AF90CB
:100B70009F908F907F906F905F904F9008958F928D
:100B80009F92AF92BF92CF92DF92EF92FF92CF935C
:100B9000DF939B01AC010E941A0F20E030E040E897
:100BA00050E40E94EA104B015C012BE934EC40EA6E
:100BB00051E40E94190F20E030E040E05FE30E9422
:100BC000EA106B017C012BE934EC40EA51E4C501E9
:100BD000B4010E941A0F20E030E040E05FE30E9481
:100BE000EA106093540270935502809356029093DA
:100BF0005702C0925802D0925902E0925A02F092E3
:100C00005B02C0925C02D0925D02E0925E02F092C2
:100C10005F02C4E5D2E0C12CD12C760188E391E0DB
:100C20000E9492044AE0C701B6010E949F0480E539
:100C300091E00E949204699179918991999142E0A1
:100C40000E94E30482E491E00E9492048FEFC81AAC
:100C5000D80AE80AF80A83E0C816D104E104F104CE
:100C6000E9F6DF91CF91FF90EF90DF90CF90BF90AA
:100C7000AF909F908F900895CF92DF92EF92FF9266
:100C8000CF93DF936C01990FEE08FF08F7FE1FC0AA
:100C90006DE280EB92E00E942E01EC01662777273F
:100CA000CB016C197D098E099F094AE00E949F04BF
:100CB000C80FD91F82E491E00E9492048C0F9D1FFF
:100CC000DF91CF91FF90EF90DF90CF9008954AE0B1
:100CD000C701B6010E949F04EC01ECCFEF92FF9296
:100CE0000F931F93CF93DF93EC0111E080910001EC
:100CF000909101018C179D070CF410E085E491E0C0
:100D00000E94920480910001909101019E01281B94
:100D1000390BC9010E943C06612F84E00E94C40186
:100D200010E000E083E0E82EF12C8091000190912A
:100D300001019E01281B390BC90137FF03C09195A2
:100D400081959109B7010E945C1106171707BCF441
:100D500061E085E00E94C40168E070E080E090E01E
:100D60000E94480260E085E00E94C40162E070E0F9
:100D700080E090E00E9448020F5F1F4FD6CFD093D3
:100D80000101C0930001DF91CF911F910F91FF905E
:100D9000EF900895CF92DF92EF92FF920F931F93FF
:100DA000CF9381E080938C0286E38093AE02109211
:100DB0008D021092AF026CE08DE493E00E94270454
:100DC00080E00E94E002C82F83E591E0C111D5C008
:100DD0000E9423026B017C0180918602811163C015
:100DE00081E080938602809385029FEF9093840236
:100DF000109283028093820280936102809161024B
:100E00008C668093610280916002813009F08DC010
:100E1000109260020E9423026B017C0180916102AA
:100E20008093BB008091880290918902A0918A02F0
:100E3000B0918B02892B8A2B8B2BA1F00E9423026D
:100E4000009188021091890220918A0230918B02D0
:100E50006C197D098E099F0906171707280739079E
:100E600008F442C08091BC0083FDD8CF85EC80930C
:100E7000BC000E9423026B017C01809186028130BC
:100E800009F455C080918302823008F072C08091CD
:100E90008302A2E6B2E0E4EAF1E0C81749F19D91CD
:100EA0009193CF5FFACF8091880290918902A091AF
:100EB0008A02B0918B02892B8A2B8B2B09F48CCF61
:100EC0000E942302009188021091890220918A02D7
:100ED00030918B026C197D098E099F09061717073F
:100EE0002807390708F078CF809187020E94BF0257
:100EF00010921202C0931102C230E8F18DE493E027
:100F00000E94E003C82F8DE493E00E94E00320E0FC
:100F10003C2FA901482BCA019F70CF911F910F91BF
:100F2000FF90EF90DF90CF90089585EEA0CF809155
:100F3000880290918902A0918A02B0918B02892B3C
:100F40008A2B8B2B09F499CF0E94230200918802EF
:100F50001091890220918A0230918B026C197D09CF
:100F60008E099F09061717072807390708F085CF4C
:100F7000BBCF82E08ECF83E791E00E94920482E4AF
:100F800091E00E94920490E080E0C7CF85ED8093CD
:100F9000BC008091880290918902A0918A02B09150
:100FA0008B020796A11DB11D23E0B695A7959795D5
:100FB00087952A95D1F72091BC0024FD03C010929B
:100FC00086020895409188025091890260918A02B8
:100FD00070918B02452B462B472B69F30097A10597
:100FE000B10541F02AE22A95F1F700C00197A10965
:100FF000B109E1CF809187020C94BF021F920F923A
:101000000FB60F9211242F933F934F935F936F93DB
:101010007F938F939F93AF93BF93EF93FF9380EB57
:1010200092E00E940C01FF91EF91BF91AF919F91CF
:101030008F917F916F915F914F913F912F910F9081
:101040000FBE0F901F9018951F920F920FB60F9220
:1010500011242F938F939F93EF93FF93E091C002FE
:10106000F091C1028081E091C602F091C70282FD39
:101070001BC090818091C9028F5F8F732091CA023B
:10108000821741F0E091C902F0E0E055FD4F958FE5
:101090008093C902FF91EF919F918F912F910F90B3
:1010A0000FBE0F901F9018958081F4CF1F920F9262
:1010B0000FB60F9211242F933F938F939F93AF936B
:1010C000BF938091130290911402A0911502B091E8
:1010D00016023091080223E0230F2D3758F50196B0
:1010E000A11DB11D20930802809313029093140256
:1010F000A0931502B09316028091090290910A0202
:10110000A0910B02B0910C020196A11DB11D80931C
:10111000090290930A02A0930B02B0930C02BF91B4
:10112000AF919F918F913F912F910F900FBE0F9094
:101130001F90189526E8230F0296A11DB11DD2CF4E
:101140001F920F920FB60F9211242F933F934F933C
:101150005F936F937F938F939F93AF93BF93EF931F
:10116000FF938091B900887F803609F44AC0F0F57A
:10117000883209F4A7C018F5803109F49BC0B8F48F
:10118000882309F4F9C0883009F494C0FF91EF91E5
:10119000BF91AF919F918F917F916F915F914F918F
:1011A0003F912F910F900FBE0F901F90189588318F
:1011B00009F488C0803251F78093840214C08034CF
:1011C00009F49DC040F48033B9F38833F9F6809375
:1011D000840285ECB0C0803509F485C0883509F4F7
:1011E00096C0883499F60E94C607D0CF883909F492
:1011F0008CC038F5883729F050F4883611F08037E4
:1012000029F683E0809386021092070257C088383F
:1012100009F47BC0803919F0803809F0B7CF80918C
:101220000702803208F071C0E091070281E08E0F62
:10123000809307028091BB00F0E0E951FE4F80836C
:101240003DC0803B39F0E0F4803A09F479C0883A37
:1012500009F09CCF84E0809386021092E601109200
:10126000E501E0910F02F091100209958091E501EE
:1012700081110FC081E08093E5011092C50109C082
:10128000803C09F4A6CF883C09F4A3CF883B09F041
:101290007DCFE091E60181E08E0F8093E601F0E0E2
:1012A000EB53FE4F80818093BB009091E6018091CB
:1012B000E50129C0809161028093BB0085EC809399
:1012C000BC0064CF9091830280918202981758F5F8
:1012D000E091830281E08E0F80938302F0E0EE596B
:1012E000FD4F8081E9CFE091830281E08E0F8093F2
:1012F00083028091BB00F0E0EE59FD4F8083909116
:101300008302809182029817C8F285E8D8CFE091D5
:10131000830281E08E0F809383028091BB00F0E016
:10132000EE59FD4F80838091850281115CCF81E071
:101330008093600284EA8093BC001092860226CFDC
:1013400085EC8093BC001092860280910702803267
:1013500030F4E0910702F0E0E951FE4F1082609115
:10136000070270E0E0910D02F0910E0287EE91E02D
:101370000995109207020ACF1092840234CFE0EB55
:10138000F2E01382128288EE93E0A0E0B0E0848362
:101390009583A683B7832CE031E03183208325EC4D
:1013A00030E03587248724EC30E03787268720EC2F
:1013B00030E0318B208B21EC30E0338B228B22EC20
:1013C00030E0358B248B26EC30E0378B268B118E6A
:1013D000128E138E148EEDE4F3E013821282848356
:1013E0009583A683B7838EE191E091838083E9E5BD
:1013F000F3E01486158616861786148E158E168EC3
:10140000178E14A615A616A617A60895CF93DF93D8
:10141000CDB7DEB76E970FB6F894DEBF0FBECDBF67
:10142000789484B5826084BD84B5816084BD85B5BF
:10143000826085BD85B5816085BD80916E008160CB
:1014400080936E0010928100809181008260809371
:101450008100809181008160809381008091800073
:101460008160809380008091B10084608093B1009E
:101470008091B00081608093B00080917A00846098
:1014800080937A0080917A00826080937A008091C4
:101490007A00816080937A0080917A0080688093DE
:1014A0007A001092C10060ED77E080E090E00E9449
:1014B0004802E091C002F091C10282E08083E09195
:1014C000BC02F091BD021082E091BE02F091BF0219
:1014D00080E180831092C802E091C402F091C502BD
:1014E00086E08083E091C202F091C3028081806136
:1014F0008083E091C202F091C30280818860808382
:10150000E091C202F091C302808180688083E09103
:10151000C202F091C30280818F7D808360E083E00E
:101520000E94F20161E084E00E94F20161E085E046
:101530000E94F20161E086E00E94F20161E087E032
:101540000E94F20161E088E00E94F20161E089E01E
:101550000E94F20161E08AE00E94F20161E08BE00A
:101560000E94F20160E08CE00E94F20160E08DE0F8
:101570000E94F201109212021092110210928D023A
:101580001092AF020E94A1028CE890E090931002AA
:1015900080930F028DE890E090930E0280930D02ED
:1015A00060E088E00E94C4015FE1C52E52E0D52EC4
:1015B00069E5E62E63E0F62E10E000E0C8010E9427
:1015C00059046AE070E080E090E00E944802C8019F
:1015D0000E943C060E94CA06BC0190E080E00E9486
:1015E0003310D7016D937D938D939C9313972FB7F1
:1015F000F8948091130290911402A0911502B09179
:1016000016022FBFF70184839583A683B7831086C4
:10161000118612861386F6011082118212821382BD
:1016200014821582168217820F5F1F4FB0E1EB0EF6
:10163000F11CE8E0CE0ED11C0330110509F0BECF3D
:101640008EEB90E0909348028093470280E090E018
:10165000A0E2B1E48093430290934402A093450238
:10166000B093460284E690E090934E0280934D0240
:1016700083E393E3ABECB0E48093490290934A0296
:10168000A0934B02B0934C0260E070E080E291E4E2
:101690000E94BF0580914702909148020E946E0609
:1016A00024E532E03A8F298F890149E5E42E43E0B1
:1016B000F42EDD24D394D70118968D909D90AD9093
:1016C000BC901B97F80141905190619071908F01EF
:1016D00026E636E646E65FE3C301B2010E94EA1061
:1016E0009B01AC01C501B4010E94860F87FDCFC1EB
:1016F0002DEC3CEC4CE85FE3C301B2010E94EA1020
:101700009B01AC01C501B4010E94E51018160CF450
:10171000BEC1F0E1EF0EF11C22E00036120759F6CF
:10172000F0905302809152028F2931E08327D82212
:101730006D2D88E00E94C401E1EBF0E08491EDE9B9
:10174000F0E00491E9E8F0E01491112399F081119F
:101750000E949B01E12FF0E0EE0FFF1FE458FF4FC6
:10176000A591B4918C91082329F0DD2019F0F1E0C6
:10177000F093520280915202882309F44DC00091E7
:10178000500210915102F11084C161E086E00E9484
:10179000C40161E087E00E94C40161E070E080E084
:1017A00090E00E94480260E087E00E94C4010F5F61
:1017B0001F4F10935102009350028091500290915C
:1017C0005102019781349E4038F18091530231E0FB
:1017D00083278093530281111FC010925202E0911F
:1017E0004F02E327E0934F0246E04E9FF0011124A1
:1017F000ED5BFD4F60817181828193810E94BF0505
:10180000E0914F0256E05E9FF0011124ED5BFD4F29
:10181000848195810E946E068FB7F89480901302A0
:1018200090901402A0901502B09016028FBF809184
:101830001B0290911C02A0911D02B0911E02A501F5
:101840009401281B390B4A0B5B0BDA01C9018A355D
:101850009105A105B10580F180921B0290921C02B6
:10186000A0921D02B0921E0288E0EBE9F1E0DE01D9
:10187000119601900D928A95E1F709E513E021E3B5
:10188000F22EFE82CE0101960E949204D8011C968F
:101890006D917D918D919C911F9742E00E94E30490
:1018A000BCE2B983F394005F1F4FE4E3FE12E9CF7B
:1018B00082E491E00E9492048091170290911802B4
:1018C000A0911902B0911A02A5019401281B390BAD
:1018D0004A0B5B0BDA01C9010A97A105B10508F4AF
:1018E00059C18092170290921802A0921902B092E8
:1018F0001A0247E352E05E8B4D8B09E513E0312C71
:10190000212CC1010E9459040E94CA067C01F801E1
:1019100084819581A681B781A5019401281B390B8B
:101920004A0B5B0BCA01B9010E94331020E030E082
:101930004AE754E40E948B0F69877A878B879C87DC
:10194000B70190E080E00E94331020E030E040E8F2
:1019500059E30E94EA106D877E878F87988BD801A4
:10196000CD90DD90ED90FC909B01AC01C701B601DC
:101970000E94190F2FE632E143E85AE30E94E51076
:1019800018166CF420E030E040E85FE3C701B601D0
:101990000E94190FF8016083718382839383D801B9
:1019A0001896CD90DD90ED90FC901B9729E73AE7D3
:1019B00045EA5BE369857A858B859C850E94E51005
:1019C00018160CF04AC0F801208131814281538100
:1019D0006D857E858F8598890E94190F2B013C01AA
:1019E00029853A854B855C850E948B0F698B7A8BA4
:1019F0008B8B9C8B20E030E04CED52E40E94860FF4
:101A000087FF2BC029E23CE54FE85DE3C301B2014B
:101A10000E94E51018160CF5A701960169897A89CC
:101A20008B899C890E94190F29853A854B855C8595
:101A30000E948B0F2B013C0120E030E0A9010E94A5
:101A4000E5101816DCF520E030E04AEF55E4C3015C
:101A5000B2010E94860F87FD3BC020E030E0A90163
:101A6000C701B6010E94E51020E030E040E85FE3E6
:101A700018161CF020E030E0A901C701B6010E9451
:101A8000190FF80160877187828793872CC0D12C4A
:101A900040CE60E086E00E94C40161E087E00E94E1
:101AA000C40161E070E080E090E00E94480260E0E4
:101AB00087E00E94C401015011097BCE20E030E094
:101AC0004AEF55ECC301B2010E94E51018162CF63E
:101AD00029893A894B895C89D80118962D933D93C1
:101AE0004D935C931B97D8011896CD90DD90ED90A7
:101AF000FC901B9720E030E0A901C701B6010E94CD
:101B0000E51018160CF010C126E636E646E65FE34F
:101B1000F80164857585868597850E94EA102B01FA
:101B20003C012DEC3CEC4CEC5DE3C701B6010E949E
:101B3000EA109B01AC01C301B2010E941A0FD80147
:101B40001C966D937D938D939C931F972D853E8559
:101B50004F8558892D933D934D935C931397F801CE
:101B600084829582A682B782AD89BE8929853A850D
:101B70004B855C852D933D934D935D93BE8BAD8BD3
:101B8000BFEF2B1A3B0A005F1F4FE3E02E16310414
:101B900009F0B7CE27E332E03A8B298B4EEA50E0CA
:101BA0005A8749879FE1292E92E0392E89E593E0F3
:101BB0009E878D8719E0A989BA894D905D906D90B7
:101BC0007D90BA8BA98BE98DFA8D6191719181918C
:101BD0009191FA8FE98FAD85BE851C962D913D912F
:101BE0004D915C911F970E94190F6B017C0123E3BB
:101BF00033E343E350E40E94EA106D8B7E8B8F8BBE
:101C0000988FA7019601C301B2010E94EA10F10169
:101C100020813181428153810E941A0F4B015C0166
:101C20002CE437E64AEB54E40E94E51018160CF455
:101C30007FC0D1018D929D92AD92BC9213972CE4FE
:101C400037E64AEB54ECD1016D917D918D919C91D9
:101C50000E94860F87FF09C08CE497E6AAEBB4ECDC
:101C6000F10180839183A283B3832BE734E14EE2B9
:101C70005EE3D1016D917D918D919C910E94EA105E
:101C80006B8F7C8F8D8F9E8FF101248135814681F2
:101C90005781C701B6010E94190F2DEC3CEC4CE4B2
:101CA0005DEB0E94EA10A30192010E948B0F4B0191
:101CB0005C01D1011496CD92DD92ED92FC921797C2
:101CC0002B8D3C8D4D8D5E8D6D897E898F89988D94
:101CD0000E941A0FA50194010E941A0F6B017C014A
:101CE00020E030E040E751E40E94860F87FD2AC0E3
:101CF00020E030E04FE753E4C701B6010E94E51051
:101D0000181624F1C701B6010E94FD0F4B017B019B
:101D100061E0812F0E94F20181149104F1F460E0EE
:101D2000812F0E94C40146C060E070E0CB0107CF64
:101D30008CE497E6AAEBB4E4F10180839183A2835B
:101D4000B3837DCFC12CD12C7601DCCFC12CD12C1B
:101D50008FE7E82E83E4F82ED5CFBFEF8B169104E2
:101D600011F461E0DDCFE985FA853996E491E3303D
:101D700009F445C048F4E130C9F0E230D9F1E0E8B7
:101D8000EE16F10474F7CBCFE73009F442C0E83027
:101D900009F447C0E43099F7809180008062809315
:101DA000800090928B0080928A0004C084B5806885
:101DB00084BD87BC2D853E85205F3F4F3E872D87A4
:101DC00038E0230E311C1F5F49855A854F5F5F4FF6
:101DD0005A8749871C3009F0EECE80E090E0892BCD
:101DE00009F45ECC0E94F800882309F459CC0E94C3
:101DF000000056CC84B5806284BD88BCDBCF809166
:101E00008000806880938000909289008092880092
:101E1000D1CF8091B00080688093B0008092B300F1
:101E2000C9CF8091B00080628093B0008092B400EE
:101E3000C1CF5058BB27AA270E94310F0C94AB107A
:101E40000E949D1038F00E94A41020F039F49F3FAA
:101E500019F426F40C949A100EF4E095E7FB0C9418
:101E60009410E92F0E94BC1058F3BA176207730749
:101E70008407950720F079F4A6F50C94DE100EF493
:101E8000E0950B2EBA2FA02D0B01B90190010C018A
:101E9000CA01A0011124FF27591B99F0593F50F4A2
:101EA000503E68F11A16F040A22F232F342F4427FA
:101EB000585FF3CF469537952795A795F0405395F2
:101EC000C9F77EF41F16BA0B620B730B840BBAF0C2
:101ED0009150A1F0FF0FBB1F661F771F881FC2F72D
:101EE0000EC0BA0F621F731F841F48F48795779541
:101EF0006795B795F7959E3F08F0B0CF9395880FFB
:101F000008F09927EE0F9795879508950E94701015
:101F100008F481E008950E949F0F0C94AB100E947A
:101F2000A41058F00E949D1040F029F45F3F29F062
:101F30000C94941051110C94DF100C949A100E9480
:101F4000BC1068F39923B1F3552391F3951B550BFE
:101F5000BB27AA2762177307840738F09F5F5F4F7C
:101F6000220F331F441FAA1FA9F335D00E2E3AF0BB
:101F7000E0E832D091505040E695001CCAF72BD0D3
:101F8000FE2F29D0660F771F881FBB1F2617370724
:101F90004807AB07B0E809F0BB0B802DBF01FF2756
:101FA00093585F4F3AF09E3F510578F00C9494108F
:101FB0000C94DF105F3FE4F3983ED4F38695779559
:101FC0006795B795F7959F5FC9F7880F911D96950F
:101FD000879597F90895E1E0660F771F881FBB1F6B
:101FE000621773078407BA0720F0621B730B840B18
:101FF000BA0BEE1F88F7E09508950E9404106894CC
:10200000B1110C94DF1008950E94C41088F09F57FE
:1020100098F0B92F9927B751B0F0E1F0660F771F0C
:10202000881F991F1AF0BA95C9F714C0B13091F002
:102030000E94DE10B1E008950C94DE10672F782F17
:102040008827B85F39F0B93FCCF3869577956795C7
:10205000B395D9F73EF490958095709561957F4F33
:102060008F4F9F4F0895E89409C097FB3EF49095D9
:102070008095709561957F4F8F4F9F4F9923A9F061
:10208000F92F96E9BB279395F695879577956795F0
:10209000B795F111F8CFFAF4BB0F11F460FF1BC034
:1020A0006F5F7F4F8F4F9F4F16C0882311F096E9C7
:1020B00011C0772321F09EE8872F762F05C0662375
:1020C00071F096E8862F70E060E02AF09A95660F2E
:1020D000771F881FDAF7880F9695879597F90895E7
:1020E000990F0008550FAA0BE0E8FEEF1616170629
:1020F000E807F907C0F012161306E407F50798F091
:10210000621B730B840B950B39F40A2661F0232BA9
:10211000242B252B21F408950A2609F4A140A69525
:102120008FEF811D811D089597F99F6780E870E00A
:1021300060E008959FEF80EC089500240A9416163D
:10214000170618060906089500240A9412161306A5
:10215000140605060895092E0394000C11F4882333
:1021600052F0BB0F40F4BF2B11F460FF04C06F5F4F
:102170007F4F8F4F9F4F089557FD9058440F551F25
:1021800059F05F3F71F04795880F97FB991F61F0F9
:102190009F3F79F087950895121613061406551F70
:1021A000F2CF4695F1DF08C0161617061806991FDC
:1021B000F1CF86957105610508940895E894BB27D1
:1021C00066277727CB0197F908950E94701008F4CD
:1021D0008FEF08950E94FD100C94AB100E949D108B
:1021E00038F00E94A41020F0952311F00C94941064
:1021F0000C949A1011240C94DF100E94BC1070F300
:10220000959FC1F3950F50E0551F629FF001729F9B
:10221000BB27F00DB11D639FAA27F00DB11DAA1FAA
:10222000649F6627B00DA11D661F829F2227B00DF7
:10223000A11D621F739FB00DA11D621F839FA00D82
:10224000611D221F749F3327A00D611D231F849FD2
:10225000600D211D822F762F6A2F11249F57504029
:102260009AF0F1F088234AF0EE0FFF1FBB1F661FA4
:10227000771F881F91505040A9F79E3F510580F06D
:102280000C9494100C94DF105F3FE4F3983ED4F369
:10229000869577956795B795F795E7959F5FC1F711
:1022A000FE2B880F911D9695879597F908950E94AA
:1022B0007010880B990B089597FB072E16F4009465
:1022C00007D077FD09D00E94921107FC05D03EF49B
:1022D000909581959F4F0895709561957F4F0895D2
:1022E000A1E21A2EAA1BBB1BFD010DC0AA1FBB1F1A
:1022F000EE1FFF1FA217B307E407F50720F0A21B8C
:10230000B30BE40BF50B661F771F881F991F1A94F8
:1023100069F760957095809590959B01AC01BD0122
:10232000CF010895AA1BBB1B51E107C0AA1FBB1F09
:10233000A617B70710F0A61BB70B881F991F5A9551
:10234000A9F780959095BC01CD010895EE0FFF1F70
:102350000590F491E02D0994F894FFCFE801000076
:1023600004000200000000002E018E00BB007B0173
:10237000EC00CA00DE00000000002704FA03560447
:10238000D003F303E003D1036E616E00696E660053
:102390006F766600746172676574525053000D0A5F
:1023A0000044656C746120616E676C653A2000457D
:1023B00072726F7220636F6D6D756E69636174699F
:1023C0006E67207769746820415335363030004697
:1023D00061696C656420746F207265616420656E4C
:1023E0006F7567682062797465732066726F6D20FF
:1023F000415335363030003E20617667313A000077
:107E0000112484B714BE81FFF0D085E080938100F7
:107E100082E08093C00088E18093C10086E0809377
:107E2000C20080E18093C4008EE0C9D0259A86E02C
:107E300020E33CEF91E0309385002093840096BBD3
:107E4000B09BFECF1D9AA8958150A9F7CC24DD24C4
:107E500088248394B5E0AB2EA1E19A2EF3E0BF2EE7
:107E6000A2D0813461F49FD0082FAFD0023811F036
:107E7000013811F484E001C083E08DD089C08234E0
:107E800011F484E103C0853419F485E0A6D080C0E4
:107E9000853579F488D0E82EFF2485D0082F10E0AE
:107EA000102F00270E291F29000F111F8ED06801E7
:107EB0006FC0863521F484E090D080E0DECF843638
:107EC00009F040C070D06FD0082F6DD080E0C81688
:107ED00080E7D80618F4F601B7BEE895C0E0D1E017
:107EE00062D089930C17E1F7F0E0CF16F0E7DF06D8
:107EF00018F0F601B7BEE89568D007B600FCFDCFD4
:107F0000A601A0E0B1E02C9130E011968C91119780
:107F100090E0982F8827822B932B1296FA010C0160
:107F200087BEE89511244E5F5F4FF1E0A038BF0790
:107F300051F7F601A7BEE89507B600FCFDCF97BE46
:107F4000E89526C08437B1F42ED02DD0F82E2BD052
:107F50003CD0F601EF2C8F010F5F1F4F84911BD097
:107F6000EA94F801C1F70894C11CD11CFA94CF0C13
:107F7000D11C0EC0853739F428D08EE10CD085E9AC
:107F80000AD08FE07ACF813511F488E018D01DD067
:107F900080E101D065CF982F8091C00085FFFCCF94
:107FA0009093C60008958091C00087FFFCCF809118
:107FB000C00084FD01C0A8958091C6000895E0E648
:107FC000F0E098E1908380830895EDDF803219F02E
:107FD00088E0F5DFFFCF84E1DECF1F93182FE3DFCA
:107FE0001150E9F7F2DF1F91089580E0E8DFEE27F6
:047FF000FF270994CA
:027FFE00040479
:00000001FF
