:020000040000FA
:100000000C945D000C9485000C9485000C94850084
:100010000C9485000C9485000C9485000C9485004C
:100020000C9485000C9485000C9485000C9485003C
:100030000C9485000C9485000C9485000C9485002C
:100040000C9419070C9485000C94E7060C94C106D7
:100050000C9485000C9485000C9485000C9485000C
:100060000C9463070C948500000000002400270016
:100070002A0000000000250028002B0004040404CE
:100080000404040402020202020203030303030342
:10009000010204081020408001020408102001021F
:1000A00004081020000000080002010000030407FB
:1000B0000000000000000000820811241FBECFEFE6
:1000C000D8E0DEBFCDBF11E0A0E0B1E0E8EEFEE198
:1000D00002C005900D92AE39B107D9F723E0AEE921
:1000E000B1E001C01D92AE36B207E1F710E0CDE5F8
:1000F000D0E004C02197FE010E946C0FCC35D107DF
:10010000C9F70E94D5080C94720F0C940000089552
:100110000895AF92BF92CF92DF92EF92FF920F932A
:100120001F93CF93DF936C017B018B01040F151F8D
:10013000EB015E01AE18BF08C017D10759F06991F5
:10014000D601ED91FC910190F081E02DC601099559
:10015000892B79F7C501DF91CF911F910F91FF9006
:10016000EF90DF90CF90BF90AF900895FC01538D3A
:10017000448D252F30E0842F90E0821B930B541781
:1001800010F0CF96089501970895FC01918D828D0E
:10019000981761F0A28DAE0FBF2FB11D5D968C91A7
:1001A000928D9F5F9F73928F90E008958FEF9FEFE6
:1001B0000895FC01918D828D981731F0828DE80FA2
:1001C000F11D858D90E008958FEF9FEF0895FC015C
:1001D000918D228D892F90E0805C9F4F821B910929
:1001E0008F739927089589E892E00E94E70021E043
:1001F000892B09F420E0822F089580E090E0892B7C
:1002000029F00E94F30081110C9400000895FC0174
:10021000A48DA80FB92FB11DA35ABF4F2C91848D67
:1002200090E001968F739927848FA689B7892C93C4
:10023000A089B1898C91837080648C93938D848D17
:10024000981306C00288F389E02D80818F7D80831A
:100250000895EF92FF920F931F93CF93DF93EC01DA
:1002600081E0888F9B8D8C8D98131AC0E889F9895D
:10027000808185FF15C09FB7F894EE89FF89608360
:10028000E889F98980818370806480839FBF81E0E1
:1002900090E0DF91CF911F910F91FF90EF90089523
:1002A000F62E0B8D10E00F5F1F4F0F731127E02EFE
:1002B0008C8D8E110CC00FB607FCFACFE889F98936
:1002C000808185FFF5CFCE010E940701F1CFEB8D34
:1002D000EC0FFD2FF11DE35AFF4FF0829FB7F8940A
:1002E0000B8FEA89FB8980818062CFCFCF93DF9328
:1002F000EC01888D8823B9F0AA89BB89E889F9893E
:100300008C9185FD03C0808186FD0DC00FB607FC72
:10031000F7CF8C9185FFF2CF808185FFEDCFCE01A5
:100320000E940701E9CFDF91CF91089590E0FC0191
:10033000EC55FF4F2491FC01E057FF4F3491FC0135
:10034000E458FF4FE491EE23C9F0222339F0233023
:1003500001F1A8F4213019F1223029F1F0E0EE0F7B
:10036000FF1FEE58FF4FA591B4918FB7F894EC9111
:10037000611126C030953E233C938FBF08952730EE
:10038000A9F02830C9F0243049F7809180008F7D92
:1003900003C0809180008F7780938000DFCF84B589
:1003A0008F7784BDDBCF84B58F7DFBCF8091B0008C
:1003B0008F778093B000D2CF8091B0008F7DF9CF3E
:1003C0003E2BDACFCF93DF9390E0FC01E057FF4F55
:1003D000249184589F4FFC0184918823D1F090E0B0
:1003E000880F991FFC01E859FF4FA591B491FC01BA
:1003F000EE58FF4FC591D49161110EC09FB7F8948C
:100400008C91E22FE0958E238C932881E223E88360
:100410009FBFDF91CF9108958FB7F894EC91E22BB5
:10042000EC938FBFF6CF3FB7F89480910302909181
:100430000402A0910502B091060226B5A89B05C052
:100440002F3F19F00196A11DB11D3FBFBA2FA92F53
:10045000982F8827BC01CD01620F711D811D911D50
:1004600042E0660F771F881F991F4A95D1F70895BC
:100470008F929F92AF92BF92CF92DF92EF92FF92B4
:100480004B015C010E9413026B017C010E9413026C
:100490006C197D098E099F09683E7340810591059D
:1004A000A8F321E0821A9108A108B10888EEC80ECD
:1004B00083E0D81EE11CF11C81149104A104B10455
:1004C00029F7FF90EF90DF90CF90BF90AF909F9073
:1004D0008F9008952091DF01260F3327331F21329B
:1004E0003105ECF420915F02FC0190E080E02430C3
:1004F00069F082E00895A091DF012191AC0141549F
:100500005E4FA40FB52FB11D2C930196861798F35B
:100510008091DF01680F6093DF0180E0089581E042
:10052000089510925F0281E080935E02109239027A
:1005300061E082E10E94960161E083E10E94960100
:10054000E9EBF0E080818E7F808380818D7F8083E6
:1005500088E48093B80085E48093BC000895CF932D
:10056000DF9391E09093BE018823B9F0C091B80069
:10057000D091BA008091BC008A7B8093BC0060E07F
:1005800082E10E94960160E083E10E9496010E9450
:100590009102D093BA00C093B800DF91CF91089533
:1005A0008F929F92AF92BF92CF92DF92EF92FF9283
:1005B0000F931F93CF93DF93D0918802D13208F02D
:1005C000D7C0182FC09187020E9413026B017C01D3
:1005D00080915F0281116BC082E080935F02109373
:1005E0005E028FEF80935D0210925C02D0935B02FB
:1005F000A7E6B2E0EBE3F2E080E0D81391C01092FE
:100600003A0280913A02CC0FC82BC0933A028091F3
:100610003902813009F088C0109239020E94130219
:100620006B017C0180913A028093BB008091610252
:1006300090916202A0916302B0916402892B8A2B8F
:100640008B2BA1F00E9413020091610210916202B3
:1006500020916302309164026C197D098E099F0913
:10066000061717072807390708F442C08091BC0015
:1006700083FDD8CF85EC8093BC000E9413026B01F0
:100680007C0180915F02823009F450C080915D024C
:100690008F3F09F46FC080915D02803209F46CC015
:1006A00080915D02803309F469C084E026C08091A6
:1006B000610290916202A0916302B0916402892B61
:1006C0008A2B8B2B09F484CF0E9413028090610245
:1006D00090906202A0906302B09064026C197D0950
:1006E0008E099F0986169706A806B90608F070CFEE
:1006F000809160020E94AF0285E010926602109223
:10070000880210926502DF91CF911F910F91FF90A7
:10071000EF90DF90CF90BF90AF909F908F90089513
:100720009D9191938F5F69CF85EEA5CF80916102F6
:1007300090916202A0916302B0916402892B8A2B8E
:100740008B2B09F49ECF0E9413020091610210913D
:10075000620220916302309164026C197D098E0956
:100760009F09061717072807390708F08ACFC0CF57
:1007700081E0C3CF80E0C1CF82E0BFCF83E0BDCFB7
:100780000895E0910C0280910B02E81730F4F0E03C
:10079000E256FE4F808190E008958FEF9FEF08951D
:1007A00090910C0280910B022FEF3FEF981748F4C5
:1007B000E92FF0E0E256FE4F208130E09F5F9093FA
:1007C0000C02C901089580910B0290910C02891BC3
:1007D000990B0895CF92DF92EF92FF920F931F93A0
:1007E000CF93DF937C01CB018A0120916502222304
:1007F00089F0EB016B01C40ED51ECC15DD0569F047
:100800006991D701ED91FC910190F081E02DC70134
:100810000995F3CF642F0E946A02C801DF91CF913E
:100820001F910F91FF90EF90DF90CF900895CF939D
:10083000DF931F92CDB7DEB7698320916502222333
:10084000F9F020918802203258F021E030E0FC01DC
:100850003383228390E080E00F90DF91CF91089561
:1008600080916602E82FF0E0E959FD4F998190836D
:100870008F5F809366028093880281E090E0ECCFE6
:1008800061E0CE0101960E946A02F7CF90E080E01D
:10089000089591E09093650290E7909387021092FB
:1008A00066021092880261E070E001C0660F8A95CE
:1008B000EAF786E293E00E94170481E00C94D002EC
:1008C000FC0101900020E9F73197AF01481B590B5B
:1008D000BC0189E892E00C9489008F929F92AF92BC
:1008E000BF920F931F93CF93DF93CDB7DEB7A1973E
:1008F0000FB6F894DEBF0FBECDBF19A2423008F488
:100900004AE08E010F5D1F4F842E912CB12CA12C3B
:10091000A50194010E944A0FE62FB901CA01EA30ED
:10092000F4F4E05DD801EE938D01232B242B252BCD
:1009300079F790E080E0109719F0CD010E946004F3
:10094000A1960FB6F894DEBF0FBECDBFDF91CF9159
:100950001F910F91BF90AF909F908F900895E95C89
:10096000E1CF4F925F926F927F928F929F92AF9260
:10097000BF92CF92DF92EF92FF920F931F93CF938C
:100980006B017C01742EAC019B010E94450F8823F2
:1009900099F080E391E0CF911F910F91FF90EF903C
:1009A000DF90CF90BF90AF909F908F907F906F908F
:1009B0005F904F900C94600446015701E894B7F89B
:1009C0002FEF3FEF4FE75FE7C501B4010E94450FEE
:1009D00081110DC02FEF3FEF4FE75FE7C501B40175
:1009E0000E94740D18161CF484E391E0D4CF2FEF0D
:1009F0003FEF4FE75FE4C701B6010E94D30E181620
:100A00001CF488E391E0C7CF2FEF3FEF4FE75FEC97
:100A1000C701B6010E94740D87FDF3CF20E030E0DE
:100A2000A901C701B6010E94740D10E000E087FF24
:100A30000AC06DE289E892E00E9429018C01F7FA70
:100A4000F094F7F8F094C0E060E070E080E09FE39D
:100A50007C1641F020E030E040E251E40E94790D44
:100A6000CF5FF6CFA70196010E94080D2B013C0134
:100A70000E94F20D4B015C014AE00E946D047C0172
:100A8000E00EF11ECC23C1F1C501B4010E94210E7C
:100A90009B01AC01C301B2010E94070D4B015C0137
:100AA0006EE289E892E00E942901E80EF91EC15029
:100AB00018F120E030E040E251E4C501B4010E94A9
:100AC000D80E2B013C010E94F20D4B01B12CA12C40
:100AD0004AE0C501B4010E946D04E80EF91EC5018B
:100AE000B4010E94210E9B01AC01C301B2010E941E
:100AF000070D4B015C01DBCFC701CF911F910F9117
:100B0000FF90EF90DF90CF90BF90AF909F908F902D
:100B10007F906F905F904F900895CF92DF92EF9209
:100B2000FF920F931F93CF9381E08093650286E33A
:100B30008093870210926602109288026CE086E22F
:100B400093E00E94170480E00E94D002C82F8CE33B
:100B500091E0C111D5C00E9413026B017C0180910C
:100B60005F02811163C081E080935F0280935E0227
:100B70009FEF90935D0210925C0280935B028093E2
:100B80003A0280913A028C6680933A02809139024F
:100B9000813009F08DC0109239020E9413026B015E
:100BA0007C0180913A028093BB0080916102909118
:100BB0006202A0916302B0916402892B8A2B8B2B75
:100BC000A1F00E9413020091610210916202209133
:100BD0006302309164026C197D098E099F09061722
:100BE00017072807390708F442C08091BC0083FD2D
:100BF000D8CF85EC8093BC000E9413026B017C016E
:100C000080915F02813009F455C080915C0282308E
:100C100008F072C080915C02ABE3B2E0EEE9F1E073
:100C2000C81749F19D919193CF5FFACF80916102EE
:100C300090916202A0916302B0916402892B8A2B89
:100C40008B2B09F48CCF0E9413020091610210914A
:100C5000620220916302309164026C197D098E0951
:100C60009F09061717072807390708F078CF8091E2
:100C700060020E94AF0210920C02C0930B02C230BD
:100C8000E8F186E293E00E94D003C82F86E293E069
:100C90000E94D00320E03C2FA901482BCA019F707D
:100CA000CF911F910F91FF90EF90DF90CF9008951B
:100CB00085EEA0CF8091610290916202A0916302C3
:100CC000B0916402892B8A2B8B2B09F499CF0E9457
:100CD000130200916102109162022091630230912F
:100CE00064026C197D098E099F09061717072807EA
:100CF000390708F085CFBBCF82E08ECF8FE591E03A
:100D00000E9460048CE591E00E94600490E080E025
:100D1000C7CF85ED8093BC00809161029091620203
:100D2000A0916302B09164020796A11DB11D23E05A
:100D3000B695A795979587952A95D1F72091BC00F0
:100D400024FD03C010925F0208954091610250910A
:100D500062026091630270916402452B462B472B1F
:100D600069F30097A105B10541F02AE22A95F1F750
:100D700000C00197A109B109E1CF809160020C94F4
:100D8000AF021F920F920FB60F9211242F933F9331
:100D90004F935F936F937F938F939F93AF93BF9383
:100DA000EF93FF9389E892E00E940701FF91EF9192
:100DB000BF91AF919F918F917F916F915F914F9173
:100DC0003F912F910F900FBE0F901F9018951F927B
:100DD0000F920FB60F9211242F938F939F93EF933F
:100DE000FF93E0919902F0919A028081E0919F0235
:100DF000F091A00282FD1BC090818091A2028F5FC2
:100E00008F732091A302821741F0E091A202F0E0DB
:100E1000E757FD4F958F8093A202FF91EF919F912D
:100E20008F912F910F900FBE0F901F90189580817A
:100E3000F4CF1F920F920FB60F9211242F933F936E
:100E40008F939F93AF93BF9380910D0290910E0269
:100E5000A0910F02B09110023091020223E0230F03
:100E60002D3758F50196A11DB11D209302028093E4
:100E70000D0290930E02A0930F02B0931002809186
:100E8000030290910402A0910502B091060201961E
:100E9000A11DB11D8093030290930402A09305024B
:100EA000B0930602BF91AF919F918F913F912F9187
:100EB0000F900FBE0F901F90189526E8230F0296F3
:100EC000A11DB11DD2CF1F920F920FB60F92112408
:100ED0002F933F934F935F936F937F938F939F9342
:100EE000AF93BF93EF93FF938091B900887F8036D3
:100EF00009F44AC0F0F5883209F4A7C018F580312A
:100F000009F49BC0B8F4882309F4F9C0883009F4C7
:100F100094C0FF91EF91BF91AF919F918F917F917D
:100F20006F915F914F913F912F910F900FBE0F9056
:100F30001F901895883109F488C0803251F780934A
:100F40005D0214C0803409F49DC040F48033B9F3CD
:100F50008833F9F680935D0285ECB0C0803509F4E2
:100F600085C0883509F496C0883499F60E948906B0
:100F7000D0CF883909F48CC038F5883729F050F47F
:100F8000883611F0803729F683E080935F02109253
:100F9000010257C0883809F47BC0803919F08038C5
:100FA00009F0B7CF80910102803208F071C0E09162
:100FB000010281E08E0F809301028091BB00F0E07E
:100FC000EF51FE4F80833DC0803B39F0E0F4803A22
:100FD00009F479C0883A09F09CCF84E080935F02DD
:100FE0001092E0011092DF01E0910902F0910A02F3
:100FF00009958091DF0181110FC081E08093DF01AD
:101000001092BF0109C0803C09F4A6CF883C09F4C6
:10101000A3CF883B09F07DCFE091E00181E08E0F06
:101020008093E001F0E0E154FE4F80818093BB00AB
:101030009091E0018091DF0129C080913A02809374
:10104000BB0085EC8093BC0064CF90915C028091E2
:101050005B02981758F5E0915C0281E08E0F809357
:101060005C02F0E0E55CFD4F8081E9CFE0915C023D
:1010700081E08E0F80935C028091BB00F0E0E55C24
:10108000FD4F808390915C0280915B029817C8F2BB
:1010900085E8D8CFE0915C0281E08E0F80935C02FE
:1010A0008091BB00F0E0E55CFD4F808380915E02A3
:1010B00081115CCF81E08093390284EA8093BC0087
:1010C00010925F0226CF85EC8093BC0010925F02E5
:1010D00080910102803230F4E0910102F0E0EF51A2
:1010E000FE4F10826091010270E0E0910702F091E2
:1010F000080281EE91E00995109201020ACF109248
:101100005D0234CFE9E8F2E01382128288EE93E0C8
:10111000A0E0B0E084839583A683B78320E131E02B
:101120003183208325EC30E03587248724EC30E0C0
:101130003787268720EC30E0318B208B21EC30E0A4
:10114000338B228B22EC30E0358B248B26EC30E085
:10115000378B268B118E128E138E148EE6E2F3E0FF
:101160001382128284839583A683B78382E291E0FF
:1011700091838083E2E3F3E0148615861686178652
:10118000108A118A128A138A10A211A212A213A223
:1011900014A215A216A217A214AA15AA16AA17AA73
:1011A00010AE11AE12AE13AE0895CF93DF93CDB74C
:1011B000DEB766970FB6F894DEBF0FBECDBF78944A
:1011C00084B5826084BD84B5816084BD85B582604C
:1011D00085BD85B5816085BD80916E0081608093FD
:1011E0006E00109281008091810082608093810066
:1011F0008091810081608093810080918000816076
:10120000809380008091B10084608093B1008091D0
:10121000B00081608093B00080917A0084608093F8
:101220007A0080917A00826080937A0080917A00BF
:10123000816080937A0080917A00806880937A0040
:101240001092C100E0919902F0919A0282E08083AD
:10125000E0919502F09196021082E0919702F09150
:10126000980280E180831092A102E0919D02F091AA
:101270009E0286E08083E0919B02F0919C02808137
:1012800080618083E0919B02F0919C028081886064
:101290008083E0919B02F0919C0280818068808332
:1012A000E0919B02F0919C0280818F7D808360E0C1
:1012B00083E00E94E20161E084E00E94E20161E0DB
:1012C00085E00E94E20161E086E00E94E20161E0C7
:1012D00087E00E94E20161E088E00E94E20161E0B3
:1012E00089E00E94E20161E08AE00E94E20161E09F
:1012F0008BE00E94E20160E08CE00E94E20160E08D
:101300008DE00E94E20110920C0210920B021092EA
:101310006602109288020E94910287E890E0909302
:101320000A028093090288E890E090930802809373
:10133000070225E1E22E22E0F22E22E333E03A8397
:10134000298310E0812F0E9449046AE070E080E068
:1013500090E00E9438020E948D05BC0190E080E080
:101360000E94210EA981BA816D937D938D939C93E8
:1013700013972FB7F89480910D0290910E02A091CF
:101380000F02B09110022FBFE981FA818483958307
:10139000A683B7831086118612861386F701108202
:1013A00011821282138214821582168217821F5FA5
:1013B000E981FA817496FA83E983F8E0EF0EF11C73
:1013C000133009F0BFCF8FB7F89420910D02309100
:1013D0000E0240910F025091100229833A834B83F1
:1013E0005C838FBF8091110290911202A091130231
:1013F000B0911402281B390B4A0B5B0BDA01C901AF
:101400004E97A105B105E8F189819A81AB81BC8134
:101410008093110290931202A0931302B0931402CE
:1014200087E891E00E94600460913A0370913B0369
:1014300080913C0390913D0342E00E94B10481E918
:1014400091E00E94600460913E0370913F0380919F
:1014500040039091410342E00E94B10487E991E08A
:101460000E946004609142037091430380914403A1
:101470009091450342E00E94B1048CE591E00E9406
:10148000600480E00E94490462E070E080E090E047
:101490000E9438020E948D059E838D8380913603C1
:1014A00090913703A0913803B091390329813A8193
:1014B0004B815C81281B390B4A0B5B0BCA01B901BC
:1014C0000E94210E20E030E04AE754E40E94790DAA
:1014D0006B017C014D815E81BA0190E080E00E9449
:1014E000210E20E030E040E859E30E94D80E6D83E1
:1014F0007E838F8398878090320390903303A090EF
:101500003403B09035039B01AC01C501B4010E94C6
:10151000070D2FE632E143E85AE30E94D30E181676
:1015200084F420E030E040E85FE3C501B4010E94AC
:10153000070D6093320370933303809334039093C9
:10154000350320913A0330913B0340913C03509185
:101550003D0329873A874B875C8728E137EB41E5D4
:1015600058E3C701B6010E94D30E18160CF047C00D
:10157000209132033091330340913403509135036D
:101580006D817E818F8198850E94070D2B013C0122
:10159000A70196010E94790D4B015C0120E030E02B
:1015A0004CED52E40E94740D87FF29C029E23CE50E
:1015B0004FE85DE3C301B2010E94D30E1816FCF49C
:1015C00029853A854B855C85C501B4010E94070DCC
:1015D000A70196010E94790D2B013C0120E030E02B
:1015E000A9010E94D30E18165CF520E030E84BE309
:1015F00056E4C301B2010E94740D87FD2BC020E0A8
:1016000030E0A90169857A858B859C850E94D30E7F
:1016100020E030E0A901181624F420E030E040E892
:101620005FE369857A858B859C850E94070D6093B1
:101630003A0370933B0380933C0390933D0312C0A5
:1016400020E030E84BE356ECC301B2010E94D30E18
:101650001816ACF680923A0390923B03A0923C039A
:10166000B0923D0380903A0390903B03A0903C03DE
:10167000B0903D0320E030E0A901C501B4010E9413
:10168000D30E18160CF045C124EA30E74DE75FE3AE
:1016900060913E0370913F0380914003909141031C
:1016A0000E94D80E2B013C012AE037ED43E25CE3B7
:1016B000C501B4010E94D80E9B01AC01C301B20167
:1016C0000E94080D4B015C0180923E0390923F0303
:1016D000A0924003B092410324EA30E74DE75FE374
:1016E00060914203709143038091440390914503BC
:1016F0000E94D80E2B013C012AE037ED43E25CE367
:10170000C501B4010E94D80E9B01AC01C301B20116
:101710000E94080D60934203709343038093440337
:10172000909345038D819E81AF81B885809332036C
:1017300090933303A0933403B093350329813A8106
:101740004B815C81209336033093370340933803F9
:1017500050933903C0922D02D0922E02E0922F02B4
:10176000F09230024DE252E05A87498780E091E0E2
:101770009E838D8394EA292E90E0392EA5E1B2E074
:10178000BE8BAD8BE2E3F3E0FA83E98319E0A98530
:10179000BA854D905D906D907D90BA87A987ED8157
:1017A000FE816191719181919191FE83ED83A98177
:1017B000BA8118962D913D914D915C911B970E9495
:1017C000070D6B017C0120E030E0A9010E94D80EDA
:1017D0006D877E878F87988BA7019601C301B20121
:1017E0000E94D80EED89FE8920813181428153818A
:1017F0000E94080D4B015C012FEF35E049E758E4EA
:101800000E94D30E18160CF488C0AD89BE898D9243
:101810009D92AD92BC9213972FEF35E049E758ECBB
:10182000AD89BE896D917D918D919C910E94740DC1
:1018300087FF0AC08FEF95E0A9E7B8ECED89FE8934
:1018400080839183A283B38320E030E0A901AD8936
:10185000BE896D917D918D919C910E94D80E698B6E
:101860007A8B8B8B9C8BED89FE8924813581468117
:101870005781C701B6010E94070D20E030E0A901A1
:101880000E94D80EA30192010E94790D4B015C01C8
:10189000AD89BE891496CD92DD92ED92FC92179798
:1018A00029893A894B895C896D857E858F859889E0
:1018B0000E94080DA50194010E94080D6B017C0196
:1018C00020E030E0A9010E94740D87FD31C020E0C6
:1018D00030E04FE753E4C701B6010E94D30E18165B
:1018E00034F4C12CD12C8FE7E82E83E4F82EC70105
:1018F000B6010E94EB0D4B017B0161E0812F0E943C
:10190000E20181149104C1F460E0812F0E949601EC
:101910003FC0812C912C5401D7CE8FEF95E0A9E7E1
:10192000B8E4ED89FE8980839183A283B38374CF69
:10193000C12CD12C7601DBCFBFEF8B16910411F4B3
:1019400061E0E3CFF1013996E491E33009F445C059
:1019500048F4E130C9F0E230D9F1E0E8EE16F104E4
:101960007CF7D2CFE73009F442C0E83009F447C031
:10197000E43099F78091800080628093800090929B
:101980008B0080928A0004C084B5806884BD87BCC7
:1019900029813A812C5E3F4F3A8329834D895E89A4
:1019A000485F5F4F5E8B4D8B1F5F5FEF251A350AD7
:1019B0001C3009F0ECCE80E090E0892B09F403CDD7
:1019C0000E94F300882309F4FECC0E940000FBCCA7
:1019D00084B5806284BD88BCDBCF80918000806844
:1019E000809380009092890080928800D1CF80916E
:1019F000B00080688093B0008092B300C9CF80911E
:101A0000B00080628093B0008092B400C1CF505883
:101A1000BB27AA270E941F0D0C94990E0E948B0EC3
:101A200038F00E94920E20F039F49F3F19F426F40A
:101A30000C94880E0EF4E095E7FB0C94820EE92FCF
:101A40000E94AA0E58F3BA17620773078407950716
:101A500020F079F4A6F50C94CC0E0EF4E0950B2E44
:101A6000BA2FA02D0B01B90190010C01CA01A001F0
:101A70001124FF27591B99F0593F50F4503E68F14B
:101A80001A16F040A22F232F342F4427585FF3CF8C
:101A9000469537952795A795F0405395C9F77EF45D
:101AA0001F16BA0B620B730B840BBAF09150A1F0A6
:101AB000FF0FBB1F661F771F881FC2F70EC0BA0F2C
:101AC000621F731F841F48F4879577956795B795B4
:101AD000F7959E3F08F0B0CF9395880F08F09927AF
:101AE000EE0F9795879508950E945E0E08F481E0A9
:101AF00008950E948D0D0C94990E0E94920E58F03C
:101B00000E948B0E40F029F45F3F29F00C94820E66
:101B100051110C94CD0E0C94880E0E94AA0E68F3FD
:101B20009923B1F3552391F3951B550BBB27AA2796
:101B300062177307840738F09F5F5F4F220F331FD0
:101B4000441FAA1FA9F335D00E2E3AF0E0E832D098
:101B500091505040E695001CCAF72BD0FE2F29D09B
:101B6000660F771F881FBB1F261737074807AB076D
:101B7000B0E809F0BB0B802DBF01FF2793585F4FE2
:101B80003AF09E3F510578F00C94820E0C94CD0EE5
:101B90005F3FE4F3983ED4F3869577956795B795C4
:101BA000F7959F5FC9F7880F911D9695879597F9CF
:101BB0000895E1E0660F771F881FBB1F6217730748
:101BC0008407BA0720F0621B730B840BBA0BEE1F5D
:101BD00088F7E09508950E94F20D6894B1110C9475
:101BE000CD0E08950E94B20E88F09F5798F0B92F3D
:101BF0009927B751B0F0E1F0660F771F881F991F42
:101C00001AF0BA95C9F714C0B13091F00E94CC0E09
:101C1000B1E008950C94CC0E672F782F8827B85F19
:101C200039F0B93FCCF3869577956795B395D9F799
:101C30003EF490958095709561957F4F8F4F9F4FA3
:101C40000895E89409C097FB3EF4909580957095AF
:101C500061957F4F8F4F9F4F9923A9F0F92F96E9F8
:101C6000BB279395F695879577956795B795F1116D
:101C7000F8CFFAF4BB0F11F460FF1BC06F5F7F4F0A
:101C80008F4F9F4F16C0882311F096E911C077231C
:101C900021F09EE8872F762F05C0662371F096E825
:101CA000862F70E060E02AF09A95660F771F881FF4
:101CB000DAF7880F9695879597F90895990F000898
:101CC000550FAA0BE0E8FEEF16161706E807F9070E
:101CD000C0F012161306E407F50798F0621B730BA9
:101CE000840B950B39F40A2661F0232B242B252B2A
:101CF00021F408950A2609F4A140A6958FEF811DCD
:101D0000811D089597F99F6780E870E060E008956D
:101D10009FEF80EC089500240A9416161706180603
:101D20000906089500240A941216130614060506DF
:101D30000895092E0394000C11F4882352F0BB0F70
:101D400040F4BF2B11F460FF04C06F5F7F4F8F4FD3
:101D50009F4F089557FD9058440F551F59F05F3F0E
:101D600071F04795880F97FB991F61F09F3F79F0BD
:101D700087950895121613061406551FF2CF46953F
:101D8000F1DF08C0161617061806991FF1CF8695C1
:101D90007105610508940895E894BB2766277727A5
:101DA000CB0197F908950E945E0E08F48FEF089515
:101DB0000E94EB0E0C94990E0E948B0E38F00E943C
:101DC000920E20F0952311F00C94820E0C94880E44
:101DD00011240C94CD0E0E94AA0E70F3959FC1F3AE
:101DE000950F50E0551F629FF001729FBB27F00DC9
:101DF000B11D639FAA27F00DB11DAA1F649F66271E
:101E0000B00DA11D661F829F2227B00DA11D621F6C
:101E1000739FB00DA11D621F839FA00D611D221F26
:101E2000749F3327A00D611D231F849F600D211D0A
:101E3000822F762F6A2F11249F5750409AF0F1F08D
:101E400088234AF0EE0FFF1FBB1F661F771F881FF6
:101E500091505040A9F79E3F510580F00C94820E9E
:101E60000C94CD0E5F3FE4F3983ED4F386957795BE
:101E70006795B795F795E7959F5FC1F7FE2B880F9C
:101E8000911D9695879597F908950E945E0E880B8F
:101E9000990B0895A1E21A2EAA1BBB1BFD010DC0D0
:101EA000AA1FBB1FEE1FFF1FA217B307E407F5070A
:101EB00020F0A21BB30BE40BF50B661F771F881FE6
:101EC000991F1A9469F760957095809590959B017C
:101ED000AC01BD01CF010895EE0FFF1F0590F491F5
:101EE000E02D0994F894FFCF000000400000803FEF
:101EF0000000803F0000000029018900B600760143
:101F0000E700C500D900000000001704EA034604FA
:101F1000C003E303D003C1036E616E00696E660007
:101F20006F7666004572726F7220636F6D6D756EAD
:101F300069636174696E67207769746820415335FD
:101F4000363030000D0A004661696C656420746F9C
:101F5000207265616420656E6F75676820627974B0
:101F600065732066726F6D20415335363030003E08
:101F70004D6F746F725F313A002C6176673A002CB6
:061F8000617667323A00B1
:107E0000112484B714BE81FFF0D085E080938100F7
:107E100082E08093C00088E18093C10086E0809377
:107E2000C20080E18093C4008EE0C9D0259A86E02C
:107E300020E33CEF91E0309385002093840096BBD3
:107E4000B09BFECF1D9AA8958150A9F7CC24DD24C4
:107E500088248394B5E0AB2EA1E19A2EF3E0BF2EE7
:107E6000A2D0813461F49FD0082FAFD0023811F036
:107E7000013811F484E001C083E08DD089C08234E0
:107E800011F484E103C0853419F485E0A6D080C0E4
:107E9000853579F488D0E82EFF2485D0082F10E0AE
:107EA000102F00270E291F29000F111F8ED06801E7
:107EB0006FC0863521F484E090D080E0DECF843638
:107EC00009F040C070D06FD0082F6DD080E0C81688
:107ED00080E7D80618F4F601B7BEE895C0E0D1E017
:107EE00062D089930C17E1F7F0E0CF16F0E7DF06D8
:107EF00018F0F601B7BEE89568D007B600FCFDCFD4
:107F0000A601A0E0B1E02C9130E011968C91119780
:107F100090E0982F8827822B932B1296FA010C0160
:107F200087BEE89511244E5F5F4FF1E0A038BF0790
:107F300051F7F601A7BEE89507B600FCFDCF97BE46
:107F4000E89526C08437B1F42ED02DD0F82E2BD052
:107F50003CD0F601EF2C8F010F5F1F4F84911BD097
:107F6000EA94F801C1F70894C11CD11CFA94CF0C13
:107F7000D11C0EC0853739F428D08EE10CD085E9AC
:107F80000AD08FE07ACF813511F488E018D01DD067
:107F900080E101D065CF982F8091C00085FFFCCF94
:107FA0009093C60008958091C00087FFFCCF809118
:107FB000C00084FD01C0A8958091C6000895E0E648
:107FC000F0E098E1908380830895EDDF803219F02E
:107FD00088E0F5DFFFCF84E1DECF1F93182FE3DFCA
:107FE0001150E9F7F2DF1F91089580E0E8DFEE27F6
:047FF000FF270994CA
:027FFE00040479
:00000001FF
