:100000000C9462000C948A000C948A000C948A0070
:100010000C948A000C948A000C948A000C948A0038
:100020000C948A000C948A000C948A000C948A0028
:100030000C948A000C948A000C948A000C948A0018
:100040000C9424070C948A000C94F2060C94CC06B1
:100050000C948A000C948A000C948A000C948A00F8
:100060000C946E070C948A00000000002400270006
:100070002A0000000000250028002B0000000000DE
:1000800023002600290004040404040404040202DA
:100090000202020203030303030301020408102007
:1000A0004080010204081020010204081020000012
:1000B0000008000201000003040700000000000027
:1000C00000008D0811241FBECFEFD8E0DEBFCDBFEA
:1000D00011E0A0E0B1E0E0EAFFE102C005900D927E
:1000E000AC3AB107D9F723E0ACEAB1E001C01D9208
:1000F000AC37B207E1F710E0C2E6D0E004C02197C8
:10010000FE010E94C80FC136D107C9F70E94E0085E
:100110000C94CE0F0C94000008950895AF92BF92F6
:10012000CF92DF92EF92FF920F931F93CF93DF93C3
:100130006C017B018B01040F151FEB015E01AE18F2
:10014000BF08C017D10759F06991D601ED91FC9114
:100150000190F081E02DC6010995892B79F7C50141
:10016000DF91CF911F910F91FF90EF90DF90CF9093
:10017000BF90AF900895FC01538D448D252F30E042
:10018000842F90E0821B930B541710F0CF960895A4
:1001900001970895FC01918D828D981761F0A28DD1
:1001A000AE0FBF2FB11D5D968C91928D9F5F9F7397
:1001B000928F90E008958FEF9FEF0895FC01918D4D
:1001C000828D981731F0828DE80FF11D858D90E0BA
:1001D00008958FEF9FEF0895FC01918D228D892F57
:1001E00090E0805C9F4F821B91098F73992708953F
:1001F00087E992E00E94EC0021E0892B09F420E0DD
:10020000822F089580E090E0892B29F00E94F80069
:1002100081110C9400000895FC01A48DA80FB92F42
:10022000B11DA35ABF4F2C91848D90E001968F731E
:100230009927848FA689B7892C93A089B1898C913D
:10024000837080648C93938D848D981306C002888C
:10025000F389E02D80818F7D80830895EF92FF9256
:100260000F931F93CF93DF93EC0181E0888F9B8DD9
:100270008C8D98131AC0E889F989808185FF15C093
:100280009FB7F894EE89FF896083E889F9898081B6
:100290008370806480839FBF81E090E0DF91CF9185
:1002A0001F910F91FF90EF900895F62E0B8D10E0A7
:1002B0000F5F1F4F0F731127E02E8C8D8E110CC016
:1002C0000FB607FCFACFE889F989808185FFF5CF61
:1002D000CE010E940C01F1CFEB8DEC0FFD2FF11D33
:1002E000E35AFF4FF0829FB7F8940B8FEA89FB899E
:1002F00080818062CFCFCF93DF93EC01888D8823FC
:10030000B9F0AA89BB89E889F9898C9185FD03C078
:10031000808186FD0DC00FB607FCF7CF8C9185FF5D
:10032000F2CF808185FFEDCFCE010E940C01E9CF95
:10033000DF91CF910895833081F028F4813099F0D6
:100340008230A9F008958730A9F08830C9F0843050
:10035000B1F4809180008F7D03C0809180008F7701
:1003600080938000089584B58F7784BD089584B507
:100370008F7DFBCF8091B0008F778093B000089580
:100380008091B0008F7DF9CF1F93CF93DF93282FFB
:1003900030E0F901E255FF4F8491F901E656FF4F35
:1003A000D491F901EA57FF4FC491CC23A9F0162F3D
:1003B00081110E949B01EC2FF0E0EE0FFF1FEE5821
:1003C000FF4FA591B4918FB7F894EC91111108C02B
:1003D000D095DE23DC938FBFDF91CF911F910895DD
:1003E000DE2BF8CFCF93DF9390E0FC01E656FF4F72
:1003F00024918A579F4FFC0184918823D1F090E08B
:10040000880F991FFC01E859FF4FA591B491FC0199
:10041000EE58FF4FC591D49161110EC09FB7F8946B
:100420008C91E22FE0958E238C932881E223E88340
:100430009FBFDF91CF9108958FB7F894EC91E22B95
:10044000EC938FBFF6CF3FB7F89480911102909153
:100450001202A0911302B091140226B5A89B05C008
:100460002F3F19F00196A11DB11D3FBFBA2FA92F33
:10047000982F8827BC01CD01620F711D811D911D30
:1004800042E0660F771F881F991F4A95D1F708959C
:100490008F929F92AF92BF92CF92DF92EF92FF9294
:1004A0004B015C010E9423026B017C010E9423022C
:1004B0006C197D098E099F09683E7340810591057D
:1004C000A8F321E0821A9108A108B10888EEC80EAD
:1004D00083E0D81EE11CF11C81149104A104B10435
:1004E00029F7FF90EF90DF90CF90BF90AF909F9053
:1004F0008F9008952091ED01260F3327331F21326D
:100500003105ECF420916D02FC0190E080E0243094
:1005100069F082E00895A091ED012191AC0143536F
:100520005E4FA40FB52FB11D2C930196861798F33B
:100530008091ED01680F6093ED0180E0089581E006
:10054000089510926D0281E080936C021092470230
:1005500061E082E10E94C40161E083E10E94C40184
:10056000E9EBF0E080818E7F808380818D7F8083C6
:1005700088E48093B80085E48093BC000895CF930D
:10058000DF9391E09093CC018823B9F0C091B8003B
:10059000D091BA008091BC008A7B8093BC0060E05F
:1005A00082E10E94C40160E083E10E94C4010E94D4
:1005B000A102D093BA00C093B800DF91CF91089503
:1005C0008F929F92AF92BF92CF92DF92EF92FF9263
:1005D0000F931F93CF93DF93D0919602D13208F0FF
:1005E000D7C0182FC09195020E9423026B017C0195
:1005F00080916D0281116BC082E080936D02109337
:100600006C028FEF80936B0210926A02D0936902A2
:10061000A5E7B2E0E9E4F2E080E0D81391C01092DF
:10062000480280914802CC0FC82BC09348028091A9
:100630004702813009F088C0109247020E942302CD
:100640006B017C01809148028093BB0080916F0216
:1006500090917002A0917102B0917202892B8A2B45
:100660008B2BA1F00E94230200916F021091700267
:1006700020917102309172026C197D098E099F09D7
:10068000061717072807390708F442C08091BC00F5
:1006900083FDD8CF85EC8093BC000E9423026B01C0
:1006A0007C0180916D02823009F450C080916B0210
:1006B0008F3F09F46FC080916B02803209F46CC0E7
:1006C00080916B02803309F469C084E026C0809178
:1006D0006F0290917002A0917102B0917202892B09
:1006E0008A2B8B2B09F484CF0E94230280906F0207
:1006F00090907002A0907102B09072026C197D0906
:100700008E099F0986169706A806B90608F070CFCD
:1007100080916E020E94BF0285E0109274021092D6
:10072000960210927302DF91CF911F910F91FF906B
:10073000EF90DF90CF90BF90AF909F908F900895F3
:100740009D9191938F5F69CF85EEA5CF80916F02C8
:1007500090917002A0917102B0917202892B8A2B44
:100760008B2B09F49ECF0E94230200916F021091FF
:10077000700220917102309172026C197D098E090C
:100780009F09061717072807390708F08ACFC0CF37
:1007900081E0C3CF80E0C1CF82E0BFCF83E0BDCF97
:1007A0000895E0911A0280911902E81730F4F0E000
:1007B000E455FE4F808190E008958FEF9FEF0895FC
:1007C00090911A02809119022FEF3FEF981748F489
:1007D000E92FF0E0E455FE4F208130E09F5F9093D9
:1007E0001A02C90108958091190290911A02891B79
:1007F000990B0895CF92DF92EF92FF920F931F9380
:10080000CF93DF937C01CB018A01209173022223D5
:1008100089F0EB016B01C40ED51ECC15DD0569F026
:100820006991D701ED91FC910190F081E02DC70114
:100830000995F3CF642F0E947A02C801DF91CF910E
:100840001F910F91FF90EF90DF90CF900895CF937D
:10085000DF931F92CDB7DEB7698320917302222305
:10086000F9F020919602203258F021E030E0FC01AE
:100870003383228390E080E00F90DF91CF91089541
:1008800080917402E82FF0E0EB58FD4F998190833E
:100890008F5F809374028093960281E090E0ECCFAA
:1008A00061E0CE0101960E947A02F7CF81E0809349
:1008B000730280E780939502109274021092960260
:1008C00061E084E393E00E94270481E00C94E0025D
:1008D00090E080E00895FC0101900020E9F7319755
:1008E000AF01481B590BBC0187E992E00C948E00C4
:1008F0008F929F92AF92BF920F931F93CF93DF93EC
:10090000CDB7DEB7A1970FB6F894DEBF0FBECDBF4F
:1009100019A2423008F44AE08E010F5D1F4F842E69
:10092000912CB12CA12CA50194010E94A60FE62FB9
:10093000B901CA01EA30F4F4E05DD801EE938D010B
:10094000232B242B252B79F790E080E0109719F0CA
:10095000CD010E946B04A1960FB6F894DEBF0FBEC6
:10096000CDBFDF91CF911F910F91BF90AF909F901E
:100970008F900895E95CE1CF4F925F926F927F92E2
:100980008F929F92AF92BF92CF92DF92EF92FF929F
:100990000F931F93CF936B017C01742EAC019B01CD
:1009A0000E94A10F882399F080E391E0CF911F91DD
:1009B0000F91FF90EF90DF90CF90BF90AF909F90FE
:1009C0008F907F906F905F904F900C946B044601D6
:1009D0005701E894B7F82FEF3FEF4FE75FE7C50106
:1009E000B4010E94A10F81110DC02FEF3FEF4FE71F
:1009F0005FE7C501B4010E94D00D18161CF484E312
:100A000091E0D4CF2FEF3FEF4FE75FE4C701B6018E
:100A10000E942F0F18161CF488E391E0C7CF2FEF28
:100A20003FEF4FE75FECC701B6010E94D00D87FD95
:100A3000F3CF20E030E0A901C701B6010E94D00D3C
:100A400010E000E087FF0AC06DE287E992E00E94B3
:100A50002E018C01F7FAF094F7F8F094C0E060E012
:100A600070E080E09FE37C1641F020E030E040E25F
:100A700051E40E94D50DCF5FF6CFA70196010E94E9
:100A8000640D2B013C010E944E0E4B015C014AE0BB
:100A90000E9478047C01E00EF11ECC23C1F1C50157
:100AA000B4010E947D0E9B01AC01C301B2010E9402
:100AB000630D4B015C016EE287E992E00E942E011A
:100AC000E80EF91EC15018F120E030E040E251E498
:100AD000C501B4010E94340F2B013C010E944E0E4F
:100AE0004B01B12CA12C4AE0C501B4010E9478044D
:100AF000E80EF91EC501B4010E947D0E9B01AC01F8
:100B0000C301B2010E94630D4B015C01DBCFC70141
:100B1000CF911F910F91FF90EF90DF90CF90BF90FA
:100B2000AF909F908F907F906F905F904F900895BF
:100B3000CF92DF92EF92FF920F931F93CF9381E0BA
:100B40008093730286E38093950210927402109250
:100B500096026CE084E393E00E94270480E00E9408
:100B6000E002C82F8CE391E0C111D5C00E9423029E
:100B70006B017C0180916D02811163C081E08093E3
:100B80006D0280936C029FEF90936B0210926A0249
:100B90008093690280934802809148028C6680931A
:100BA000480280914702813009F08DC010924702BF
:100BB0000E9423026B017C01809148028093BB005C
:100BC00080916F0290917002A0917102B0917202B7
:100BD000892B8A2B8B2BA1F00E94230200916F029C
:100BE0001091700220917102309172026C197D098E
:100BF0008E099F09061717072807390708F442C00E
:100C00008091BC0083FDD8CF85EC8093BC000E940E
:100C100023026B017C0180916D02813009F455C083
:100C200080916A02823008F072C080916A02A9E461
:100C3000B2E0ECEAF1E0C81749F19D919193CF5FE2
:100C4000FACF80916F0290917002A0917102B091E1
:100C50007202892B8A2B8B2B09F48CCF0E942302E2
:100C600000916F0210917002209171023091720216
:100C70006C197D098E099F09061717072807390780
:100C800008F078CF80916E020E94BF0210921A0283
:100C9000C0931902C230E8F184E393E00E94E003BC
:100CA000C82F84E393E00E94E00320E03C2FA901D9
:100CB000482BCA019F70CF911F910F91FF90EF9029
:100CC000DF90CF90089585EEA0CF80916F02909134
:100CD0007002A0917102B0917202892B8A2B8B2B2A
:100CE00009F499CF0E94230200916F0210917002C3
:100CF00020917102309172026C197D098E099F0951
:100D0000061717072807390708F085CFBBCF82E001
:100D10008ECF8FE591E00E946B048CE591E00E94FC
:100D20006B0490E080E0C7CF85ED8093BC0080919C
:100D30006F0290917002A0917102B09172020796B9
:100D4000A11DB11D23E0B695A795979587952A9586
:100D5000D1F72091BC0024FD03C010926D020895CC
:100D600040916F0250917002609171027091720215
:100D7000452B462B472B69F30097A105B10541F0A0
:100D80002AE22A95F1F700C00197A109B109E1CF44
:100D900080916E020C94BF021F920F920FB60F92B9
:100DA00011242F933F934F935F936F937F938F9370
:100DB0009F93AF93BF93EF93FF9387E992E00E94D5
:100DC0000C01FF91EF91BF91AF919F918F917F9116
:100DD0006F915F914F913F912F910F900FBE0F90A8
:100DE0001F9018951F920F920FB60F9211242F93F8
:100DF0008F939F93EF93FF93E091A702F091A80246
:100E00008081E091AD02F091AE0282FD1BC0908125
:100E10008091B0028F5F8F732091B102821741F0F1
:100E2000E091B002F0E0E956FD4F958F8093B0025B
:100E3000FF91EF919F918F912F910F900FBE0F9087
:100E40001F9018958081F4CF1F920F920FB60F92CA
:100E500011242F933F938F939F93AF93BF938091D0
:100E60001B0290911C02A0911D02B0911E023091B4
:100E7000100223E0230F2D3758F50196A11DB11D57
:100E80002093100280931B0290931C02A0931D02DA
:100E9000B0931E028091110290911202A091130250
:100EA000B09114020196A11DB11D8093110290937F
:100EB0001202A0931302B0931402BF91AF919F91BD
:100EC0008F913F912F910F900FBE0F901F9018950B
:100ED00026E8230F0296A11DB11DD2CF1F920F92BB
:100EE0000FB60F9211242F933F934F935F936F93FD
:100EF0007F938F939F93AF93BF93EF93FF938091D3
:100F0000B900887F803609F44AC0F0F5883209F4C8
:100F1000A7C018F5803109F49BC0B8F4882309F400
:100F2000F9C0883009F494C0FF91EF91BF91AF915F
:100F30009F918F917F916F915F914F913F912F91F1
:100F40000F900FBE0F901F901895883109F488C03C
:100F5000803251F780936B0214C0803409F49DC035
:100F600040F48033B9F38833F9F680936B0285EC53
:100F7000B0C0803509F485C0883509F496C088343E
:100F800099F60E949406D0CF883909F48CC038F5C0
:100F9000883729F050F4883611F0803729F683E03D
:100FA00080936D0210920F0257C0883809F47BC0FD
:100FB000803919F0803809F0B7CF80910F02803264
:100FC00008F071C0E0910F0281E08E0F80930F0254
:100FD0008091BB00F0E0E151FE4F80833DC0803B3B
:100FE00039F0E0F4803A09F479C0883A09F09CCFEE
:100FF00084E080936D021092EE011092ED01E09179
:101000001702F091180209958091ED0181110FC02E
:1010100081E08093ED011092CD0109C0803C09F47C
:10102000A6CF883C09F4A3CF883B09F07DCFE0919F
:10103000EE0181E08E0F8093EE01F0E0E353FE4F6E
:1010400080818093BB009091EE018091ED0129C0D9
:10105000809148028093BB0085EC8093BC0064CFF4
:1010600090916A0280916902981758F5E0916A029E
:1010700081E08E0F80936A02F0E0E75BFD4F808194
:10108000E9CFE0916A0281E08E0F80936A0280913D
:10109000BB00F0E0E75BFD4F808390916A02809196
:1010A00069029817C8F285E8D8CFE0916A0281E01A
:1010B0008E0F80936A028091BB00F0E0E75BFD4FEA
:1010C000808380916C0281115CCF81E08093470224
:1010D00084EA8093BC0010926D0226CF85EC809349
:1010E000BC0010926D0280910F02803230F4E091CA
:1010F0000F02F0E0E151FE4F108260910F0270E0AC
:10110000E0911502F09116028FEE91E00995109290
:101110000F020ACF10926B0234CFE7E9F2E013829C
:10112000128288EE93E0A0E0B0E084839583A683EA
:10113000B78320E131E03183208325EC30E035872F
:10114000248724EC30E03787268720EC30E0318B91
:10115000208B21EC30E0338B228B22EC30E0358B7E
:10116000248B26EC30E0378B268B118E128E138E5B
:10117000148EE4E3F3E01382128284839583A683C2
:10118000B78382E291E091838083E0E4F3E0148608
:10119000158616861786108A118A128A138A10A25B
:1011A00011A212A213A214A215A216A217A214AA87
:1011B00015AA16AA17AA10AE11AE12AE13AE089554
:1011C000CF93DF93CDB7DEB72C970FB6F894DEBF81
:1011D0000FBECDBF789484B5826084BD84B5816034
:1011E00084BD85B5826085BD85B5816085BD8091F2
:1011F0006E00816080936E0010928100809181006A
:101200008260809381008091810081608093810061
:10121000809180008160809380008091B100846023
:101220008093B1008091B00081608093B000809184
:101230007A00846080937A0080917A008260809343
:101240007A0080917A00816080937A0080917A00A0
:10125000806880937A001092C100E091A702F0911B
:10126000A80282E08083E091A302F091A4021082A0
:10127000E091A502F091A60280E180831092AF0276
:10128000E091AB02F091AC0286E08083E091A9028C
:10129000F091AA02808180618083E091A902F0919F
:1012A000AA02808188608083E091A902F091AA025D
:1012B000808180688083E091A902F091AA028081F8
:1012C0008F7D808360E083E00E94F20161E084E032
:1012D0000E94F20161E085E00E94F20161E086E097
:1012E0000E94F20161E087E00E94F20161E088E083
:1012F0000E94F20161E089E00E94F20161E08AE06F
:101300000E94F20161E08BE00E94F20160E08CE05B
:101310000E94F20160E08DE00E94F20110921A0238
:101320001092190210927402109296020E94A10269
:101330008CE890E090931802809317028DE890E07B
:1013400090931602809315020E9456046AE070E0A2
:1013500080E090E00E9448020E949805BC0190E065
:1013600080E00E947D0E6093400370934103809360
:101370004203909343032FB7F89480911B029091FE
:101380001C02A0911D02B0911E022FBF8093440346
:1013900090934503A0934603B093470310924803EC
:1013A0001092490310924A0310924B0310922302A9
:1013B0001092240210922502109226021092270207
:1013C000109228021092290210922A028DED94E2C6
:1013D000AEE3B2E48093000190930101A093020177
:1013E000B093030183E29BEDA1E0B2E4809304019A
:1013F00090930501A0930601B09307018093080123
:1014000090930901A0930A01B0930B0120E031E011
:101410003A832983C12CD12C760187E891E00E9480
:101420006B044AE0C701B6010E94780481E991E0AB
:101430000E946B04A981BA816D917D918D919D91DE
:10144000BA83A98342E00E94BC048CE591E00E942B
:101450006B04BFEFCB1ADB0AEB0AFB0AE3E0CE1604
:10146000D104E104F104C9F607EB10E029E8222ECB
:1014700020E0322E8FB7F89420911B0230911C028D
:1014800040911D0250911E022D833E834F83588749
:101490008FBF80911F0290912002A0912102B091F4
:1014A0002202281B390B4A0B5B0BDA01C9014E974C
:1014B000A105B105E8F18D819E81AF81B88580934A
:1014C0001F0290932002A0932102B093220284E98C
:1014D00091E00E946B0460914803709149038091F0
:1014E0004A0390914B0342E00E94BC048EE991E0D4
:1014F0000E946B0460914C0370914D0380914E03E8
:1015000090914F0342E00E94BC0484EA91E00E9463
:101510006B0460915003709151038091520390913C
:10152000530342E00E94BC048CE591E00E946B04EE
:101530000E94560462E070E080E090E00E94480261
:101540000E9498057C018091440390914503A091ED
:101550004603B09147032D813E814F815885281B5A
:10156000390B4A0B5B0BCA01B9010E947D0E20E0CA
:1015700030E04AE754E40E94D50D69837A838B8377
:101580009C83B70190E080E00E947D0E20E030E077
:1015900040E859E30E94340F69877A878B879C87DC
:1015A000C0904003D0904103E0904203F090430389
:1015B0009B01AC01C701B6010E94630D2FE632E129
:1015C00043E85AE30E942F0F181684F420E030E01D
:1015D00040E85FE3C701B6010E94630D60934003DA
:1015E000709341038093420390934303C090480358
:1015F000D0904903E0904A03F0904B0328E137EB89
:1016000041E558E369817A818B819C810E942F0F8B
:1016100018160CF049C020914003309141034091CD
:1016200042035091430369857A858B859C850E948E
:10163000630D2B013C0129813A814B815C810E9421
:10164000D50D4B015C0120E030E04CED52E40E94EE
:10165000D00D87FF29C029E23CE54FE85DE3C301D7
:10166000B2010E942F0F1816FCF4A7019601C501C4
:10167000B4010E94630D29813A814B815C810E94F3
:10168000D50D2B013C0120E030E0A9010E942F0F75
:1016900018163CF520E030E04AEF55E4C301B201F2
:1016A0000E94D00D87FD27C020E030E0A901C701CE
:1016B000B6010E942F0F20E030E0A901181624F493
:1016C00020E030E040E85FE3C701B6010E94630D0F
:1016D000609348037093490380934A0390934B03AC
:1016E00012C020E030E04AEF55ECC301B2010E9485
:1016F0002F0F1816CCF68092480390924903A092BF
:101700004A03B0924B03C0904803D0904903E09045
:101710004A03F0904B0320E030E0A901C701B60175
:101720000E942F0F18160CF068C124EA30E74DE72D
:101730005FE360914C0370914D0380914E03909153
:101740004F030E94340F4B015C012AE037ED43E266
:101750005CE3C701B6010E94340F9B01AC01C501D7
:10176000B4010E94640D6B017C01C0924C03D092C5
:101770004D03E0924E03F0924F0324EA30E74DE729
:101780005FE36091500370915103809152039091F7
:1017900053030E94340F4B015C012AE037ED43E212
:1017A0005CE3C701B6010E94340F9B01AC01C50187
:1017B000B4010E94640D9B01AC012093500330934F
:1017C0005103409352035093530389859A85AB8507
:1017D000BC858093400390934103A0934203B09350
:1017E00043038D819E81AF81B8858093440390939C
:1017F0004503A0934603B093470389819A81AB8147
:10180000BC8180933B0290933C02A0933D02B09335
:101810003E0260910001709101018091020190915E
:1018200003010E94630D6B017C0120E030E040EA7F
:1018300051E40E94340F2B013C01A70196016981FC
:101840007A818B819C810E94340F209123023091F8
:10185000240240912502509126020E94640D4B0102
:101860005C012DE532E343EA50E40E942F0F181685
:101870000CF4C7C08092230290922402A092250209
:10188000B09226022DE532E343EA50EC6091230248
:101890007091240280912502909126020E94D00D21
:1018A00087FF0CC08DE592E3A3EAB0EC809323029E
:1018B00090932402A0932502B093260220E030E00A
:1018C00048E452E460912302709124028091250241
:1018D000909126020E94340F6D837E838F839887B8
:1018E00020912702309128024091290250912A022A
:1018F000C701B6010E94630D20E030E040EA51E4E8
:101900000E94340F29813A814B815C810E94D50D60
:101910004B015C01C0922702D0922802E09229027A
:10192000F0922A022D813E814F815885C301B20178
:101930000E94640DA50194010E94640D6B017C015D
:1019400020E030E040E751E40E94D00D87FD66C002
:1019500020E030E04FE753E4C701B6010E942F0FAB
:10196000181634F4C12CD12C9FE7E92E93E4F92EFC
:10197000C701B6010E94470E4B017B0161E089E07F
:101980000E94F2018114910409F04CC060E089E0EA
:101990000E94C401E1EBF0E08491EDE9F0E0F49005
:1019A000F101E490EE2009F485C081110E949B01B1
:1019B000EE2DF0E0EE0FFF1FE458FF4FA591B4911C
:1019C0008C91F82209F476C020E030E040EA52E43D
:1019D00020930001309301014093020150930301D1
:1019E00040E050E0452B09F445CD0E94F8008823E3
:1019F00009F440CD0E9400003DCDC12CD12C7601D0
:101A0000B4CE8DE592E3A3EAB0E4809323029093F1
:101A10002402A0932502B093260234CFC12CD12CEE
:101A20007601A6CF9FEF8916910411F461E0AFCF44
:101A3000F8018491833021F148F48130B9F082308B
:101A4000D1F0F0E8EF16F1048CF7A0CF873011F158
:101A5000883041F18430A9F78091800080628093C2
:101A6000800090928B0080928A0094CF84B5806829
:101A700084BD87BC8FCF84B5806284BD88BC8ACF8B
:101A8000809180008068809380009092890080928D
:101A9000880080CF8091B00080688093B0008092F1
:101AA000B30078CF8091B00080628093B0008092C4
:101AB000B40070CF10920001109201011092020147
:101AC000109203018DCF5058BB27AA270E947B0D8F
:101AD0000C94F50E0E94E70E38F00E94EE0E20F0F6
:101AE00039F49F3F19F426F40C94E40E0EF4E095BB
:101AF000E7FB0C94DE0EE92F0E94060F58F3BA178D
:101B0000620773078407950720F079F4A6F50C9413
:101B1000280F0EF4E0950B2EBA2FA02D0B01B90162
:101B200090010C01CA01A0011124FF27591B99F053
:101B3000593F50F4503E68F11A16F040A22F232F5F
:101B4000342F4427585FF3CF469537952795A795AF
:101B5000F0405395C9F77EF41F16BA0B620B730B56
:101B6000840BBAF09150A1F0FF0FBB1F661F771FC7
:101B7000881FC2F70EC0BA0F621F731F841F48F47C
:101B8000879577956795B795F7959E3F08F0B0CF05
:101B90009395880F08F09927EE0F979587950895EC
:101BA0000E94BA0E08F481E008950E94E90D0C9499
:101BB000F50E0E94EE0E58F00E94E70E40F029F458
:101BC0005F3F29F00C94DE0E51110C94290F0C94F8
:101BD000E40E0E94060F68F39923B1F3552391F3A5
:101BE000951B550BBB27AA2762177307840738F08C
:101BF0009F5F5F4F220F331F441FAA1FA9F335D0E9
:101C00000E2E3AF0E0E832D091505040E695001C9C
:101C1000CAF72BD0FE2F29D0660F771F881FBB1F56
:101C2000261737074807AB07B0E809F0BB0B802D34
:101C3000BF01FF2793585F4F3AF09E3F510578F060
:101C40000C94DE0E0C94290F5F3FE4F3983ED4F31E
:101C5000869577956795B795F7959F5FC9F7880F34
:101C6000911D9695879597F90895E1E0660F771F86
:101C7000881FBB1F621773078407BA0720F0621B17
:101C8000730B840BBA0BEE1F88F7E09508950E9442
:101C90004E0E6894B1110C94290F08950E940E0FF6
:101CA00088F09F5798F0B92F9927B751B0F0E1F01D
:101CB000660F771F881F991F1AF0BA95C9F714C0CD
:101CC000B13091F00E94280FB1E008950C94280FD4
:101CD000672F782F8827B85F39F0B93FCCF3869506
:101CE00077956795B395D9F73EF490958095709563
:101CF00061957F4F8F4F9F4F0895E89409C097FBE0
:101D00003EF490958095709561957F4F8F4F9F4FD2
:101D10009923A9F0F92F96E9BB279395F695879516
:101D200077956795B795F111F8CFFAF4BB0F11F4D9
:101D300060FF1BC06F5F7F4F8F4F9F4F16C0882380
:101D400011F096E911C0772321F09EE8872F762FB6
:101D500005C0662371F096E8862F70E060E02AF0F7
:101D60009A95660F771F881FDAF7880F96958795E3
:101D700097F90895990F0008550FAA0BE0E8FEEFB8
:101D800016161706E807F907C0F012161306E4073F
:101D9000F50798F0621B730B840B950B39F40A2638
:101DA00061F0232B242B252B21F408950A2609F416
:101DB000A140A6958FEF811D811D089597F99F671A
:101DC00080E870E060E008959FEF80EC08950024C3
:101DD0000A941616170618060906089500240A9490
:101DE00012161306140605060895092E0394000C16
:101DF00011F4882352F0BB0F40F4BF2B11F460FFA5
:101E000004C06F5F7F4F8F4F9F4F089557FD9058CD
:101E1000440F551F59F05F3F71F04795880F97FBAE
:101E2000991F61F09F3F79F0879508951216130668
:101E30001406551FF2CF4695F1DF08C01616170697
:101E40001806991FF1CF86957105610508940895CC
:101E5000E894BB2766277727CB0197F908950E945E
:101E6000BA0E08F48FEF08950E94470F0C94F50EF8
:101E70000E94E70E38F00E94EE0E20F0952311F03C
:101E80000C94DE0E0C94E40E11240C94290F0E9485
:101E9000060F70F3959FC1F3950F50E0551F629F99
:101EA000F001729FBB27F00DB11D639FAA27F00DB3
:101EB000B11DAA1F649F6627B00DA11D661F829FDA
:101EC0002227B00DA11D621F739FB00DA11D621FBF
:101ED000839FA00D611D221F749F3327A00D611DDC
:101EE000231F849F600D211D822F762F6A2F1124BE
:101EF0009F5750409AF0F1F088234AF0EE0FFF1FF1
:101F0000BB1F661F771F881F91505040A9F79E3F47
:101F1000510580F00C94DE0E0C94290F5F3FE4F322
:101F2000983ED4F3869577956795B795F795E7959D
:101F30009F5FC1F7FE2B880F911D9695879597F9A6
:101F400008950E94BA0E880B990B0895A1E21A2EEB
:101F5000AA1BBB1BFD010DC0AA1FBB1FEE1FFF1F4D
:101F6000A217B307E407F50720F0A21BB30BE40B9D
:101F7000F50B661F771F881F991F1A9469F76095E4
:101F80007095809590959B01AC01BD01CF0108959E
:101F9000EE0FFF1F0590F491E02D0994F894FFCF08
:101FA000000020420000204200002042000000000B
:101FB0002E018E00BB007B01EC00CA00DE00000099
:101FC00000002704FA036804D003F303E003D103FD
:101FD0006E616E00696E66006F7666004572726FA4
:101FE0007220636F6D6D756E69636174696E6720D1
:101FF0007769746820415335363030000D0A004649
:1020000061696C656420746F207265616420656E1F
:102010006F7567682062797465732066726F6D20D2
:1020200041533536303000746172676574525053D5
:10203000003A20003E4D6F746F725F313A002C61A0
:0C20400076673A002C617667323A0000A7
:00000001FF
