:100000000C9462000C948A000C948A000C948A0070
:100010000C948A000C948A000C948A000C948A0038
:100020000C948A000C948A000C948A000C948A0028
:100030000C948A000C948A000C948A000C948A0018
:100040000C942C070C948A000C94FA060C94D40699
:100050000C948A000C948A000C948A000C948A00F8
:100060000C9476070C948A000000000024002700FE
:100070002A0000000000250028002B0000000000DE
:1000800023002600290004040404040404040202DA
:100090000202020203030303030301020408102007
:1000A0004080010204081020010204081020000012
:1000B0000008000201000003040700000000000027
:1000C0000000950811241FBECFEFD8E0DEBFCDBFE2
:1000D00011E0A0E0B1E0E2E9F0E202C005900D928B
:1000E000AE39B107D9F723E0AEE9B1E001C01D9206
:1000F000AA36B207E1F710E0C2E6D0E004C02197CB
:10010000FE010E944110C136D107C9F70E94E808DC
:100110000C9447100C94000008950895AF92BF927C
:10012000CF92DF92EF92FF920F931F93CF93DF93C3
:100130006C017B018B01040F151FEB015E01AE18F2
:10014000BF08C017D10759F06991D601ED91FC9114
:100150000190F081E02DC6010995892B79F7C50141
:10016000DF91CF911F910F91FF90EF90DF90CF9093
:10017000BF90AF900895FC01538D448D252F30E042
:10018000842F90E0821B930B541710F0CF960895A4
:1001900001970895FC01918D828D981761F0A28DD1
:1001A000AE0FBF2FB11D5D968C91928D9F5F9F7397
:1001B000928F90E008958FEF9FEF0895FC01918D4D
:1001C000828D981731F0828DE80FF11D858D90E0BA
:1001D00008958FEF9FEF0895FC01918D228D892F57
:1001E00090E0805C9F4F821B91098F73992708953F
:1001F00085E892E00E94EC0021E0892B09F420E0E0
:10020000822F089580E090E0892B29F00E94F80069
:1002100081110C9400000895FC01A48DA80FB92F42
:10022000B11DA35ABF4F2C91848D90E001968F731E
:100230009927848FA689B7892C93A089B1898C913D
:10024000837080648C93938D848D981306C002888C
:10025000F389E02D80818F7D80830895EF92FF9256
:100260000F931F93CF93DF93EC0181E0888F9B8DD9
:100270008C8D98131AC0E889F989808185FF15C093
:100280009FB7F894EE89FF896083E889F9898081B6
:100290008370806480839FBF81E090E0DF91CF9185
:1002A0001F910F91FF90EF900895F62E0B8D10E0A7
:1002B0000F5F1F4F0F731127E02E8C8D8E110CC016
:1002C0000FB607FCFACFE889F989808185FFF5CF61
:1002D000CE010E940C01F1CFEB8DEC0FFD2FF11D33
:1002E000E35AFF4FF0829FB7F8940B8FEA89FB899E
:1002F00080818062CFCFCF93DF93EC01888D8823FC
:10030000B9F0AA89BB89E889F9898C9185FD03C078
:10031000808186FD0DC00FB607FCF7CF8C9185FF5D
:10032000F2CF808185FFEDCFCE010E940C01E9CF95
:10033000DF91CF910895833081F028F4813099F0D6
:100340008230A9F008958730A9F08830C9F0843050
:10035000B1F4809180008F7D03C0809180008F7701
:1003600080938000089584B58F7784BD089584B507
:100370008F7DFBCF8091B0008F778093B000089580
:100380008091B0008F7DF9CF1F93CF93DF93282FFB
:1003900030E0F901E255FF4F8491F901E656FF4F35
:1003A000D491F901EA57FF4FC491CC23A9F0162F3D
:1003B00081110E949B01EC2FF0E0EE0FFF1FEE5821
:1003C000FF4FA591B4918FB7F894EC91111108C02B
:1003D000D095DE23DC938FBFDF91CF911F910895DD
:1003E000DE2BF8CFCF93DF9390E0FC01E656FF4F72
:1003F00024918A579F4FFC0184918823D1F090E08B
:10040000880F991FFC01E859FF4FA591B491FC0199
:10041000EE58FF4FC591D49161110EC09FB7F8946B
:100420008C91E22FE0958E238C932881E223E88340
:100430009FBFDF91CF9108958FB7F894EC91E22B95
:10044000EC938FBFF6CF3FB7F89480910302909161
:100450000402A0910502B091060226B5A89B05C032
:100460002F3F19F00196A11DB11D3FBFBA2FA92F33
:10047000982F8827BC01CD01620F711D811D911D30
:1004800042E0660F771F881F991F4A95D1F708959C
:100490008F929F92AF92BF92CF92DF92EF92FF9294
:1004A0004B015C010E9423026B017C010E9423022C
:1004B0006C197D098E099F09683E7340810591057D
:1004C000A8F321E0821A9108A108B10888EEC80EAD
:1004D00083E0D81EE11CF11C81149104A104B10435
:1004E00029F7FF90EF90DF90CF90BF90AF909F9053
:1004F0008F9008952091DF01260F3327331F21327B
:100500003105ECF420915B02FC0190E080E02430A6
:1005100069F082E00895A091DF012191AC0141547E
:100520005E4FA40FB52FB11D2C930196861798F33B
:100530008091DF01680F6093DF0180E0089581E022
:10054000089510925B0281E080935A021092350266
:1005500061E082E10E94C40161E083E10E94C40184
:10056000E9EBF0E080818E7F808380818D7F8083C6
:1005700088E48093B80085E48093BC000895CF930D
:10058000DF9391E09093BE018823B9F0C091B80049
:10059000D091BA008091BC008A7B8093BC0060E05F
:1005A00082E10E94C40160E083E10E94C4010E94D4
:1005B000A102D093BA00C093B800DF91CF91089503
:1005C0008F929F92AF92BF92CF92DF92EF92FF9263
:1005D0000F931F93CF93DF93D0918402D13208F011
:1005E000D7C0182FC09183020E9423026B017C01A7
:1005F00080915B0281116BC082E080935B0210935B
:100600005A028FEF8093590210925802D0935702EA
:10061000A3E6B2E0E7E3F2E080E0D81391C01092E5
:10062000360280913602CC0FC82BC09336028091DF
:100630003502813009F088C0109235020E942302F1
:100640006B017C01809136028093BB0080915D023A
:1006500090915E02A0915F02B0916002892B8A2B7B
:100660008B2BA1F00E94230200915D0210915E028B
:1006700020915F02309160026C197D098E099F09FB
:10068000061717072807390708F442C08091BC00F5
:1006900083FDD8CF85EC8093BC000E9423026B01C0
:1006A0007C0180915B02823009F450C08091590234
:1006B0008F3F09F46FC080915902803209F46CC0F9
:1006C00080915902803309F469C084E026C080918A
:1006D0005D0290915E02A0915F02B0916002892B51
:1006E0008A2B8B2B09F484CF0E94230280905D0219
:1006F00090905E02A0905F02B09060026C197D093C
:100700008E099F0986169706A806B90608F070CFCD
:1007100080915C020E94BF0285E0109262021092FA
:10072000840210926102DF91CF911F910F91FF908F
:10073000EF90DF90CF90BF90AF909F908F900895F3
:100740009D9191938F5F69CF85EEA5CF80915D02DA
:1007500090915E02A0915F02B0916002892B8A2B7A
:100760008B2B09F49ECF0E94230200915D02109111
:100770005E0220915F02309160026C197D098E0942
:100780009F09061717072807390708F08ACFC0CF37
:1007900081E0C3CF80E0C1CF82E0BFCF83E0BDCF97
:1007A0000895E0910C0280910B02E81730F4F0E01C
:1007B000E256FE4F808190E008958FEF9FEF0895FD
:1007C00090910C0280910B022FEF3FEF981748F4A5
:1007D000E92FF0E0E256FE4F208130E09F5F9093DA
:1007E0000C02C901089580910B0290910C02891BA3
:1007F000990B0895CF92DF92EF92FF920F931F9380
:10080000CF93DF937C01CB018A01209161022223E7
:1008100089F0EB016B01C40ED51ECC15DD0569F026
:100820006991D701ED91FC910190F081E02DC70114
:100830000995F3CF642F0E947A02C801DF91CF910E
:100840001F910F91FF90EF90DF90CF900895CF937D
:10085000DF931F92CDB7DEB7698320916102222317
:10086000F9F020918402203258F021E030E0FC01C0
:100870003383228390E080E00F90DF91CF91089541
:1008800080916202E82FF0E0ED59FD4F998190834D
:100890008F5F809362028093840281E090E0ECCFCE
:1008A00061E0CE0101960E947A02F7CF81E0809349
:1008B000610280E7809383021092620210928402A8
:1008C00061E082E293E00E94270481E00C94E00260
:1008D00090E080E00895FC0101900020E9F7319755
:1008E000AF01481B590BBC0185E892E00C948E00C7
:1008F0008F929F92AF92BF920F931F93CF93DF93EC
:10090000CDB7DEB7A1970FB6F894DEBF0FBECDBF4F
:1009100019A2423008F44AE08E010F5D1F4F842E69
:10092000912CB12CA12CA50194010E941F10E62F3F
:10093000B901CA01EA30F4F4E05DD801EE938D010B
:10094000232B242B252B79F790E080E0109719F0CA
:10095000CD010E946B04A1960FB6F894DEBF0FBEC6
:10096000CDBFDF91CF911F910F91BF90AF909F901E
:100970008F900895E95CE1CFCF93DF930E946B04E1
:10098000EC0180E391E00E946B048C0F9D1FDF91CE
:10099000CF9108954F925F926F927F928F929F9224
:1009A000AF92BF92CF92DF92EF92FF920F931F937D
:1009B000CF936B017C01742EAC019B010E941A1035
:1009C000882399F083E391E0CF911F910F91FF90DD
:1009D000EF90DF90CF90BF90AF909F908F907F90DF
:1009E0006F905F904F900C946B0446015701E89410
:1009F000B7F82FEF3FEF4FE75FE7C501B4010E9463
:100A00001A1081110DC02FEF3FEF4FE75FE7C501CF
:100A1000B4010E94490E18161CF487E391E0D4CF6C
:100A20002FEF3FEF4FE75FE4C701B6010E94A80F29
:100A300018161CF48BE391E0C7CF2FEF3FEF4FE781
:100A40005FECC701B6010E94490E87FDF3CF20E09D
:100A500030E0A901C701B6010E94490E10E000E094
:100A600087FF0AC06DE285E892E00E942E018C01AA
:100A7000F7FAF094F7F8F094C0E060E070E080E0FE
:100A80009FE37C1641F020E030E040E251E40E9418
:100A90004E0ECF5FF6CFA70196010E94DD0D2B0110
:100AA0003C010E94C70E4B015C014AE00E947804A1
:100AB0007C01E00EF11ECC23C1F1C501B4010E94FE
:100AC000F60E9B01AC01C301B2010E94DC0D4B018B
:100AD0005C016EE285E892E00E942E01E80EF91EAC
:100AE000C15018F120E030E040E251E4C501B4010A
:100AF0000E94AD0F2B013C010E94C70E4B01B12C8F
:100B0000A12C4AE0C501B4010E947804E80EF91E48
:100B1000C501B4010E94F60E9B01AC01C301B201F4
:100B20000E94DC0D4B015C01DBCFC701CF911F910F
:100B30000F91FF90EF90DF90CF90BF90AF909F907C
:100B40008F907F906F905F904F900895CF92DF923B
:100B5000EF92FF920F931F93CF9381E080936102F6
:100B600086E38093830210926202109284026CE00A
:100B700082E293E00E94270480E00E94E002C82FF6
:100B80008111D7C00E9423026B017C0180915B021E
:100B9000811163C081E080935B0280935A029FEFD2
:100BA0009093590210925802809357028093360214
:100BB000809136028C6680933602809135028130B6
:100BC00009F08DC0109235020E9423026B017C0156
:100BD000809136028093BB0080915D0290915E020D
:100BE000A0915F02B0916002892B8A2B8B2BA1F020
:100BF0000E94230200915D0210915E0220915F022B
:100C0000309160026C197D098E099F09061717073C
:100C10002807390708F442C08091BC0083FDD8CF73
:100C200085EC8093BC000E9423026B017C018091C3
:100C30005B02813009F455C080915802823008F07F
:100C400072C080915802A7E3B2E0EEE9F1E0C81764
:100C500049F19D919193CF5FFACF80915D02909180
:100C60005E02A0915F02B0916002892B8A2B8B2BD0
:100C700009F48CCF0E94230200915D0210915E0264
:100C800020915F02309160026C197D098E099F09E5
:100C9000061717072807390708F078CF80915C02FC
:100CA0000E94BF0210920C02C0930B02C230E8F106
:100CB00082E293E00E94E003C82F82E293E00E9468
:100CC000E00320E03C2FA901482BCA019F70CF917F
:100CD0001F910F91FF90EF90DF90CF90089585EED8
:100CE000A0CF80915D0290915E02A0915F02B091D1
:100CF0006002892B8A2B8B2B09F499CF0E94230247
:100D000000915D0210915E0220915F0230916002BD
:100D10006C197D098E099F090617170728073907DF
:100D200008F085CFBBCF82E08ECF8FE391E00E94A9
:100D3000BC0490E080E0CBCF85ED8093BC00809137
:100D40005D0290915E02A0915F02B09160020796F1
:100D5000A11DB11D23E0B695A795979587952A9576
:100D6000D1F72091BC0024FD03C010925B020895CE
:100D700040915D0250915E0260915F02709160024D
:100D8000452B462B472B69F30097A105B10541F090
:100D90002AE22A95F1F700C00197A109B109E1CF34
:100DA00080915C020C94BF021F920F920FB60F92BB
:100DB00011242F933F934F935F936F937F938F9360
:100DC0009F93AF93BF93EF93FF9385E892E00E94C8
:100DD0000C01FF91EF91BF91AF919F918F917F9106
:100DE0006F915F914F913F912F910F900FBE0F9098
:100DF0001F9018951F920F920FB60F9211242F93E8
:100E00008F939F93EF93FF93E0919502F091960259
:100E10008081E0919B02F0919C0282FD1BC0908139
:100E200080919E028F5F8F7320919F02821741F005
:100E3000E0919E02F0E0EB57FD4F958F80939E026C
:100E4000FF91EF919F918F912F910F900FBE0F9077
:100E50001F9018958081F4CF1F920F920FB60F92BA
:100E600011242F933F938F939F93AF93BF938091C0
:100E70000D0290910E02A0910F02B09110023091DC
:100E8000020223E0230F2D3758F50196A11DB11D55
:100E90002093020280930D0290930E02A0930F0202
:100EA000B09310028091030290910402A091050278
:100EB000B09106020196A11DB11D8093030290938B
:100EC0000402A0930502B0930602BF91AF919F91D7
:100ED0008F913F912F910F900FBE0F901F901895FB
:100EE00026E8230F0296A11DB11DD2CF1F920F92AB
:100EF0000FB60F9211242F933F934F935F936F93ED
:100F00007F938F939F93AF93BF93EF93FF938091C2
:100F1000B900887F803609F44AC0F0F5883209F4B8
:100F2000A7C018F5803109F49BC0B8F4882309F4F0
:100F3000F9C0883009F494C0FF91EF91BF91AF914F
:100F40009F918F917F916F915F914F913F912F91E1
:100F50000F900FBE0F901F901895883109F488C02C
:100F6000803251F78093590214C0803409F49DC037
:100F700040F48033B9F38833F9F68093590285EC55
:100F8000B0C0803509F485C0883509F496C088342E
:100F900099F60E949C06D0CF883909F48CC038F5A8
:100FA000883729F050F4883611F0803729F683E02D
:100FB00080935B021092010257C0883809F47BC00D
:100FC000803919F0803809F0B7CF80910102803262
:100FD00008F071C0E091010281E08E0F8093010260
:100FE0008091BB00F0E0EF51FE4F80833DC0803B1D
:100FF00039F0E0F4803A09F479C0883A09F09CCFDE
:1010000084E080935B021092E0011092DF01E09196
:101010000902F0910A0209958091DF0181110FC048
:1010200081E08093DF011092BF0109C0803C09F488
:10103000A6CF883C09F4A3CF883B09F07DCFE0918F
:10104000E00181E08E0F8093E001F0E0E154FE4F7B
:1010500080818093BB009091E0018091DF0129C0E5
:10106000809136028093BB0085EC8093BC0064CFF6
:101070009091580280915702981758F5E0915802C4
:1010800081E08E0F80935802F0E0E95CFD4F808193
:10109000E9CFE091580281E08E0F80935802809151
:1010A000BB00F0E0E95CFD4F808390915802809195
:1010B00057029817C8F285E8D8CFE091580281E02E
:1010C0008E0F809358028091BB00F0E0E95CFD4FE9
:1010D000808380915A0281115CCF81E08093350238
:1010E00084EA8093BC0010925B0226CF85EC80934B
:1010F000BC0010925B0280910102803230F4E091DA
:101100000102F0E0EF51FE4F10826091010270E0A9
:10111000E0910702F091080281EE91E009951092AA
:1011200001020ACF1092590234CFE5E8F2E01382AF
:10113000128288EE93E0A0E0B0E084839583A683DA
:10114000B78320E131E03183208325EC30E035871F
:10115000248724EC30E03787268720EC30E0318B81
:10116000208B21EC30E0338B228B22EC30E0358B6E
:10117000248B26EC30E0378B268B118E128E138E4B
:10118000148EE2E2F3E01382128284839583A683B5
:10119000B78382E291E091838083EEE2F3E01486EC
:1011A000158616861786108A118A128A138A10A24B
:1011B00011A212A213A214A215A216A217A214AA77
:1011C00015AA16AA17AA10AE11AE12AE13AE089544
:1011D000CF93DF93CDB7DEB72C970FB6F894DEBF71
:1011E0000FBECDBF789484B5826084BD84B5816024
:1011F00084BD85B5826085BD85B5816085BD8091E2
:101200006E00816080936E00109281008091810059
:101210008260809381008091810081608093810051
:10122000809180008160809380008091B100846013
:101230008093B1008091B00081608093B000809174
:101240007A00846080937A0080917A008260809333
:101250007A0080917A00816080937A0080917A0090
:10126000806880937A001092C100E0919502F0911D
:10127000960282E08083E0919102F09192021082C6
:10128000E0919302F091940280E1808310929D029C
:10129000E0919902F0919A0286E08083E0919702B2
:1012A000F0919802808180618083E0919702F091B3
:1012B0009802808188608083E0919702F091980283
:1012C000808180688083E0919702F091980280810C
:1012D0008F7D808360E083E00E94F20161E084E022
:1012E0000E94F20161E085E00E94F20161E086E087
:1012F0000E94F20161E087E00E94F20161E088E073
:101300000E94F20161E089E00E94F20161E08AE05E
:101310000E94F20161E08BE00E94F20160E08CE04B
:101320000E94F20160E08DE00E94F20110920C0236
:1013300010920B0210926202109284020E94A1028B
:101340008CE890E090930A02809309028DE890E087
:1013500090930802809307020E9456046AE070E0AE
:1013600080E090E00E9448020E94A605BC0190E047
:1013700080E00E94F60E60932E0370932F038093FB
:101380003003909331032FB7F89480910D02909120
:101390000E02A0910F02B09110022FBF8093320372
:1013A00090933303A0933403B09335031092360324
:1013B00010923703109238031092390310921102E1
:1013C000109212021092130210921402109215023F
:1013D0001092160210921702109218028DED94E2EC
:1013E000AEE3B2E48093000190930101A093020167
:1013F000B093030183E29BEDA1E0B2E4809304018A
:1014000090930501A0930601B09307018093080112
:1014100090930901A0930A01B0930B0120E031E001
:101420003A832983C12CD12C760187E691E00E9472
:101430006B044AE0C701B6010E94780481E791E09D
:101440000E946B04A981BA816D917D918D919D91CE
:10145000BA83A98342E00E94CA0480E391E00E941B
:101460006B04BFEFCB1ADB0AEB0AFB0AE3E0CE16F4
:10147000D104E104F104C9F607EB10E059E8252E88
:1014800050E0352E85E892E00E94EC00181619060F
:101490000CF0BAC085E892E00E94CA006C01990F76
:1014A000EE08FF084AE0C701B601F7FE0DC06DE285
:1014B00085E892E00E942E0166277727CB016C1900
:1014C0007D098E099F094AE00E94780480E391E03B
:1014D0000E946B04C701B6010E94F80E9B01AC018B
:1014E0000E94DD0D20E030E040E850E40E94AD0FA6
:1014F0006B017C0129EE36E241E751E40E94DD0DEB
:1015000020E030E040E05FE30E94AD0F4B015C0162
:1015100029EE36E241E751E4C701B6010E94DC0D35
:1015200020E030E040E05FE30E94AD0F6B017C0102
:1015300020E030E040EA52E4C501B4010E94A80F67
:10154000181654F484E791E00E94BC04812C912C7D
:1015500040EAA42E42E4B42E20E030E040EA52E417
:10156000C701B6010E94A80F181654F487E891E04D
:101570000E94BC04C12CD12C30EAE32E32E4F32EBD
:101580008092000190920101A0920201B0920301A9
:10159000C0920401D0920501E0920601F092070189
:1015A000C0920801D0920901E0920A01F0920B0169
:1015B00020E0E22E21E0F22E812C912C540187E6CE
:1015C00091E00E946B044AE0C501B4010E947804D6
:1015D00081E791E00E946B04D7016D917D918D911F
:1015E0009D917D0142E00E94CA0480E391E00E9447
:1015F0006B04BFEF8B1A9B0AAB0ABB0AE3E08E16A3
:101600009104A104B104D9F68FB7F89420910D028A
:1016100030910E0240910F025091100229873A87B3
:101620004B875C878FBF0E94560462E070E080E0C9
:1016300090E00E9448020E94A6057C01809132033E
:1016400090913303A0913403B091350329853A85F5
:101650004B855C85281B390B4A0B5B0BCA01B90112
:101660000E94F60E20E030E04AE754E40E944E0E5D
:101670002B013C01B70190E080E00E94F60E20E0D3
:1016800030E040E859E30E94AD0F69837A838B8391
:101690009C83C0902E03D0902F03E0903003F090F5
:1016A00031039B01AC01C701B6010E94DC0D2FE69E
:1016B00032E143E85AE30E94A80F181684F420E0B0
:1016C00030E040E85FE3C701B6010E94DC0D6093A3
:1016D0002E0370932F0380933003909331038091F6
:1016E000360390913703A0913803B09139038D836D
:1016F0009E83AF83B88728E137EB41E558E3C30108
:10170000B2010E94A80F18160CF047C020912E03BA
:1017100030912F03409130035091310369817A81D8
:101720008B819C810E94DC0D4B015C01A301920125
:101730000E944E0E6B017C0120E030E04CED52E443
:101740000E94490E87FF29C029E23CE54FE85DE38E
:10175000C501B4010E94A80F1816FCF42D813E812A
:101760004F815885C701B6010E94DC0DA30192018B
:101770000E944E0E4B015C0120E030E0A9010E9466
:10178000A80F18165CF520E030E04AEF55E4C501DB
:10179000B4010E94490E87FD2BC020E030E0A90172
:1017A0006D817E818F8198850E94A80F20E030E0B6
:1017B000A901181624F420E030E040E85FE36D81D1
:1017C0007E818F8198850E94DC0D60933603709333
:1017D0003703809338039093390312C020E030E040
:1017E0004AEF55ECC501B4010E94A80F1816ACF6DB
:1017F000C0923603D0923703E0923803F092390357
:10180000C0903603D0903703E0903803F09039034E
:1018100020E030E0A901C701B6010E94A80F181608
:101820000CF064C124EA30E74DE75FE360913A03CE
:1018300070913B0380913C0390913D030E94AD0F5A
:101840004B015C012AE037ED43E25CE3C701B601DE
:101850000E94AD0F9B01AC01C501B4010E94DD0DDA
:101860006B017C01C0923A03D0923B03E0923C03AF
:10187000F0923D0324EA30E74DE75FE360913E03D9
:1018800070913F0380914003909141030E94AD0FFE
:101890004B015C012AE037ED43E25CE3C701B6018E
:1018A0000E94AD0F9B01AC01C501B4010E94DD0D8A
:1018B0009B01AC0120933E0330933F0340934003D0
:1018C0005093410389819A81AB81BC8180932E031F
:1018D00090932F03A0933003B093310389859A85A9
:1018E000AB85BC858093320390933303A09334037C
:1018F000B09335034092290250922A0260922B0243
:1019000070922C026091000170910101809102019E
:10191000909103010E94DC0D6B017C0120E030E01E
:1019200040EA51E40E94AD0F69837A838B839C83E4
:10193000A7019601C301B2010E94AD0F20911102CF
:101940003091120240911302509114020E94DD0D59
:101950004B015C012DE532E343EA50E40E94A80FFD
:1019600018160CF4C7C08092110290921202A09235
:101970001302B09214022DE532E343EA50EC609179
:1019800011027091120280911302909114020E9430
:10199000490E87FF0CC08DE592E3A3EAB0EC80937B
:1019A000110290931202A0931302B093140220E04C
:1019B00030E048E452E4609111027091120280918B
:1019C0001302909114020E94AD0F6D837E838F836A
:1019D000988720911502309116024091170250917C
:1019E0001802C701B6010E94DC0D20E030E040EA99
:1019F00051E40E94AD0FA30192010E944E0E4B01D3
:101A00005C01C0921502D0921602E0921702F09289
:101A100018022D813E814F81588569817A818B81A1
:101A20009C810E94DD0DA50194010E94DD0D6B01DA
:101A30007C0120E030E040E751E40E94490E87FD40
:101A400066C020E030E04FE753E4C701B6010E94D2
:101A5000A80F181634F4C12CD12C9FE7E92E93E47B
:101A6000F92EC701B6010E94C00E4B017B0161E057
:101A700089E00E94F2018114910409F04CC060E0F9
:101A800089E00E94C401E1EBF0E08491EDE9F0E02F
:101A9000F490F101E490EE2009F485C081110E94D8
:101AA0009B01EE2DF0E0EE0FFF1FE458FF4FA591D4
:101AB000B4918C91F82209F476C080E090E0A0EA1D
:101AC000B2E48093000190930101A0930201B093CE
:101AD000030120E030E0232B09F4D4CC0E94F8006D
:101AE000882309F4CFCC0E940000CCCCC12CD12C8F
:101AF0007601B8CE8DE592E3A3EAB0E480931102BB
:101B000090931202A0931302B093140234CFC12C0D
:101B1000D12C7601A6CF9FEF8916910411F461E0D4
:101B2000AFCFF8018491833021F148F48130B9F0CE
:101B30008230D1F0F0E8EF16F1048CF7A0CF8730B7
:101B400011F1883041F18430A9F7809180008062E2
:101B50008093800090928B0080928A0094CF84B50D
:101B6000806884BD87BC8FCF84B5806284BD88BC0B
:101B70008ACF809180008068809380009092890055
:101B80008092880080CF8091B00080688093B00000
:101B90008092B30078CF8091B00080628093B000D3
:101BA0008092B40070CF1092000110920101109247
:101BB0000201109203018DCF5058BB27AA270E9423
:101BC000F40D0C946E0F0E94600F38F00E94670FA6
:101BD00020F039F49F3F19F426F40C945D0F0EF4B5
:101BE000E095E7FB0C94570FE92F0E947F0F58F305
:101BF000BA17620773078407950720F079F4A6F5F2
:101C00000C94A10F0EF4E0950B2EBA2FA02D0B0112
:101C1000B90190010C01CA01A0011124FF27591B31
:101C200099F0593F50F4503E68F11A16F040A22F37
:101C3000232F342F4427585FF3CF469537952795A8
:101C4000A795F0405395C9F77EF41F16BA0B620BA7
:101C5000730B840BBAF09150A1F0FF0FBB1F661FEE
:101C6000771F881FC2F70EC0BA0F621F731F841F31
:101C700048F4879577956795B795F7959E3F08F057
:101C8000B0CF9395880F08F09927EE0F9795879519
:101C900008950E94330F08F481E008950E94620EB7
:101CA0000C946E0F0E94670F58F00E94600F40F076
:101CB00029F45F3F29F00C94570F51110C94A20F97
:101CC0000C945D0F0E947F0F68F39923B1F35523A5
:101CD00091F3951B550BBB27AA276217730784073F
:101CE00038F09F5F5F4F220F331F441FAA1FA9F3D5
:101CF00035D00E2E3AF0E0E832D091505040E695C3
:101D0000001CCAF72BD0FE2F29D0660F771F881F23
:101D1000BB1F261737074807AB07B0E809F0BB0B16
:101D2000802DBF01FF2793585F4F3AF09E3F51052A
:101D300078F00C94570F0C94A20F5F3FE4F3983E99
:101D4000D4F3869577956795B795F7959F5FC9F713
:101D5000880F911D9695879597F90895E1E0660F94
:101D6000771F881FBB1F621773078407BA0720F00D
:101D7000621B730B840BBA0BEE1F88F7E095089576
:101D80000E94C70E6894B1110C94A20F08950E948E
:101D9000870F88F09F5798F0B92F9927B751B0F067
:101DA000E1F0660F771F881F991F1AF0BA95C9F7DF
:101DB00014C0B13091F00E94A10FB1E008950C94CD
:101DC000A10F672F782F8827B85F39F0B93FCCF380
:101DD000869577956795B395D9F73EF4909580955C
:101DE000709561957F4F8F4F9F4F0895E89409C07C
:101DF00097FB3EF490958095709561957F4F8F4F3E
:101E00009F4F9923A9F0F92F96E9BB279395F69553
:101E1000879577956795B795F111F8CFFAF4BB0FD1
:101E200011F460FF1BC06F5F7F4F8F4F9F4F16C035
:101E3000882311F096E911C0772321F09EE8872FBF
:101E4000762F05C0662371F096E8862F70E060E07B
:101E50002AF09A95660F771F881FDAF7880F9695F4
:101E6000879597F90895990F0008550FAA0BE0E898
:101E7000FEEF16161706E807F907C0F0121613064C
:101E8000E407F50798F0621B730B840B950B39F48C
:101E90000A2661F0232B242B252B21F408950A26F2
:101EA00009F4A140A6958FEF811D811D089597F932
:101EB0009F6780E870E060E008959FEF80EC0895F0
:101EC00000240A9416161706180609060895002419
:101ED0000A9412161306140605060895092E039493
:101EE000000C11F4882352F0BB0F40F4BF2B11F407
:101EF00060FF04C06F5F7F4F8F4F9F4F089557FD66
:101F00009058440F551F59F05F3F71F04795880F67
:101F100097FB991F61F09F3F79F0879508951216FE
:101F200013061406551FF2CF4695F1DF08C01616AA
:101F300017061806991FF1CF86957105610508945B
:101F40000895E894BB2766277727CB0197F9089572
:101F50000E94330F08F48FEF08950E94C00F0C9475
:101F60006E0F0E94600F38F00E94670F20F09523DB
:101F700011F00C94570F0C945D0F11240C94A20FC8
:101F80000E947F0F70F3959FC1F3950F50E0551F8E
:101F9000629FF001729FBB27F00DB11D639FAA27BE
:101FA000F00DB11DAA1F649F6627B00DA11D661F0D
:101FB000829F2227B00DA11D621F739FB00DA11D2E
:101FC000621F839FA00D611D221F749F3327A00DE8
:101FD000611D231F849F600D211D822F762F6A2F84
:101FE00011249F5750409AF0F1F088234AF0EE0FE9
:101FF000FF1FBB1F661F771F881F91505040A9F716
:102000009E3F510580F00C94570F0C94A20F5F3F38
:10201000E4F3983ED4F3869577956795B795F79551
:10202000E7959F5FC1F7FE2B880F911D96958795C9
:1020300097F908950E94330F880B990B0895A1E238
:102040001A2EAA1BBB1BFD010DC0AA1FBB1FEE1F32
:10205000FF1FA217B307E407F50720F0A21BB30B7D
:10206000E40BF50B661F771F881F991F1A9469F7F9
:1020700060957095809590959B01AC01BD01CF0155
:102080000895EE0FFF1F0590F491E02D0994F89448
:02209000FFCF80
:102092000000204200002042000020420000000018
:1020A2002E018E00BB007B01EC00CA00DE000000A6
:1020B20000002704FA036804D003F303E003D1030A
:1020C2000D0A006E616E00696E66006F76660046EC
:1020D20061696C656420746F207265616420656E4D
:1020E2006F7567682062797465732066726F6D2000
:1020F2004153353630300074617267657452505303
:10210200003A2000546F70205250532061626F7663
:1021120065206D61782E00426F74746F6D2052508D
:0E212200532061626F7665206D61782E00009B
:00000001FF
