:020000040000FA
:100000000C9462000C948A000C948A000C948A0070
:100010000C948A000C948A000C948A000C948A0038
:100020000C948A000C948A000C948A000C948A0028
:100030000C948A000C948A000C948A000C948A0018
:100040000C9410070C948A000C94DE060C94B806ED
:100050000C948A000C948A000C948A000C948A00F8
:100060000C945A070C948A0000000000240027001A
:100070002A0000000000250028002B0000000000DE
:1000800023002600290004040404040404040202DA
:100090000202020203030303030301020408102007
:1000A0004080010204081020010204081020000012
:1000B0000008000201000003040700000000000027
:1000C0000000790811241FBECFEFD8E0DEBFCDBFFE
:1000D00011E0A0E0B1E0ECE6F1E202C005900D9283
:1000E000AE3CB107D9F723E0AEECB1E001C01D9200
:1000F000A23AB207E1F710E0C2E6D0E004C02197CF
:10010000FE010E94AE10C136D107C9F70E94CC088B
:100110000C94B4100C94000008950895AF92BF920F
:10012000CF92DF92EF92FF920F931F93CF93DF93C3
:100130006C017B018B01040F151FEB015E01AE18F2
:10014000BF08C017D10759F06991D601ED91FC9114
:100150000190F081E02DC6010995892B79F7C50141
:10016000DF91CF911F910F91FF90EF90DF90CF9093
:10017000BF90AF900895FC01538D448D252F30E042
:10018000842F90E0821B930B541710F0CF960895A4
:1001900001970895FC01918D828D981761F0A28DD1
:1001A000AE0FBF2FB11D5D968C91928D9F5F9F7397
:1001B000928F90E008958FEF9FEF0895FC01918D4D
:1001C000828D981731F0828DE80FF11D858D90E0BA
:1001D00008958FEF9FEF0895FC01918D228D892F57
:1001E00090E0805C9F4F821B91098F73992708953F
:1001F0008DEB92E00E94EC0021E0892B09F420E0D5
:10020000822F089580E090E0892B29F00E94F80069
:1002100081110C9400000895FC01A48DA80FB92F42
:10022000B11DA35ABF4F2C91848D90E001968F731E
:100230009927848FA689B7892C93A089B1898C913D
:10024000837080648C93938D848D981306C002888C
:10025000F389E02D80818F7D80830895EF92FF9256
:100260000F931F93CF93DF93EC0181E0888F9B8DD9
:100270008C8D98131AC0E889F989808185FF15C093
:100280009FB7F894EE89FF896083E889F9898081B6
:100290008370806480839FBF81E090E0DF91CF9185
:1002A0001F910F91FF90EF900895F62E0B8D10E0A7
:1002B0000F5F1F4F0F731127E02E8C8D8E110CC016
:1002C0000FB607FCFACFE889F989808185FFF5CF61
:1002D000CE010E940C01F1CFEB8DEC0FFD2FF11D33
:1002E000E35AFF4FF0829FB7F8940B8FEA89FB899E
:1002F00080818062CFCFCF93DF93EC01888D8823FC
:10030000B9F0AA89BB89E889F9898C9185FD03C078
:10031000808186FD0DC00FB607FCF7CF8C9185FF5D
:10032000F2CF808185FFEDCFCE010E940C01E9CF95
:10033000DF91CF910895833081F028F4813099F0D6
:100340008230A9F008958730A9F08830C9F0843050
:10035000B1F4809180008F7D03C0809180008F7701
:1003600080938000089584B58F7784BD089584B507
:100370008F7DFBCF8091B0008F778093B000089580
:100380008091B0008F7DF9CF1F93CF93DF93282FFB
:1003900030E0F901E255FF4F8491F901E656FF4F35
:1003A000D491F901EA57FF4FC491CC23A9F0162F3D
:1003B00081110E949B01EC2FF0E0EE0FFF1FEE5821
:1003C000FF4FA591B4918FB7F894EC91111108C02B
:1003D000D095DE23DC938FBFDF91CF911F910895DD
:1003E000DE2BF8CFCF93DF9390E0FC01E656FF4F72
:1003F00024918A579F4FFC0184918823D1F090E08B
:10040000880F991FFC01E859FF4FA591B491FC0199
:10041000EE58FF4FC591D49161110EC09FB7F8946B
:100420008C91E22FE0958E238C932881E223E88340
:100430009FBFDF91CF9108958FB7F894EC91E22B95
:10044000EC938FBFF6CF3FB7F89480913302909131
:100450003402A0913502B091360226B5A89B05C0A2
:100460002F3F19F00196A11DB11D3FBFBA2FA92F33
:10047000982F8827BC01CD01620F711D811D911D30
:1004800042E0660F771F881F991F4A95D1F708959C
:1004900020910F02260F3327331F21323105ECF450
:1004A00020919302FC0190E080E0243069F082E02A
:1004B0000895A0910F022191AC0141515E4FA40F0C
:1004C000B52FB11D2C930196861798F380910F02DA
:1004D000680F60930F0280E0089581E00895109204
:1004E000930281E08093920210926D0261E082E1BA
:1004F0000E94C40161E083E10E94C401E9EBF0E0E5
:1005000080818E7F808380818D7F808388E480934B
:10051000B80085E48093BC000895CF93DF9391E009
:100520009093EE018823B9F0C091B800D091BA0041
:100530008091BC008A7B8093BC0060E082E10E94D5
:10054000C40160E083E10E94C4010E946F02D09365
:10055000BA00C093B800DF91CF9108958F929F9217
:10056000AF92BF92CF92DF92EF92FF920F931F93C1
:10057000CF93DF93D091BC02D13208F0D7C0182FAF
:10058000C091BB020E9423026B017C018091930207
:1005900081116BC082E080939302109392028FEFDF
:1005A0008093910210929002D0938F02ABE9B2E057
:1005B000EFE6F2E080E0D81391C010926E028091D5
:1005C0006E02CC0FC82BC0936E0280916D028130F9
:1005D00009F088C010926D020E9423026B017C0119
:1005E00080916E028093BB0080919502909196025B
:1005F000A0919702B0919802892B8A2B8B2BA1F0A6
:100600000E94230200919502109196022091970278
:10061000309198026C197D098E099F0906171707FA
:100620002807390708F442C08091BC0083FDD8CF69
:1006300085EC8093BC000E9423026B017C018091B9
:100640009302823009F450C0809191028F3F09F4E7
:100650006FC080919102803209F46CC08091910248
:10066000803309F469C084E026C08091950290919E
:100670009602A0919702B0919802892B8A2B8B2B1E
:1006800009F484CF0E9423028090950290909602F4
:10069000A0909702B09098026C197D098E099F096D
:1006A00086169706A806B90608F070CF80919402C6
:1006B0000E948D0285E010929A021092BC02109264
:1006C0009902DF91CF911F910F91FF90EF90DF90F2
:1006D000CF90BF90AF909F908F9008959D919193F0
:1006E0008F5F69CF85EEA5CF80919502909196029C
:1006F000A0919702B0919802892B8A2B8B2B09F439
:100700009ECF0E94230200919502109196022091A3
:100710009702309198026C197D098E099F0906177E
:1007200017072807390708F08ACFC0CF81E0C3CF69
:1007300080E0C1CF82E0BFCF83E0BDCF0895E091DC
:100740003C0280913B02E81730F4F0E0E253FE4FA8
:10075000808190E008958FEF9FEF089590913C0283
:1007600080913B022FEF3FEF981748F4E92FF0E01C
:10077000E253FE4F208130E09F5F90933C02C9011D
:10078000089580913B0290913C02891B990B08953A
:10079000CF92DF92EF92FF920F931F93CF93DF934D
:1007A0007C01CB018A0120919902222389F0EB017F
:1007B0006B01C40ED51ECC15DD0569F06991D7011A
:1007C000ED91FC910190F081E02DC7010995F3CFE7
:1007D000642F0E944802C801DF91CF911F910F91B1
:1007E000FF90EF90DF90CF900895CF93DF931F920B
:1007F000CDB7DEB76983209199022223F9F02091C9
:10080000BC02203258F021E030E0FC013383228327
:1008100090E080E00F90DF91CF91089580919A024F
:10082000E82FF0E0E556FD4F998190838F5F80932C
:100830009A028093BC0281E090E0ECCF61E0CE01AF
:1008400001960E944802F7CF90E080E0089591E081
:100850009093990290E79093BB0210929A021092A3
:10086000BC0261E070E001C0660F8A95EAF78AE594
:1008700093E00E94F50381E00C94AE02FC0101902C
:100880000020E9F73197AF01481B590BBC018DEBF4
:1008900092E00C948E008F929F92AF92BF920F9332
:1008A0001F93CF93DF93CDB7DEB7A1970FB6F89420
:1008B000DEBF0FBECDBF19A2423008F44AE08E0160
:1008C0000F5D1F4F842E912CB12CA12CA5019401FA
:1008D0000E948C10E62FB901CA01EA30F4F4E05D01
:1008E000D801EE938D01232B242B252B79F790E053
:1008F00080E0109719F0CD010E943E04A1960FB63A
:10090000F894DEBF0FBECDBFDF91CF911F910F9145
:10091000BF90AF909F908F900895E95CE1CFCF9307
:10092000DF930E943E04EC0180E391E00E943E04CC
:100930008C0F9D1FDF91CF9108954F925F926F9220
:100940007F928F929F92AF92BF92CF92DF92EF925F
:10095000FF920F931F93CF936B017C01742EAC0118
:100960009B010E948710882399F083E391E0CF9147
:100970001F910F91FF90EF90DF90CF90BF90AF90BD
:100980009F908F907F906F905F904F900C943E045B
:1009900046015701E894B7F82FEF3FEF4FE75FE7C5
:1009A000C501B4010E94871081110DC02FEF3FEFE8
:1009B0004FE75FE7C501B4010E94B60E18161CF49C
:1009C00087E391E0D4CF2FEF3FEF4FE75FE4C7011C
:1009D000B6010E94151018161CF48BE391E0C7CFE6
:1009E0002FEF3FEF4FE75FECC701B6010E94B60E55
:1009F00087FDF3CF20E030E0A901C701B6010E94D6
:100A0000B60E10E000E087FF0AC06DE28DEB92E0C9
:100A10000E942E018C01F7FAF094F7F8F094C0E0F0
:100A200060E070E080E09FE37C1641F020E030E081
:100A300040E251E40E94BB0ECF5FF6CFA7019601C2
:100A40000E944A0E2B013C010E94340F4B015C01B5
:100A50004AE00E944B047C01E00EF11ECC23C1F160
:100A6000C501B4010E94630F9B01AC01C301B20137
:100A70000E94490E4B015C016EE28DEB92E00E94F8
:100A80002E01E80EF91EC15018F120E030E040E2DE
:100A900051E4C501B4010E941A102B013C010E94CF
:100AA000340F4B01B12CA12C4AE0C501B4010E94C6
:100AB0004B04E80EF91EC501B4010E94630F9B01AF
:100AC000AC01C301B2010E94490E4B015C01DBCFB6
:100AD000C701CF911F910F91FF90EF90DF90CF90C2
:100AE000BF90AF909F908F907F906F905F904F904E
:100AF0000895CF93DF9342E00E949D04EC0180E3D0
:100B000091E00E943E048C0F9D1FDF91CF910895CC
:100B1000CF92DF92EF92FF920F931F93CF9381E0DA
:100B20008093990286E38093BB0210929A021092FE
:100B3000BC026CE08AE593E00E94F50380E00E942D
:100B4000AE02C82F8FE391E0C111D5C00E942302ED
:100B50006B017C0180919302811163C081E08093DD
:100B60009302809392029FEF9093910210929002D1
:100B700080938F0280936E0280916E028C668093C8
:100B80006E0280916D02813009F08DC010926D026D
:100B90000E9423026B017C0180916E028093BB0056
:100BA0008091950290919602A0919702B09198023F
:100BB000892B8A2B8B2BA1F00E9423020091950296
:100BC0001091960220919702309198026C197D093C
:100BD0008E099F09061717072807390708F442C02E
:100BE0008091BC0083FDD8CF85EC8093BC000E942F
:100BF00023026B017C0180919302813009F455C07E
:100C000080919002823008F072C080919002AFE62D
:100C1000B2E0EEECF1E0C81749F19D919193CF5FFE
:100C2000FACF8091950290919602A0919702B0918F
:100C30009802892B8A2B8B2B09F48CCF0E942302DC
:100C4000009195021091960220919702309198029E
:100C50006C197D098E099F090617170728073907A0
:100C600008F078CF809194020E948D0210923C028D
:100C7000C0933B02C230E8F18AE593E00E94AE03E4
:100C8000C82F8AE593E00E94AE0320E03C2FA90123
:100C9000482BCA019F70CF911F910F91FF90EF9049
:100CA000DF90CF90089585EEA0CF8091950290912E
:100CB0009602A0919702B0919802892B8A2B8B2BD8
:100CC00009F499CF0E942302009195021091960297
:100CD00020919702309198026C197D098E099F0925
:100CE000061717072807390708F085CFBBCF82E022
:100CF0008ECF8FE591E00E948F0490E080E0CBCF13
:100D000085ED8093BC008091950290919602A09110
:100D10009702B09198020796A11DB11D23E0B695E8
:100D2000A795979587952A95D1F72091BC0024FD2A
:100D300003C010929302089540919502509196023B
:100D40006091970270919802452B462B472B69F3CF
:100D50000097A105B10541F02AE22A95F1F700C0FC
:100D60000197A109B109E1CF809194020C948D0201
:100D70001F920F920FB60F9211242F933F934F9310
:100D80005F936F937F938F939F93AF93BF93EF93F3
:100D9000FF938DEB92E00E940C01FF91EF91BF91C8
:100DA000AF919F918F917F916F915F914F913F9103
:100DB0002F910F900FBE0F901F9018951F920F92BA
:100DC0000FB60F9211242F938F939F93EF93FF935E
:100DD000E091CD02F091CE028081E091D302F091BA
:100DE000D40282FD1BC090818091D6028F5F8F73E9
:100DF0002091D702821741F0E091D602F0E0E3544F
:100E0000FD4F958F8093D602FF91EF919F918F9127
:100E10002F910F900FBE0F901F9018958081F4CFE7
:100E20001F920F920FB60F9211242F933F938F931F
:100E30009F93AF93BF9380913D0290913E02A0910A
:100E40003F02B09140023091320223E0230F2D3750
:100E500058F50196A11DB11D2093320280933D02E9
:100E600090933E02A0933F02B093400280913302E0
:100E700090913402A0913502B09136020196A11DE5
:100E8000B11D8093330290933402A0933502B09346
:100E90003602BF91AF919F918F913F912F910F900B
:100EA0000FBE0F901F90189526E8230F0296A11DE4
:100EB000B11DD2CF1F920F920FB60F9211242F9314
:100EC0003F934F935F936F937F938F939F93AF93D2
:100ED000BF93EF93FF938091B900887F803609F428
:100EE0004AC0F0F5883209F4A7C018F5803109F43A
:100EF0009BC0B8F4882309F4F9C0883009F494C081
:100F0000FF91EF91BF91AF919F918F917F916F91E1
:100F10005F914F913F912F910F900FBE0F901F90B7
:100F20001895883109F488C0803251F78093910276
:100F300014C0803409F49DC040F48033B9F3883381
:100F4000F9F68093910285ECB0C0803509F485C034
:100F5000883509F496C0883499F60E948006D0CF6F
:100F6000883909F48CC038F5883729F050F4883670
:100F700011F0803729F683E08093930210923102BA
:100F800057C0883809F47BC0803919F0803809F0DF
:100F9000B7CF80913102803208F071C0E091310208
:100FA00081E08E0F809331028091BB00F0E0EF5E14
:100FB000FD4F80833DC0803B39F0E0F4803A09F476
:100FC00079C0883A09F09CCF84E080939302109214
:100FD000100210920F02E0913902F0913A02099545
:100FE00080910F0281110FC081E080930F02109257
:100FF000EF0109C0803C09F4A6CF883C09F4A3CFD7
:10100000883B09F07DCFE091100281E08E0F809344
:101010001002F0E0E151FE4F80818093BB0090917F
:10102000100280910F0229C080916E028093BB0054
:1010300085EC8093BC0064CF9091900280918F02E8
:10104000981758F5E091900281E08E0F80939002FE
:10105000F0E0E159FD4F8081E9CFE091900281E01D
:101060008E0F809390028091BB00F0E0E159FD4F1C
:1010700080839091900280918F029817C8F285E842
:10108000D8CFE091900281E08E0F80939002809102
:10109000BB00F0E0E159FD4F808380919202811105
:1010A0005CCF81E080936D0284EA8093BC00109253
:1010B000930226CF85EC8093BC001092930280911E
:1010C0003102803230F4E0913102F0E0EF5EFD4F0A
:1010D00010826091310270E0E0913702F0913802A5
:1010E00081E192E00995109231020ACF10929102AB
:1010F00034CFEDEBF2E01382128288EE93E0A0E0B1
:10110000B0E084839583A683B78320E131E0318307
:10111000208325EC30E03587248724EC30E03787C6
:10112000268720EC30E0318B208B21EC30E0338BB4
:10113000228B22EC30E0358B248B26EC30E0378B91
:10114000268B118E128E138E148EEAE5F3E0138235
:10115000128284839583A683B78382E291E0918390
:101160008083E6E6F3E01486158616861786108AD5
:10117000118A128A138A10A211A212A213A214A217
:1011800015A216A217A214AA15AA16AA17AA10AE7B
:1011900011AE12AE13AE0895CF93DF93CDB7DEB785
:1011A000A5970FB6F894DEBF0FBECDBF789484B577
:1011B000826084BD84B5816084BD85B5826085BD53
:1011C00085B5816085BD80916E00816080936E00E1
:1011D00010928100809181008260809381008091D3
:1011E0008100816080938100809180008160809384
:1011F00080008091B10084608093B1008091B00044
:1012000081608093B00080917A00846080937A003E
:1012100080917A00826080937A0080917A00816068
:1012200080937A0080917A00806880937A0010928F
:10123000C100E091CD02F091CE0282E08083E09186
:10124000C902F091CA021082E091CB02F091CC0267
:1012500080E180831092D502E091D102F091D20218
:1012600086E08083E091CF02F091D002808180619E
:101270008083E091CF02F091D002808188608083EA
:10128000E091CF02F091D002808180688083E0916C
:10129000CF02F091D00280818F7D808360E083E077
:1012A0000E94F20161E084E00E94F20161E085E0C9
:1012B0000E94F20161E086E00E94F20161E087E0B5
:1012C0000E94F20161E088E00E94F20161E089E0A1
:1012D0000E94F20161E08AE00E94F20161E08BE08D
:1012E0000E94F20160E08CE00E94F20160E08DE07B
:1012F0000E94F20110923C0210923B0210929A025C
:101300001092BC020E946F028CE890E090933A0227
:10131000809339028DE890E09093380280933702F1
:10132000E9E4CE2EE2E0DE2E06E613E0F12C8F2D6E
:101330000E9427040E9423024B015C017AE0472EA1
:10134000512C612C712C0E942302681979098A0999
:101350009B09683E734081059105A8F321E0421A7C
:1013600051086108710838EE830E33E0931EA11C0A
:10137000B11C411451046104710429F70E948805CD
:10138000BC0190E080E00E94630FD8016D937D93D3
:101390008D939C9313972FB7F89480913D02909171
:1013A0003E02A0913F02B09140022FBFF80184831A
:1013B0009583A683B7831086118612861386F6015D
:1013C0001082118212821382148215821682178271
:1013D000F3940C5E1F4FB8E0CB0ED11CE3E0FE127D
:1013E000A6CF8DED94E2AEE3B2E48093000190933A
:1013F0000101A0930201B093030183E29BEDA1E000
:10140000B2E48093040190930501A0930601B09388
:1014100007018093080190930901A0930A01B093FA
:101420000B0100E011E0C12CD12C760187E891E09E
:101430000E943E044AE0C701B6010E944B0481E9C4
:1014400091E00E943E04D8016D917D918D919D9116
:101450008D010E947905BFEFCB1ADB0AEB0AFB0A6C
:10146000E3E0CE16D104E104F10401F78DEB92E044
:101470000E94EC00181619060CF0B3C08DEB92E038
:101480000E94CA006C01990FEE08FF084AE0C701EC
:10149000B601F7FE0DC06DE28DEB92E00E942E01C9
:1014A00066277727CB016C197D098E099F094AE0D1
:1014B0000E944B0480E391E00E943E04C701B60104
:1014C0000E94650F9B01AC010E944A0E20E030E0B3
:1014D00040E850E40E941A106B017C0129EE36E2CC
:1014E00041E751E40E944A0E20E030E040E05FE333
:1014F0000E941A104B015C0129EE36E241E751E4EB
:10150000C701B6010E94490E20E030E040E05FE3F1
:101510000E941A106B017C0120E030E040EA52E4A6
:10152000C501B4010E941510181654F484E991E025
:101530000E948F04812C912C60EAA62E62E4B62EC4
:1015400020E030E040EA52E4C701B6010E941510E5
:10155000181654F487EA91E00E948F04C12CD12C14
:1015600050EAE52E52E4F52E80920001909201019E
:10157000A0920201B0920301C0920401D092050131
:10158000E0920601F0920701C0920801D092090191
:10159000E0920A01F0920B0100E011E0C12CD12C85
:1015A000760187E891E00E943E044AE0C701B60157
:1015B0000E944B0481E991E00E943E04D8016D91A4
:1015C0007D918D919D918D010E947905BFEFCB1A80
:1015D000DB0AEB0AFB0AE3E0CE16D104E104F104D6
:1015E00001F78FB7F89420913D0230913E0240916F
:1015F0003F02509140022A8B3B8B4C8B5D8B8FBFFF
:101600008091450290914602A0914702B091480214
:10161000281B390B4A0B5B0BDA01C9018A3591058E
:10162000A105B10508F441C08A899B89AC89BD89AF
:101630008093450290934602A0934702B0934802DC
:1016400006E613E041E3F42E8AE0EDEBF1E0DE0183
:10165000119601900D928A95E1F787E0E7ECF1E0B1
:10166000DE011B9601900D928A95E1F7F886FF86C0
:10167000CE0101960E943E04D8016D917D918D911D
:101680009C9142E00E949D04CE010B960E943E0474
:10169000F80164857585868597850E947905F394A0
:1016A0000C5E1F4FF4E3FF12CFCF80914102909167
:1016B0004202A0914302B09144022A893B894C899D
:1016C0005D89281B390B4A0B5B0BDA01C9010A97AC
:1016D000A105B10508F463C18A899B89AC89BD89DC
:1016E0008093410290934202A0934302B09344023C
:1016F000A1E6B2E0BF8FAE8F36E6232E33E0332E65
:1017000010E0812F0E9427040E9488057C01F101CE
:1017100084819581A681B7812A893B894C895D891D
:10172000281B390B4A0B5B0BCA01B9010E94630FDE
:1017300020E030E04AE754E40E94BB0E6E8B7F8BC2
:10174000888F998FB70190E080E00E94630F20E0BE
:1017500030E040E859E30E941A106A8F7B8F8C8F2B
:101760009D8FD101CD90DD90ED90FC909B01AC015F
:10177000C701B6010E94490E2FE632E143E85AE361
:101780000E94151018166CF420E030E040E85FE38A
:10179000C701B6010E94490EF10160837183828303
:1017A0009383D1011896CD90DD90ED90FC901B971E
:1017B00029E73AE745EA5BE36E897F89888D998D51
:1017C0000E94151018160CF046C0F10120813181DD
:1017D000428153816A8D7B8D8C8D9D8D0E94490E37
:1017E0002B013C012E893F89488D598D0E94BB0EEB
:1017F0004B015C0120E030E04CED52E40E94B60E5B
:1018000087FF29C029E23CE54FE85DE3C301B2014F
:101810000E9415101816FCF4A7019601C501B40129
:101820000E94490E2E893F89488D598D0E94BB0E1A
:101830002B013C0120E030E0A9010E941510181690
:1018400024F520E030E04AEF55E4C301B2010E94E4
:10185000B60E87FD24C020E030E0A901C701B60123
:101860000E94151020E030E0A901181624F420E0B1
:1018700030E040E85FE3C701B6010E94490EF10184
:10188000608771878287938711C020E030E04AEF3C
:1018900055ECC301B2010E9415101816E4F6D101EF
:1018A00018968D929D92AD92BC921B97D10118967D
:1018B000CD90DD90ED90FC901B9720E030E0A901E9
:1018C000C701B6010E94151018160CF037C126E6A4
:1018D00036E646E65FE3F101648575858685978582
:1018E0000E941A104B015C012DEC3CEC4CEC5DE3CA
:1018F000C701B6010E941A109B01AC01C501B401D9
:101900000E944A0E6B017C01D1011C96CD92DD92A2
:10191000ED92FC921F9726E636E646E65FE3509688
:101920006D917D918D919C9153970E941A104B015E
:101930005C012DEC3CEC4CEC5DE3C701B6010E9470
:101940001A109B01AC01C501B4010E944A0EF101BD
:10195000608B718B828B938B2A8D3B8D4C8D5D8D33
:1019600020833183428353832A893B894C895D8953
:101970002483358346835783AE8DBF8D2E893F895F
:10198000488D598D2D933D934D935D93BF8FAE8FB1
:101990001F5FB4E12B0E311C133009F0B2CEE1E62B
:1019A000F2E0FB8FEA8F09E412E020E031E03F8BA8
:1019B0002E8B46E653E05B8B4A8B312C212CAA8D73
:1019C000BB8D4D905D906D907D90BB8FAA8FEE8901
:1019D000FF896191719181919191FF8BEE8BAA8921
:1019E000BB8950962D913D914D915C9153970E94EA
:1019F000490E6B017C0120E030E040EA51E40E9496
:101A00001A106E8F7F8F88A399A3A7019601C30137
:101A1000B2010E941A10F801208131814281538164
:101A20000E944A0E4B015C012FEF35E049E758E474
:101A30000E94151018160CF485C0D8018D929D9245
:101A4000AD92BC9213972FEF35E049E758ECD801DF
:101A50006D917D918D919C910E94B60E87FF09C07A
:101A60008FEF95E0A9E7B8ECF80180839183A2831A
:101A7000B38320E030E0A901D8016D917D918D9173
:101A80009C910E941A106AA37BA38CA39DA3F801CA
:101A90002481358146815781C701B6010E94490ED4
:101AA0009B01AC010E944A0EA30192010E94BB0E51
:101AB0004B015C01D8011496CD92DD92ED92FC921F
:101AC00017972AA13BA14CA15DA16E8D7F8D88A1A6
:101AD00099A10E944A0EA50194010E944A0E6B0131
:101AE0007C0120E030E040E751E40E94B60E87FD23
:101AF00033C020E030E04FE753E4C701B6010E9455
:101B00001510181634F4C12CD12C2FE7E22E23E443
:101B1000F22EC701B6010E942D0F4B017B0199E007
:101B2000D92ED20C61E08D2D0E94F2018114910416
:101B3000B9F460E08D2D0E94C40140C0C12CD12CAD
:101B40007601E2CE8FEF95E0A9E7B8E4F801808353
:101B50009183A283B38377CFC12CD12C7601D9CFC7
:101B6000BFEF8B16910411F461E0E4CFF101E95469
:101B7000FF4FE491E33009F469C050F4E130D1F053
:101B8000E23009F45EC0E0E8EE16F1046CF7D1CF64
:101B9000E73009F465C0E83009F46AC0E43099F729
:101BA0008091800080628093800090928B00809270
:101BB0008A0004C084B5806884BD87BCFFEF2F1AFB
:101BC0003F0A2A893B892C5E3F4F3B8B2A8B085F5B
:101BD0001F4F33E02316310409F0F1CEE1EBF0E0C2
:101BE0008491EDE9F0E01491E9E8F0E0049100233C
:101BF00009F446C081110E949B01E02FF0E0EE0F36
:101C0000FF1FE458FF4FA591B4918C911823C1F1A7
:101C100080E090E0A0EAB2E480930001909301019B
:101C2000A0930201B093030120E030E0232B09F4DC
:101C30001DCC0E94F800882309F418CC0E940000F3
:101C400015CC84B5806284BD88BCB8CF80918000FB
:101C50008068809380009092890080928800AECF47
:101C60008091B00080688093B0008092B300A6CFCE
:101C70008091B00080628093B0008092B4009ECFCB
:101C800010920001109201011092020110920301C2
:101C9000CBCF5058BB27AA270E94610E0C94DB0FB4
:101CA0000E94CD0F38F00E94D40F20F039F49F3FEE
:101CB00019F426F40C94CA0F0EF4E095E7FB0C948B
:101CC000C40FE92F0E94EC0F58F3BA17620773078D
:101CD0008407950720F079F4A6F50C940E100EF405
:101CE000E0950B2EBA2FA02D0B01B90190010C012C
:101CF000CA01A0011124FF27591B99F0593F50F444
:101D0000503E68F11A16F040A22F232F342F44279B
:101D1000585FF3CF469537952795A795F040539593
:101D2000C9F77EF41F16BA0B620B730B840BBAF063
:101D30009150A1F0FF0FBB1F661F771F881FC2F7CE
:101D40000EC0BA0F621F731F841F48F487957795E2
:101D50006795B795F7959E3F08F0B0CF9395880F9C
:101D600008F09927EE0F9795879508950E94A00F88
:101D700008F481E008950E94CF0E0C94DB0F0E94BE
:101D8000D40F58F00E94CD0F40F029F45F3F29F0A6
:101D90000C94C40F51110C940F100C94CA0F0E9494
:101DA000EC0F68F39923B1F3552391F3951B550B71
:101DB000BB27AA2762177307840738F09F5F5F4F1E
:101DC000220F331F441FAA1FA9F335D00E2E3AF05D
:101DD000E0E832D091505040E695001CCAF72BD075
:101DE000FE2F29D0660F771F881FBB1F26173707C6
:101DF0004807AB07B0E809F0BB0B802DBF01FF27F8
:101E000093585F4F3AF09E3F510578F00C94C40F01
:101E10000C940F105F3FE4F3983ED4F386957795CA
:101E20006795B795F7959F5FC9F7880F911D9695B0
:101E3000879597F90895E1E0660F771F881FBB1F0C
:101E4000621773078407BA0720F0621B730B840BB9
:101E5000BA0BEE1F88F7E09508950E94340F68943E
:101E6000B1110C940F1008950E94F40F88F09F5741
:101E700098F0B92F9927B751B0F0E1F0660F771FAE
:101E8000881F991F1AF0BA95C9F714C0B13091F0A4
:101E90000E940E10B1E008950C940E10672F782F59
:101EA0008827B85F39F0B93FCCF386957795679569
:101EB000B395D9F73EF490958095709561957F4FD5
:101EC0008F4F9F4F0895E89409C097FB3EF490957B
:101ED0008095709561957F4F8F4F9F4F9923A9F003
:101EE000F92F96E9BB279395F69587957795679592
:101EF000B795F111F8CFFAF4BB0F11F460FF1BC0D6
:101F00006F5F7F4F8F4F9F4F16C0882311F096E968
:101F100011C0772321F09EE8872F762F05C0662316
:101F200071F096E8862F70E060E02AF09A95660FCF
:101F3000771F881FDAF7880F9695879597F9089588
:101F4000990F0008550FAA0BE0E8FEEF16161706CA
:101F5000E807F907C0F012161306E407F50798F032
:101F6000621B730B840B950B39F40A2661F0232B4B
:101F7000242B252B21F408950A2609F4A140A695C7
:101F80008FEF811D811D089597F99F6780E870E0AC
:101F900060E008959FEF80EC089500240A941616DF
:101FA000170618060906089500240A941216130647
:101FB000140605060895092E0394000C11F48823D5
:101FC00052F0BB0F40F4BF2B11F460FF04C06F5FF1
:101FD0007F4F8F4F9F4F089557FD9058440F551FC7
:101FE00059F05F3F71F04795880F97FB991F61F09B
:101FF0009F3F79F087950895121613061406551F12
:10200000F2CF4695F1DF08C0161617061806991F7D
:10201000F1CF86957105610508940895E894BB2772
:1020200066277727CB0197F908950E94A00F08F43F
:102030008FEF08950E942D100C94DB0F0E94CD0F9E
:1020400038F00E94D40F20F0952311F00C94C40FA7
:102050000C94CA0F11240C940F100E94EC0F70F313
:10206000959FC1F3950F50E0551F629FF001729F3D
:10207000BB27F00DB11D639FAA27F00DB11DAA1F4C
:10208000649F6627B00DA11D661F829F2227B00D99
:10209000A11D621F739FB00DA11D621F839FA00D24
:1020A000611D221F749F3327A00D611D231F849F74
:1020B000600D211D822F762F6A2F11249F575040CB
:1020C0009AF0F1F088234AF0EE0FFF1FBB1F661F46
:1020D000771F881F91505040A9F79E3F510580F00F
:1020E0000C94C40F0C940F105F3FE4F3983ED4F3AC
:1020F000869577956795B795F795E7959F5FC1F7B3
:10210000FE2B880F911D9695879597F908950E944B
:10211000A00F880B990B0895A1E21A2EAA1BBB1BD6
:10212000FD010DC0AA1FBB1FEE1FFF1FA217B307A3
:10213000E407F50720F0A21BB30BE40BF50B661FB9
:10214000771F881F991F1A9469F76095709580957D
:1021500090959B01AC01BD01CF010895EE0FFF1FCB
:102160000590F491E02D0994F894FFCF00002042EF
:102170000000204200002042000000002E018E00DE
:10218000BB007B01EC00CA00DE0000000000F5038C
:10219000C80324049E03C103AE039F030D0A006E0F
:1021A000616E00696E66006F7666004572726F72CE
:1021B00020636F6D6D756E69636174696E672077FA
:1021C00069746820415335363030004661696C656A
:1021D0006420746F207265616420656E6F75676836
:1021E0002062797465732066726F6D2041533536B5
:1021F000303000746172676574525053003A2000A9
:10220000546F70205250532061626F7665206D616B
:10221000782E00426F74746F6D20525053206162AB
:102220006F7665206D61782E003E4D6F746F725F22
:0A223000313A002C617667313A0064
:107E0000112484B714BE81FFF0D085E080938100F7
:107E100082E08093C00088E18093C10086E0809377
:107E2000C20080E18093C4008EE0C9D0259A86E02C
:107E300020E33CEF91E0309385002093840096BBD3
:107E4000B09BFECF1D9AA8958150A9F7CC24DD24C4
:107E500088248394B5E0AB2EA1E19A2EF3E0BF2EE7
:107E6000A2D0813461F49FD0082FAFD0023811F036
:107E7000013811F484E001C083E08DD089C08234E0
:107E800011F484E103C0853419F485E0A6D080C0E4
:107E9000853579F488D0E82EFF2485D0082F10E0AE
:107EA000102F00270E291F29000F111F8ED06801E7
:107EB0006FC0863521F484E090D080E0DECF843638
:107EC00009F040C070D06FD0082F6DD080E0C81688
:107ED00080E7D80618F4F601B7BEE895C0E0D1E017
:107EE00062D089930C17E1F7F0E0CF16F0E7DF06D8
:107EF00018F0F601B7BEE89568D007B600FCFDCFD4
:107F0000A601A0E0B1E02C9130E011968C91119780
:107F100090E0982F8827822B932B1296FA010C0160
:107F200087BEE89511244E5F5F4FF1E0A038BF0790
:107F300051F7F601A7BEE89507B600FCFDCF97BE46
:107F4000E89526C08437B1F42ED02DD0F82E2BD052
:107F50003CD0F601EF2C8F010F5F1F4F84911BD097
:107F6000EA94F801C1F70894C11CD11CFA94CF0C13
:107F7000D11C0EC0853739F428D08EE10CD085E9AC
:107F80000AD08FE07ACF813511F488E018D01DD067
:107F900080E101D065CF982F8091C00085FFFCCF94
:107FA0009093C60008958091C00087FFFCCF809118
:107FB000C00084FD01C0A8958091C6000895E0E648
:107FC000F0E098E1908380830895EDDF803219F02E
:107FD00088E0F5DFFFCF84E1DECF1F93182FE3DFCA
:107FE0001150E9F7F2DF1F91089580E0E8DFEE27F6
:047FF000FF270994CA
:027FFE00040479
:00000001FF
