:100000000C945D000C9485000C9485000C94850084
:100010000C9485000C9485000C9485000C9485004C
:100020000C9485000C9485000C9485000C9485003C
:100030000C9485000C9485000C9485000C9485002C
:100040000C9423070C9485000C94F1060C94CB06B9
:100050000C9485000C9485000C9485000C9485000C
:100060000C946D070C94850000000000240027000C
:100070002A0000000000250028002B0004040404CE
:100080000404040402020202020203030303030342
:10009000010204081020408001020408102001021F
:1000A00004081020000000080002010000030407FB
:1000B00000000000000000008C0811241FBECFEFDC
:1000C000D8E0DEBFCDBF11E0A0E0B1E0ECE3F1E2AB
:1000D00002C005900D92AC3AB107D9F723E0ACEA23
:1000E000B1E001C01D92AC37B207E1F710E0CDE5F9
:1000F000D0E004C02197FE010E949610CC35D107B4
:10010000C9F70E94D3080C949C100C940000089529
:100110000895AF92BF92CF92DF92EF92FF920F932A
:100120001F93CF93DF936C017B018B01040F151F8D
:10013000EB015E01AE18BF08C017D10759F06991F5
:10014000D601ED91FC910190F081E02DC601099559
:10015000892B79F7C501DF91CF911F910F91FF9006
:10016000EF90DF90CF90BF90AF900895FC01538D3A
:10017000448D252F30E0842F90E0821B930B541781
:1001800010F0CF96089501970895FC01918D828D0E
:10019000981761F0A28DAE0FBF2FB11D5D968C91A7
:1001A000928D9F5F9F73928F90E008958FEF9FEFE6
:1001B0000895FC01918D828D981731F0828DE80FA2
:1001C000F11D858D90E008958FEF9FEF0895FC015C
:1001D000918D228D892F90E0805C9F4F821B910929
:1001E0008F739927089583EA92E00E94E70021E047
:1001F000892B09F420E0822F089580E090E0892B7C
:1002000029F00E94F30081110C9400000895FC0174
:10021000A48DA80FB92FB11DA35ABF4F2C91848D67
:1002200090E001968F739927848FA689B7892C93C4
:10023000A089B1898C91837080648C93938D848D17
:10024000981306C00288F389E02D80818F7D80831A
:100250000895EF92FF920F931F93CF93DF93EC01DA
:1002600081E0888F9B8D8C8D98131AC0E889F9895D
:10027000808185FF15C09FB7F894EE89FF89608360
:10028000E889F98980818370806480839FBF81E0E1
:1002900090E0DF91CF911F910F91FF90EF90089523
:1002A000F62E0B8D10E00F5F1F4F0F731127E02EFE
:1002B0008C8D8E110CC00FB607FCFACFE889F98936
:1002C000808185FFF5CFCE010E940701F1CFEB8D34
:1002D000EC0FFD2FF11DE35AFF4FF0829FB7F8940A
:1002E0000B8FEA89FB8980818062CFCFCF93DF9328
:1002F000EC01888D8823B9F0AA89BB89E889F9893E
:100300008C9185FD03C0808186FD0DC00FB607FC72
:10031000F7CF8C9185FFF2CF808185FFEDCFCE01A5
:100320000E940701E9CFDF91CF91089590E0FC0191
:10033000EC55FF4F2491FC01E057FF4F3491FC0135
:10034000E458FF4FE491EE23C9F0222339F0233023
:1003500001F1A8F4213019F1223029F1F0E0EE0F7B
:10036000FF1FEE58FF4FA591B4918FB7F894EC9111
:10037000611126C030953E233C938FBF08952730EE
:10038000A9F02830C9F0243049F7809180008F7D92
:1003900003C0809180008F7780938000DFCF84B589
:1003A0008F7784BDDBCF84B58F7DFBCF8091B0008C
:1003B0008F778093B000D2CF8091B0008F7DF9CF3E
:1003C0003E2BDACFCF93DF9390E0FC01E057FF4F55
:1003D000249184589F4FFC0184918823D1F090E0B0
:1003E000880F991FFC01E859FF4FA591B491FC01BA
:1003F000EE58FF4FC591D49161110EC09FB7F8948C
:100400008C91E22FE0958E238C932881E223E88360
:100410009FBFDF91CF9108958FB7F894EC91E22BB5
:10042000EC938FBFF6CF3FB7F89480911102909173
:100430001202A0911302B091140226B5A89B05C028
:100440002F3F19F00196A11DB11D3FBFBA2FA92F53
:10045000982F8827BC01CD01620F711D811D911D50
:1004600042E0660F771F881F991F4A95D1F70895BC
:100470008F929F92AF92BF92CF92DF92EF92FF92B4
:100480004B015C010E9413026B017C010E9413026C
:100490006C197D098E099F09683E7340810591059D
:1004A000A8F321E0821A9108A108B10888EEC80ECD
:1004B00083E0D81EE11CF11C81149104A104B10455
:1004C00029F7FF90EF90DF90CF90BF90AF909F9073
:1004D0008F9008952091ED01260F3327331F21328D
:1004E0003105ECF420917902FC0190E080E02430A9
:1004F00069F082E00895A091ED012191AC01435390
:100500005E4FA40FB52FB11D2C930196861798F35B
:100510008091ED01680F6093ED0180E0089581E026
:1005200008951092790281E080937802109253022C
:1005300061E082E10E94960161E083E10E94960100
:10054000E9EBF0E080818E7F808380818D7F8083E6
:1005500088E48093B80085E48093BC000895CF932D
:10056000DF9391E09093CC018823B9F0C091B8005B
:10057000D091BA008091BC008A7B8093BC0060E07F
:1005800082E10E94960160E083E10E9496010E9450
:100590009102D093BA00C093B800DF91CF91089533
:1005A0008F929F92AF92BF92CF92DF92EF92FF9283
:1005B0000F931F93CF93DF93D091A202D13208F013
:1005C000D7C0182FC091A1020E9413026B017C01B9
:1005D0008091790281116BC082E08093790210933F
:1005E00078028FEF8093770210927602D093750293
:1005F000A1E8B2E0E5E5F2E080E0D81391C0109206
:10060000540280915402CC0FC82BC09354028091A5
:100610005302813009F088C0109253020E941302E5
:100620006B017C01809154028093BB0080917B021E
:1006300090917C02A0917D02B0917E02892B8A2B41
:100640008B2BA1F00E94130200917B0210917C027F
:1006500020917D0230917E026C197D098E099F09DF
:10066000061717072807390708F442C08091BC0015
:1006700083FDD8CF85EC8093BC000E9413026B01F0
:100680007C0180917902823009F450C08091770218
:100690008F3F09F46FC080917702803209F46CC0FB
:1006A00080917702803309F469C084E026C080918C
:1006B0007B0290917C02A0917D02B0917E02892BF9
:1006C0008A2B8B2B09F484CF0E94130280907B022B
:1006D00090907C02A0907D02B0907E026C197D0902
:1006E0008E099F0986169706A806B90608F070CFEE
:1006F00080917A020E94AF0285E0109280021092EF
:10070000A20210927F02DF91CF911F910F91FF9073
:10071000EF90DF90CF90BF90AF909F908F90089513
:100720009D9191938F5F69CF85EEA5CF80917B02DC
:1007300090917C02A0917D02B0917E02892B8A2B40
:100740008B2B09F49ECF0E94130200917B02109123
:100750007C0220917D0230917E026C197D098E0908
:100760009F09061717072807390708F08ACFC0CF57
:1007700081E0C3CF80E0C1CF82E0BFCF83E0BDCFB7
:100780000895E0911A0280911902E81730F4F0E020
:10079000E455FE4F808190E008958FEF9FEF08951C
:1007A00090911A02809119022FEF3FEF981748F4A9
:1007B000E92FF0E0E455FE4F208130E09F5F9093F9
:1007C0001A02C90108958091190290911A02891B99
:1007D000990B0895CF92DF92EF92FF920F931F93A0
:1007E000CF93DF937C01CB018A0120917F022223EA
:1007F00089F0EB016B01C40ED51ECC15DD0569F047
:100800006991D701ED91FC910190F081E02DC70134
:100810000995F3CF642F0E946A02C801DF91CF913E
:100820001F910F91FF90EF90DF90CF900895CF939D
:10083000DF931F92CDB7DEB7698320917F02222319
:10084000F9F02091A202203258F021E030E0FC01C2
:100850003383228390E080E00F90DF91CF91089561
:1008600080918002E82FF0E0EF57FD4F998190834F
:100870008F5F809380028093A20281E090E0ECCFB2
:1008800061E0CE0101960E946A02F7CF90E080E01D
:10089000089591E090937F0290E79093A1021092C7
:1008A00080021092A20261E070E001C0660F8A959A
:1008B000EAF780E493E00E94170481E00C94D002F0
:1008C000FC0101900020E9F73197AF01481B590B5B
:1008D000BC0183EA92E00C9489008F929F92AF92C0
:1008E000BF920F931F93CF93DF93CDB7DEB7A1973E
:1008F0000FB6F894DEBF0FBECDBF19A2423008F488
:100900004AE08E010F5D1F4F842E912CB12CA12C3B
:10091000A50194010E947410E62FB901CA01EA30C2
:10092000F4F4E05DD801EE938D01232B242B252BCD
:1009300079F790E080E0109719F0CD010E946004F3
:10094000A1960FB6F894DEBF0FBECDBFDF91CF9159
:100950001F910F91BF90AF909F908F900895E95C89
:10096000E1CFCF93DF930E946004EC0184E391E038
:100970000E9460048C0F9D1FDF91CF9108954F92CC
:100980005F926F927F928F929F92AF92BF92CF921F
:10099000DF92EF92FF920F931F93CF936B017C0135
:1009A000742EAC019B010E946F10882399F087E39D
:1009B00091E0CF911F910F91FF90EF90DF90CF903A
:1009C000BF90AF909F908F907F906F905F904F906F
:1009D0000C94600446015701E894B7F82FEF3FEFFD
:1009E0004FE75FE7C501B4010E946F1081110DC090
:1009F0002FEF3FEF4FE75FE7C501B4010E949E0E66
:100A000018161CF48BE391E0D4CF2FEF3FEF4FE7A4
:100A10005FE4C701B6010E94FD0F18161CF48FE3B6
:100A200091E0C7CF2FEF3FEF4FE75FECC701B60173
:100A30000E949E0E87FDF3CF20E030E0A901C701A0
:100A4000B6010E949E0E10E000E087FF0AC06DE232
:100A500083EA92E00E9429018C01F7FAF094F7F8FA
:100A6000F094C0E060E070E080E09FE37C1641F02D
:100A700020E030E040E251E40E94A30ECF5FF6CFC9
:100A8000A70196010E94320E2B013C010E941C0F0F
:100A90004B015C014AE00E946D047C01E00EF11EF6
:100AA000CC23C1F1C501B4010E944B0F9B01AC01E5
:100AB000C301B2010E94310E4B015C016EE283EA78
:100AC00092E00E942901E80EF91EC15018F120E0C1
:100AD00030E040E251E4C501B4010E9402102B0154
:100AE0003C010E941C0F4B01B12CA12C4AE0C50116
:100AF000B4010E946D04E80EF91EC501B4010E9404
:100B00004B0F9B01AC01C301B2010E94310E4B019E
:100B10005C01DBCFC701CF911F910F91FF90EF9048
:100B2000DF90CF90BF90AF909F908F907F906F900D
:100B30005F904F900895CF92DF92EF92FF920F93C4
:100B40001F93CF9381E080937F0286E38093A1027D
:100B5000109280021092A2026CE080E493E00E9466
:100B6000170480E00E94D002C82F83E491E0C111F5
:100B7000D5C00E9413026B017C0180917902811122
:100B800063C081E080937902809378029FEF909315
:100B900077021092760280937502809354028091BE
:100BA00054028C668093540280915302813009F084
:100BB0008DC0109253020E9413026B017C01809140
:100BC00054028093BB0080917B0290917C02A091A3
:100BD0007D02B0917E02892B8A2B8B2BA1F00E9483
:100BE000130200917B0210917C0220917D023091D2
:100BF0007E026C197D098E099F09061717072807C1
:100C0000390708F442C08091BC0083FDD8CF85EC41
:100C10008093BC000E9413026B017C0180917902D9
:100C2000813009F455C080917602823008F072C09C
:100C300080917602A5E5B2E0ECEAF1E0C81749F14F
:100C40009D919193CF5FFACF80917B0290917C022E
:100C5000A0917D02B0917E02892B8A2B8B2B09F407
:100C60008CCF0E94130200917B0210917C02209194
:100C70007D0230917E026C197D098E099F0906174D
:100C800017072807390708F078CF80917A020E9469
:100C9000AF0210921A02C0931902C230E8F180E448
:100CA00093E00E94D003C82F80E493E00E94D00319
:100CB00020E03C2FA901482BCA019F70CF911F91C2
:100CC0000F91FF90EF90DF90CF90089585EEA0CF29
:100CD00080917B0290917C02A0917D02B0917E0276
:100CE000892B8A2B8B2B09F499CF0E941302009138
:100CF0007B0210917C0220917D0230917E026C1962
:100D00007D098E099F09061717072807390708F07C
:100D100085CFBBCF82E08ECF83E691E00E94B10405
:100D200090E080E0CBCF85ED8093BC0080917B028A
:100D300090917C02A0917D02B0917E020796A11D48
:100D4000B11D23E0B695A795979587952A95D1F77C
:100D50002091BC0024FD03C01092790208954091B7
:100D60007B0250917C0260917D0270917E02452B46
:100D7000462B472B69F30097A105B10541F02AE204
:100D80002A95F1F700C00197A109B109E1CF80913F
:100D90007A020C94AF021F920F920FB60F92112499
:100DA0002F933F934F935F936F937F938F939F9373
:100DB000AF93BF93EF93FF9383EA92E00E94070102
:100DC000FF91EF91BF91AF919F918F917F916F9123
:100DD0005F914F913F912F910F900FBE0F901F90F9
:100DE00018951F920F920FB60F9211242F938F9385
:100DF0009F93EF93FF93E091B302F091B40280814F
:100E0000E091B902F091BA0282FD1BC090818091FD
:100E1000BC028F5F8F732091BD02821741F0E09179
:100E2000BC02F0E0ED55FD4F958F8093BC02FF9121
:100E3000EF919F918F912F910F900FBE0F901F9068
:100E400018958081F4CF1F920F920FB60F92112444
:100E50002F933F938F939F93AF93BF9380911B02E8
:100E600090911C02A0911D02B0911E0230911002BF
:100E700023E0230F2D3758F50196A11DB11D2093B6
:100E8000100280931B0290931C02A0931D02B0934A
:100E90001E028091110290911202A0911302B09152
:100EA00014020196A11DB11D8093110290931202AC
:100EB000A0931302B0931402BF91AF919F918F91B1
:100EC0003F912F910F900FBE0F901F90189526E81D
:100ED000230F0296A11DB11DD2CF1F920F920FB604
:100EE0000F9211242F933F934F935F936F937F93B0
:100EF0008F939F93AF93BF93EF93FF938091B9002C
:100F0000887F803609F44AC0F0F5883209F4A7C01A
:100F100018F5803109F49BC0B8F4882309F4F9C0AE
:100F2000883009F494C0FF91EF91BF91AF919F91E8
:100F30008F917F916F915F914F913F912F910F9082
:100F40000FBE0F901F901895883109F488C0803229
:100F500051F78093770214C0803409F49DC040F4A7
:100F60008033B9F38833F9F68093770285ECB0C00B
:100F7000803509F485C0883509F496C0883499F61F
:100F80000E949306D0CF883909F48CC038F5883791
:100F900029F050F4883611F0803729F683E08093E9
:100FA000790210920F0257C0883809F47BC080394B
:100FB00019F0803809F0B7CF80910F02803208F025
:100FC00071C0E0910F0281E08E0F80930F0280913B
:100FD000BB00F0E0E151FE4F80833DC0803B39F023
:100FE000E0F4803A09F479C0883A09F09CCF84E0B3
:100FF000809379021092EE011092ED01E0911702B8
:10100000F091180209958091ED0181110FC081E0E6
:101010008093ED011092CD0109C0803C09F4A6CF68
:10102000883C09F4A3CF883B09F07DCFE091EE0125
:1010300081E08E0F8093EE01F0E0E353FE4F80815C
:101040008093BB009091EE018091ED0129C08091C9
:1010500054028093BB0085EC8093BC0064CF9091D8
:10106000760280917502981758F5E091760281E03A
:101070008E0F80937602F0E0EB5AFD4F8081E9CF2E
:10108000E091760281E08E0F809376028091BB0022
:10109000F0E0EB5AFD4F80839091760280917502CB
:1010A0009817C8F285E8D8CFE091760281E08E0FDC
:1010B000809376028091BB00F0E0EB5AFD4F808375
:1010C0008091780281115CCF81E08093530284EAA1
:1010D0008093BC001092790226CF85EC8093BC00EF
:1010E0001092790280910F02803230F4E0910F0269
:1010F000F0E0E151FE4F108260910F0270E0E0914C
:101100001502F09116028FEE91E0099510920F02F0
:101110000ACF1092770234CFE3EAF2E01382128210
:1011200088EE93E0A0E0B0E084839583A683B78344
:1011300024E131E03183208325EC30E035872487BA
:1011400024EC30E03787268720EC30E0318B208B91
:1011500021EC30E0338B228B22EC30E0358B248B7A
:1011600026EC30E0378B268B118E128E138E148E68
:10117000E0E4F3E01382128284839583A683B7832D
:1011800086E291E091838083ECE4F3E01486158697
:1011900016861786148E158E168E178E14A615A613
:1011A00016A617A60895CF93DF93CDB7DEB76E9737
:1011B0000FB6F894DEBF0FBECDBF789484B58260C1
:1011C00084BD84B5816084BD85B5826085BD85B5EB
:1011D000816085BD80916E00816080936E00109269
:1011E00081008091810082608093810080918100E4
:1011F0008160809381008091800081608093800075
:101200008091B10084608093B1008091B0008160D2
:101210008093B00080917A00846080937A008091FE
:101220007A00826080937A0080917A008160809356
:101230007A0080917A00806880937A001092C100D1
:10124000E091B302F091B40282E08083E091AF02BA
:10125000F091B0021082E091B102F091B20280E10F
:1012600080831092BB02E091B702F091B80286E051
:101270008083E091B502F091B60280818061808325
:10128000E091B502F091B602808188608083E091A0
:10129000B502F091B602808180688083E091B5024A
:1012A000F091B60280818F7D808360E083E00E94B0
:1012B000E20161E084E00E94E20161E085E00E94D9
:1012C000E20161E086E00E94E20161E087E00E94C5
:1012D000E20161E088E00E94E20161E089E00E94B1
:1012E000E20161E08AE00E94E20161E08BE00E949D
:1012F000E20160E08CE00E94E20160E08DE00E948B
:10130000E20110921A0210921902109280021092B9
:10131000A2020E94910287E890E0909318028093C5
:10132000170288E890E0909316028093150237E246
:10133000C32E32E0D32E0CE413E0F12CE12CC701D4
:101340000E9449046AE070E080E090E00E94380268
:101350000E949B05BC0190E080E00E944B0FD801E9
:101360006D937D938D939C9313972FB7F8948091F1
:101370001B0290911C02A0911D02B0911E022FBF72
:10138000F80184839583A683B7831086118612861D
:101390001386F60110821182128213821482158242
:1013A00016821782BFEFEB1AFB0A005F1F4FE8E0BF
:1013B000CE0ED11CF3E0EF16F10409F0C0CF8FE69A
:1013C00092E1A7E8B2E48093000190930101A09319
:1013D0000201B093030183E29BEDA1E5B2E48093A7
:1013E000040190930501A0930601B0930701809337
:1013F000080190930901A0930A01B0930B0100E04A
:1014000011E0C12CD12C76018BE891E00E946004A0
:101410004AE0C701B6010E946D0485E991E00E948F
:101420006004D8016D917D918D919D918D0142E077
:101430000E94BF0484E391E00E946004BFEFCB1AD6
:10144000DB0AEB0AFB0AE3E0CE16D104E104F10467
:10145000D9F62FB7F89480911B0290911C02A091AD
:101460001D02B0911E022FBF40914F0250915002B9
:1014700060915102709152028C019D01041B150B69
:10148000260B370BB901A80140335547610571059B
:1014900008F494C080934F0290935002A09351029D
:1014A000B093520220910C0130910D0140910E0138
:1014B00050910F0160E070E088EC91E40E94310EE1
:1014C00060930C0170930D0180930E0190930F01B6
:1014D0009B01AC010E94320E20E030E040E850E475
:1014E0000E9402104B015C0129EE36E241E751E413
:1014F0000E94310E20E030E040E05FE30E940210E5
:101500006B017C0129EE36E241E751E4C501B401EB
:101510000E94320E20E030E040E05FE30E940210C3
:101520006093000170930101809302019093030185
:1015300026E636E646E85FE3C701B6010E940210E0
:101540006093040170930501809306019093070155
:10155000C0920801D0920901E0920A01F0920B01B9
:1015600088E991E00E94B10400E011E0C12CD12C87
:1015700076018BE891E00E9460044AE0C701B60161
:101580000E946D0485E991E00E946004D8016D918C
:101590007D918D919D918D0142E00E94BF0484E375
:1015A00091E00E946004BFEFCB1ADB0AEB0AFB0A52
:1015B000E3E0CE16D104E104F104D9F683EA92E027
:1015C0000E94E700181619064CF483EA92E00E9484
:1015D000C5008F3F19F4F1E0F0934E0280914E0266
:1015E000882381F100914B0210914C0280914D02B1
:1015F000811163C161E086E00E94960161E087E0AD
:101600000E94960161E070E080E090E00E94380264
:1016100060E087E00E9496010F5F1F4F10934C021D
:1016200000934B0280914B0290914C0201978134C0
:101630009E4040F080914D0211E0812780934D0241
:1016400010924E028FB7F89480901B0290901C026B
:10165000A0901D02B0901E028FBF80912302909136
:101660002402A0912502B0912602A5019401281B15
:10167000390B4A0B5B0BDA01C9018A359105A105CB
:10168000B10580F18092230290922402A09225025B
:10169000B092260288E0E3EAF1E0DE0111960190C3
:1016A0000D928A95E1F70CE413E021E3F22EFE821D
:1016B000CE0101960E946004D8011C966D917D9127
:1016C0008D919C911F9742E00E94BF04BCE2B983B8
:1016D000F394005F1F4FE4E3FE12E9CF84E391E04F
:1016E0000E94600480911F0290912002A09121022B
:1016F000B091220295018401081B190B2A0B3B0BA8
:10170000D901C8010A97A105B10508F457C1809213
:101710001F0290922002A0922102B09222020FE3B7
:1017200012E01E8B0D8B0CE413E0312C212CC10137
:101730000E9449040E949B057C01F80184819581E7
:10174000A681B781A5019401281B390B4A0B5B0BBD
:10175000CA01B9010E944B0F20E030E04AE754E48F
:101760000E94A30E69877A878B879C87B70190E0D8
:1017700080E00E944B0F20E030E040E859E30E94F7
:1017800002106D877E878F87988BD801CD90DD9072
:10179000ED90FC909B01AC01C701B6010E94310E97
:1017A0002FE632E143E85AE30E94FD0F18166CF46D
:1017B00020E030E040E85FE3C701B6010E94310E4F
:1017C000F8016083718382839383D8011896CD904A
:1017D000DD90ED90FC901B9729E73AE745EA5BE343
:1017E00069857A858B859C850E94FD0F18160CF003
:1017F0004AC0F80120813181428153816D857E8507
:101800008F8598890E94310E2B013C0129853A85EC
:101810004B855C850E94A30E698B7A8B8B8B9C8B8E
:1018200020E030E04CED52E40E949E0E87FF2BC07A
:1018300029E23CE54FE85DE3C301B2010E94FD0FE0
:1018400018160CF5A701960169897A898B899C89FC
:101850000E94310E29853A854B855C850E94A30E36
:101860002B013C0120E030E0A9010E94FD0F181679
:10187000CCF520E030E04AEF55E4C301B2010E940C
:101880009E0E87FD39C020E030E0A901C701B601F6
:101890000E94FD0F20E030E040E85FE318161CF0E6
:1018A00020E030E0A901C701B6010E94310EF80125
:1018B00060877187828793872AC060E086E00E94F4
:1018C000960161E087E00E94960161E070E080E0AF
:1018D00090E00E94380260E087E00E94960101508B
:1018E00011099CCE20E030E04AEF55ECC301B20173
:1018F0000E94FD0F18163CF629893A894B895C89AC
:10190000D80118962D933D934D935C931B97D80166
:101910001896CD90DD90ED90FC901B9720E030E084
:10192000A901C701B6010E94FD0F18160CF014C1E1
:1019300026E636E646E65FE3F8016485758586852A
:1019400097850E9402102B013C012DEC3CEC4CECE5
:101950005DE3C701B6010E9402109B01AC01C30107
:10196000B2010E94320ED8011C966D937D938D9327
:101970009C931F972D853E854F8558892D933D93C8
:101980004D935C931397F80184829582A682B78267
:10199000AD89BE8929853A854B855C852D933D931C
:1019A0004D935D93BE8BAD8BBFEF2B1A3B0A005F4F
:1019B0001F4FE3E02E16310409F0B9CE0FE312E019
:1019C0001E8B0D8B04EA10E01A87098797E2292EF7
:1019D00092E0392E00E011E01A8B098B0CE413E041
:1019E0001E870D8719E0AD89BE894D905D906D9081
:1019F0007D90BE8BAD8BE989FA896191719181915E
:101A00009191FA8BE98BAD85BE851C962D913D9108
:101A10004D915C911F970E94310E6B017C0123E375
:101A200033E343E350E40E9402106F8B788F898F79
:101A30009A8FA7019601C301B2010E940210F10121
:101A400020813181428153810E94320E4B015C0121
:101A50002CE437E64AEB54E40E94FD0F18160CF410
:101A60007FC0D1018D929D92AD92BC9213972CE4D0
:101A700037E64AEB54ECD1016D917D918D919C91AB
:101A80000E949E0E87FF09C08CE497E6AAEBB4EC97
:101A9000F10180839183A283B3832BE734E14EE28B
:101AA0005EE3D1016D917D918D919C910E94021018
:101AB0006B8F7C8F8D8F9E8FF101248135814681C4
:101AC0005781C701B6010E94310E2DEC3CEC4CE46D
:101AD0005DEB0E940210A30192010E94A30E4B0134
:101AE0005C01D1011496CD92DD92ED92FC92179794
:101AF0002B8D3C8D4D8D5E8D6F89788D898D9A8D66
:101B00000E94320EA50194010E94320E6B017C01ED
:101B100020E030E040E751E40E949E0E87FD2AC09D
:101B200020E030E04FE753E4C701B6010E94FD0F0B
:101B3000181624F1C701B6010E94150F4B017B0155
:101B400061E0812F0E94E20181149104F1F460E0D0
:101B5000812F0E94960146C060E070E0CB0103CF68
:101B60008CE497E6AAEBB4E4F10180839183A2832D
:101B7000B3837DCFC12CD12C7601DCCFC12CD12CED
:101B80008FE7E82E83E4F82ED5CFBFEF8B169104B4
:101B900011F461E0DDCFE985FA853996E491E3300F
:101BA00009F445C048F4E130C9F0E230D9F1E0E889
:101BB000EE16F10474F7CBCFE73009F442C0E830F9
:101BC00009F447C0E43099F78091800080628093E7
:101BD000800090928B0080928A0004C084B5806857
:101BE00084BD87BC2D853E85205F3F4F3E872D8776
:101BF00038E0230E311C1F5F49855A854F5F5F4FC8
:101C00005A8749871C3009F0EECE80E090E0892B9E
:101C100009F41FCC0E94F300882309F41ACC0E9417
:101C2000000017CC84B5806284BD88BCDBCF809176
:101C30008000806880938000909289008092880064
:101C4000D1CF8091B00080688093B0008092B300C3
:101C5000C9CF8091B00080628093B0008092B400C0
:101C6000C1CF5058BB27AA270E94490E0C94C30F1E
:101C70000E94B50F38F00E94BC0F20F039F49F3F4E
:101C800019F426F40C94B20F0EF4E095E7FB0C94D3
:101C9000AC0FE92F0E94D40F58F3BA1762077307ED
:101CA0008407950720F079F4A6F50C94F60F0EF44E
:101CB000E0950B2EBA2FA02D0B01B90190010C015C
:101CC000CA01A0011124FF27591B99F0593F50F474
:101CD000503E68F11A16F040A22F232F342F4427CC
:101CE000585FF3CF469537952795A795F0405395C4
:101CF000C9F77EF41F16BA0B620B730B840BBAF094
:101D00009150A1F0FF0FBB1F661F771F881FC2F7FE
:101D10000EC0BA0F621F731F841F48F48795779512
:101D20006795B795F7959E3F08F0B0CF9395880FCC
:101D300008F09927EE0F9795879508950E94880FD0
:101D400008F481E008950E94B70E0C94C30F0E941E
:101D5000BC0F58F00E94B50F40F029F45F3F29F006
:101D60000C94AC0F51110C94F70F0C94B20F0E940D
:101D7000D40F68F39923B1F3552391F3951B550BB9
:101D8000BB27AA2762177307840738F09F5F5F4F4E
:101D9000220F331F441FAA1FA9F335D00E2E3AF08D
:101DA000E0E832D091505040E695001CCAF72BD0A5
:101DB000FE2F29D0660F771F881FBB1F26173707F6
:101DC0004807AB07B0E809F0BB0B802DBF01FF2728
:101DD00093585F4F3AF09E3F510578F00C94AC0F4A
:101DE0000C94F70F5F3FE4F3983ED4F38695779514
:101DF0006795B795F7959F5FC9F7880F911D9695E1
:101E0000879597F90895E1E0660F771F881FBB1F3C
:101E1000621773078407BA0720F0621B730B840BE9
:101E2000BA0BEE1F88F7E09508950E941C0F689486
:101E3000B1110C94F70F08950E94DC0F88F09F57A2
:101E400098F0B92F9927B751B0F0E1F0660F771FDE
:101E5000881F991F1AF0BA95C9F714C0B13091F0D4
:101E60000E94F60FB1E008950C94F60F672F782FBB
:101E70008827B85F39F0B93FCCF386957795679599
:101E8000B395D9F73EF490958095709561957F4F05
:101E90008F4F9F4F0895E89409C097FB3EF49095AB
:101EA0008095709561957F4F8F4F9F4F9923A9F033
:101EB000F92F96E9BB279395F695879577956795C2
:101EC000B795F111F8CFFAF4BB0F11F460FF1BC006
:101ED0006F5F7F4F8F4F9F4F16C0882311F096E999
:101EE00011C0772321F09EE8872F762F05C0662347
:101EF00071F096E8862F70E060E02AF09A95660F00
:101F0000771F881FDAF7880F9695879597F90895B8
:101F1000990F0008550FAA0BE0E8FEEF16161706FA
:101F2000E807F907C0F012161306E407F50798F062
:101F3000621B730B840B950B39F40A2661F0232B7B
:101F4000242B252B21F408950A2609F4A140A695F7
:101F50008FEF811D811D089597F99F6780E870E0DC
:101F600060E008959FEF80EC089500240A9416160F
:101F7000170618060906089500240A941216130677
:101F8000140605060895092E0394000C11F4882305
:101F900052F0BB0F40F4BF2B11F460FF04C06F5F21
:101FA0007F4F8F4F9F4F089557FD9058440F551FF7
:101FB00059F05F3F71F04795880F97FB991F61F0CB
:101FC0009F3F79F087950895121613061406551F42
:101FD000F2CF4695F1DF08C0161617061806991FAE
:101FE000F1CF86957105610508940895E894BB27A3
:101FF00066277727CB0197F908950E94880F08F488
:102000008FEF08950E9415100C94C30F0E94B50F16
:1020100038F00E94BC0F20F0952311F00C94AC0F07
:102020000C94B20F11240C94F70F0E94D40F70F38C
:10203000959FC1F3950F50E0551F629FF001729F6D
:10204000BB27F00DB11D639FAA27F00DB11DAA1F7C
:10205000649F6627B00DA11D661F829F2227B00DC9
:10206000A11D621F739FB00DA11D621F839FA00D54
:10207000611D221F749F3327A00D611D231F849FA4
:10208000600D211D822F762F6A2F11249F575040FB
:102090009AF0F1F088234AF0EE0FFF1FBB1F661F76
:1020A000771F881F91505040A9F79E3F510580F03F
:1020B0000C94AC0F0C94F70F5F3FE4F3983ED4F30D
:1020C000869577956795B795F795E7959F5FC1F7E3
:1020D000FE2B880F911D9695879597F908950E947C
:1020E000880F880B990B0895A1E21A2EAA1BBB1B1F
:1020F000FD010DC0AA1FBB1FEE1FFF1FA217B307D4
:10210000E407F50720F0A21BB30BE40BF50B661FE9
:10211000771F881F991F1A9469F7609570958095AD
:1021200090959B01AC01BD01CF010895EE0FFF1FFB
:0C2130000590F491E02D0994F894FFCF85
:10213C0000002042000020420000204200007041BC
:10214C000000000029018900B6007601E700C500F7
:10215C00D900000000001704EA034604C003E3039F
:10216C00D003C1030D0A006E616E00696E66006FCC
:10217C007666004572726F7220636F6D6D756E6955
:10218C00636174696E6720776974682041533536D2
:10219C003030004661696C656420746F2072656133
:1021AC006420656E6F75676820627974657320664C
:1021BC00726F6D2041533536303000746172676533
:1021CC0074525053003A20002D2D2D2D2D2D2D2DD8
:0C21DC002D2D003E20617667313A000096
:00000001FF
