:100000000C945D000C9485000C9485000C94850084
:100010000C9485000C9485000C9485000C9485004C
:100020000C9485000C9485000C9485000C9485003C
:100030000C9485000C9485000C9485000C9485002C
:100040000C941A070C9485000C94E8060C94C206D4
:100050000C9485000C9485000C9485000C9485000C
:100060000C9464070C948500000000002400270015
:100070002A0000000000250028002B0004040404CE
:100080000404040402020202020203030303030342
:10009000010204081020408001020408102001021F
:1000A00004081020000000080002010000030407FB
:1000B0000000000000000000830811241FBECFEFE5
:1000C000D8E0DEBFCDBF11E0A0E0B1E0E4E0F1E2B6
:1000D00002C005900D92AE39B107D9F723E0AEE921
:1000E000B1E001C01D92AA37B207E1F710E0CDE5FB
:1000F000D0E004C02197FE010E947A10CC35D107D0
:10010000C9F70E94CA080C9480100C94000008954E
:100110000895AF92BF92CF92DF92EF92FF920F932A
:100120001F93CF93DF936C017B018B01040F151F8D
:10013000EB015E01AE18BF08C017D10759F06991F5
:10014000D601ED91FC910190F081E02DC601099559
:10015000892B79F7C501DF91CF911F910F91FF9006
:10016000EF90DF90CF90BF90AF900895FC01538D3A
:10017000448D252F30E0842F90E0821B930B541781
:1001800010F0CF96089501970895FC01918D828D0E
:10019000981761F0A28DAE0FBF2FB11D5D968C91A7
:1001A000928D9F5F9F73928F90E008958FEF9FEFE6
:1001B0000895FC01918D828D981731F0828DE80FA2
:1001C000F11D858D90E008958FEF9FEF0895FC015C
:1001D000918D228D892F90E0805C9F4F821B910929
:1001E0008F739927089581EA92E00E94E70021E049
:1001F000892B09F420E0822F089580E090E0892B7C
:1002000029F00E94F30081110C9400000895FC0174
:10021000A48DA80FB92FB11DA35ABF4F2C91848D67
:1002200090E001968F739927848FA689B7892C93C4
:10023000A089B1898C91837080648C93938D848D17
:10024000981306C00288F389E02D80818F7D80831A
:100250000895EF92FF920F931F93CF93DF93EC01DA
:1002600081E0888F9B8D8C8D98131AC0E889F9895D
:10027000808185FF15C09FB7F894EE89FF89608360
:10028000E889F98980818370806480839FBF81E0E1
:1002900090E0DF91CF911F910F91FF90EF90089523
:1002A000F62E0B8D10E00F5F1F4F0F731127E02EFE
:1002B0008C8D8E110CC00FB607FCFACFE889F98936
:1002C000808185FFF5CFCE010E940701F1CFEB8D34
:1002D000EC0FFD2FF11DE35AFF4FF0829FB7F8940A
:1002E0000B8FEA89FB8980818062CFCFCF93DF9328
:1002F000EC01888D8823B9F0AA89BB89E889F9893E
:100300008C9185FD03C0808186FD0DC00FB607FC72
:10031000F7CF8C9185FFF2CF808185FFEDCFCE01A5
:100320000E940701E9CFDF91CF91089590E0FC0191
:10033000EC55FF4F2491FC01E057FF4F3491FC0135
:10034000E458FF4FE491EE23C9F0222339F0233023
:1003500001F1A8F4213019F1223029F1F0E0EE0F7B
:10036000FF1FEE58FF4FA591B4918FB7F894EC9111
:10037000611126C030953E233C938FBF08952730EE
:10038000A9F02830C9F0243049F7809180008F7D92
:1003900003C0809180008F7780938000DFCF84B589
:1003A0008F7784BDDBCF84B58F7DFBCF8091B0008C
:1003B0008F778093B000D2CF8091B0008F7DF9CF3E
:1003C0003E2BDACFCF93DF9390E0FC01E057FF4F55
:1003D000249184589F4FFC0184918823D1F090E0B0
:1003E000880F991FFC01E859FF4FA591B491FC01BA
:1003F000EE58FF4FC591D49161110EC09FB7F8948C
:100400008C91E22FE0958E238C932881E223E88360
:100410009FBFDF91CF9108958FB7F894EC91E22BB5
:10042000EC938FBFF6CF3FB7F89480910302909181
:100430000402A0910502B091060226B5A89B05C052
:100440002F3F19F00196A11DB11D3FBFBA2FA92F53
:10045000982F8827BC01CD01620F711D811D911D50
:1004600042E0660F771F881F991F4A95D1F70895BC
:100470008F929F92AF92BF92CF92DF92EF92FF92B4
:100480006B017C010E9413024B015C01C114D10479
:10049000E104F104B9F00E941302681979098A098C
:1004A0009B09683E73408105910580F321E0C21AE3
:1004B000D108E108F10888EE880E83E0981EA11C9F
:1004C000B11CE4CFFF90EF90DF90CF90BF90AF9042
:1004D0009F908F9008952091DF01260F3327331FBF
:1004E00021323105ECF420917702FC0190E080E0AC
:1004F000243069F082E00895A091DF012191AC01E0
:1005000041545E4FA40FB52FB11D2C930196861751
:1005100098F38091DF01680F6093DF0180E0089518
:1005200081E008951092770281E080937602109224
:10053000510261E082E10E94960161E083E10E9444
:100540009601E9EBF0E080818E7F808380818D7F52
:10055000808388E48093B80085E48093BC0008958C
:10056000CF93DF9391E09093BE018823B9F0C091BF
:10057000B800D091BA008091BC008A7B8093BC0007
:1005800060E082E10E94960160E083E10E949601B2
:100590000E949202D093BA00C093B800DF91CF912D
:1005A00008958F929F92AF92BF92CF92DF92EF9277
:1005B000FF920F931F93CF93DF93D091A002D1327C
:1005C00008F0D7C0182FC0919F020E9413026B0140
:1005D0007C018091770281116BC082E08093770269
:1005E000109376028FEF8093750210927402D0936D
:1005F0007302AFE7B2E0E3E5F2E080E0D81391C028
:100600001092520280915202CC0FC82BC09352021A
:1006100080915102813009F088C0109251020E94ED
:1006200013026B017C01809152028093BB00809188
:10063000790290917A02A0917B02B0917C02892B81
:100640008A2B8B2BA1F00E9413020091790210914A
:100650007A0220917B0230917C026C197D098E090F
:100660009F09061717072807390708F442C0809129
:10067000BC0083FDD8CF85EC8093BC000E941302A0
:100680006B017C0180917702823009F450C0809127
:1006900075028F3F09F46FC080917502803209F4B2
:1006A0006CC080917502803309F469C084E026C073
:1006B0008091790290917A02A0917B02B0917C02A4
:1006C000892B8A2B8B2B09F484CF0E9413028090F4
:1006D000790290907A02A0907B02B0907C026C1913
:1006E0007D098E099F0986169706A806B90608F0A7
:1006F00070CF809178020E94B00285E010927E0255
:100700001092A00210927D02DF91CF911F910F9164
:10071000FF90EF90DF90CF90BF90AF909F908F9021
:1007200008959D9191938F5F69CF85EEA5CF8091BC
:10073000790290917A02A0917B02B0917C02892B80
:100740008A2B8B2B09F49ECF0E9413020091790211
:1007500010917A0220917B0230917C026C197D0904
:100760008E099F09061717072807390708F08ACF4F
:10077000C0CF81E0C3CF80E0C1CF82E0BFCF83E0B4
:10078000BDCF0895E0910C0280910B02E81730F480
:10079000F0E0E256FE4F808190E008958FEF9FEFEA
:1007A000089590910C0280910B022FEF3FEF981764
:1007B00048F4E92FF0E0E256FE4F208130E09F5FE1
:1007C00090930C02C901089580910B0290910C0244
:1007D000891B990B0895CF92DF92EF92FF920F93AE
:1007E0001F93CF93DF937C01CB018A0120917D027F
:1007F000222389F0EB016B01C40ED51ECC15DD055B
:1008000069F06991D701ED91FC910190F081E02DA3
:10081000C7010995F3CF642F0E946B02C801DF91D5
:10082000CF911F910F91FF90EF90DF90CF9008959F
:10083000CF93DF931F92CDB7DEB7698320917D02FE
:100840002223F9F02091A002203258F021E030E07C
:10085000FC013383228390E080E00F90DF91CF9101
:10086000089580917E02E82FF0E0E158FD4F9981D4
:1008700090838F5F80937E028093A00281E090E05E
:10088000ECCF61E0CE0101960E946B02F7CF90E0C1
:1008900080E0089591E090937D0290E790939F020D
:1008A00010927E021092A00261E070E001C0660F1B
:1008B0008A95EAF78EE393E00E94180481E00C9495
:1008C000D102FC0101900020E9F73197AF01481BEC
:1008D000590BBC0181EA92E00C9489008F929F929F
:1008E000AF92BF920F931F93CF93DF93CDB7DEB735
:1008F000A1970FB6F894DEBF0FBECDBF19A242304C
:1009000008F44AE08E010F5D1F4F842E912CB12C0C
:10091000A12CA50194010E944410E62FB901CA013F
:10092000EA30F4F4E05DD801EE938D01232B242B03
:10093000252B79F790E080E0109719F0CD010E9407
:100940006104A1960FB6F894DEBF0FBECDBFDF9154
:10095000CF911F910F91BF90AF909F908F9008956E
:10096000E95CE1CF4F925F926F927F928F929F925C
:10097000AF92BF92CF92DF92EF92FF920F931F93AD
:10098000CF936B017C01742EAC019B010E942B1054
:10099000882399F086E291E0CF911F910F91FF900B
:1009A000EF90DF90CF90BF90AF909F908F907F900F
:1009B0006F905F904F900C94610446015701E8944A
:1009C000B7F82FEF3FEF4FE75FE7C501B4010E9493
:1009D0002B1081110DC02FEF3FEF4FE75FE7C501EF
:1009E000B4010E945A0E18161CF48AE291E0D4CF8A
:1009F0002FEF3FEF4FE75FE4C701B6010E94B90F49
:100A000018161CF48EE291E0C7CF2FEF3FEF4FE7AF
:100A10005FECC701B6010E945A0E87FDF3CF20E0BC
:100A200030E0A901C701B6010E945A0E10E000E0B3
:100A300087FF0AC06DE281EA92E00E9429018C01E1
:100A4000F7FAF094F7F8F094C0E060E070E080E02E
:100A50009FE37C1641F020E030E040E251E40E9448
:100A60005F0ECF5FF6CFA70196010E94EE0D2B011E
:100A70003C010E94D80E4B015C014AE00E946E04CA
:100A80007C01E00EF11ECC23C1F1C501B4010E942E
:100A9000070F9B01AC01C301B2010E94ED0D4B0198
:100AA0005C016EE281EA92E00E942901E80EF91EE3
:100AB000C15018F120E030E040E251E4C501B4013A
:100AC0000E94BE0F2B013C010E94D80E4B01B12C9D
:100AD000A12C4AE0C501B4010E946E04E80EF91E83
:100AE000C501B4010E94070F9B01AC01C301B20113
:100AF0000E94ED0D4B015C01DBCFC701CF911F912F
:100B00000F91FF90EF90DF90CF90BF90AF909F90AC
:100B10008F907F906F905F904F900895CF92DF926B
:100B2000EF92FF920F931F93CF9381E080937D020A
:100B300086E380939F0210927E021092A0026CE0E6
:100B40008EE393E00E94180480E00E94D102C82F37
:100B500082E391E0C111D5C00E9413026B017C01B8
:100B600080917702811163C081E080937702809346
:100B700076029FEF90937502109274028093730235
:100B800080935202809152028C668093520280912F
:100B90005102813009F08DC0109251020E9413025F
:100BA0006B017C01809152028093BB00809179029D
:100BB00090917A02A0917B02B0917C02892B8A2BC2
:100BC0008B2BA1F00E9413020091790210917A02FE
:100BD00020917B0230917C026C197D098E099F095E
:100BE000061717072807390708F442C08091BC0090
:100BF00083FDD8CF85EC8093BC000E9413026B016B
:100C00007C0180917702813009F455C08091740293
:100C1000823008F072C080917402A3E5B2E0EEE980
:100C2000F1E0C81749F19D919193CF5FFACF809180
:100C3000790290917A02A0917B02B0917C02892B7B
:100C40008A2B8B2B09F48CCF0E941302009179021E
:100C500010917A0220917B0230917C026C197D09FF
:100C60008E099F09061717072807390708F078CF5C
:100C7000809178020E94B00210920C02C0930B0285
:100C8000C230E8F18EE393E00E94D103C82F8EE3D7
:100C900093E00E94D10320E03C2FA901482BCA0118
:100CA0009F70CF911F910F91FF90EF90DF90CF90A9
:100CB000089585EEA0CF8091790290917A02A0915B
:100CC0007B02B0917C02892B8A2B8B2B09F499CF64
:100CD0000E9413020091790210917A0220917B0206
:100CE00030917C026C197D098E099F090617170740
:100CF0002807390708F085CFBBCF82E08ECF85E586
:100D000091E00E94610482E591E00E94610490E01C
:100D100080E0C7CF85ED8093BC00809179029091EF
:100D20007A02A0917B02B0917C020796A11DB11DB1
:100D300023E0B695A795979587952A95D1F72091A9
:100D4000BC0024FD03C010927702089540917902FF
:100D500050917A0260917B0270917C02452B462B68
:100D6000472B69F30097A105B10541F02AE22A95C6
:100D7000F1F700C00197A109B109E1CF8091780294
:100D80000C94B0021F920F920FB60F9211242F9362
:100D90003F934F935F936F937F938F939F93AF9303
:100DA000BF93EF93FF9381EA92E00E940701FF91C6
:100DB000EF91BF91AF919F918F917F916F915F91D3
:100DC0004F913F912F910F900FBE0F901F9018954C
:100DD0001F920F920FB60F9211242F938F939F9310
:100DE000EF93FF93E091B102F091B2028081E09124
:100DF000B702F091B80282FD1BC090818091BA02C7
:100E00008F5F8F732091BB02821741F0E091BA028D
:100E1000F0E0EF55FD4F958F8093BA02FF91EF916F
:100E20009F918F912F910F900FBE0F901F9018954B
:100E30008081F4CF1F920F920FB60F9211242F933F
:100E40003F938F939F93AF93BF9380910D029091A7
:100E50000E02A0910F02B09110023091020223E025
:100E6000230F2D3758F50196A11DB11D20930202C5
:100E700080930D0290930E02A0930F02B093100284
:100E80008091030290910402A0910502B0910602A4
:100E90000196A11DB11D8093030290930402A093BB
:100EA0000502B0930602BF91AF919F918F913F9140
:100EB0002F910F900FBE0F901F90189526E8230FCB
:100EC0000296A11DB11DD2CF1F920F920FB60F92A5
:100ED00011242F933F934F935F936F937F938F933F
:100EE0009F93AF93BF93EF93FF938091B900887F57
:100EF000803609F44AC0F0F5883209F4A7C018F525
:100F0000803109F49BC0B8F4882309F4F9C0883013
:100F100009F494C0FF91EF91BF91AF919F918F9190
:100F20007F916F915F914F913F912F910F900FBEE5
:100F30000F901F901895883109F488C0803251F7BE
:100F40008093750214C0803409F49DC040F480334E
:100F5000B9F38833F9F68093750285ECB0C080351B
:100F600009F485C0883509F496C0883499F60E9442
:100F70008A06D0CF883909F48CC038F5883729F033
:100F800050F4883611F0803729F683E08093770299
:100F90001092010257C0883809F47BC0803919F0DB
:100FA000803809F0B7CF80910102803208F071C01B
:100FB000E091010281E08E0F809301028091BB00DD
:100FC000F0E0EF51FE4F80833DC0803B39F0E0F40C
:100FD000803A09F479C0883A09F09CCF84E0809384
:100FE00077021092E0011092DF01E0910902F09186
:100FF0000A0209958091DF0181110FC081E0809381
:10100000DF011092BF0109C0803C09F4A6CF883CE3
:1010100009F4A3CF883B09F07DCFE091E00181E0A6
:101020008E0F8093E001F0E0E154FE4F80818093C9
:10103000BB009091E0018091DF0129C080915202B4
:101040008093BB0085EC8093BC0064CF90917402C8
:1010500080917302981758F5E091740281E08E0F29
:1010600080937402F0E0ED5AFD4F8081E9CFE0916A
:10107000740281E08E0F809374028091BB00F0E0D7
:10108000ED5AFD4F808390917402809173029817FE
:10109000C8F285E8D8CFE091740281E08E0F80938A
:1010A00074028091BB00F0E0ED5AFD4F8083809187
:1010B000760281115CCF81E08093510284EA8093B3
:1010C000BC001092770226CF85EC8093BC00109272
:1010D000770280910102803230F4E0910102F0E069
:1010E000EF51FE4F10826091010270E0E091070223
:1010F000F091080281EE91E00995109201020ACF69
:101100001092750234CFE1EAF2E01382128288EE87
:1011100093E0A0E0B0E084839583A683B78326E0C4
:1011200031E03183208325EC30E03587248724ECBF
:1011300030E03787268720EC30E0318B208B21ECA4
:1011400030E0338B228B22EC30E0358B248B26EC85
:1011500030E0378B268B118E128E138E148EEEE3B9
:10116000F3E01382128284839583A683B78388E198
:1011700091E091838083EAE4F3E014861586168675
:101180001786148E158E168E178E14A615A616A603
:1011900017A60895CF93DF93CDB7DEB76E970FB63E
:1011A000F894DEBF0FBECDBF789484B5826084BD55
:1011B00084B5816084BD85B5826085BD85B581605B
:1011C00085BD80916E00816080936E0010928100D9
:1011D0008091810082608093810080918100816094
:1011E0008093810080918000816080938000809155
:1011F000B10084608093B1008091B00081608093E1
:10120000B00080917A00846080937A0080917A00A7
:10121000826080937A0080917A00816080937A0066
:1012200080917A00806880937A001092C100E091EA
:10123000B102F091B20282E08083E091AD02F091C0
:10124000AE021082E091AF02F091B00280E18083A3
:101250001092B902E091B502F091B60286E0808367
:10126000E091B302F091B402808180618083E091CB
:10127000B302F091B402808188608083E091B30270
:10128000F091B402808180688083E091B302F09194
:10129000B40280818F7D808360E083E00E94E20160
:1012A00061E084E00E94E20161E085E00E94E201E9
:1012B00061E086E00E94E20161E087E00E94E201D5
:1012C00061E088E00E94E20161E089E00E94E201C1
:1012D00061E08AE00E94E20161E08BE00E94E201AD
:1012E00060E08CE00E94E20160E08DE00E94E2019B
:1012F00010920C0210920B0210927E021092A00229
:101300000E94920287E890E090930A02809309027B
:1013100088E890E0909308028093070249E1C42E88
:1013200042E0D42E0AE413E0F12CE12CC7010E9424
:101330004A046AE070E080E090E00E9438020E9477
:101340008E05BC0190E080E00E94070FD8016D93EC
:101350007D938D939C9313972FB7F89480910D02F2
:1013600090910E02A0910F02B09110022FBFF801D0
:1013700084839583A683B78310861186128613868D
:10138000F601108211821282138214821582168253
:101390001782BFEFEB1AFB0A005F1F4FE8E0CE0E8B
:1013A000D11CF3E0EF16F10409F0C0CF83E998E116
:1013B000ACE8B2E48093310290933202A0933302FE
:1013C000B093340289ED9EECA7E4B2E48093350239
:1013D00090933602A0933702B0933802809339027B
:1013E00090933A02A0933B02B0933C0201E312E0D7
:1013F000C12CD12C76018DE791E00E9461044AE076
:10140000C701B6010E946E0482E991E00E94610466
:10141000D8016D917D918D919D918D0142E00E9449
:10142000B20482E591E00E946104BFEFCB1ADB0AAF
:10143000EB0AFB0AE3E0CE16D104E104F104D9F68D
:10144000109101011095111F1127111F87E891E0DC
:101450000E946104C0900001D0900101D194C19418
:10146000D1080D2C000CEE08FF084AE0C701B601B8
:10147000F7FE0DC06DE281EA92E00E942901662725
:101480007727CB016C197D098E099F094AE00E94DC
:101490006E0482E591E00E946104612F84E00E9465
:1014A000960110E000E033E0E32EF12C8091000182
:1014B0009091010197FF03C0919581959109B70122
:1014C0000E94301006171707BCF461E085E00E9407
:1014D000960168E070E080E090E00E94380260E0F1
:1014E00085E00E94960162E070E080E090E00E945A
:1014F00038020F5F1F4FDACF1092010110920001E6
:101500002FB7F89480910D0290910E02A0910F02D6
:10151000B09110022FBF40914D0250914E02609148
:101520004F02709150028C019D01041B150B260B7C
:10153000370BB901A801403157426105710558F0D8
:1015400080934D0290934E02A0934F02B0935002AD
:1015500021E020934C0280914C02882381F100917C
:10156000490210914A0280914B02811163C161E0EE
:1015700086E00E94960161E087E00E94960161E0AA
:1015800070E080E090E00E94380260E087E00E9416
:1015900096010F5F1F4F10934A02009349028091FA
:1015A000490290914A02019781349E4040F0809117
:1015B0004B0241E0842780934B0210924C028FB77C
:1015C000F89480900D0290900E02A0900F02B090BF
:1015D00010028FBF8091150290911602A091170200
:1015E000B091180295018401081B190B2A0B3B0BC3
:1015F000D901C8018A359105A105B10580F1809214
:10160000150290921602A0921702B092180288E07A
:10161000E5E9F1E0DE01119601900D928A95E1F77E
:101620000AE413E021E3F22EFE82CE0101960E942D
:101630006104D8011C966D917D918D919C911F97AD
:1016400042E00E94B204BCE2B983F394005F1F4FF2
:10165000E4E3FE12E9CF82E591E00E94610480910B
:10166000110290911202A0911302B09114029501FF
:101670008401081B190B2A0B3B0BD901C8010A97DF
:10168000A105B10508F456C1809211029092120290
:10169000A0921302B09214020DE312E01E8B0D8B88
:1016A0000AE413E0312C212CC1010E944A040E945B
:1016B0008E057C01F80184819581A681B781A50101
:1016C0009401281B390B4A0B5B0BCA01B9010E941C
:1016D000070F20E030E04AE754E40E945F0E69877C
:1016E0007A878B879C87B70190E080E00E94070F84
:1016F00020E030E040E859E30E94BE0F6D877E870E
:101700008F87988BD801CD90DD90ED90FC909B0158
:10171000AC01C701B6010E94ED0D2FE632E143E8AE
:101720005AE30E94B90F18166CF420E030E040E84C
:101730005FE3C701B6010E94ED0DF801608371837C
:1017400082839383D8011896CD90DD90ED90FC9024
:101750001B9729E73AE745EA5BE369857A858B853C
:101760009C850E94B90F18160CF04AC0F801208120
:101770003181428153816D857E858F8598890E9454
:10178000ED0D2B013C0129853A854B855C850E9436
:101790005F0E698B7A8B8B8B9C8B20E030E04CED5D
:1017A00052E40E945A0E87FF2BC029E23CE54FE825
:1017B0005DE3C301B2010E94B90F18160CF5A70131
:1017C000960169897A898B899C890E94ED0D29850A
:1017D0003A854B855C850E945F0E2B013C0120E021
:1017E00030E0A9010E94B90F1816C4F520E030E0DE
:1017F0004AEF55E4C301B2010E945A0E87FD38C07A
:1018000020E030E0A901C701B6010E94B90F20E035
:1018100030E040E85FE318161CF020E030E0A9015A
:10182000C701B6010E94ED0DF801608771878287BC
:10183000938729C060E086E00E94960161E087E01E
:101840000E94960160E070E0CB010E94380260E0E7
:1018500087E00E949601015011099DCE20E030E002
:101860004AEF55ECC301B2010E94B90F181644F6B5
:1018700029893A894B895C89D80118962D933D9323
:101880004D935C931B97D8011896CD90DD90ED9009
:10189000FC901B9720E030E0A901C701B6010E942F
:1018A000B90F18160CF014C126E636E646E65FE3DB
:1018B000F80164857585868597850E94BE0F2B018A
:1018C0003C012DEC3CEC4CEC5DE3C701B6010E9401
:1018D000BE0F9B01AC01C301B2010E94EE0DD80105
:1018E0001C966D937D938D939C931F972D853E85BC
:1018F0004F8558892D933D934D935C931397F80131
:1019000084829582A682B782AD89BE8929853A856F
:101910004B855C852D933D934D935D93BE8BAD8B35
:10192000BFEF2B1A3B0A005F1F4FE3E02E16310476
:1019300009F0BACE0DE312E01E8B0D8B04EA10E025
:101940001A87098799E1292E92E0392E01E312E0E6
:101950001A8B098B0AE413E01E870D8719E0AD8905
:10196000BE894D905D906D907D90BE8BAD8BE98969
:10197000FA896191719181919191FA8BE98BAD8591
:10198000BE851C962D913D914D915C911F970E94B3
:10199000ED0D6B017C0123E333E343E350E40E944C
:1019A000BE0F6F8B788F898F9A8FA7019601C30125
:1019B000B2010E94BE0FF101208131814281538129
:1019C0000E94EE0D4B015C012CE437E64AEB54E437
:1019D0000E94B90F18160CF47FC0D1018D929D9210
:1019E000AD92BC9213972CE437E64AEB54ECD1014C
:1019F0006D917D918D919C910E945A0E87FF09C037
:101A00008CE497E6AAEBB4ECF10180839183A28386
:101A1000B3832BE734E14EE25EE3D1016D917D911A
:101A20008D919C910E94BE0F6B8F7C8F8D8F9E8FAE
:101A3000F1012481358146815781C701B6010E9499
:101A4000ED0D2DEC3CEC4CE45DEB0E94BE0FA301D0
:101A500092010E945F0E4B015C01D1011496CD9260
:101A6000DD92ED92FC9217972B8D3C8D4D8D5E8D06
:101A70006F89788D898D9A8D0E94EE0DA501940154
:101A80000E94EE0D6B017C0120E030E040E751E464
:101A90000E945A0E87FD2AC020E030E04FE753E451
:101AA000C701B6010E94B90F181624F1C701B6018B
:101AB0000E94D10E4B017B0161E0812F0E94E20167
:101AC00081149104F1F460E0812F0E94960146C0D8
:101AD00060E070E0CB0103CF8CE497E6AAEBB4E4BE
:101AE000F10180839183A283B3837DCFC12CD12C5C
:101AF0007601DCCFC12CD12C8FE7E82E83E4F82EC1
:101B0000D5CFBFEF8B16910411F461E0DDCFE985ED
:101B1000FA853996E491E33009F445C048F4E130A0
:101B2000C9F0E230D9F1E0E8EE16F10474F7CBCF5A
:101B3000E73009F442C0E83009F447C0E43099F7CF
:101B40008091800080628093800090928B008092D0
:101B50008A0004C084B5806884BD87BC2D853E851D
:101B6000205F3F4F3E872D8738E0230E311C1F5FDB
:101B700049855A854F5F5F4F5A8749871C3009F066
:101B8000EECE80E090E0892B09F4BACC0E94F300FD
:101B9000882309F4B5CC0E940000B2CC84B58062E1
:101BA00084BD88BCDBCF80918000806880938000FA
:101BB0009092890080928800D1CF8091B000806897
:101BC0008093B0008092B300C9CF8091B000806252
:101BD0008093B0008092B400C1CF5058BB27AA2791
:101BE0000E94050E0C947F0F0E94710F38F00E9426
:101BF000780F20F039F49F3F19F426F40C946E0FFF
:101C00000EF4E095E7FB0C94680FE92F0E94900F0B
:101C100058F3BA17620773078407950720F079F421
:101C2000A6F50C94B20F0EF4E0950B2EBA2FA02D52
:101C30000B01B90190010C01CA01A0011124FF2779
:101C4000591B99F0593F50F4503E68F11A16F04074
:101C5000A22F232F342F4427585FF3CF4695379573
:101C60002795A795F0405395C9F77EF41F16BA0B38
:101C7000620B730B840BBAF09150A1F0FF0FBB1FE6
:101C8000661F771F881FC2F70EC0BA0F621F731F2F
:101C9000841F48F4879577956795B795F7959E3F8C
:101CA00008F0B0CF9395880F08F09927EE0F97951D
:101CB000879508950E94440F08F481E008950E94DA
:101CC000730E0C947F0F0E94780F58F00E94710FD2
:101CD00040F029F45F3F29F00C94680F51110C94E7
:101CE000B30F0C946E0F0E94900F68F39923B1F319
:101CF000552391F3951B550BBB27AA276217730732
:101D0000840738F09F5F5F4F220F331F441FAA1FC5
:101D1000A9F335D00E2E3AF0E0E832D09150504081
:101D2000E695001CCAF72BD0FE2F29D0660F771F2F
:101D3000881FBB1F261737074807AB07B0E809F015
:101D4000BB0B802DBF01FF2793585F4F3AF09E3F9A
:101D5000510578F00C94680F0C94B30F5F3FE4F3D7
:101D6000983ED4F3869577956795B795F7959F5FDD
:101D7000C9F7880F911D9695879597F90895E1E029
:101D8000660F771F881FBB1F621773078407BA0788
:101D900020F0621B730B840BBA0BEE1F88F7E095E3
:101DA00008950E94D80E6894B1110C94B30F089551
:101DB0000E94980F88F09F5798F0B92F9927B75134
:101DC000B0F0E1F0660F771F881F991F1AF0BA95DF
:101DD000C9F714C0B13091F00E94B20FB1E008957C
:101DE0000C94B20F672F782F8827B85F39F0B93F6E
:101DF000CCF3869577956795B395D9F73EF4909592
:101E00008095709561957F4F8F4F9F4F0895E8940F
:101E100009C097FB3EF490958095709561957F4F32
:101E20008F4F9F4F9923A9F0F92F96E9BB279395E0
:101E3000F695879577956795B795F111F8CFFAF4F0
:101E4000BB0F11F460FF1BC06F5F7F4F8F4F9F4F21
:101E500016C0882311F096E911C0772321F09EE87F
:101E6000872F762F05C0662371F096E8862F70E0E5
:101E700060E02AF09A95660F771F881FDAF7880FBF
:101E80009695879597F90895990F0008550FAA0B15
:101E9000E0E8FEEF16161706E807F907C0F012167D
:101EA0001306E407F50798F0621B730B840B950B80
:101EB00039F40A2661F0232B242B252B21F40895D5
:101EC0000A2609F4A140A6958FEF811D811D089572
:101ED00097F99F6780E870E060E008959FEF80ECDD
:101EE000089500240A941616170618060906089580
:101EF00000240A9412161306140605060895092EE6
:101F00000394000C11F4882352F0BB0F40F4BF2B54
:101F100011F460FF04C06F5F7F4F8F4F9F4F089594
:101F200057FD9058440F551F59F05F3F71F047958A
:101F3000880F97FB991F61F09F3F79F0879508956F
:101F4000121613061406551FF2CF4695F1DF08C08E
:101F5000161617061806991FF1CF869571056105AB
:101F600008940895E894BB2766277727CB0197F953
:101F700008950E94440F08F48FEF08950E94D10F36
:101F80000C947F0F0E94710F38F00E94780F20F0A0
:101F9000952311F00C94680F0C946E0F11240C947F
:101FA000B30F0E94900F70F3959FC1F3950F50E00F
:101FB000551F629FF001729FBB27F00DB11D639FFB
:101FC000AA27F00DB11DAA1F649F6627B00DA11DA1
:101FD000661F829F2227B00DA11D621F739FB00D47
:101FE000A11D621F839FA00D611D221F749F3327B7
:101FF000A00D611D231F849F600D211D822F762F50
:102000006A2F11249F5750409AF0F1F088234AF02C
:10201000EE0FFF1FBB1F661F771F881F9150504098
:10202000A9F79E3F510580F00C94680F0C94B30FF4
:102030005F3FE4F3983ED4F3869577956795B7951F
:10204000F795E7959F5FC1F7FE2B880F911D969539
:10205000879597F908950E94440F880B990B08956E
:1020600097FB072E16F4009407D077FD09D00E9445
:10207000661007FC05D03EF4909581959F4F08951A
:10208000709561957F4F0895A1E21A2EAA1BBB1B84
:10209000FD010DC0AA1FBB1FEE1FFF1FA217B30734
:1020A000E407F50720F0A21BB30BE40BF50B661F4A
:1020B000771F881F991F1A9469F76095709580950E
:1020C00090959B01AC01BD01CF010895AA1BBB1BDC
:1020D00051E107C0AA1FBB1FA617B70710F0A61B28
:1020E000B70B881F991F5A95A9F780959095BC0149
:1020F000CD010895EE0FFF1F0590F491E02D099496
:04210000F894FFCF81
:10210400E8010000000029018900B6007601E7001B
:10211400C500D900000000001804EB034704C10304
:10212400E403D103C2036E616E00696E66006F76CC
:1021340066004572726F7220636F6D6D756E6963B0
:102144006174696E6720776974682041533536304D
:1021540030000D0A004661696C656420746F20725A
:1021640065616420656E6F75676820627974657354
:102174002066726F6D2041533536303000746172C1
:102184006765745250530044656C746120616E67D6
:0E2194006C653A20003E20617667313A00000B
:00000001FF
