:100000000C945D000C9485000C9485000C94850084
:100010000C9485000C9485000C9485000C9485004C
:100020000C9485000C9485000C9485000C9485003C
:100030000C9485000C9485000C9485000C9485002C
:100040000C9419070C9485000C94E7060C94C106D7
:100050000C9485000C9485000C9485000C9485000C
:100060000C9463070C948500000000002400270016
:100070002A0000000000250028002B0004040404CE
:100080000404040402020202020203030303030342
:10009000010204081020408001020408102001021F
:1000A00004081020000000080002010000030407FB
:1000B0000000000000000000820811241FBECFEFE6
:1000C000D8E0DEBFCDBF11E0A0E0B1E0E4EFFFE19A
:1000D00002C005900D92A039B107D9F723E0A0E93D
:1000E000B1E001C01D92AC36B207E1F710E0CDE5FA
:1000F000D0E004C02197FE010E94F20FCC35D10759
:10010000C9F70E94C9080C94F80F0C9400000895D8
:100110000895AF92BF92CF92DF92EF92FF920F932A
:100120001F93CF93DF936C017B018B01040F151F8D
:10013000EB015E01AE18BF08C017D10759F06991F5
:10014000D601ED91FC910190F081E02DC601099559
:10015000892B79F7C501DF91CF911F910F91FF9006
:10016000EF90DF90CF90BF90AF900895FC01538D3A
:10017000448D252F30E0842F90E0821B930B541781
:1001800010F0CF96089501970895FC01918D828D0E
:10019000981761F0A28DAE0FBF2FB11D5D968C91A7
:1001A000928D9F5F9F73928F90E008958FEF9FEFE6
:1001B0000895FC01918D828D981731F0828DE80FA2
:1001C000F11D858D90E008958FEF9FEF0895FC015C
:1001D000918D228D892F90E0805C9F4F821B910929
:1001E0008F739927089583E992E00E94E70021E048
:1001F000892B09F420E0822F089580E090E0892B7C
:1002000029F00E94F30081110C9400000895FC0174
:10021000A48DA80FB92FB11DA35ABF4F2C91848D67
:1002200090E001968F739927848FA689B7892C93C4
:10023000A089B1898C91837080648C93938D848D17
:10024000981306C00288F389E02D80818F7D80831A
:100250000895EF92FF920F931F93CF93DF93EC01DA
:1002600081E0888F9B8D8C8D98131AC0E889F9895D
:10027000808185FF15C09FB7F894EE89FF89608360
:10028000E889F98980818370806480839FBF81E0E1
:1002900090E0DF91CF911F910F91FF90EF90089523
:1002A000F62E0B8D10E00F5F1F4F0F731127E02EFE
:1002B0008C8D8E110CC00FB607FCFACFE889F98936
:1002C000808185FFF5CFCE010E940701F1CFEB8D34
:1002D000EC0FFD2FF11DE35AFF4FF0829FB7F8940A
:1002E0000B8FEA89FB8980818062CFCFCF93DF9328
:1002F000EC01888D8823B9F0AA89BB89E889F9893E
:100300008C9185FD03C0808186FD0DC00FB607FC72
:10031000F7CF8C9185FFF2CF808185FFEDCFCE01A5
:100320000E940701E9CFDF91CF91089590E0FC0191
:10033000EC55FF4F2491FC01E057FF4F3491FC0135
:10034000E458FF4FE491EE23C9F0222339F0233023
:1003500001F1A8F4213019F1223029F1F0E0EE0F7B
:10036000FF1FEE58FF4FA591B4918FB7F894EC9111
:10037000611126C030953E233C938FBF08952730EE
:10038000A9F02830C9F0243049F7809180008F7D92
:1003900003C0809180008F7780938000DFCF84B589
:1003A0008F7784BDDBCF84B58F7DFBCF8091B0008C
:1003B0008F778093B000D2CF8091B0008F7DF9CF3E
:1003C0003E2BDACFCF93DF9390E0FC01E057FF4F55
:1003D000249184589F4FFC0184918823D1F090E0B0
:1003E000880F991FFC01E859FF4FA591B491FC01BA
:1003F000EE58FF4FC591D49161110EC09FB7F8948C
:100400008C91E22FE0958E238C932881E223E88360
:100410009FBFDF91CF9108958FB7F894EC91E22BB5
:10042000EC938FBFF6CF3FB7F8948091F501909190
:10043000F601A091F701B091F80126B5A89B05C07F
:100440002F3F19F00196A11DB11D3FBFBA2FA92F53
:10045000982F8827BC01CD01620F711D811D911D50
:1004600042E0660F771F881F991F4A95D1F70895BC
:100470008F929F92AF92BF92CF92DF92EF92FF92B4
:100480004B015C010E9413026B017C010E9413026C
:100490006C197D098E099F09683E7340810591059D
:1004A000A8F321E0821A9108A108B10888EEC80ECD
:1004B00083E0D81EE11CF11C81149104A104B10455
:1004C00029F7FF90EF90DF90CF90BF90AF909F9073
:1004D0008F9008952091D101260F3327331F2132A9
:1004E0003105ECF420916902FC0190E080E02430B9
:1004F00069F082E00895A091D1012191AC014F549F
:100500005E4FA40FB52FB11D2C930196861798F35B
:100510008091D101680F6093D10180E0089581E05E
:1005200008951092690281E080936802109243025C
:1005300061E082E10E94960161E083E10E94960100
:10054000E9EBF0E080818E7F808380818D7F8083E6
:1005500088E48093B80085E48093BC000895CF932D
:10056000DF9391E09093B0018823B9F0C091B80077
:10057000D091BA008091BC008A7B8093BC0060E07F
:1005800082E10E94960160E083E10E9496010E9450
:100590009102D093BA00C093B800DF91CF91089533
:1005A0008F929F92AF92BF92CF92DF92EF92FF9283
:1005B0000F931F93CF93DF93D0919202D13208F023
:1005C000D7C0182FC09191020E9413026B017C01C9
:1005D0008091690281116BC082E08093690210935F
:1005E00068028FEF8093670210926602D0936502D3
:1005F000A1E7B2E0E5E4F2E080E0D81391C0109208
:10060000440280914402CC0FC82BC09344028091D5
:100610004302813009F088C0109243020E94130205
:100620006B017C01809144028093BB0080916B023E
:1006300090916C02A0916D02B0916E02892B8A2B71
:100640008B2BA1F00E94130200916B0210916C029F
:1006500020916D0230916E026C197D098E099F09FF
:10066000061717072807390708F442C08091BC0015
:1006700083FDD8CF85EC8093BC000E9413026B01F0
:100680007C0180916902823009F450C08091670238
:100690008F3F09F46FC080916702803209F46CC00B
:1006A00080916702803309F469C084E026C080919C
:1006B0006B0290916C02A0916D02B0916E02892B39
:1006C0008A2B8B2B09F484CF0E94130280906B023B
:1006D00090906C02A0906D02B0906E026C197D0932
:1006E0008E099F0986169706A806B90608F070CFEE
:1006F00080916A020E94AF0285E01092700210920F
:10070000920210926F02DF91CF911F910F91FF9093
:10071000EF90DF90CF90BF90AF909F908F90089513
:100720009D9191938F5F69CF85EEA5CF80916B02EC
:1007300090916C02A0916D02B0916E02892B8A2B70
:100740008B2B09F49ECF0E94130200916B02109133
:100750006C0220916D0230916E026C197D098E0938
:100760009F09061717072807390708F08ACFC0CF57
:1007700081E0C3CF80E0C1CF82E0BFCF83E0BDCFB7
:100780000895E091FE018091FD01E81730F4F0E05A
:10079000E057FE4F808190E008958FEF9FEF08951E
:1007A0009091FE018091FD012FEF3FEF981748F4E3
:1007B000E92FF0E0E057FE4F208130E09F5F9093FB
:1007C000FE01C90108958091FD019091FE01891BF0
:1007D000990B0895CF92DF92EF92FF920F931F93A0
:1007E000CF93DF937C01CB018A0120916F022223FA
:1007F00089F0EB016B01C40ED51ECC15DD0569F047
:100800006991D701ED91FC910190F081E02DC70134
:100810000995F3CF642F0E946A02C801DF91CF913E
:100820001F910F91FF90EF90DF90CF900895CF939D
:10083000DF931F92CDB7DEB7698320916F02222329
:10084000F9F020919202203258F021E030E0FC01D2
:100850003383228390E080E00F90DF91CF91089561
:1008600080917002E82FF0E0EF58FD4F998190835E
:100870008F5F809370028093920281E090E0ECCFD2
:1008800061E0CE0101960E946A02F7CF90E080E01D
:10089000089591E090936F0290E7909391021092E7
:1008A00070021092920261E070E001C0660F8A95BA
:1008B000EAF780E393E00E94170481E00C94D002F1
:1008C000FC0101900020E9F73197AF01481B590B5B
:1008D000BC0183E992E00C9489008F929F92AF92C1
:1008E000BF920F931F93CF93DF93CDB7DEB7A1973E
:1008F0000FB6F894DEBF0FBECDBF19A2423008F488
:100900004AE08E010F5D1F4F842E912CB12CA12C3B
:10091000A50194010E94D00FE62FB901CA01EA3067
:10092000F4F4E05DD801EE938D01232B242B252BCD
:1009300079F790E080E0109719F0CD010E946004F3
:10094000A1960FB6F894DEBF0FBECDBFDF91CF9159
:100950001F910F91BF90AF909F908F900895E95C89
:10096000E1CF4F925F926F927F928F929F92AF9260
:10097000BF92CF92DF92EF92FF920F931F93CF938C
:100980006B017C01742EAC019B010E94CB0F88236C
:1009900099F084E291E0CF911F910F91FF90EF9039
:1009A000DF90CF90BF90AF909F908F907F906F908F
:1009B0005F904F900C94600446015701E894B7F89B
:1009C0002FEF3FEF4FE75FE7C501B4010E94CB0F68
:1009D00081110DC02FEF3FEF4FE75FE7C501B40175
:1009E0000E94FA0D18161CF488E291E0D4CF2FEF84
:1009F0003FEF4FE75FE4C701B6010E94590F181699
:100A00001CF48CE291E0C7CF2FEF3FEF4FE75FEC94
:100A1000C701B6010E94FA0D87FDF3CF20E030E058
:100A2000A901C701B6010E94FA0D10E000E087FF9E
:100A30000AC06DE283E992E00E9429018C01F7FA75
:100A4000F094F7F8F094C0E060E070E080E09FE39D
:100A50007C1641F020E030E040E251E40E94FF0DBE
:100A6000CF5FF6CFA70196010E948E0D2B013C01AE
:100A70000E94780E4B015C014AE00E946D047C01EB
:100A8000E00EF11ECC23C1F1C501B4010E94A70EF6
:100A90009B01AC01C301B2010E948D0D4B015C01B1
:100AA0006EE283E992E00E942901E80EF91EC1502E
:100AB00018F120E030E040E251E4C501B4010E94A9
:100AC0005E0F2B013C010E94780E4B01B12CA12C32
:100AD0004AE0C501B4010E946D04E80EF91EC5018B
:100AE000B4010E94A70E9B01AC01C301B2010E9498
:100AF0008D0D4B015C01DBCFC701CF911F910F9191
:100B0000FF90EF90DF90CF90BF90AF909F908F902D
:100B10007F906F905F904F900895CF92DF92EF9209
:100B2000FF920F931F93CF9381E080936F0286E330
:100B30008093910210927002109292026CE080E316
:100B400093E00E94170480E00E94D002C82F80E347
:100B500091E0C111D5C00E9413026B017C0180910C
:100B60006902811163C081E0809369028093680209
:100B70009FEF9093670210926602809365028093C4
:100B80004402809144028C66809344028091430227
:100B9000813009F08DC0109243020E9413026B0154
:100BA0007C01809144028093BB0080916B02909104
:100BB0006C02A0916D02B0916E02892B8A2B8B2B57
:100BC000A1F00E94130200916B0210916C0220911F
:100BD0006D0230916E026C197D098E099F0906170E
:100BE00017072807390708F442C08091BC0083FD2D
:100BF000D8CF85EC8093BC000E9413026B017C016E
:100C000080916902813009F455C08091660282307A
:100C100008F072C080916602A5E4B2E0E0E9F1E07C
:100C2000C81749F19D919193CF5FFACF80916B02E4
:100C300090916C02A0916D02B0916E02892B8A2B6B
:100C40008B2B09F48CCF0E94130200916B02109140
:100C50006C0220916D0230916E026C197D098E0933
:100C60009F09061717072807390708F078CF8091E2
:100C70006A020E94AF021092FE01C093FD01C230D1
:100C8000E8F180E393E00E94D003C82F80E393E073
:100C90000E94D00320E03C2FA901482BCA019F707D
:100CA000CF911F910F91FF90EF90DF90CF9008951B
:100CB00085EEA0CF80916B0290916C02A0916D02A5
:100CC000B0916E02892B8A2B8B2B09F499CF0E944D
:100CD000130200916B0210916C0220916D02309111
:100CE0006E026C197D098E099F09061717072807E0
:100CF000390708F085CFBBCF82E08ECF83E591E046
:100D00000E94600480E591E00E94600490E080E031
:100D1000C7CF85ED8093BC0080916B0290916C02EF
:100D2000A0916D02B0916E020796A11DB11D23E046
:100D3000B695A795979587952A95D1F72091BC00F0
:100D400024FD03C010926902089540916B025091F6
:100D50006C0260916D0270916E02452B462B472B01
:100D600069F30097A105B10541F02AE22A95F1F750
:100D700000C00197A109B109E1CF80916A020C94EA
:100D8000AF021F920F920FB60F9211242F933F9331
:100D90004F935F936F937F938F939F93AF93BF9383
:100DA000EF93FF9383E992E00E940701FF91EF9197
:100DB000BF91AF919F918F917F916F915F914F9173
:100DC0003F912F910F900FBE0F901F9018951F927B
:100DD0000F920FB60F9211242F938F939F93EF933F
:100DE000FF93E091A302F091A4028081E091A90217
:100DF000F091AA0282FD1BC090818091AC028F5FAE
:100E00008F732091AD02821741F0E091AC02F0E0C7
:100E1000ED56FD4F958F8093AC02FF91EF919F911E
:100E20008F912F910F900FBE0F901F90189580817A
:100E3000F4CF1F920F920FB60F9211242F933F936E
:100E40008F939F93AF93BF938091FF019091000286
:100E5000A0910102B09102023091F40123E0230F2E
:100E60002D3758F50196A11DB11D2093F4018093F3
:100E7000FF0190930002A0930102B09302028091BF
:100E8000F5019091F601A091F701B091F80101965A
:100E9000A11DB11D8093F5019093F601A093F70178
:100EA000B093F801BF91AF919F918F913F912F9196
:100EB0000F900FBE0F901F90189526E8230F0296F3
:100EC000A11DB11DD2CF1F920F920FB60F92112408
:100ED0002F933F934F935F936F937F938F939F9342
:100EE000AF93BF93EF93FF938091B900887F8036D3
:100EF00009F44AC0F0F5883209F4A7C018F580312A
:100F000009F49BC0B8F4882309F4F9C0883009F4C7
:100F100094C0FF91EF91BF91AF919F918F917F917D
:100F20006F915F914F913F912F910F900FBE0F9056
:100F30001F901895883109F488C0803251F780934A
:100F4000670214C0803409F49DC040F48033B9F3C3
:100F50008833F9F68093670285ECB0C0803509F4D8
:100F600085C0883509F496C0883499F60E948906B0
:100F7000D0CF883909F48CC038F5883729F050F47F
:100F8000883611F0803729F683E080936902109249
:100F9000F30157C0883809F47BC0803919F08038D4
:100FA00009F0B7CF8091F301803208F071C0E09171
:100FB000F30181E08E0F8093F3018091BB00F0E09C
:100FC000ED52FE4F80833DC0803B39F0E0F4803A23
:100FD00009F479C0883A09F09CCF84E080936902D3
:100FE0001092D2011092D101E091FB01F091FC012D
:100FF00009958091D10181110FC081E08093D101C9
:101000001092B10109C0803C09F4A6CF883C09F4D4
:10101000A3CF883B09F07DCFE091D20181E08E0F14
:101020008093D201F0E0EF54FE4F80818093BB00AB
:101030009091D2018091D10129C080914402809386
:10104000BB0085EC8093BC0064CF909166028091D8
:101050006502981758F5E091660281E08E0F809343
:101060006602F0E0EB5BFD4F8081E9CFE091660224
:1010700081E08E0F809366028091BB00F0E0EB5B15
:10108000FD4F808390916602809165029817C8F2A7
:1010900085E8D8CFE091660281E08E0F80936602EA
:1010A0008091BB00F0E0EB5BFD4F80838091680294
:1010B00081115CCF81E08093430284EA8093BC007D
:1010C0001092690226CF85EC8093BC0010926902D1
:1010D0008091F301803230F4E091F301F0E0ED52C1
:1010E000FE4F10826091F30170E0E091F901F09100
:1010F000FA0183ED91E009951092F3010ACF109265
:10110000670234CFE3E9F2E01382128288EE93E0C3
:10111000A0E0B0E084839583A683B78324E031E028
:101120003183208325EC30E03587248724EC30E0C0
:101130003787268720EC30E0318B208B21EC30E0A4
:10114000338B228B22EC30E0358B248B26EC30E085
:10115000378B268B118E128E138E148EE0E3F3E004
:101160001382128284839583A683B78386E191E0FC
:1011700091838083ECE3F3E0148615861686178648
:10118000148E158E168E178E14A615A616A617A6E3
:101190000895CF93DF93CDB7DEB76E970FB6F8946F
:1011A000DEBF0FBECDBF789484B5826084BD84B5A8
:1011B000816084BD85B5826085BD85B5816085BD52
:1011C00080916E00816080936E001092810080910A
:1011D0008100826080938100809181008160809392
:1011E0008100809180008160809380008091B100B7
:1011F00084608093B1008091B00081608093B000E2
:1012000080917A00846080937A0080917A00826075
:1012100080937A0080917A00816080937A00809137
:101220007A00806880937A001092C100E091A30256
:10123000F091A40282E08083E0919F02F091A002ED
:101240001082E091A102F091A20280E180831092CD
:10125000AB02E091A702F091A80286E08083E091C2
:10126000A502F091A602808180618083E091A502B1
:10127000F091A602808188608083E091A502F091C0
:10128000A602808180688083E091A502F091A60289
:1012900080818F7D808360E083E00E94E20161E0D5
:1012A00084E00E94E20161E085E00E94E20161E0E9
:1012B00086E00E94E20161E087E00E94E20161E0D5
:1012C00088E00E94E20161E089E00E94E20161E0C1
:1012D0008AE00E94E20161E08BE00E94E20160E0AE
:1012E0008CE00E94E20160E08DE00E94E201109239
:1012F000FE011092FD0110927002109292020E9463
:10130000910287E890E09093FC018093FB0188E8CC
:1013100090E09093FA018093F9013BE0C32E32E014
:10132000D32E0CE313E0F12CE12CC7010E944904F9
:101330006AE070E080E090E00E9438020E948D0533
:10134000BC0190E080E00E94A70ED8016D937D93D0
:101350008D939C9313972FB7F8948091FF019091F0
:101360000002A0910102B09102022FBFF801848314
:101370009583A683B7831086118612861386F6019D
:1013800010821182128213821482158216821782B1
:10139000BFEFEB1AFB0A005F1F4FE8E0CE0ED11C37
:1013A000F3E0EF16F10409F0C0CF83E998E1ACE86F
:1013B000B2E48093230290932402A0932502B09379
:1013C000260289ED9EECA7E4B2E480932702909375
:1013D0002802A0932902B0932A0280932B029093B3
:1013E0002C02A0932D02B0932E0203E212E0C12C36
:1013F000D12C76018BE791E00E9460044AE0C7019E
:10140000B6010E946D0485E891E00E946004D80155
:101410006D917D918D919D918D0142E00E94B1046D
:1014200080E591E00E946004BFEFCB1ADB0AEB0A73
:10143000FB0AE3E0CE16D104E104F104D9F62FB79C
:10144000F8948091FF0190910002A0910102B09167
:1014500002022FBF40913F02509140026091410231
:10146000709142028C019D01041B150B260B370B5A
:10147000B901A801403157426105710558F08093C8
:101480003F0290934002A0934102B093420221E0B8
:1014900020933E0280913E02882381F100913B021D
:1014A00010913C0280913D02811163C161E086E0B0
:1014B0000E94960161E087E00E94960161E070E081
:1014C00080E090E00E94380260E087E00E94960190
:1014D0000F5F1F4F10933C0200933B0280913B0231
:1014E00090913C02019781349E4040F080913D02F2
:1014F00041E0842780933D0210923E028FB7F8941A
:101500008090FF0190900002A0900102B090020232
:101510008FBF8091070290910802A0910902B091BB
:101520000A0295018401081B190B2A0B3B0BD901F8
:10153000C8018A359105A105B10580F180920702A5
:1015400090920802A0920902B0920A0288E0E8E8AC
:10155000F1E0DE01119601900D928A95E1F70CE31E
:1015600013E021E3F22EFE82CE0101960E94600478
:10157000D8011C966D917D918D919C911F9742E0B1
:101580000E94B104BCE2B983F394005F1F4FE4E30F
:10159000FE12E9CF80E591E00E9460048091030291
:1015A00090910402A0910502B09106029501840178
:1015B000081B190B2A0B3B0BD901C8010A97A1057F
:1015C000B10508F457C18092030290920402A092E0
:1015D0000502B09206020FE212E01E8B0D8B0CE3A7
:1015E00013E0312C212CC1010E9449040E948D0579
:1015F0007C01F80184819581A681B781A5019401C0
:10160000281B390B4A0B5B0BCA01B9010E94A70EBC
:1016100020E030E04AE754E40E94FF0D69877A87B2
:101620008B879C87B70190E080E00E94A70E20E0A6
:1016300030E040E859E30E945E0F6D877E878F8718
:10164000988BD801CD90DD90ED90FC909B01AC0182
:10165000C701B6010E948D0D2FE632E143E85AE33F
:101660000E94590F18166CF420E030E040E85FE368
:10167000C701B6010E948D0DF801608371838283DA
:101680009383D8011896CD90DD90ED90FC901B9738
:1016900029E73AE745EA5BE369857A858B859C858E
:1016A0000E94590F18160CF04AC0F80120813181B0
:1016B000428153816D857E858F8598890E948D0D2D
:1016C0002B013C0129853A854B855C850E94FF0DE5
:1016D000698B7A8B8B8B9C8B20E030E04CED52E455
:1016E0000E94FA0D87FF2BC029E23CE54FE85DE33D
:1016F000C301B2010E94590F18160CF5A7019601FB
:1017000069897A898B899C890E948D0D29853A8502
:101710004B855C850E94FF0D2B013C0120E030E0F1
:10172000A9010E94590F1816CCF520E030E04AEFCD
:1017300055E4C301B2010E94FA0D87FD39C020E0D3
:1017400030E0A901C701B6010E94590F20E030E046
:1017500040E85FE318161CF020E030E0A901C70163
:10176000B6010E948D0DF80160877187828793878B
:101770002AC060E086E00E94960161E087E00E9456
:10178000960161E070E080E090E00E94380260E045
:1017900087E00E949601015011099CCE20E030E0C4
:1017A0004AEF55ECC301B2010E94590F18163CF6DE
:1017B00029893A894B895C89D80118962D933D93E4
:1017C0004D935C931B97D8011896CD90DD90ED90CA
:1017D000FC901B9720E030E0A901C701B6010E94F0
:1017E000590F18160CF014C126E636E646E65FE3FC
:1017F000F80164857585868597850E945E0F2B01AB
:101800003C012DEC3CEC4CEC5DE3C701B6010E94C1
:101810005E0F9B01AC01C301B2010E948E0DD80185
:101820001C966D937D938D939C931F972D853E857C
:101830004F8558892D933D934D935C931397F801F1
:1018400084829582A682B782AD89BE8929853A8530
:101850004B855C852D933D934D935D93BE8BAD8BF6
:10186000BFEF2B1A3B0A005F1F4FE3E02E16310437
:1018700009F0B9CE0FE212E01E8B0D8B04EA10E0E6
:101880001A8709879BE0292E92E0392E03E212E0A5
:101890001A8B098B0CE313E01E870D8719E0AD89C5
:1018A000BE894D905D906D907D90BE8BAD8BE9892A
:1018B000FA896191719181919191FA8BE98BAD8552
:1018C000BE851C962D913D914D915C911F970E9474
:1018D0008D0D6B017C0123E333E343E350E40E946D
:1018E0005E0F6F8B788F898F9A8FA7019601C30146
:1018F000B2010E945E0FF10120813181428153814A
:101900000E948E0D4B015C012CE437E64AEB54E457
:101910000E94590F18160CF47FC0D1018D929D9230
:10192000AD92BC9213972CE437E64AEB54ECD1010C
:101930006D917D918D919C910E94FA0D87FF09C058
:101940008CE497E6AAEBB4ECF10180839183A28347
:10195000B3832BE734E14EE25EE3D1016D917D91DB
:101960008D919C910E945E0F6B8F7C8F8D8F9E8FCF
:10197000F1012481358146815781C701B6010E945A
:101980008D0D2DEC3CEC4CE45DEB0E945E0FA30151
:1019900092010E94FF0D4B015C01D1011496CD9282
:1019A000DD92ED92FC9217972B8D3C8D4D8D5E8DC7
:1019B0006F89788D898D9A8D0E948E0DA501940175
:1019C0000E948E0D6B017C0120E030E040E751E485
:1019D0000E94FA0D87FD2AC020E030E04FE753E473
:1019E000C701B6010E94590F181624F1C701B601AC
:1019F0000E94710E4B017B0161E0812F0E94E20188
:101A000081149104F1F460E0812F0E94960146C098
:101A100060E070E0CB0103CF8CE497E6AAEBB4E47E
:101A2000F10180839183A283B3837DCFC12CD12C1C
:101A30007601DCCFC12CD12C8FE7E82E83E4F82E81
:101A4000D5CFBFEF8B16910411F461E0DDCFE985AE
:101A5000FA853996E491E33009F445C048F4E13061
:101A6000C9F0E230D9F1E0E8EE16F10474F7CBCF1B
:101A7000E73009F442C0E83009F447C0E43099F790
:101A80008091800080628093800090928B00809291
:101A90008A0004C084B5806884BD87BC2D853E85DE
:101AA000205F3F4F3E872D8738E0230E311C1F5F9C
:101AB00049855A854F5F5F4F5A8749871C3009F027
:101AC000EECE80E090E0892B09F4B9CC0E94F300BF
:101AD000882309F4B4CC0E940000B1CC84B58062A4
:101AE00084BD88BCDBCF80918000806880938000BB
:101AF0009092890080928800D1CF8091B000806858
:101B00008093B0008092B300C9CF8091B000806212
:101B10008093B0008092B400C1CF5058BB27AA2751
:101B20000E94A50D0C941F0F0E94110F38F00E9407
:101B3000180F20F039F49F3F19F426F40C940E0F7F
:101B40000EF4E095E7FB0C94080FE92F0E94300F8C
:101B500058F3BA17620773078407950720F079F4E2
:101B6000A6F50C94520F0EF4E0950B2EBA2FA02D73
:101B70000B01B90190010C01CA01A0011124FF273A
:101B8000591B99F0593F50F4503E68F11A16F04035
:101B9000A22F232F342F4427585FF3CF4695379534
:101BA0002795A795F0405395C9F77EF41F16BA0BF9
:101BB000620B730B840BBAF09150A1F0FF0FBB1FA7
:101BC000661F771F881FC2F70EC0BA0F621F731FF0
:101BD000841F48F4879577956795B795F7959E3F4D
:101BE00008F0B0CF9395880F08F09927EE0F9795DE
:101BF000879508950E94E40E08F481E008950E94FC
:101C0000130E0C941F0F0E94180F58F00E94110F12
:101C100040F029F45F3F29F00C94080F51110C9407
:101C2000530F0C940E0F0E94300F68F39923B1F3F9
:101C3000552391F3951B550BBB27AA2762177307F2
:101C4000840738F09F5F5F4F220F331F441FAA1F86
:101C5000A9F335D00E2E3AF0E0E832D09150504042
:101C6000E695001CCAF72BD0FE2F29D0660F771FF0
:101C7000881FBB1F261737074807AB07B0E809F0D6
:101C8000BB0B802DBF01FF2793585F4F3AF09E3F5B
:101C9000510578F00C94080F0C94530F5F3FE4F358
:101CA000983ED4F3869577956795B795F7959F5F9E
:101CB000C9F7880F911D9695879597F90895E1E0EA
:101CC000660F771F881FBB1F621773078407BA0749
:101CD00020F0621B730B840BBA0BEE1F88F7E095A4
:101CE00008950E94780E6894B1110C94530F0895D2
:101CF0000E94380F88F09F5798F0B92F9927B75155
:101D0000B0F0E1F0660F771F881F991F1AF0BA959F
:101D1000C9F714C0B13091F00E94520FB1E008959C
:101D20000C94520F672F782F8827B85F39F0B93F8E
:101D3000CCF3869577956795B395D9F73EF4909552
:101D40008095709561957F4F8F4F9F4F0895E894D0
:101D500009C097FB3EF490958095709561957F4FF3
:101D60008F4F9F4F9923A9F0F92F96E9BB279395A1
:101D7000F695879577956795B795F111F8CFFAF4B1
:101D8000BB0F11F460FF1BC06F5F7F4F8F4F9F4FE2
:101D900016C0882311F096E911C0772321F09EE840
:101DA000872F762F05C0662371F096E8862F70E0A6
:101DB00060E02AF09A95660F771F881FDAF7880F80
:101DC0009695879597F90895990F0008550FAA0BD6
:101DD000E0E8FEEF16161706E807F907C0F012163E
:101DE0001306E407F50798F0621B730B840B950B41
:101DF00039F40A2661F0232B242B252B21F4089596
:101E00000A2609F4A140A6958FEF811D811D089532
:101E100097F99F6780E870E060E008959FEF80EC9D
:101E2000089500240A941616170618060906089540
:101E300000240A9412161306140605060895092EA6
:101E40000394000C11F4882352F0BB0F40F4BF2B15
:101E500011F460FF04C06F5F7F4F8F4F9F4F089555
:101E600057FD9058440F551F59F05F3F71F047954B
:101E7000880F97FB991F61F09F3F79F08795089530
:101E8000121613061406551FF2CF4695F1DF08C04F
:101E9000161617061806991FF1CF8695710561056C
:101EA00008940895E894BB2766277727CB0197F914
:101EB00008950E94E40E08F48FEF08950E94710FB8
:101EC0000C941F0F0E94110F38F00E94180F20F081
:101ED000952311F00C94080F0C940E0F11240C9400
:101EE000530F0E94300F70F3959FC1F3950F50E090
:101EF000551F629FF001729FBB27F00DB11D639FBC
:101F0000AA27F00DB11DAA1F649F6627B00DA11D61
:101F1000661F829F2227B00DA11D621F739FB00D07
:101F2000A11D621F839FA00D611D221F749F332777
:101F3000A00D611D231F849F600D211D822F762F10
:101F40006A2F11249F5750409AF0F1F088234AF0ED
:101F5000EE0FFF1FBB1F661F771F881F9150504059
:101F6000A9F79E3F510580F00C94080F0C94530F75
:101F70005F3FE4F3983ED4F3869577956795B795E0
:101F8000F795E7959F5FC1F7FE2B880F911D9695FA
:101F9000879597F908950E94E40E880B990B089590
:101FA000A1E21A2EAA1BBB1BFD010DC0AA1FBB1F5D
:101FB000EE1FFF1FA217B307E407F50720F0A21BCF
:101FC000B30BE40BF50B661F771F881F991F1A943C
:101FD00069F760957095809590959B01AC01BD0166
:101FE000CF010895EE0FFF1F0590F491E02D0994A5
:041FF000F894FFCF93
:101FF4000000000029018900B6007601E700C50051
:10200400D900000000001704EA034604C003E303F8
:10201400D003C1036E616E00696E66006F76660060
:102024004572726F7220636F6D6D756E6963617452
:10203400696E672077697468204153353630300003
:102044000D0A004661696C656420746F20726561D5
:102054006420656E6F7567682062797465732066A5
:10206400726F6D204153353630300074617267658C
:1020740074525053003A20003E20617667313A0092
:00000001FF
