:020000040000FA
:100000000C9462000C948A000C948A000C948A0070
:100010000C948A000C948A000C948A000C948A0038
:100020000C948A000C948A000C948A000C948A0028
:100030000C948A000C948A000C948A000C948A0018
:100040000C9409070C948A000C94D7060C94B10602
:100050000C948A000C948A000C948A000C948A00F8
:100060000C9453070C948A00000000002400270021
:100070002A0000000000250028002B0000000000DE
:1000800023002600290004040404040404040202DA
:100090000202020203030303030301020408102007
:1000A0004080010204081020010204081020000012
:1000B0000008000201000003040700000000000027
:1000C0000000720811241FBECFEFD8E0DEBFCDBF05
:1000D00011E0A0E0B1E0EAE5F1E202C005900D9286
:1000E000A43BB107D9F723E0A4EBB1E001C01D9216
:1000F000A838B207E1F710E0C2E6D0E004C02197CB
:10010000FE010E94A510C136D107C9F70E94C5089B
:100110000C94AB100C94000008950895AF92BF9218
:10012000CF92DF92EF92FF920F931F93CF93DF93C3
:100130006C017B018B01040F151FEB015E01AE18F2
:10014000BF08C017D10759F06991D601ED91FC9114
:100150000190F081E02DC6010995892B79F7C50141
:10016000DF91CF911F910F91FF90EF90DF90CF9093
:10017000BF90AF900895FC01538D448D252F30E042
:10018000842F90E0821B930B541710F0CF960895A4
:1001900001970895FC01918D828D981761F0A28DD1
:1001A000AE0FBF2FB11D5D968C91928D9F5F9F7397
:1001B000928F90E008958FEF9FEF0895FC01918D4D
:1001C000828D981731F0828DE80FF11D858D90E0BA
:1001D00008958FEF9FEF0895FC01918D228D892F57
:1001E00090E0805C9F4F821B91098F73992708953F
:1001F00083EA92E00E94EC0021E0892B09F420E0E0
:10020000822F089580E090E0892B29F00E94F80069
:1002100081110C9400000895FC01A48DA80FB92F42
:10022000B11DA35ABF4F2C91848D90E001968F731E
:100230009927848FA689B7892C93A089B1898C913D
:10024000837080648C93938D848D981306C002888C
:10025000F389E02D80818F7D80830895EF92FF9256
:100260000F931F93CF93DF93EC0181E0888F9B8DD9
:100270008C8D98131AC0E889F989808185FF15C093
:100280009FB7F894EE89FF896083E889F9898081B6
:100290008370806480839FBF81E090E0DF91CF9185
:1002A0001F910F91FF90EF900895F62E0B8D10E0A7
:1002B0000F5F1F4F0F731127E02E8C8D8E110CC016
:1002C0000FB607FCFACFE889F989808185FFF5CF61
:1002D000CE010E940C01F1CFEB8DEC0FFD2FF11D33
:1002E000E35AFF4FF0829FB7F8940B8FEA89FB899E
:1002F00080818062CFCFCF93DF93EC01888D8823FC
:10030000B9F0AA89BB89E889F9898C9185FD03C078
:10031000808186FD0DC00FB607FCF7CF8C9185FF5D
:10032000F2CF808185FFEDCFCE010E940C01E9CF95
:10033000DF91CF910895833081F028F4813099F0D6
:100340008230A9F008958730A9F08830C9F0843050
:10035000B1F4809180008F7D03C0809180008F7701
:1003600080938000089584B58F7784BD089584B507
:100370008F7DFBCF8091B0008F778093B000089580
:100380008091B0008F7DF9CF1F93CF93DF93282FFB
:1003900030E0F901E255FF4F8491F901E656FF4F35
:1003A000D491F901EA57FF4FC491CC23A9F0162F3D
:1003B00081110E949B01EC2FF0E0EE0FFF1FEE5821
:1003C000FF4FA591B4918FB7F894EC91111108C02B
:1003D000D095DE23DC938FBFDF91CF911F910895DD
:1003E000DE2BF8CFCF93DF9390E0FC01E656FF4F72
:1003F00024918A579F4FFC0184918823D1F090E08B
:10040000880F991FFC01E859FF4FA591B491FC0199
:10041000EE58FF4FC591D49161110EC09FB7F8946B
:100420008C91E22FE0958E238C932881E223E88340
:100430009FBFDF91CF9108958FB7F894EC91E22B95
:10044000EC938FBFF6CF3FB7F8948091190290914B
:100450001A02A0911B02B0911C0226B5A89B05C0F0
:100460002F3F19F00196A11DB11D3FBFBA2FA92F33
:10047000982F8827BC01CD01620F711D811D911D30
:1004800042E0660F771F881F991F4A95D1F708959C
:100490002091F501260F3327331F21323105ECF46B
:1004A00020917902FC0190E080E0243069F082E044
:1004B0000895A091F5012191AC014B525E4FA40F1C
:1004C000B52FB11D2C930196861798F38091F501F5
:1004D000680F6093F50180E0089581E0089510921F
:1004E000790281E0809378021092530261E082E108
:1004F0000E94C40161E083E10E94C401E9EBF0E0E5
:1005000080818E7F808380818D7F808388E480934B
:10051000B80085E48093BC000895CF93DF9391E009
:100520009093D4018823B9F0C091B800D091BA005B
:100530008091BC008A7B8093BC0060E082E10E94D5
:10054000C40160E083E10E94C4010E946F02D09365
:10055000BA00C093B800DF91CF9108958F929F9217
:10056000AF92BF92CF92DF92EF92FF920F931F93C1
:10057000CF93DF93D091A202D13208F0D7C0182FC9
:10058000C091A1020E9423026B017C01809179023B
:1005900081116BC082E080937902109378028FEF13
:1005A0008093770210927602D0937502A1E8B2E0B0
:1005B000E5E5F2E080E0D81391C0109254028091FA
:1005C0005402CC0FC82BC093540280915302813047
:1005D00009F088C0109253020E9423026B017C0133
:1005E000809154028093BB0080917B0290917C02A9
:1005F000A0917D02B0917E02892B8A2B8B2BA1F0DA
:100600000E94230200917B0210917C0220917D02C6
:1006100030917E026C197D098E099F090617170714
:100620002807390708F442C08091BC0083FDD8CF69
:1006300085EC8093BC000E9423026B017C018091B9
:100640007902823009F450C0809177028F3F09F41B
:100650006FC080917702803209F46CC0809177027C
:10066000803309F469C084E026C080917B029091B8
:100670007C02A0917D02B0917E02892B8A2B8B2B6C
:1006800009F484CF0E94230280907B0290907C0228
:10069000A0907D02B0907E026C197D098E099F09A1
:1006A00086169706A806B90608F070CF80917A02E0
:1006B0000E948D0285E0109280021092A202109298
:1006C0007F02DF91CF911F910F91FF90EF90DF900C
:1006D000CF90BF90AF909F908F9008959D919193F0
:1006E0008F5F69CF85EEA5CF80917B0290917C02D0
:1006F000A0917D02B0917E02892B8A2B8B2B09F46D
:100700009ECF0E94230200917B0210917C022091D7
:100710007D0230917E026C197D098E099F090617B2
:1007200017072807390708F08ACFC0CF81E0C3CF69
:1007300080E0C1CF82E0BFCF83E0BDCF0895E091DC
:10074000220280912102E81730F4F0E0EC54FE4FD1
:10075000808190E008958FEF9FEF0895909122029D
:10076000809121022FEF3FEF981748F4E92FF0E036
:10077000EC54FE4F208130E09F5F90932202C9012C
:1007800008958091210290912202891B990B08956E
:10079000CF92DF92EF92FF920F931F93CF93DF934D
:1007A0007C01CB018A0120917F02222389F0EB0199
:1007B0006B01C40ED51ECC15DD0569F06991D7011A
:1007C000ED91FC910190F081E02DC7010995F3CFE7
:1007D000642F0E944802C801DF91CF911F910F91B1
:1007E000FF90EF90DF90CF900895CF93DF931F920B
:1007F000CDB7DEB7698320917F022223F9F02091E3
:10080000A202203258F021E030E0FC013383228341
:1008100090E080E00F90DF91CF9108958091800269
:10082000E82FF0E0EF57FD4F998190838F5F809321
:1008300080028093A20281E090E0ECCF61E0CE01E3
:1008400001960E944802F7CF81E080937F0280E703
:100850008093A102109280021092A20261E080E4D3
:1008600093E00E94F50381E00C94AE0290E080E0FA
:100870000895FC0101900020E9F73197AF01481B72
:10088000590BBC0183EA92E00C948E008F929F92E8
:10089000AF92BF920F931F93CF93DF93CDB7DEB785
:1008A000A1970FB6F894DEBF0FBECDBF19A242309C
:1008B00008F44AE08E010F5D1F4F842E912CB12C5D
:1008C000A12CA50194010E948310E62FB901CA0151
:1008D000EA30F4F4E05DD801EE938D01232B242B54
:1008E000252B79F790E080E0109719F0CD010E9458
:1008F0003904A1960FB6F894DEBF0FBECDBFDF91CD
:10090000CF911F910F91BF90AF909F908F900895BE
:10091000E95CE1CFCF93DF930E943904EC0180E3DF
:1009200091E00E9439048C0F9D1FDF91CF910895B3
:100930004F925F926F927F928F929F92AF92BF92EF
:10094000CF92DF92EF92FF920F931F93CF936B01A1
:100950007C01742EAC019B010E947E10882399F0CB
:1009600083E391E0CF911F910F91FF90EF90DF9083
:10097000CF90BF90AF909F908F907F906F905F903F
:100980004F900C94390446015701E894B7F82FEFC3
:100990003FEF4FE75FE7C501B4010E947E10811170
:1009A0000DC02FEF3FEF4FE75FE7C501B4010E9495
:1009B000AD0E18161CF487E391E0D4CF2FEF3FEF74
:1009C0004FE75FE4C701B6010E940C1018161CF433
:1009D0008BE391E0C7CF2FEF3FEF4FE75FECC7010D
:1009E000B6010E94AD0E87FDF3CF20E030E0A901F3
:1009F000C701B6010E94AD0E10E000E087FF0AC0FB
:100A00006DE283EA92E00E942E018C01F7FAF094E5
:100A1000F7F8F094C0E060E070E080E09FE37C16BF
:100A200041F020E030E040E251E40E94B20ECF5F9E
:100A3000F6CFA70196010E94410E2B013C010E94B6
:100A40002B0F4B015C014AE00E9446047C01E00E42
:100A5000F11ECC23C1F1C501B4010E945A0F9B01C4
:100A6000AC01C301B2010E94400E4B015C016EE279
:100A700083EA92E00E942E01E80EF91EC15018F19F
:100A800020E030E040E251E4C501B4010E941110C1
:100A90002B013C010E942B0F4B01B12CA12C4AE0F1
:100AA000C501B4010E944604E80EF91EC501B40157
:100AB0000E945A0F9B01AC01C301B2010E94400E7B
:100AC0004B015C01DBCFC701CF911F910F91FF90CC
:100AD000EF90DF90CF90BF90AF909F908F907F90DE
:100AE0006F905F904F900895CF93DF9342E00E9404
:100AF0009804EC0180E391E00E9439048C0F9D1F63
:100B0000DF91CF910895CF92DF92EF92FF920F93F2
:100B10001F93CF9381E080937F0286E38093A102AD
:100B2000109280021092A2026CE080E493E00E9496
:100B3000F50380E00E94AE02C82F8111D7C00E9449
:100B400023026B017C0180917902811163C081E0F5
:100B500080937902809378029FEF909377021092AE
:100B600076028093750280935402809154028C66C1
:100B70008093540280915302813009F08DC010920D
:100B800053020E9423026B017C01809154028093E6
:100B9000BB0080917B0290917C02A0917D02B0917C
:100BA0007E02892B8A2B8B2BA1F00E9423020091BD
:100BB0007B0210917C0220917D0230917E026C19A3
:100BC0007D098E099F09061717072807390708F4BA
:100BD00042C08091BC0083FDD8CF85EC8093BC00DF
:100BE0000E9423026B017C0180917902813009F41B
:100BF00055C080917602823008F072C080917602F2
:100C0000A5E5B2E0E4EBF1E0C81749F19D919193BD
:100C1000CF5FFACF80917B0290917C02A0917D0200
:100C2000B0917E02892B8A2B8B2B09F48CCF0E94EA
:100C3000230200917B0210917C0220917D02309171
:100C40007E026C197D098E099F0906171707280770
:100C5000390708F078CF80917A020E948D021092B5
:100C60002202C0932102C230E8F180E493E00E94A6
:100C7000AE03C82F80E493E00E94AE0320E03C2F37
:100C8000A901482BCA019F70CF911F910F91FF902E
:100C9000EF90DF90CF90089585EEA0CF80917B02FA
:100CA00090917C02A0917D02B0917E02892B8A2BCB
:100CB0008B2B09F499CF0E94230200917B021091A3
:100CC0007C0220917D0230917E026C197D098E0993
:100CD0009F09061717072807390708F085CFBBCFEC
:100CE00082E08ECF8FE391E00E948A0490E080E062
:100CF000CBCF85ED8093BC0080917B0290917C02EC
:100D0000A0917D02B0917E020796A11DB11D23E046
:100D1000B695A795979587952A95D1F72091BC0010
:100D200024FD03C010927902089540917B025091F6
:100D30007C0260917D0270917E02452B462B472BF1
:100D400069F30097A105B10541F02AE22A95F1F770
:100D500000C00197A109B109E1CF80917A020C94FA
:100D60008D021F920F920FB60F9211242F933F9373
:100D70004F935F936F937F938F939F93AF93BF93A3
:100D8000EF93FF9383EA92E00E940C01FF91EF91B1
:100D9000BF91AF919F918F917F916F915F914F9193
:100DA0003F912F910F900FBE0F901F9018951F929B
:100DB0000F920FB60F9211242F938F939F93EF935F
:100DC000FF93E091B302F091B4028081E091B90207
:100DD000F091BA0282FD1BC090818091BC028F5FAE
:100DE0008F732091BD02821741F0E091BC02F0E0C8
:100DF000ED55FD4F958F8093BC02FF91EF919F9130
:100E00008F912F910F900FBE0F901F90189580819A
:100E1000F4CF1F920F920FB60F9211242F933F938E
:100E20008F939F93AF93BF9380912302909124025D
:100E3000A0912502B09126023091180223E0230FE1
:100E40002D3758F50196A11DB11D209318028093EE
:100E5000230290932402A0932502B093260280914E
:100E6000190290911A02A0911B02B0911C020196E6
:100E7000A11DB11D8093190290931A02A0931B0229
:100E8000B0931C02BF91AF919F918F913F912F9191
:100E90000F900FBE0F901F90189526E8230F029613
:100EA000A11DB11DD2CF1F920F920FB60F92112428
:100EB0002F933F934F935F936F937F938F939F9362
:100EC000AF93BF93EF93FF938091B900887F8036F3
:100ED00009F44AC0F0F5883209F4A7C018F580314A
:100EE00009F49BC0B8F4882309F4F9C0883009F4E8
:100EF00094C0FF91EF91BF91AF919F918F917F919E
:100F00006F915F914F913F912F910F900FBE0F9076
:100F10001F901895883109F488C0803251F780936A
:100F2000770214C0803409F49DC040F48033B9F3D3
:100F30008833F9F68093770285ECB0C0803509F4E8
:100F400085C0883509F496C0883499F60E947906E0
:100F5000D0CF883909F48CC038F5883729F050F49F
:100F6000883611F0803729F683E080937902109259
:100F7000170257C0883809F47BC0803919F08038CF
:100F800009F0B7CF80911702803208F071C0E0916C
:100F9000170281E08E0F809317028091BB00F0E072
:100FA000E950FE4F80833DC0803B39F0E0F4803A49
:100FB00009F479C0883A09F09CCF84E080937902E3
:100FC0001092F6011092F501E0911F02F0912002BB
:100FD00009958091F50181110FC081E08093F501A1
:100FE0001092D50109C0803C09F4A6CF883C09F4D1
:100FF000A3CF883B09F07DCFE091F60181E08E0F11
:101000008093F601F0E0EB52FE4F80818093BB00AD
:101010009091F6018091F50129C08091540280934E
:10102000BB0085EC8093BC0064CF909176028091E8
:101030007502981758F5E091760281E08E0F809343
:101040007602F0E0EB5AFD4F8081E9CFE091760225
:1010500081E08E0F809376028091BB00F0E0EB5A26
:10106000FD4F808390917602809175029817C8F2A7
:1010700085E8D8CFE091760281E08E0F80937602EA
:101080008091BB00F0E0EB5AFD4F808380917802A5
:1010900081115CCF81E08093530284EA8093BC008D
:1010A0001092790226CF85EC8093BC0010927902D1
:1010B00080911702803230F4E0911702F0E0E9509D
:1010C000FE4F10826091170270E0E0911D02F091D6
:1010D0001E0287EF91E00995109217020ACF109235
:1010E000770234CFE3EAF2E01382128288EE93E0D3
:1010F000A0E0B0E084839583A683B78320E131E04C
:101100003183208325EC30E03587248724EC30E0E0
:101110003787268720EC30E0318B208B21EC30E0C4
:10112000338B228B22EC30E0358B248B26EC30E0A5
:10113000378B268B118E128E138E148EE0E4F3E023
:101140001382128284839583A683B78382E291E01F
:1011500091838083ECE4F3E0148615861686178667
:10116000108A118A128A138A10A211A212A213A243
:1011700014A215A216A217A214AA15AA16AA17AA93
:1011800010AE11AE12AE13AE0895CF93DF93CDB76C
:10119000DEB72C970FB6F894DEBF0FBECDBF7894A4
:1011A00084B5826084BD84B5816084BD85B582606C
:1011B00085BD85B5816085BD80916E00816080931D
:1011C0006E00109281008091810082608093810086
:1011D0008091810081608093810080918000816096
:1011E000809380008091B10084608093B1008091F1
:1011F000B00081608093B00080917A008460809319
:101200007A0080917A00826080937A0080917A00DF
:10121000816080937A0080917A00806880937A0060
:101220001092C100E091B302F091B40282E0808399
:10123000E091AF02F091B0021082E091B102F09122
:10124000B20280E180831092BB02E091B702F0917C
:10125000B80286E08083E091B502F091B602808109
:1012600080618083E091B502F091B6028081886050
:101270008083E091B502F091B6028081806880831E
:10128000E091B502F091B60280818F7D808360E0AD
:1012900083E00E94F20161E084E00E94F20161E0DB
:1012A00085E00E94F20161E086E00E94F20161E0C7
:1012B00087E00E94F20161E088E00E94F20161E0B3
:1012C00089E00E94F20161E08AE00E94F20161E09F
:1012D0008BE00E94F20160E08CE00E94F20160E08D
:1012E0008DE00E94F20110922202109221021092CF
:1012F00080021092A2020E946F028CE890E090930C
:10130000200280931F028DE890E090931E0280934C
:101310001D020E9424040E9423026B017C016AE0EA
:10132000862E912CA12CB12C0E9423026C197D09D0
:101330008E099F09683E734081059105A8F321E05D
:10134000821A9108A108B10838EEC30E33E0D31E0B
:10135000E11CF11C81149104A104B10429F70E943D
:101360008305BC0190E080E00E945A0F60934C031B
:1013700070934D0380934E0390934F032FB7F894CF
:101380008091230290912402A0912502B09126021F
:101390002FBF8093500390935103A0935203B093B7
:1013A0005303109254031092550310925603109257
:1013B000570310922F0210923002109231021092B5
:1013C00032021092330210923402109235021092BF
:1013D00036028DED94E2AEE3B2E480930001909387
:1013E0000101A0930201B093030183E29BEDA1E010
:1013F000B2E48093040190930501A0930601B09399
:1014000007018093080190930901A0930A01B0930A
:101410000B0180E091E09A838983C12CD12C760165
:1014200087E691E00E9439044AE0C701B6010E94B4
:10143000460481E791E00E943904A981BA816D9147
:101440007D918D919D91BA83A9830E947405BFEF10
:10145000CB1ADB0AEB0AFB0AE3E0CE16D104E10467
:10146000F104F1F607EB10E059E8252E50E0352E97
:1014700083EA92E00E94EC00181619060CF0B5C041
:1014800083EA92E00E94CA006C01990FEE08FF08FF
:101490004AE0C701B601F7FE0DC06DE283EA92E0B3
:1014A0000E942E0166277727CB016C197D098E09D2
:1014B0009F094AE00E94460480E391E00E943904BB
:1014C000C701B6010E945C0F9B01AC010E94410E56
:1014D00020E030E040E850E40E9411106B017C01F4
:1014E00029EE36E241E751E40E94410E20E030E06F
:1014F00040E05FE30E9411104B015C0129EE36E2EF
:1015000041E751E4C701B6010E94400E20E030E0FF
:1015100040E05FE30E9411106B017C0120E030E0AD
:1015200040EA52E4C501B4010E940C10181654F4AC
:1015300084E791E00E948A04812C912C40EAA42E39
:1015400042E4B42E20E030E040EA52E4C701B601A4
:101550000E940C10181654F487E891E00E948A0447
:10156000C12CD12C30EAE32E32E4F32E809200011C
:1015700090920101A0920201B0920301C092040175
:10158000D0920501E0920601F0920701C092080195
:10159000D0920901E0920A01F0920B0120E0E22EC4
:1015A00021E0F22E812C912C540187E691E00E94DB
:1015B00039044AE0C501B4010E94460481E791E084
:1015C0000E943904D7016D917D918D919D917D018E
:1015D0000E947405BFEF8B1A9B0AAB0ABB0AE3E0BB
:1015E0008E169104A104B10401F78FB7F8942091ED
:1015F0002302309124024091250250912602298332
:101600003A834B835C838FBF80912B0290912C0295
:10161000A0912D02B0912E02281B390B4A0B5B0BB7
:10162000DA01C9014E97A105B105C0F189819A81FE
:10163000AB81BC8180932B0290932C02A0932D024E
:10164000B0932E028DE991E00E9439046091540319
:1016500070915503809156039091570342E00E9488
:10166000980487EA91E00E943904609158037091D0
:10167000590380915A0390915B0342E00E949804C1
:101680008DEA91E00E94390460915C0370915D03E2
:1016900080915E0390915F030E9474058091270200
:1016A00090912802A0912902B0912A0229813A81C1
:1016B0004B815C81281B390B4A0B5B0BDA01C9019A
:1016C0000A97A105B10508F475C189819A81AB819A
:1016D000BC818093270290932802A0932902B093A3
:1016E0002A020E9424040E9483057C0180915003F9
:1016F00090915103A0915203B091530329813A81F3
:101700004B815C81281B390B4A0B5B0BCA01B90169
:101710000E945A0F20E030E04AE754E40E94B20EE3
:101720006D837E838F839887B70190E080E00E946D
:101730005A0F20E030E040E859E30E941110698719
:101740007A878B879C87C0904C03D0904D03E090A4
:101750004E03F0904F039B01AC01C701B6010E94FC
:10176000400E2FE632E143E85AE30E940C101816AF
:1017700084F420E030E040E85FE3C701B6010E9456
:10178000400E60934C0370934D0380934E039093EF
:101790004F03C0905403D0905503E0905603F0904F
:1017A000570329E73AE745EA5BE36D817E818F8144
:1017B00098850E940C1018160CF049C020914C031B
:1017C00030914D0340914E0350914F0369857A85C6
:1017D0008B859C850E94400E2B013C012D813E8112
:1017E0004F8158850E94B20E4B015C0120E030E031
:1017F0004CED52E40E94AD0E87FF29C029E23CE582
:101800004FE85DE3C301B2010E940C101816FCF40E
:10181000A7019601C501B4010E94400E2D813E81B1
:101820004F8158850E94B20E2B013C0120E030E030
:10183000A9010E940C1018163CF520E030E04AEF98
:1018400055E4C301B2010E94AD0E87FD27C020E020
:1018500030E0A901C701B6010E940C1020E030E081
:10186000A901181624F420E030E040E85FE3C70146
:10187000B6010E94400E6093540370935503809309
:1018800056039093570312C020E030E04AEF55EC26
:10189000C301B2010E940C101816CCF680925403BA
:1018A00090925503A0925603B0925703C0905403F0
:1018B000D0905503E0905603F090570320E030E0BD
:1018C000A901C701B6010E940C1018160CF0BBC08C
:1018D00026E636E646E65FE36091580370915903C9
:1018E00080915A0390915B030E9411104B015C019F
:1018F0002DEC3CEC4CEC5DE3C701B6010E941110ED
:101900009B01AC01C501B4010E94410E6B017C0139
:10191000C0925803D0925903E0925A03F0925B03AD
:1019200024EA30E74DE75FE360915C0370915D036B
:1019300080915E0390915F030E9411104B015C0146
:101940002AE037ED43E25CE3C701B6010E941110C3
:101950009B01AC01C501B4010E94410E60935C0380
:1019600070935D0380935E0390935F0389859A85EE
:10197000AB85BC8580934C0390934D03A0934E039D
:10198000B0934F0329813A814B815C8120935003AE
:101990003093510340935203509353038D819E81A2
:1019A000AF81B8858093470290934802A093490283
:1019B000B0934A028090470290904802A09049025A
:1019C000B0904A0220915C0330915D0340915E0328
:1019D00050915F03609100017091010180910201BB
:1019E000909103010E94400E6B017C0120E030E0E9
:1019F00040EA51E40E94111069837A838B839C83AF
:101A0000A7019601C501B4010E94111020912F0277
:101A10003091300240913102509132020E94410EC9
:101A20002B013C012FEF35E049E758E40E940C10F0
:101A300018166CF040922F025092300260923102E0
:101A40007092320210C0C12CD12C760161CF8FEF81
:101A500095E0A9E7B8E480932F0290933002A09319
:101A60003102B09332022FEF35E049E758EC609134
:101A70002F027091300280913102909132020E94C7
:101A8000AD0E87FF0CC08FEF95E0A9E7B8EC80930F
:101A90002F0290933002A0933102B093320220E0E3
:101AA00030E0A90160912F027091300280913102E3
:101AB000909132020E9411106D837E838F839887EC
:101AC0002091330230913402409135025091360218
:101AD000C701B6010E94400E9B01AC010E94410E5D
:101AE000A50194010E94B20E2B013C01C092330269
:101AF000D0923402E0923502F09236022D813E817E
:101B00004F81588569817A818B819C810E94410E29
:101B1000A30192010E94410E6B017C0120E030E0A4
:101B200040E751E40E94AD0E87FD55C020E030E053
:101B30004FE753E4C701B6010E940C10181634F4A5
:101B4000C12CD12C9FE7E92E93E4F92EC701B601F1
:101B50000E94240F4B017B0161E089E00E94F201A9
:101B60008114910409F03BC060E089E00E94C40147
:101B7000E1EBF0E08491EDE9F0E0F490F101E49024
:101B8000EE2009F474C081110E949B01EE2DF0E05B
:101B9000EE0FFF1FE458FF4FA591B4918C91F822EE
:101BA00009F465C080E090E0A0EAB2E4809300010F
:101BB00090930101A0930201B093030120E030E073
:101BC000232B09F455CC0E94F800882309F450CC4B
:101BD0000E9400004DCCC12CD12C7601B7CF9FEFD5
:101BE0008916910411F461E0C0CFF801849183302B
:101BF00021F148F48130B9F08230D1F0F0E8EF16ED
:101C0000F1048CF7B1CF873011F1883041F1843085
:101C1000A9F78091800080628093800090928B0071
:101C200080928A00A5CF84B5806884BD87BCA0CF90
:101C300084B5806284BD88BC9BCF80918000806821
:101C400080938000909289008092880091CF80914B
:101C5000B00080688093B0008092B30089CF8091FB
:101C6000B00080628093B0008092B40081CF109267
:101C700000011092010110920201109203019ECF07
:101C80005058BB27AA270E94580E0C94D20F0E94CE
:101C9000C40F38F00E94CB0F20F039F49F3F19F4A5
:101CA00026F40C94C10F0EF4E095E7FB0C94BB0FE7
:101CB000E92F0E94E30F58F3BA17620773078407EE
:101CC000950720F079F4A6F50C9405100EF4E09534
:101CD0000B2EBA2FA02D0B01B90190010C01CA01E6
:101CE000A0011124FF27591B99F0593F50F4503E91
:101CF00068F11A16F040A22F232F342F4427585F83
:101D0000F3CF469537952795A795F0405395C9F79A
:101D10007EF41F16BA0B620B730B840BBAF0915052
:101D2000A1F0FF0FBB1F661F771F881FC2F70EC0F1
:101D3000BA0F621F731F841F48F4879577956795C4
:101D4000B795F7959E3F08F0B0CF9395880F08F0B0
:101D50009927EE0F9795879508950E94970F08F49D
:101D600081E008950E94C60E0C94D20F0E94CB0F02
:101D700058F00E94C40F40F029F45F3F29F00C9402
:101D8000BB0F51110C9406100C94C10F0E94E30F6D
:101D900068F39923B1F3552391F3951B550BBB279A
:101DA000AA2762177307840738F09F5F5F4F220FDF
:101DB000331F441FAA1FA9F335D00E2E3AF0E0E8D6
:101DC00032D091505040E695001CCAF72BD0FE2F20
:101DD00029D0660F771F881FBB1F261737074807B4
:101DE000AB07B0E809F0BB0B802DBF01FF2793586C
:101DF0005F4F3AF09E3F510578F00C94BB0F0C9466
:101E000006105F3FE4F3983ED4F386957795679587
:101E1000B795F7959F5FC9F7880F911D96958795A0
:101E200097F90895E1E0660F771F881FBB1F6217BF
:101E300073078407BA0720F0621B730B840BBA0B7D
:101E4000EE1F88F7E09508950E942B0F6894B1115A
:101E50000C94061008950E94EB0F88F09F5798F09D
:101E6000B92F9927B751B0F0E1F0660F771F881F9F
:101E7000991F1AF0BA95C9F714C0B13091F00E94B9
:101E80000510B1E008950C940510672F782F88276E
:101E9000B85F39F0B93FCCF3869577956795B395E0
:101EA000D9F73EF490958095709561957F4F8F4F4F
:101EB0009F4F0895E89409C097FB3EF49095809554
:101EC000709561957F4F8F4F9F4F9923A9F0F92F00
:101ED00096E9BB279395F695879577956795B7957E
:101EE000F111F8CFFAF4BB0F11F460FF1BC06F5F64
:101EF0007F4F8F4F9F4F16C0882311F096E911C076
:101F0000772321F09EE8872F762F05C0662371F096
:101F100096E8862F70E060E02AF09A95660F771FAA
:101F2000881FDAF7880F9695879597F90895990F86
:101F30000008550FAA0BE0E8FEEF16161706E80793
:101F4000F907C0F012161306E407F50798F0621BB4
:101F5000730B840B950B39F40A2661F0232B242B89
:101F6000252B21F408950A2609F4A140A6958FEFA8
:101F7000811D811D089597F99F6780E870E060E0FA
:101F800008959FEF80EC089500240A941616170612
:101F900018060906089500240A941216130614065A
:101FA00005060895092E0394000C11F4882352F0BD
:101FB000BB0F40F4BF2B11F460FF04C06F5F7F4F75
:101FC0008F4F9F4F089557FD9058440F551F59F05C
:101FD0005F3F71F04795880F97FB991F61F09F3F16
:101FE00079F087950895121613061406551FF2CF3F
:101FF0004695F1DF08C0161617061806991FF1CF8F
:1020000086957105610508940895E894BB276627B5
:102010007727CB0197F908950E94970F08F48FEF67
:1020200008950E9424100C94D20F0E94C40F38F01F
:102030000E94CB0F20F0952311F00C94BB0F0C9451
:10204000C10F11240C9406100E94E30F70F3959FAA
:10205000C1F3950F50E0551F629FF001729FBB279F
:10206000F00DB11D639FAA27F00DB11DAA1F649F3B
:102070006627B00DA11D661F829F2227B00DA11DEE
:10208000621F739FB00DA11D621F839FA00D611D74
:10209000221F749F3327A00D611D231F849F600D95
:1020A000211D822F762F6A2F11249F5750409AF0BE
:1020B000F1F088234AF0EE0FFF1FBB1F661F771F4A
:1020C000881F91505040A9F79E3F510580F00C9415
:1020D000BB0F0C9406105F3FE4F3983ED4F3869553
:1020E00077956795B795F795E7959F5FC1F7FE2BB5
:1020F000880F911D9695879597F908950E94970FDF
:10210000880B990B0895A1E21A2EAA1BBB1BFD0197
:102110000DC0AA1FBB1FEE1FFF1FA217B307E407C6
:10212000F50720F0A21BB30BE40BF50B661F771F1E
:10213000881F991F1A9469F76095709580959095FE
:102140009B01AC01BD01CF010895EE0FFF1F05906B
:10215000F491E02D0994F894FFCF00002042000094
:10216000204200002042000000002E018E00BB0033
:102170007B01EC00CA00DE0000000000F503C8038C
:1021800036049E03C103AE039F030D0A006E616E09
:1021900000696E66006F7666004661696C65642052
:1021A000746F207265616420656E6F756768206268
:1021B000797465732066726F6D2041533536303007
:1021C00000746172676574525053003A2000546F76
:1021D00070205250532061626F7665206D61782EB9
:1021E00000426F74746F6D205250532061626F769D
:1021F00065206D61782E003E4D6F746F725F313ACD
:0E220000002C6176673A002C617667323A0056
:107E0000112484B714BE81FFF0D085E080938100F7
:107E100082E08093C00088E18093C10086E0809377
:107E2000C20080E18093C4008EE0C9D0259A86E02C
:107E300020E33CEF91E0309385002093840096BBD3
:107E4000B09BFECF1D9AA8958150A9F7CC24DD24C4
:107E500088248394B5E0AB2EA1E19A2EF3E0BF2EE7
:107E6000A2D0813461F49FD0082FAFD0023811F036
:107E7000013811F484E001C083E08DD089C08234E0
:107E800011F484E103C0853419F485E0A6D080C0E4
:107E9000853579F488D0E82EFF2485D0082F10E0AE
:107EA000102F00270E291F29000F111F8ED06801E7
:107EB0006FC0863521F484E090D080E0DECF843638
:107EC00009F040C070D06FD0082F6DD080E0C81688
:107ED00080E7D80618F4F601B7BEE895C0E0D1E017
:107EE00062D089930C17E1F7F0E0CF16F0E7DF06D8
:107EF00018F0F601B7BEE89568D007B600FCFDCFD4
:107F0000A601A0E0B1E02C9130E011968C91119780
:107F100090E0982F8827822B932B1296FA010C0160
:107F200087BEE89511244E5F5F4FF1E0A038BF0790
:107F300051F7F601A7BEE89507B600FCFDCF97BE46
:107F4000E89526C08437B1F42ED02DD0F82E2BD052
:107F50003CD0F601EF2C8F010F5F1F4F84911BD097
:107F6000EA94F801C1F70894C11CD11CFA94CF0C13
:107F7000D11C0EC0853739F428D08EE10CD085E9AC
:107F80000AD08FE07ACF813511F488E018D01DD067
:107F900080E101D065CF982F8091C00085FFFCCF94
:107FA0009093C60008958091C00087FFFCCF809118
:107FB000C00084FD01C0A8958091C6000895E0E648
:107FC000F0E098E1908380830895EDDF803219F02E
:107FD00088E0F5DFFFCF84E1DECF1F93182FE3DFCA
:107FE0001150E9F7F2DF1F91089580E0E8DFEE27F6
:047FF000FF270994CA
:027FFE00040479
:00000001FF
